{
	"src/SBC.sol": {
		"StevensBananaCoin": {
			"abi": [
				{
					"inputs": [],
					"stateMutability": "nonpayable",
					"type": "constructor"
				},
				{
					"inputs": [
						{
							"internalType": "address",
							"name": "spender",
							"type": "address"
						},
						{
							"internalType": "uint256",
							"name": "allowance",
							"type": "uint256"
						},
						{
							"internalType": "uint256",
							"name": "needed",
							"type": "uint256"
						}
					],
					"name": "ERC20InsufficientAllowance",
					"type": "error"
				},
				{
					"inputs": [
						{
							"internalType": "address",
							"name": "sender",
							"type": "address"
						},
						{
							"internalType": "uint256",
							"name": "balance",
							"type": "uint256"
						},
						{
							"internalType": "uint256",
							"name": "needed",
							"type": "uint256"
						}
					],
					"name": "ERC20InsufficientBalance",
					"type": "error"
				},
				{
					"inputs": [
						{
							"internalType": "address",
							"name": "approver",
							"type": "address"
						}
					],
					"name": "ERC20InvalidApprover",
					"type": "error"
				},
				{
					"inputs": [
						{
							"internalType": "address",
							"name": "receiver",
							"type": "address"
						}
					],
					"name": "ERC20InvalidReceiver",
					"type": "error"
				},
				{
					"inputs": [
						{
							"internalType": "address",
							"name": "sender",
							"type": "address"
						}
					],
					"name": "ERC20InvalidSender",
					"type": "error"
				},
				{
					"inputs": [
						{
							"internalType": "address",
							"name": "spender",
							"type": "address"
						}
					],
					"name": "ERC20InvalidSpender",
					"type": "error"
				},
				{
					"inputs": [
						{
							"internalType": "address",
							"name": "owner",
							"type": "address"
						}
					],
					"name": "OwnableInvalidOwner",
					"type": "error"
				},
				{
					"inputs": [
						{
							"internalType": "address",
							"name": "account",
							"type": "address"
						}
					],
					"name": "OwnableUnauthorizedAccount",
					"type": "error"
				},
				{
					"anonymous": false,
					"inputs": [
						{
							"indexed": true,
							"internalType": "address",
							"name": "owner",
							"type": "address"
						},
						{
							"indexed": true,
							"internalType": "address",
							"name": "spender",
							"type": "address"
						},
						{
							"indexed": false,
							"internalType": "uint256",
							"name": "value",
							"type": "uint256"
						}
					],
					"name": "Approval",
					"type": "event"
				},
				{
					"anonymous": false,
					"inputs": [
						{
							"indexed": true,
							"internalType": "address",
							"name": "previousOwner",
							"type": "address"
						},
						{
							"indexed": true,
							"internalType": "address",
							"name": "newOwner",
							"type": "address"
						}
					],
					"name": "OwnershipTransferred",
					"type": "event"
				},
				{
					"anonymous": false,
					"inputs": [
						{
							"indexed": true,
							"internalType": "address",
							"name": "wallet",
							"type": "address"
						},
						{
							"indexed": false,
							"internalType": "string",
							"name": "name",
							"type": "string"
						},
						{
							"indexed": true,
							"internalType": "uint256",
							"name": "studentId",
							"type": "uint256"
						}
					],
					"name": "StudentAdded",
					"type": "event"
				},
				{
					"anonymous": false,
					"inputs": [
						{
							"indexed": true,
							"internalType": "uint256",
							"name": "studentId",
							"type": "uint256"
						},
						{
							"indexed": true,
							"internalType": "address",
							"name": "wallet",
							"type": "address"
						}
					],
					"name": "StudentRemoved",
					"type": "event"
				},
				{
					"anonymous": false,
					"inputs": [
						{
							"indexed": true,
							"internalType": "address",
							"name": "from",
							"type": "address"
						},
						{
							"indexed": false,
							"internalType": "uint256",
							"name": "amount",
							"type": "uint256"
						}
					],
					"name": "TokensBurned",
					"type": "event"
				},
				{
					"anonymous": false,
					"inputs": [
						{
							"indexed": true,
							"internalType": "address",
							"name": "to",
							"type": "address"
						},
						{
							"indexed": false,
							"internalType": "uint256",
							"name": "amount",
							"type": "uint256"
						}
					],
					"name": "TokensMinted",
					"type": "event"
				},
				{
					"anonymous": false,
					"inputs": [
						{
							"indexed": true,
							"internalType": "address",
							"name": "from",
							"type": "address"
						},
						{
							"indexed": true,
							"internalType": "address",
							"name": "to",
							"type": "address"
						},
						{
							"indexed": false,
							"internalType": "uint256",
							"name": "value",
							"type": "uint256"
						}
					],
					"name": "Transfer",
					"type": "event"
				},
				{
					"inputs": [
						{
							"internalType": "address",
							"name": "wallet",
							"type": "address"
						},
						{
							"internalType": "string",
							"name": "name",
							"type": "string"
						},
						{
							"internalType": "uint256",
							"name": "studentId",
							"type": "uint256"
						}
					],
					"name": "addStudent",
					"outputs": [],
					"stateMutability": "nonpayable",
					"type": "function"
				},
				{
					"inputs": [
						{
							"internalType": "uint256",
							"name": "",
							"type": "uint256"
						}
					],
					"name": "allStudentIds",
					"outputs": [
						{
							"internalType": "uint256",
							"name": "",
							"type": "uint256"
						}
					],
					"stateMutability": "view",
					"type": "function"
				},
				{
					"inputs": [
						{
							"internalType": "address",
							"name": "owner",
							"type": "address"
						},
						{
							"internalType": "address",
							"name": "spender",
							"type": "address"
						}
					],
					"name": "allowance",
					"outputs": [
						{
							"internalType": "uint256",
							"name": "",
							"type": "uint256"
						}
					],
					"stateMutability": "view",
					"type": "function"
				},
				{
					"inputs": [
						{
							"internalType": "address",
							"name": "spender",
							"type": "address"
						},
						{
							"internalType": "uint256",
							"name": "value",
							"type": "uint256"
						}
					],
					"name": "approve",
					"outputs": [
						{
							"internalType": "bool",
							"name": "",
							"type": "bool"
						}
					],
					"stateMutability": "nonpayable",
					"type": "function"
				},
				{
					"inputs": [
						{
							"internalType": "address",
							"name": "account",
							"type": "address"
						}
					],
					"name": "balanceOf",
					"outputs": [
						{
							"internalType": "uint256",
							"name": "",
							"type": "uint256"
						}
					],
					"stateMutability": "view",
					"type": "function"
				},
				{
					"inputs": [
						{
							"internalType": "address",
							"name": "from",
							"type": "address"
						},
						{
							"internalType": "uint256",
							"name": "amount",
							"type": "uint256"
						}
					],
					"name": "burn",
					"outputs": [],
					"stateMutability": "nonpayable",
					"type": "function"
				},
				{
					"inputs": [],
					"name": "decimals",
					"outputs": [
						{
							"internalType": "uint8",
							"name": "",
							"type": "uint8"
						}
					],
					"stateMutability": "view",
					"type": "function"
				},
				{
					"inputs": [],
					"name": "getAllStudents",
					"outputs": [
						{
							"components": [
								{
									"internalType": "string",
									"name": "name",
									"type": "string"
								},
								{
									"internalType": "uint256",
									"name": "studentId",
									"type": "uint256"
								},
								{
									"internalType": "bool",
									"name": "isWhitelisted",
									"type": "bool"
								},
								{
									"internalType": "address",
									"name": "wallet",
									"type": "address"
								}
							],
							"internalType": "struct StevensBananaCoin.Student[]",
							"name": "",
							"type": "tuple[]"
						}
					],
					"stateMutability": "view",
					"type": "function"
				},
				{
					"inputs": [
						{
							"internalType": "uint256",
							"name": "studentId",
							"type": "uint256"
						}
					],
					"name": "getStudentById",
					"outputs": [
						{
							"components": [
								{
									"internalType": "string",
									"name": "name",
									"type": "string"
								},
								{
									"internalType": "uint256",
									"name": "studentId",
									"type": "uint256"
								},
								{
									"internalType": "bool",
									"name": "isWhitelisted",
									"type": "bool"
								},
								{
									"internalType": "address",
									"name": "wallet",
									"type": "address"
								}
							],
							"internalType": "struct StevensBananaCoin.Student",
							"name": "",
							"type": "tuple"
						}
					],
					"stateMutability": "view",
					"type": "function"
				},
				{
					"inputs": [
						{
							"internalType": "uint256",
							"name": "",
							"type": "uint256"
						}
					],
					"name": "idToWallet",
					"outputs": [
						{
							"internalType": "address",
							"name": "",
							"type": "address"
						}
					],
					"stateMutability": "view",
					"type": "function"
				},
				{
					"inputs": [
						{
							"internalType": "address",
							"name": "to",
							"type": "address"
						},
						{
							"internalType": "uint256",
							"name": "amount",
							"type": "uint256"
						}
					],
					"name": "mint",
					"outputs": [],
					"stateMutability": "nonpayable",
					"type": "function"
				},
				{
					"inputs": [],
					"name": "name",
					"outputs": [
						{
							"internalType": "string",
							"name": "",
							"type": "string"
						}
					],
					"stateMutability": "view",
					"type": "function"
				},
				{
					"inputs": [],
					"name": "owner",
					"outputs": [
						{
							"internalType": "address",
							"name": "",
							"type": "address"
						}
					],
					"stateMutability": "view",
					"type": "function"
				},
				{
					"inputs": [
						{
							"internalType": "uint256",
							"name": "studentId",
							"type": "uint256"
						}
					],
					"name": "removeStudent",
					"outputs": [],
					"stateMutability": "nonpayable",
					"type": "function"
				},
				{
					"inputs": [],
					"name": "renounceOwnership",
					"outputs": [],
					"stateMutability": "nonpayable",
					"type": "function"
				},
				{
					"inputs": [
						{
							"internalType": "address",
							"name": "",
							"type": "address"
						}
					],
					"name": "students",
					"outputs": [
						{
							"internalType": "string",
							"name": "name",
							"type": "string"
						},
						{
							"internalType": "uint256",
							"name": "studentId",
							"type": "uint256"
						},
						{
							"internalType": "bool",
							"name": "isWhitelisted",
							"type": "bool"
						},
						{
							"internalType": "address",
							"name": "wallet",
							"type": "address"
						}
					],
					"stateMutability": "view",
					"type": "function"
				},
				{
					"inputs": [],
					"name": "symbol",
					"outputs": [
						{
							"internalType": "string",
							"name": "",
							"type": "string"
						}
					],
					"stateMutability": "view",
					"type": "function"
				},
				{
					"inputs": [],
					"name": "totalSupply",
					"outputs": [
						{
							"internalType": "uint256",
							"name": "",
							"type": "uint256"
						}
					],
					"stateMutability": "view",
					"type": "function"
				},
				{
					"inputs": [
						{
							"internalType": "address",
							"name": "to",
							"type": "address"
						},
						{
							"internalType": "uint256",
							"name": "value",
							"type": "uint256"
						}
					],
					"name": "transfer",
					"outputs": [
						{
							"internalType": "bool",
							"name": "",
							"type": "bool"
						}
					],
					"stateMutability": "nonpayable",
					"type": "function"
				},
				{
					"inputs": [
						{
							"internalType": "address",
							"name": "from",
							"type": "address"
						},
						{
							"internalType": "address",
							"name": "to",
							"type": "address"
						},
						{
							"internalType": "uint256",
							"name": "value",
							"type": "uint256"
						}
					],
					"name": "transferFrom",
					"outputs": [
						{
							"internalType": "bool",
							"name": "",
							"type": "bool"
						}
					],
					"stateMutability": "nonpayable",
					"type": "function"
				},
				{
					"inputs": [
						{
							"internalType": "address",
							"name": "newOwner",
							"type": "address"
						}
					],
					"name": "transferOwnership",
					"outputs": [],
					"stateMutability": "nonpayable",
					"type": "function"
				}
			],
			"devdoc": {
				"errors": {
					"ERC20InsufficientAllowance(address,uint256,uint256)": [
						{
							"details": "Indicates a failure with the `spender`’s `allowance`. Used in transfers.",
							"params": {
								"allowance": "Amount of tokens a `spender` is allowed to operate with.",
								"needed": "Minimum amount required to perform a transfer.",
								"spender": "Address that may be allowed to operate on tokens without being their owner."
							}
						}
					],
					"ERC20InsufficientBalance(address,uint256,uint256)": [
						{
							"details": "Indicates an error related to the current `balance` of a `sender`. Used in transfers.",
							"params": {
								"balance": "Current balance for the interacting account.",
								"needed": "Minimum amount required to perform a transfer.",
								"sender": "Address whose tokens are being transferred."
							}
						}
					],
					"ERC20InvalidApprover(address)": [
						{
							"details": "Indicates a failure with the `approver` of a token to be approved. Used in approvals.",
							"params": {
								"approver": "Address initiating an approval operation."
							}
						}
					],
					"ERC20InvalidReceiver(address)": [
						{
							"details": "Indicates a failure with the token `receiver`. Used in transfers.",
							"params": {
								"receiver": "Address to which tokens are being transferred."
							}
						}
					],
					"ERC20InvalidSender(address)": [
						{
							"details": "Indicates a failure with the token `sender`. Used in transfers.",
							"params": {
								"sender": "Address whose tokens are being transferred."
							}
						}
					],
					"ERC20InvalidSpender(address)": [
						{
							"details": "Indicates a failure with the `spender` to be approved. Used in approvals.",
							"params": {
								"spender": "Address that may be allowed to operate on tokens without being their owner."
							}
						}
					],
					"OwnableInvalidOwner(address)": [
						{
							"details": "The owner is not a valid owner account. (eg. `address(0)`)"
						}
					],
					"OwnableUnauthorizedAccount(address)": [
						{
							"details": "The caller account is not authorized to perform an operation."
						}
					]
				},
				"events": {
					"Approval(address,address,uint256)": {
						"details": "Emitted when the allowance of a `spender` for an `owner` is set by a call to {approve}. `value` is the new allowance."
					},
					"Transfer(address,address,uint256)": {
						"details": "Emitted when `value` tokens are moved from one account (`from`) to another (`to`). Note that `value` may be zero."
					}
				},
				"kind": "dev",
				"methods": {
					"allowance(address,address)": {
						"details": "Returns the remaining number of tokens that `spender` will be allowed to spend on behalf of `owner` through {transferFrom}. This is zero by default. This value changes when {approve} or {transferFrom} are called."
					},
					"approve(address,uint256)": {
						"details": "See {IERC20-approve}. NOTE: If `value` is the maximum `uint256`, the allowance is not updated on `transferFrom`. This is semantically equivalent to an infinite approval. Requirements: - `spender` cannot be the zero address."
					},
					"balanceOf(address)": {
						"details": "Returns the value of tokens owned by `account`."
					},
					"decimals()": {
						"details": "Returns the number of decimals used to get its user representation. For example, if `decimals` equals `2`, a balance of `505` tokens should be displayed to a user as `5.05` (`505 / 10 ** 2`). Tokens usually opt for a value of 18, imitating the relationship between Ether and Wei. This is the default value returned by this function, unless it's overridden. NOTE: This information is only used for _display_ purposes: it in no way affects any of the arithmetic of the contract, including {IERC20-balanceOf} and {IERC20-transfer}."
					},
					"name()": {
						"details": "Returns the name of the token."
					},
					"owner()": {
						"details": "Returns the address of the current owner."
					},
					"renounceOwnership()": {
						"details": "Leaves the contract without owner. It will not be possible to call `onlyOwner` functions. Can only be called by the current owner. NOTE: Renouncing ownership will leave the contract without an owner, thereby disabling any functionality that is only available to the owner."
					},
					"symbol()": {
						"details": "Returns the symbol of the token, usually a shorter version of the name."
					},
					"totalSupply()": {
						"details": "Returns the value of tokens in existence."
					},
					"transfer(address,uint256)": {
						"details": "See {IERC20-transfer}. Requirements: - `to` cannot be the zero address. - the caller must have a balance of at least `value`."
					},
					"transferFrom(address,address,uint256)": {
						"details": "See {IERC20-transferFrom}. Skips emitting an {Approval} event indicating an allowance update. This is not required by the ERC. See {xref-ERC20-_approve-address-address-uint256-bool-}[_approve]. NOTE: Does not update the allowance if the current allowance is the maximum `uint256`. Requirements: - `from` and `to` cannot be the zero address. - `from` must have a balance of at least `value`. - the caller must have allowance for ``from``'s tokens of at least `value`."
					},
					"transferOwnership(address)": {
						"details": "Transfers ownership of the contract to a new account (`newOwner`). Can only be called by the current owner."
					}
				},
				"version": 1
			},
			"evm": {
				"assembly": "    /* \"src/SBC.sol\":200:3894  contract StevensBananaCoin is ERC20, Ownable {... */\n  mstore(0x40, 0x80)\n    /* \"src/SBC.sol\":820:892  constructor() ERC20(\"Stevens Banana Coin\", \"SBC\") Ownable(msg.sender) {} */\n  callvalue\n  dup1\n  iszero\n  tag_1\n  jumpi\n  revert(0x00, 0x00)\ntag_1:\n  pop\n    /* \"src/SBC.sol\":878:888  msg.sender */\n  caller\n    /* \"lib/openzeppelin-contracts/contracts/token/ERC20/ERC20.sol\":1582:1695  constructor(string memory name_, string memory symbol_) {... */\n  mload(0x40)\n  dup1\n  0x40\n  add\n  0x40\n  mstore\n  dup1\n  0x13\n  dup2\n  mstore\n  0x20\n  add\n  0x53746576656e732042616e616e6120436f696e00000000000000000000000000\n  dup2\n  mstore\n  pop\n  mload(0x40)\n  dup1\n  0x40\n  add\n  0x40\n  mstore\n  dup1\n  0x03\n  dup2\n  mstore\n  0x20\n  add\n  0x5342430000000000000000000000000000000000000000000000000000000000\n  dup2\n  mstore\n  pop\n    /* \"lib/openzeppelin-contracts/contracts/token/ERC20/ERC20.sol\":1656:1661  name_ */\n  dup2\n    /* \"lib/openzeppelin-contracts/contracts/token/ERC20/ERC20.sol\":1648:1653  _name */\n  0x03\n    /* \"lib/openzeppelin-contracts/contracts/token/ERC20/ERC20.sol\":1648:1661  _name = name_ */\n  swap1\n  dup2\n  tag_6\n  swap2\n  swap1\n  tag_7\n  jump\t// in\ntag_6:\n  pop\n    /* \"lib/openzeppelin-contracts/contracts/token/ERC20/ERC20.sol\":1681:1688  symbol_ */\n  dup1\n    /* \"lib/openzeppelin-contracts/contracts/token/ERC20/ERC20.sol\":1671:1678  _symbol */\n  0x04\n    /* \"lib/openzeppelin-contracts/contracts/token/ERC20/ERC20.sol\":1671:1688  _symbol = symbol_ */\n  swap1\n  dup2\n  tag_8\n  swap2\n  swap1\n  tag_7\n  jump\t// in\ntag_8:\n  pop\n    /* \"lib/openzeppelin-contracts/contracts/token/ERC20/ERC20.sol\":1582:1695  constructor(string memory name_, string memory symbol_) {... */\n  pop\n  pop\n    /* \"lib/openzeppelin-contracts/contracts/access/Ownable.sol\":1297:1298  0 */\n  0x00\n    /* \"lib/openzeppelin-contracts/contracts/access/Ownable.sol\":1273:1299  initialOwner == address(0) */\n  0xffffffffffffffffffffffffffffffffffffffff\n  and\n    /* \"lib/openzeppelin-contracts/contracts/access/Ownable.sol\":1273:1285  initialOwner */\n  dup2\n    /* \"lib/openzeppelin-contracts/contracts/access/Ownable.sol\":1273:1299  initialOwner == address(0) */\n  0xffffffffffffffffffffffffffffffffffffffff\n  and\n  sub\n    /* \"lib/openzeppelin-contracts/contracts/access/Ownable.sol\":1269:1364  if (initialOwner == address(0)) {... */\n  tag_10\n  jumpi\n    /* \"lib/openzeppelin-contracts/contracts/access/Ownable.sol\":1350:1351  0 */\n  0x00\n    /* \"lib/openzeppelin-contracts/contracts/access/Ownable.sol\":1322:1353  OwnableInvalidOwner(address(0)) */\n  mload(0x40)\n  0x1e4fbdf700000000000000000000000000000000000000000000000000000000\n  dup2\n  mstore\n  0x04\n  add\n  tag_11\n  swap2\n  swap1\n  tag_12\n  jump\t// in\ntag_11:\n  mload(0x40)\n  dup1\n  swap2\n  sub\n  swap1\n  revert\n    /* \"lib/openzeppelin-contracts/contracts/access/Ownable.sol\":1269:1364  if (initialOwner == address(0)) {... */\ntag_10:\n    /* \"lib/openzeppelin-contracts/contracts/access/Ownable.sol\":1373:1405  _transferOwnership(initialOwner) */\n  tag_13\n    /* \"lib/openzeppelin-contracts/contracts/access/Ownable.sol\":1392:1404  initialOwner */\n  dup2\n    /* \"lib/openzeppelin-contracts/contracts/access/Ownable.sol\":1373:1391  _transferOwnership */\n  shl(0x20, tag_14)\n    /* \"lib/openzeppelin-contracts/contracts/access/Ownable.sol\":1373:1405  _transferOwnership(initialOwner) */\n  0x20\n  shr\n  jump\t// in\ntag_13:\n    /* \"lib/openzeppelin-contracts/contracts/access/Ownable.sol\":1225:1412  constructor(address initialOwner) {... */\n  pop\n    /* \"src/SBC.sol\":200:3894  contract StevensBananaCoin is ERC20, Ownable {... */\n  jump(tag_16)\n    /* \"lib/openzeppelin-contracts/contracts/access/Ownable.sol\":2912:3099  function _transferOwnership(address newOwner) internal virtual {... */\ntag_14:\n    /* \"lib/openzeppelin-contracts/contracts/access/Ownable.sol\":2985:3001  address oldOwner */\n  0x00\n    /* \"lib/openzeppelin-contracts/contracts/access/Ownable.sol\":3004:3010  _owner */\n  0x05\n  0x00\n  swap1\n  sload\n  swap1\n  0x0100\n  exp\n  swap1\n  div\n  0xffffffffffffffffffffffffffffffffffffffff\n  and\n    /* \"lib/openzeppelin-contracts/contracts/access/Ownable.sol\":2985:3010  address oldOwner = _owner */\n  swap1\n  pop\n    /* \"lib/openzeppelin-contracts/contracts/access/Ownable.sol\":3029:3037  newOwner */\n  dup2\n    /* \"lib/openzeppelin-contracts/contracts/access/Ownable.sol\":3020:3026  _owner */\n  0x05\n  0x00\n    /* \"lib/openzeppelin-contracts/contracts/access/Ownable.sol\":3020:3037  _owner = newOwner */\n  0x0100\n  exp\n  dup2\n  sload\n  dup2\n  0xffffffffffffffffffffffffffffffffffffffff\n  mul\n  not\n  and\n  swap1\n  dup4\n  0xffffffffffffffffffffffffffffffffffffffff\n  and\n  mul\n  or\n  swap1\n  sstore\n  pop\n    /* \"lib/openzeppelin-contracts/contracts/access/Ownable.sol\":3083:3091  newOwner */\n  dup2\n    /* \"lib/openzeppelin-contracts/contracts/access/Ownable.sol\":3052:3092  OwnershipTransferred(oldOwner, newOwner) */\n  0xffffffffffffffffffffffffffffffffffffffff\n  and\n    /* \"lib/openzeppelin-contracts/contracts/access/Ownable.sol\":3073:3081  oldOwner */\n  dup2\n    /* \"lib/openzeppelin-contracts/contracts/access/Ownable.sol\":3052:3092  OwnershipTransferred(oldOwner, newOwner) */\n  0xffffffffffffffffffffffffffffffffffffffff\n  and\n  0x8be0079c531659141344cd1fd0a4f28419497f9722a3daafe3b4186f6b6457e0\n  mload(0x40)\n  mload(0x40)\n  dup1\n  swap2\n  sub\n  swap1\n  log3\n    /* \"lib/openzeppelin-contracts/contracts/access/Ownable.sol\":2975:3099  {... */\n  pop\n    /* \"lib/openzeppelin-contracts/contracts/access/Ownable.sol\":2912:3099  function _transferOwnership(address newOwner) internal virtual {... */\n  pop\n  jump\t// out\n    /* \"#utility.yul\":7:106   */\ntag_18:\n    /* \"#utility.yul\":59:65   */\n  0x00\n    /* \"#utility.yul\":93:98   */\n  dup2\n    /* \"#utility.yul\":87:99   */\n  mload\n    /* \"#utility.yul\":77:99   */\n  swap1\n  pop\n    /* \"#utility.yul\":7:106   */\n  swap2\n  swap1\n  pop\n  jump\t// out\n    /* \"#utility.yul\":112:292   */\ntag_19:\n    /* \"#utility.yul\":160:237   */\n  0x4e487b7100000000000000000000000000000000000000000000000000000000\n    /* \"#utility.yul\":157:158   */\n  0x00\n    /* \"#utility.yul\":150:238   */\n  mstore\n    /* \"#utility.yul\":257:261   */\n  0x41\n    /* \"#utility.yul\":254:255   */\n  0x04\n    /* \"#utility.yul\":247:262   */\n  mstore\n    /* \"#utility.yul\":281:285   */\n  0x24\n    /* \"#utility.yul\":278:279   */\n  0x00\n    /* \"#utility.yul\":271:286   */\n  revert\n    /* \"#utility.yul\":298:478   */\ntag_20:\n    /* \"#utility.yul\":346:423   */\n  0x4e487b7100000000000000000000000000000000000000000000000000000000\n    /* \"#utility.yul\":343:344   */\n  0x00\n    /* \"#utility.yul\":336:424   */\n  mstore\n    /* \"#utility.yul\":443:447   */\n  0x22\n    /* \"#utility.yul\":440:441   */\n  0x04\n    /* \"#utility.yul\":433:448   */\n  mstore\n    /* \"#utility.yul\":467:471   */\n  0x24\n    /* \"#utility.yul\":464:465   */\n  0x00\n    /* \"#utility.yul\":457:472   */\n  revert\n    /* \"#utility.yul\":484:804   */\ntag_21:\n    /* \"#utility.yul\":528:534   */\n  0x00\n    /* \"#utility.yul\":565:566   */\n  0x02\n    /* \"#utility.yul\":559:563   */\n  dup3\n    /* \"#utility.yul\":555:567   */\n  div\n    /* \"#utility.yul\":545:567   */\n  swap1\n  pop\n    /* \"#utility.yul\":612:613   */\n  0x01\n    /* \"#utility.yul\":606:610   */\n  dup3\n    /* \"#utility.yul\":602:614   */\n  and\n    /* \"#utility.yul\":633:651   */\n  dup1\n    /* \"#utility.yul\":623:704   */\n  tag_46\n  jumpi\n    /* \"#utility.yul\":689:693   */\n  0x7f\n    /* \"#utility.yul\":681:687   */\n  dup3\n    /* \"#utility.yul\":677:694   */\n  and\n    /* \"#utility.yul\":667:694   */\n  swap2\n  pop\n    /* \"#utility.yul\":623:704   */\ntag_46:\n    /* \"#utility.yul\":751:753   */\n  0x20\n    /* \"#utility.yul\":743:749   */\n  dup3\n    /* \"#utility.yul\":740:754   */\n  lt\n    /* \"#utility.yul\":720:738   */\n  dup2\n    /* \"#utility.yul\":717:755   */\n  sub\n    /* \"#utility.yul\":714:798   */\n  tag_47\n  jumpi\n    /* \"#utility.yul\":770:788   */\n  tag_48\n  tag_20\n  jump\t// in\ntag_48:\n    /* \"#utility.yul\":714:798   */\ntag_47:\n    /* \"#utility.yul\":535:804   */\n  pop\n    /* \"#utility.yul\":484:804   */\n  swap2\n  swap1\n  pop\n  jump\t// out\n    /* \"#utility.yul\":810:951   */\ntag_22:\n    /* \"#utility.yul\":859:863   */\n  0x00\n    /* \"#utility.yul\":882:885   */\n  dup2\n    /* \"#utility.yul\":874:885   */\n  swap1\n  pop\n    /* \"#utility.yul\":905:908   */\n  dup2\n    /* \"#utility.yul\":902:903   */\n  0x00\n    /* \"#utility.yul\":895:909   */\n  mstore\n    /* \"#utility.yul\":939:943   */\n  0x20\n    /* \"#utility.yul\":936:937   */\n  0x00\n    /* \"#utility.yul\":926:944   */\n  keccak256\n    /* \"#utility.yul\":918:944   */\n  swap1\n  pop\n    /* \"#utility.yul\":810:951   */\n  swap2\n  swap1\n  pop\n  jump\t// out\n    /* \"#utility.yul\":957:1050   */\ntag_23:\n    /* \"#utility.yul\":994:1000   */\n  0x00\n    /* \"#utility.yul\":1041:1043   */\n  0x20\n    /* \"#utility.yul\":1036:1038   */\n  0x1f\n    /* \"#utility.yul\":1029:1034   */\n  dup4\n    /* \"#utility.yul\":1025:1039   */\n  add\n    /* \"#utility.yul\":1021:1044   */\n  div\n    /* \"#utility.yul\":1011:1044   */\n  swap1\n  pop\n    /* \"#utility.yul\":957:1050   */\n  swap2\n  swap1\n  pop\n  jump\t// out\n    /* \"#utility.yul\":1056:1163   */\ntag_24:\n    /* \"#utility.yul\":1100:1108   */\n  0x00\n    /* \"#utility.yul\":1150:1155   */\n  dup3\n    /* \"#utility.yul\":1144:1148   */\n  dup3\n    /* \"#utility.yul\":1140:1156   */\n  shl\n    /* \"#utility.yul\":1119:1156   */\n  swap1\n  pop\n    /* \"#utility.yul\":1056:1163   */\n  swap3\n  swap2\n  pop\n  pop\n  jump\t// out\n    /* \"#utility.yul\":1169:1562   */\ntag_25:\n    /* \"#utility.yul\":1238:1244   */\n  0x00\n    /* \"#utility.yul\":1288:1289   */\n  0x08\n    /* \"#utility.yul\":1276:1286   */\n  dup4\n    /* \"#utility.yul\":1272:1290   */\n  mul\n    /* \"#utility.yul\":1311:1408   */\n  tag_53\n    /* \"#utility.yul\":1341:1407   */\n  0xffffffffffffffffffffffffffffffffffffffffffffffffffffffffffffffff\n    /* \"#utility.yul\":1330:1339   */\n  dup3\n    /* \"#utility.yul\":1311:1408   */\n  tag_24\n  jump\t// in\ntag_53:\n    /* \"#utility.yul\":1429:1468   */\n  tag_54\n    /* \"#utility.yul\":1459:1467   */\n  dup7\n    /* \"#utility.yul\":1448:1457   */\n  dup4\n    /* \"#utility.yul\":1429:1468   */\n  tag_24\n  jump\t// in\ntag_54:\n    /* \"#utility.yul\":1417:1468   */\n  swap6\n  pop\n    /* \"#utility.yul\":1501:1505   */\n  dup1\n    /* \"#utility.yul\":1497:1506   */\n  not\n    /* \"#utility.yul\":1490:1495   */\n  dup5\n    /* \"#utility.yul\":1486:1507   */\n  and\n    /* \"#utility.yul\":1477:1507   */\n  swap4\n  pop\n    /* \"#utility.yul\":1550:1554   */\n  dup1\n    /* \"#utility.yul\":1540:1548   */\n  dup7\n    /* \"#utility.yul\":1536:1555   */\n  and\n    /* \"#utility.yul\":1529:1534   */\n  dup5\n    /* \"#utility.yul\":1526:1556   */\n  or\n    /* \"#utility.yul\":1516:1556   */\n  swap3\n  pop\n    /* \"#utility.yul\":1245:1562   */\n  pop\n  pop\n    /* \"#utility.yul\":1169:1562   */\n  swap4\n  swap3\n  pop\n  pop\n  pop\n  jump\t// out\n    /* \"#utility.yul\":1568:1645   */\ntag_26:\n    /* \"#utility.yul\":1605:1612   */\n  0x00\n    /* \"#utility.yul\":1634:1639   */\n  dup2\n    /* \"#utility.yul\":1623:1639   */\n  swap1\n  pop\n    /* \"#utility.yul\":1568:1645   */\n  swap2\n  swap1\n  pop\n  jump\t// out\n    /* \"#utility.yul\":1651:1711   */\ntag_27:\n    /* \"#utility.yul\":1679:1682   */\n  0x00\n    /* \"#utility.yul\":1700:1705   */\n  dup2\n    /* \"#utility.yul\":1693:1705   */\n  swap1\n  pop\n    /* \"#utility.yul\":1651:1711   */\n  swap2\n  swap1\n  pop\n  jump\t// out\n    /* \"#utility.yul\":1717:1859   */\ntag_28:\n    /* \"#utility.yul\":1767:1776   */\n  0x00\n    /* \"#utility.yul\":1800:1853   */\n  tag_58\n    /* \"#utility.yul\":1818:1852   */\n  tag_59\n    /* \"#utility.yul\":1827:1851   */\n  tag_60\n    /* \"#utility.yul\":1845:1850   */\n  dup5\n    /* \"#utility.yul\":1827:1851   */\n  tag_26\n  jump\t// in\ntag_60:\n    /* \"#utility.yul\":1818:1852   */\n  tag_27\n  jump\t// in\ntag_59:\n    /* \"#utility.yul\":1800:1853   */\n  tag_26\n  jump\t// in\ntag_58:\n    /* \"#utility.yul\":1787:1853   */\n  swap1\n  pop\n    /* \"#utility.yul\":1717:1859   */\n  swap2\n  swap1\n  pop\n  jump\t// out\n    /* \"#utility.yul\":1865:1940   */\ntag_29:\n    /* \"#utility.yul\":1908:1911   */\n  0x00\n    /* \"#utility.yul\":1929:1934   */\n  dup2\n    /* \"#utility.yul\":1922:1934   */\n  swap1\n  pop\n    /* \"#utility.yul\":1865:1940   */\n  swap2\n  swap1\n  pop\n  jump\t// out\n    /* \"#utility.yul\":1946:2215   */\ntag_30:\n    /* \"#utility.yul\":2056:2095   */\n  tag_63\n    /* \"#utility.yul\":2087:2094   */\n  dup4\n    /* \"#utility.yul\":2056:2095   */\n  tag_28\n  jump\t// in\ntag_63:\n    /* \"#utility.yul\":2117:2208   */\n  tag_64\n    /* \"#utility.yul\":2166:2207   */\n  tag_65\n    /* \"#utility.yul\":2190:2206   */\n  dup3\n    /* \"#utility.yul\":2166:2207   */\n  tag_29\n  jump\t// in\ntag_65:\n    /* \"#utility.yul\":2158:2164   */\n  dup5\n    /* \"#utility.yul\":2151:2155   */\n  dup5\n    /* \"#utility.yul\":2145:2156   */\n  sload\n    /* \"#utility.yul\":2117:2208   */\n  tag_25\n  jump\t// in\ntag_64:\n    /* \"#utility.yul\":2111:2115   */\n  dup3\n    /* \"#utility.yul\":2104:2209   */\n  sstore\n    /* \"#utility.yul\":2022:2215   */\n  pop\n    /* \"#utility.yul\":1946:2215   */\n  pop\n  pop\n  pop\n  jump\t// out\n    /* \"#utility.yul\":2221:2294   */\ntag_31:\n    /* \"#utility.yul\":2266:2269   */\n  0x00\n    /* \"#utility.yul\":2287:2288   */\n  0x00\n    /* \"#utility.yul\":2280:2288   */\n  swap1\n  pop\n    /* \"#utility.yul\":2221:2294   */\n  swap1\n  jump\t// out\n    /* \"#utility.yul\":2300:2489   */\ntag_32:\n    /* \"#utility.yul\":2377:2409   */\n  tag_68\n  tag_31\n  jump\t// in\ntag_68:\n    /* \"#utility.yul\":2418:2483   */\n  tag_69\n    /* \"#utility.yul\":2476:2482   */\n  dup2\n    /* \"#utility.yul\":2468:2474   */\n  dup5\n    /* \"#utility.yul\":2462:2466   */\n  dup5\n    /* \"#utility.yul\":2418:2483   */\n  tag_30\n  jump\t// in\ntag_69:\n    /* \"#utility.yul\":2353:2489   */\n  pop\n    /* \"#utility.yul\":2300:2489   */\n  pop\n  pop\n  jump\t// out\n    /* \"#utility.yul\":2495:2681   */\ntag_33:\n    /* \"#utility.yul\":2555:2675   */\ntag_71:\n    /* \"#utility.yul\":2572:2575   */\n  dup2\n    /* \"#utility.yul\":2565:2570   */\n  dup2\n    /* \"#utility.yul\":2562:2576   */\n  lt\n    /* \"#utility.yul\":2555:2675   */\n  iszero\n  tag_73\n  jumpi\n    /* \"#utility.yul\":2626:2665   */\n  tag_74\n    /* \"#utility.yul\":2663:2664   */\n  0x00\n    /* \"#utility.yul\":2656:2661   */\n  dup3\n    /* \"#utility.yul\":2626:2665   */\n  tag_32\n  jump\t// in\ntag_74:\n    /* \"#utility.yul\":2599:2600   */\n  0x01\n    /* \"#utility.yul\":2592:2597   */\n  dup2\n    /* \"#utility.yul\":2588:2601   */\n  add\n    /* \"#utility.yul\":2579:2601   */\n  swap1\n  pop\n    /* \"#utility.yul\":2555:2675   */\n  jump(tag_71)\ntag_73:\n    /* \"#utility.yul\":2495:2681   */\n  pop\n  pop\n  jump\t// out\n    /* \"#utility.yul\":2687:3230   */\ntag_34:\n    /* \"#utility.yul\":2788:2790   */\n  0x1f\n    /* \"#utility.yul\":2783:2786   */\n  dup3\n    /* \"#utility.yul\":2780:2791   */\n  gt\n    /* \"#utility.yul\":2777:3223   */\n  iszero\n  tag_76\n  jumpi\n    /* \"#utility.yul\":2822:2860   */\n  tag_77\n    /* \"#utility.yul\":2854:2859   */\n  dup2\n    /* \"#utility.yul\":2822:2860   */\n  tag_22\n  jump\t// in\ntag_77:\n    /* \"#utility.yul\":2906:2935   */\n  tag_78\n    /* \"#utility.yul\":2924:2934   */\n  dup5\n    /* \"#utility.yul\":2906:2935   */\n  tag_23\n  jump\t// in\ntag_78:\n    /* \"#utility.yul\":2896:2904   */\n  dup2\n    /* \"#utility.yul\":2892:2936   */\n  add\n    /* \"#utility.yul\":3089:3091   */\n  0x20\n    /* \"#utility.yul\":3077:3087   */\n  dup6\n    /* \"#utility.yul\":3074:3092   */\n  lt\n    /* \"#utility.yul\":3071:3120   */\n  iszero\n  tag_79\n  jumpi\n    /* \"#utility.yul\":3110:3118   */\n  dup2\n    /* \"#utility.yul\":3095:3118   */\n  swap1\n  pop\n    /* \"#utility.yul\":3071:3120   */\ntag_79:\n    /* \"#utility.yul\":3133:3213   */\n  tag_80\n    /* \"#utility.yul\":3189:3211   */\n  tag_81\n    /* \"#utility.yul\":3207:3210   */\n  dup6\n    /* \"#utility.yul\":3189:3211   */\n  tag_23\n  jump\t// in\ntag_81:\n    /* \"#utility.yul\":3179:3187   */\n  dup4\n    /* \"#utility.yul\":3175:3212   */\n  add\n    /* \"#utility.yul\":3162:3173   */\n  dup3\n    /* \"#utility.yul\":3133:3213   */\n  tag_33\n  jump\t// in\ntag_80:\n    /* \"#utility.yul\":2792:3223   */\n  pop\n  pop\n    /* \"#utility.yul\":2777:3223   */\ntag_76:\n    /* \"#utility.yul\":2687:3230   */\n  pop\n  pop\n  pop\n  jump\t// out\n    /* \"#utility.yul\":3236:3353   */\ntag_35:\n    /* \"#utility.yul\":3290:3298   */\n  0x00\n    /* \"#utility.yul\":3340:3345   */\n  dup3\n    /* \"#utility.yul\":3334:3338   */\n  dup3\n    /* \"#utility.yul\":3330:3346   */\n  shr\n    /* \"#utility.yul\":3309:3346   */\n  swap1\n  pop\n    /* \"#utility.yul\":3236:3353   */\n  swap3\n  swap2\n  pop\n  pop\n  jump\t// out\n    /* \"#utility.yul\":3359:3528   */\ntag_36:\n    /* \"#utility.yul\":3403:3409   */\n  0x00\n    /* \"#utility.yul\":3436:3487   */\n  tag_84\n    /* \"#utility.yul\":3484:3485   */\n  0x00\n    /* \"#utility.yul\":3480:3486   */\n  not\n    /* \"#utility.yul\":3472:3477   */\n  dup5\n    /* \"#utility.yul\":3469:3470   */\n  0x08\n    /* \"#utility.yul\":3465:3478   */\n  mul\n    /* \"#utility.yul\":3436:3487   */\n  tag_35\n  jump\t// in\ntag_84:\n    /* \"#utility.yul\":3432:3488   */\n  not\n    /* \"#utility.yul\":3517:3521   */\n  dup1\n    /* \"#utility.yul\":3511:3515   */\n  dup4\n    /* \"#utility.yul\":3507:3522   */\n  and\n    /* \"#utility.yul\":3497:3522   */\n  swap2\n  pop\n    /* \"#utility.yul\":3410:3528   */\n  pop\n    /* \"#utility.yul\":3359:3528   */\n  swap3\n  swap2\n  pop\n  pop\n  jump\t// out\n    /* \"#utility.yul\":3533:3828   */\ntag_37:\n    /* \"#utility.yul\":3609:3613   */\n  0x00\n    /* \"#utility.yul\":3755:3784   */\n  tag_86\n    /* \"#utility.yul\":3780:3783   */\n  dup4\n    /* \"#utility.yul\":3774:3778   */\n  dup4\n    /* \"#utility.yul\":3755:3784   */\n  tag_36\n  jump\t// in\ntag_86:\n    /* \"#utility.yul\":3747:3784   */\n  swap2\n  pop\n    /* \"#utility.yul\":3817:3820   */\n  dup3\n    /* \"#utility.yul\":3814:3815   */\n  0x02\n    /* \"#utility.yul\":3810:3821   */\n  mul\n    /* \"#utility.yul\":3804:3808   */\n  dup3\n    /* \"#utility.yul\":3801:3822   */\n  or\n    /* \"#utility.yul\":3793:3822   */\n  swap1\n  pop\n    /* \"#utility.yul\":3533:3828   */\n  swap3\n  swap2\n  pop\n  pop\n  jump\t// out\n    /* \"#utility.yul\":3833:5228   */\ntag_7:\n    /* \"#utility.yul\":3950:3987   */\n  tag_88\n    /* \"#utility.yul\":3983:3986   */\n  dup3\n    /* \"#utility.yul\":3950:3987   */\n  tag_18\n  jump\t// in\ntag_88:\n    /* \"#utility.yul\":4052:4070   */\n  0xffffffffffffffff\n    /* \"#utility.yul\":4044:4050   */\n  dup2\n    /* \"#utility.yul\":4041:4071   */\n  gt\n    /* \"#utility.yul\":4038:4094   */\n  iszero\n  tag_89\n  jumpi\n    /* \"#utility.yul\":4074:4092   */\n  tag_90\n  tag_19\n  jump\t// in\ntag_90:\n    /* \"#utility.yul\":4038:4094   */\ntag_89:\n    /* \"#utility.yul\":4118:4156   */\n  tag_91\n    /* \"#utility.yul\":4150:4154   */\n  dup3\n    /* \"#utility.yul\":4144:4155   */\n  sload\n    /* \"#utility.yul\":4118:4156   */\n  tag_21\n  jump\t// in\ntag_91:\n    /* \"#utility.yul\":4203:4270   */\n  tag_92\n    /* \"#utility.yul\":4263:4269   */\n  dup3\n    /* \"#utility.yul\":4255:4261   */\n  dup3\n    /* \"#utility.yul\":4249:4253   */\n  dup6\n    /* \"#utility.yul\":4203:4270   */\n  tag_34\n  jump\t// in\ntag_92:\n    /* \"#utility.yul\":4297:4298   */\n  0x00\n    /* \"#utility.yul\":4321:4325   */\n  0x20\n    /* \"#utility.yul\":4308:4325   */\n  swap1\n  pop\n    /* \"#utility.yul\":4353:4355   */\n  0x1f\n    /* \"#utility.yul\":4345:4351   */\n  dup4\n    /* \"#utility.yul\":4342:4356   */\n  gt\n    /* \"#utility.yul\":4370:4371   */\n  0x01\n    /* \"#utility.yul\":4365:4983   */\n  dup2\n  eq\n  tag_94\n  jumpi\n    /* \"#utility.yul\":5027:5028   */\n  0x00\n    /* \"#utility.yul\":5044:5050   */\n  dup5\n    /* \"#utility.yul\":5041:5118   */\n  iszero\n  tag_95\n  jumpi\n    /* \"#utility.yul\":5093:5102   */\n  dup3\n    /* \"#utility.yul\":5088:5091   */\n  dup8\n    /* \"#utility.yul\":5084:5103   */\n  add\n    /* \"#utility.yul\":5078:5104   */\n  mload\n    /* \"#utility.yul\":5069:5104   */\n  swap1\n  pop\n    /* \"#utility.yul\":5041:5118   */\ntag_95:\n    /* \"#utility.yul\":5144:5211   */\n  tag_96\n    /* \"#utility.yul\":5204:5210   */\n  dup6\n    /* \"#utility.yul\":5197:5202   */\n  dup3\n    /* \"#utility.yul\":5144:5211   */\n  tag_37\n  jump\t// in\ntag_96:\n    /* \"#utility.yul\":5138:5142   */\n  dup7\n    /* \"#utility.yul\":5131:5212   */\n  sstore\n    /* \"#utility.yul\":5000:5222   */\n  pop\n    /* \"#utility.yul\":4335:5222   */\n  jump(tag_93)\n    /* \"#utility.yul\":4365:4983   */\ntag_94:\n    /* \"#utility.yul\":4417:4421   */\n  0x1f\n    /* \"#utility.yul\":4413:4422   */\n  not\n    /* \"#utility.yul\":4405:4411   */\n  dup5\n    /* \"#utility.yul\":4401:4423   */\n  and\n    /* \"#utility.yul\":4451:4488   */\n  tag_97\n    /* \"#utility.yul\":4483:4487   */\n  dup7\n    /* \"#utility.yul\":4451:4488   */\n  tag_22\n  jump\t// in\ntag_97:\n    /* \"#utility.yul\":4510:4511   */\n  0x00\n    /* \"#utility.yul\":4524:4732   */\ntag_98:\n    /* \"#utility.yul\":4538:4545   */\n  dup3\n    /* \"#utility.yul\":4535:4536   */\n  dup2\n    /* \"#utility.yul\":4532:4546   */\n  lt\n    /* \"#utility.yul\":4524:4732   */\n  iszero\n  tag_100\n  jumpi\n    /* \"#utility.yul\":4617:4626   */\n  dup5\n    /* \"#utility.yul\":4612:4615   */\n  dup10\n    /* \"#utility.yul\":4608:4627   */\n  add\n    /* \"#utility.yul\":4602:4628   */\n  mload\n    /* \"#utility.yul\":4594:4600   */\n  dup3\n    /* \"#utility.yul\":4587:4629   */\n  sstore\n    /* \"#utility.yul\":4668:4669   */\n  0x01\n    /* \"#utility.yul\":4660:4666   */\n  dup3\n    /* \"#utility.yul\":4656:4670   */\n  add\n    /* \"#utility.yul\":4646:4670   */\n  swap2\n  pop\n    /* \"#utility.yul\":4715:4717   */\n  0x20\n    /* \"#utility.yul\":4704:4713   */\n  dup6\n    /* \"#utility.yul\":4700:4718   */\n  add\n    /* \"#utility.yul\":4687:4718   */\n  swap5\n  pop\n    /* \"#utility.yul\":4561:4565   */\n  0x20\n    /* \"#utility.yul\":4558:4559   */\n  dup2\n    /* \"#utility.yul\":4554:4566   */\n  add\n    /* \"#utility.yul\":4549:4566   */\n  swap1\n  pop\n    /* \"#utility.yul\":4524:4732   */\n  jump(tag_98)\ntag_100:\n    /* \"#utility.yul\":4760:4766   */\n  dup7\n    /* \"#utility.yul\":4751:4758   */\n  dup4\n    /* \"#utility.yul\":4748:4767   */\n  lt\n    /* \"#utility.yul\":4745:4924   */\n  iszero\n  tag_101\n  jumpi\n    /* \"#utility.yul\":4818:4827   */\n  dup5\n    /* \"#utility.yul\":4813:4816   */\n  dup10\n    /* \"#utility.yul\":4809:4828   */\n  add\n    /* \"#utility.yul\":4803:4829   */\n  mload\n    /* \"#utility.yul\":4861:4909   */\n  tag_102\n    /* \"#utility.yul\":4903:4907   */\n  0x1f\n    /* \"#utility.yul\":4895:4901   */\n  dup10\n    /* \"#utility.yul\":4891:4908   */\n  and\n    /* \"#utility.yul\":4880:4889   */\n  dup3\n    /* \"#utility.yul\":4861:4909   */\n  tag_36\n  jump\t// in\ntag_102:\n    /* \"#utility.yul\":4853:4859   */\n  dup4\n    /* \"#utility.yul\":4846:4910   */\n  sstore\n    /* \"#utility.yul\":4768:4924   */\n  pop\n    /* \"#utility.yul\":4745:4924   */\ntag_101:\n    /* \"#utility.yul\":4970:4971   */\n  0x01\n    /* \"#utility.yul\":4966:4967   */\n  0x02\n    /* \"#utility.yul\":4958:4964   */\n  dup9\n    /* \"#utility.yul\":4954:4968   */\n  mul\n    /* \"#utility.yul\":4950:4972   */\n  add\n    /* \"#utility.yul\":4944:4948   */\n  dup9\n    /* \"#utility.yul\":4937:4973   */\n  sstore\n    /* \"#utility.yul\":4372:4983   */\n  pop\n  pop\n  pop\n    /* \"#utility.yul\":4335:5222   */\ntag_93:\n  pop\n    /* \"#utility.yul\":3925:5228   */\n  pop\n  pop\n  pop\n    /* \"#utility.yul\":3833:5228   */\n  pop\n  pop\n  jump\t// out\n    /* \"#utility.yul\":5234:5360   */\ntag_38:\n    /* \"#utility.yul\":5271:5278   */\n  0x00\n    /* \"#utility.yul\":5311:5353   */\n  0xffffffffffffffffffffffffffffffffffffffff\n    /* \"#utility.yul\":5304:5309   */\n  dup3\n    /* \"#utility.yul\":5300:5354   */\n  and\n    /* \"#utility.yul\":5289:5354   */\n  swap1\n  pop\n    /* \"#utility.yul\":5234:5360   */\n  swap2\n  swap1\n  pop\n  jump\t// out\n    /* \"#utility.yul\":5366:5462   */\ntag_39:\n    /* \"#utility.yul\":5403:5410   */\n  0x00\n    /* \"#utility.yul\":5432:5456   */\n  tag_105\n    /* \"#utility.yul\":5450:5455   */\n  dup3\n    /* \"#utility.yul\":5432:5456   */\n  tag_38\n  jump\t// in\ntag_105:\n    /* \"#utility.yul\":5421:5456   */\n  swap1\n  pop\n    /* \"#utility.yul\":5366:5462   */\n  swap2\n  swap1\n  pop\n  jump\t// out\n    /* \"#utility.yul\":5468:5586   */\ntag_40:\n    /* \"#utility.yul\":5555:5579   */\n  tag_107\n    /* \"#utility.yul\":5573:5578   */\n  dup2\n    /* \"#utility.yul\":5555:5579   */\n  tag_39\n  jump\t// in\ntag_107:\n    /* \"#utility.yul\":5550:5553   */\n  dup3\n    /* \"#utility.yul\":5543:5580   */\n  mstore\n    /* \"#utility.yul\":5468:5586   */\n  pop\n  pop\n  jump\t// out\n    /* \"#utility.yul\":5592:5814   */\ntag_12:\n    /* \"#utility.yul\":5685:5689   */\n  0x00\n    /* \"#utility.yul\":5723:5725   */\n  0x20\n    /* \"#utility.yul\":5712:5721   */\n  dup3\n    /* \"#utility.yul\":5708:5726   */\n  add\n    /* \"#utility.yul\":5700:5726   */\n  swap1\n  pop\n    /* \"#utility.yul\":5736:5807   */\n  tag_109\n    /* \"#utility.yul\":5804:5805   */\n  0x00\n    /* \"#utility.yul\":5793:5802   */\n  dup4\n    /* \"#utility.yul\":5789:5806   */\n  add\n    /* \"#utility.yul\":5780:5786   */\n  dup5\n    /* \"#utility.yul\":5736:5807   */\n  tag_40\n  jump\t// in\ntag_109:\n    /* \"#utility.yul\":5592:5814   */\n  swap3\n  swap2\n  pop\n  pop\n  jump\t// out\n    /* \"src/SBC.sol\":200:3894  contract StevensBananaCoin is ERC20, Ownable {... */\ntag_16:\n  dataSize(sub_0)\n  dup1\n  dataOffset(sub_0)\n  0x00\n  codecopy\n  0x00\n  return\nstop\n\nsub_0: assembly {\n        /* \"src/SBC.sol\":200:3894  contract StevensBananaCoin is ERC20, Ownable {... */\n      mstore(0x40, 0x80)\n      callvalue\n      dup1\n      iszero\n      tag_1\n      jumpi\n      revert(0x00, 0x00)\n    tag_1:\n      pop\n      jumpi(tag_2, lt(calldatasize, 0x04))\n      shr(0xe0, calldataload(0x00))\n      dup1\n      0x8da5cb5b\n      gt\n      tag_24\n      jumpi\n      dup1\n      0xa9059cbb\n      gt\n      tag_25\n      jumpi\n      dup1\n      0xa9059cbb\n      eq\n      tag_18\n      jumpi\n      dup1\n      0xc8fb0793\n      eq\n      tag_19\n      jumpi\n      dup1\n      0xdd62ed3e\n      eq\n      tag_20\n      jumpi\n      dup1\n      0xe9e30927\n      eq\n      tag_21\n      jumpi\n      dup1\n      0xf041f73f\n      eq\n      tag_22\n      jumpi\n      dup1\n      0xf2fde38b\n      eq\n      tag_23\n      jumpi\n      jump(tag_2)\n    tag_25:\n      dup1\n      0x8da5cb5b\n      eq\n      tag_13\n      jumpi\n      dup1\n      0x95d89b41\n      eq\n      tag_14\n      jumpi\n      dup1\n      0x9dc29fac\n      eq\n      tag_15\n      jumpi\n      dup1\n      0xa6b46bbc\n      eq\n      tag_16\n      jumpi\n      dup1\n      0xa6c807a9\n      eq\n      tag_17\n      jumpi\n      jump(tag_2)\n    tag_24:\n      dup1\n      0x313ce567\n      gt\n      tag_26\n      jumpi\n      dup1\n      0x313ce567\n      eq\n      tag_8\n      jumpi\n      dup1\n      0x40c10f19\n      eq\n      tag_9\n      jumpi\n      dup1\n      0x6af83845\n      eq\n      tag_10\n      jumpi\n      dup1\n      0x70a08231\n      eq\n      tag_11\n      jumpi\n      dup1\n      0x715018a6\n      eq\n      tag_12\n      jumpi\n      jump(tag_2)\n    tag_26:\n      dup1\n      0x06fdde03\n      eq\n      tag_3\n      jumpi\n      dup1\n      0x095ea7b3\n      eq\n      tag_4\n      jumpi\n      dup1\n      0x0e808188\n      eq\n      tag_5\n      jumpi\n      dup1\n      0x18160ddd\n      eq\n      tag_6\n      jumpi\n      dup1\n      0x23b872dd\n      eq\n      tag_7\n      jumpi\n    tag_2:\n      revert(0x00, 0x00)\n        /* \"lib/openzeppelin-contracts/contracts/token/ERC20/ERC20.sol\":1760:1849  function name() public view virtual returns (string memory) {... */\n    tag_3:\n      tag_27\n      tag_28\n      jump\t// in\n    tag_27:\n      mload(0x40)\n      tag_29\n      swap2\n      swap1\n      tag_30\n      jump\t// in\n    tag_29:\n      mload(0x40)\n      dup1\n      swap2\n      sub\n      swap1\n      return\n        /* \"lib/openzeppelin-contracts/contracts/token/ERC20/ERC20.sol\":3902:4088  function approve(address spender, uint256 value) public virtual returns (bool) {... */\n    tag_4:\n      tag_31\n      0x04\n      dup1\n      calldatasize\n      sub\n      dup2\n      add\n      swap1\n      tag_32\n      swap2\n      swap1\n      tag_33\n      jump\t// in\n    tag_32:\n      tag_34\n      jump\t// in\n    tag_31:\n      mload(0x40)\n      tag_35\n      swap2\n      swap1\n      tag_36\n      jump\t// in\n    tag_35:\n      mload(0x40)\n      dup1\n      swap2\n      sub\n      swap1\n      return\n        /* \"src/SBC.sol\":481:511  uint256[] public allStudentIds */\n    tag_5:\n      tag_37\n      0x04\n      dup1\n      calldatasize\n      sub\n      dup2\n      add\n      swap1\n      tag_38\n      swap2\n      swap1\n      tag_39\n      jump\t// in\n    tag_38:\n      tag_40\n      jump\t// in\n    tag_37:\n      mload(0x40)\n      tag_41\n      swap2\n      swap1\n      tag_42\n      jump\t// in\n    tag_41:\n      mload(0x40)\n      dup1\n      swap2\n      sub\n      swap1\n      return\n        /* \"lib/openzeppelin-contracts/contracts/token/ERC20/ERC20.sol\":2803:2900  function totalSupply() public view virtual returns (uint256) {... */\n    tag_6:\n      tag_43\n      tag_44\n      jump\t// in\n    tag_43:\n      mload(0x40)\n      tag_45\n      swap2\n      swap1\n      tag_42\n      jump\t// in\n    tag_45:\n      mload(0x40)\n      dup1\n      swap2\n      sub\n      swap1\n      return\n        /* \"lib/openzeppelin-contracts/contracts/token/ERC20/ERC20.sol\":4680:4924  function transferFrom(address from, address to, uint256 value) public virtual returns (bool) {... */\n    tag_7:\n      tag_46\n      0x04\n      dup1\n      calldatasize\n      sub\n      dup2\n      add\n      swap1\n      tag_47\n      swap2\n      swap1\n      tag_48\n      jump\t// in\n    tag_47:\n      tag_49\n      jump\t// in\n    tag_46:\n      mload(0x40)\n      tag_50\n      swap2\n      swap1\n      tag_36\n      jump\t// in\n    tag_50:\n      mload(0x40)\n      dup1\n      swap2\n      sub\n      swap1\n      return\n        /* \"lib/openzeppelin-contracts/contracts/token/ERC20/ERC20.sol\":2688:2770  function decimals() public view virtual returns (uint8) {... */\n    tag_8:\n      tag_51\n      tag_52\n      jump\t// in\n    tag_51:\n      mload(0x40)\n      tag_53\n      swap2\n      swap1\n      tag_54\n      jump\t// in\n    tag_53:\n      mload(0x40)\n      dup1\n      swap2\n      sub\n      swap1\n      return\n        /* \"src/SBC.sol\":3165:3373  function mint(address to, uint256 amount) external onlyOwner {... */\n    tag_9:\n      tag_55\n      0x04\n      dup1\n      calldatasize\n      sub\n      dup2\n      add\n      swap1\n      tag_56\n      swap2\n      swap1\n      tag_33\n      jump\t// in\n    tag_56:\n      tag_57\n      jump\t// in\n    tag_55:\n      stop\n        /* \"src/SBC.sol\":1833:2435  function removeStudent(uint256 studentId) external onlyOwner {... */\n    tag_10:\n      tag_58\n      0x04\n      dup1\n      calldatasize\n      sub\n      dup2\n      add\n      swap1\n      tag_59\n      swap2\n      swap1\n      tag_39\n      jump\t// in\n    tag_59:\n      tag_60\n      jump\t// in\n    tag_58:\n      stop\n        /* \"lib/openzeppelin-contracts/contracts/token/ERC20/ERC20.sol\":2933:3049  function balanceOf(address account) public view virtual returns (uint256) {... */\n    tag_11:\n      tag_61\n      0x04\n      dup1\n      calldatasize\n      sub\n      dup2\n      add\n      swap1\n      tag_62\n      swap2\n      swap1\n      tag_63\n      jump\t// in\n    tag_62:\n      tag_64\n      jump\t// in\n    tag_61:\n      mload(0x40)\n      tag_65\n      swap2\n      swap1\n      tag_42\n      jump\t// in\n    tag_65:\n      mload(0x40)\n      dup1\n      swap2\n      sub\n      swap1\n      return\n        /* \"lib/openzeppelin-contracts/contracts/access/Ownable.sol\":2293:2394  function renounceOwnership() public virtual onlyOwner {... */\n    tag_12:\n      tag_66\n      tag_67\n      jump\t// in\n    tag_66:\n      stop\n        /* \"lib/openzeppelin-contracts/contracts/access/Ownable.sol\":1638:1723  function owner() public view virtual returns (address) {... */\n    tag_13:\n      tag_68\n      tag_69\n      jump\t// in\n    tag_68:\n      mload(0x40)\n      tag_70\n      swap2\n      swap1\n      tag_71\n      jump\t// in\n    tag_70:\n      mload(0x40)\n      dup1\n      swap2\n      sub\n      swap1\n      return\n        /* \"lib/openzeppelin-contracts/contracts/token/ERC20/ERC20.sol\":1962:2055  function symbol() public view virtual returns (string memory) {... */\n    tag_14:\n      tag_72\n      tag_73\n      jump\t// in\n    tag_72:\n      mload(0x40)\n      tag_74\n      swap2\n      swap1\n      tag_30\n      jump\t// in\n    tag_74:\n      mload(0x40)\n      dup1\n      swap2\n      sub\n      swap1\n      return\n        /* \"src/SBC.sol\":3379:3519  function burn(address from, uint256 amount) external onlyOwner {... */\n    tag_15:\n      tag_75\n      0x04\n      dup1\n      calldatasize\n      sub\n      dup2\n      add\n      swap1\n      tag_76\n      swap2\n      swap1\n      tag_33\n      jump\t// in\n    tag_76:\n      tag_77\n      jump\t// in\n    tag_75:\n      stop\n        /* \"src/SBC.sol\":429:474  mapping(uint256 => address) public idToWallet */\n    tag_16:\n      tag_78\n      0x04\n      dup1\n      calldatasize\n      sub\n      dup2\n      add\n      swap1\n      tag_79\n      swap2\n      swap1\n      tag_39\n      jump\t// in\n    tag_79:\n      tag_80\n      jump\t// in\n    tag_78:\n      mload(0x40)\n      tag_81\n      swap2\n      swap1\n      tag_71\n      jump\t// in\n    tag_81:\n      mload(0x40)\n      dup1\n      swap2\n      sub\n      swap1\n      return\n        /* \"src/SBC.sol\":380:423  mapping(address => Student) public students */\n    tag_17:\n      tag_82\n      0x04\n      dup1\n      calldatasize\n      sub\n      dup2\n      add\n      swap1\n      tag_83\n      swap2\n      swap1\n      tag_63\n      jump\t// in\n    tag_83:\n      tag_84\n      jump\t// in\n    tag_82:\n      mload(0x40)\n      tag_85\n      swap5\n      swap4\n      swap3\n      swap2\n      swap1\n      tag_86\n      jump\t// in\n    tag_85:\n      mload(0x40)\n      dup1\n      swap2\n      sub\n      swap1\n      return\n        /* \"lib/openzeppelin-contracts/contracts/token/ERC20/ERC20.sol\":3244:3422  function transfer(address to, uint256 value) public virtual returns (bool) {... */\n    tag_18:\n      tag_87\n      0x04\n      dup1\n      calldatasize\n      sub\n      dup2\n      add\n      swap1\n      tag_88\n      swap2\n      swap1\n      tag_33\n      jump\t// in\n    tag_88:\n      tag_89\n      jump\t// in\n    tag_87:\n      mload(0x40)\n      tag_90\n      swap2\n      swap1\n      tag_36\n      jump\t// in\n    tag_90:\n      mload(0x40)\n      dup1\n      swap2\n      sub\n      swap1\n      return\n        /* \"src/SBC.sol\":2441:2859  function getStudentById(uint256 studentId)... */\n    tag_19:\n      tag_91\n      0x04\n      dup1\n      calldatasize\n      sub\n      dup2\n      add\n      swap1\n      tag_92\n      swap2\n      swap1\n      tag_39\n      jump\t// in\n    tag_92:\n      tag_93\n      jump\t// in\n    tag_91:\n      mload(0x40)\n      tag_94\n      swap2\n      swap1\n      tag_95\n      jump\t// in\n    tag_94:\n      mload(0x40)\n      dup1\n      swap2\n      sub\n      swap1\n      return\n        /* \"lib/openzeppelin-contracts/contracts/token/ERC20/ERC20.sol\":3455:3595  function allowance(address owner, address spender) public view virtual returns (uint256) {... */\n    tag_20:\n      tag_96\n      0x04\n      dup1\n      calldatasize\n      sub\n      dup2\n      add\n      swap1\n      tag_97\n      swap2\n      swap1\n      tag_98\n      jump\t// in\n    tag_97:\n      tag_99\n      jump\t// in\n    tag_96:\n      mload(0x40)\n      tag_100\n      swap2\n      swap1\n      tag_42\n      jump\t// in\n    tag_100:\n      mload(0x40)\n      dup1\n      swap2\n      sub\n      swap1\n      return\n        /* \"src/SBC.sol\":2865:3159  function getAllStudents() external view returns (Student[] memory) {... */\n    tag_21:\n      tag_101\n      tag_102\n      jump\t// in\n    tag_101:\n      mload(0x40)\n      tag_103\n      swap2\n      swap1\n      tag_104\n      jump\t// in\n    tag_103:\n      mload(0x40)\n      dup1\n      swap2\n      sub\n      swap1\n      return\n        /* \"src/SBC.sol\":898:1826  function addStudent(... */\n    tag_22:\n      tag_105\n      0x04\n      dup1\n      calldatasize\n      sub\n      dup2\n      add\n      swap1\n      tag_106\n      swap2\n      swap1\n      tag_107\n      jump\t// in\n    tag_106:\n      tag_108\n      jump\t// in\n    tag_105:\n      stop\n        /* \"lib/openzeppelin-contracts/contracts/access/Ownable.sol\":2543:2758  function transferOwnership(address newOwner) public virtual onlyOwner {... */\n    tag_23:\n      tag_109\n      0x04\n      dup1\n      calldatasize\n      sub\n      dup2\n      add\n      swap1\n      tag_110\n      swap2\n      swap1\n      tag_63\n      jump\t// in\n    tag_110:\n      tag_111\n      jump\t// in\n    tag_109:\n      stop\n        /* \"lib/openzeppelin-contracts/contracts/token/ERC20/ERC20.sol\":1760:1849  function name() public view virtual returns (string memory) {... */\n    tag_28:\n        /* \"lib/openzeppelin-contracts/contracts/token/ERC20/ERC20.sol\":1805:1818  string memory */\n      0x60\n        /* \"lib/openzeppelin-contracts/contracts/token/ERC20/ERC20.sol\":1837:1842  _name */\n      0x03\n        /* \"lib/openzeppelin-contracts/contracts/token/ERC20/ERC20.sol\":1830:1842  return _name */\n      dup1\n      sload\n      tag_113\n      swap1\n      tag_114\n      jump\t// in\n    tag_113:\n      dup1\n      0x1f\n      add\n      0x20\n      dup1\n      swap2\n      div\n      mul\n      0x20\n      add\n      mload(0x40)\n      swap1\n      dup2\n      add\n      0x40\n      mstore\n      dup1\n      swap3\n      swap2\n      swap1\n      dup2\n      dup2\n      mstore\n      0x20\n      add\n      dup3\n      dup1\n      sload\n      tag_115\n      swap1\n      tag_114\n      jump\t// in\n    tag_115:\n      dup1\n      iszero\n      tag_116\n      jumpi\n      dup1\n      0x1f\n      lt\n      tag_117\n      jumpi\n      0x0100\n      dup1\n      dup4\n      sload\n      div\n      mul\n      dup4\n      mstore\n      swap2\n      0x20\n      add\n      swap2\n      jump(tag_116)\n    tag_117:\n      dup3\n      add\n      swap2\n      swap1\n      0x00\n      mstore\n      keccak256(0x00, 0x20)\n      swap1\n    tag_118:\n      dup2\n      sload\n      dup2\n      mstore\n      swap1\n      0x01\n      add\n      swap1\n      0x20\n      add\n      dup1\n      dup4\n      gt\n      tag_118\n      jumpi\n      dup3\n      swap1\n      sub\n      0x1f\n      and\n      dup3\n      add\n      swap2\n    tag_116:\n      pop\n      pop\n      pop\n      pop\n      pop\n      swap1\n      pop\n        /* \"lib/openzeppelin-contracts/contracts/token/ERC20/ERC20.sol\":1760:1849  function name() public view virtual returns (string memory) {... */\n      swap1\n      jump\t// out\n        /* \"lib/openzeppelin-contracts/contracts/token/ERC20/ERC20.sol\":3902:4088  function approve(address spender, uint256 value) public virtual returns (bool) {... */\n    tag_34:\n        /* \"lib/openzeppelin-contracts/contracts/token/ERC20/ERC20.sol\":3975:3979  bool */\n      0x00\n        /* \"lib/openzeppelin-contracts/contracts/token/ERC20/ERC20.sol\":3991:4004  address owner */\n      0x00\n        /* \"lib/openzeppelin-contracts/contracts/token/ERC20/ERC20.sol\":4007:4019  _msgSender() */\n      tag_120\n        /* \"lib/openzeppelin-contracts/contracts/token/ERC20/ERC20.sol\":4007:4017  _msgSender */\n      tag_121\n        /* \"lib/openzeppelin-contracts/contracts/token/ERC20/ERC20.sol\":4007:4019  _msgSender() */\n      jump\t// in\n    tag_120:\n        /* \"lib/openzeppelin-contracts/contracts/token/ERC20/ERC20.sol\":3991:4019  address owner = _msgSender() */\n      swap1\n      pop\n        /* \"lib/openzeppelin-contracts/contracts/token/ERC20/ERC20.sol\":4029:4060  _approve(owner, spender, value) */\n      tag_122\n        /* \"lib/openzeppelin-contracts/contracts/token/ERC20/ERC20.sol\":4038:4043  owner */\n      dup2\n        /* \"lib/openzeppelin-contracts/contracts/token/ERC20/ERC20.sol\":4045:4052  spender */\n      dup6\n        /* \"lib/openzeppelin-contracts/contracts/token/ERC20/ERC20.sol\":4054:4059  value */\n      dup6\n        /* \"lib/openzeppelin-contracts/contracts/token/ERC20/ERC20.sol\":4029:4037  _approve */\n      tag_123\n        /* \"lib/openzeppelin-contracts/contracts/token/ERC20/ERC20.sol\":4029:4060  _approve(owner, spender, value) */\n      jump\t// in\n    tag_122:\n        /* \"lib/openzeppelin-contracts/contracts/token/ERC20/ERC20.sol\":4077:4081  true */\n      0x01\n        /* \"lib/openzeppelin-contracts/contracts/token/ERC20/ERC20.sol\":4070:4081  return true */\n      swap2\n      pop\n      pop\n        /* \"lib/openzeppelin-contracts/contracts/token/ERC20/ERC20.sol\":3902:4088  function approve(address spender, uint256 value) public virtual returns (bool) {... */\n      swap3\n      swap2\n      pop\n      pop\n      jump\t// out\n        /* \"src/SBC.sol\":481:511  uint256[] public allStudentIds */\n    tag_40:\n      0x08\n      dup2\n      dup2\n      sload\n      dup2\n      lt\n      tag_124\n      jumpi\n      0x00\n      dup1\n      revert\n    tag_124:\n      swap1\n      0x00\n      mstore\n      keccak256(0x00, 0x20)\n      add\n      0x00\n      swap2\n      pop\n      swap1\n      pop\n      sload\n      dup2\n      jump\t// out\n        /* \"lib/openzeppelin-contracts/contracts/token/ERC20/ERC20.sol\":2803:2900  function totalSupply() public view virtual returns (uint256) {... */\n    tag_44:\n        /* \"lib/openzeppelin-contracts/contracts/token/ERC20/ERC20.sol\":2855:2862  uint256 */\n      0x00\n        /* \"lib/openzeppelin-contracts/contracts/token/ERC20/ERC20.sol\":2881:2893  _totalSupply */\n      sload(0x02)\n        /* \"lib/openzeppelin-contracts/contracts/token/ERC20/ERC20.sol\":2874:2893  return _totalSupply */\n      swap1\n      pop\n        /* \"lib/openzeppelin-contracts/contracts/token/ERC20/ERC20.sol\":2803:2900  function totalSupply() public view virtual returns (uint256) {... */\n      swap1\n      jump\t// out\n        /* \"lib/openzeppelin-contracts/contracts/token/ERC20/ERC20.sol\":4680:4924  function transferFrom(address from, address to, uint256 value) public virtual returns (bool) {... */\n    tag_49:\n        /* \"lib/openzeppelin-contracts/contracts/token/ERC20/ERC20.sol\":4767:4771  bool */\n      0x00\n        /* \"lib/openzeppelin-contracts/contracts/token/ERC20/ERC20.sol\":4783:4798  address spender */\n      0x00\n        /* \"lib/openzeppelin-contracts/contracts/token/ERC20/ERC20.sol\":4801:4813  _msgSender() */\n      tag_128\n        /* \"lib/openzeppelin-contracts/contracts/token/ERC20/ERC20.sol\":4801:4811  _msgSender */\n      tag_121\n        /* \"lib/openzeppelin-contracts/contracts/token/ERC20/ERC20.sol\":4801:4813  _msgSender() */\n      jump\t// in\n    tag_128:\n        /* \"lib/openzeppelin-contracts/contracts/token/ERC20/ERC20.sol\":4783:4813  address spender = _msgSender() */\n      swap1\n      pop\n        /* \"lib/openzeppelin-contracts/contracts/token/ERC20/ERC20.sol\":4823:4860  _spendAllowance(from, spender, value) */\n      tag_129\n        /* \"lib/openzeppelin-contracts/contracts/token/ERC20/ERC20.sol\":4839:4843  from */\n      dup6\n        /* \"lib/openzeppelin-contracts/contracts/token/ERC20/ERC20.sol\":4845:4852  spender */\n      dup3\n        /* \"lib/openzeppelin-contracts/contracts/token/ERC20/ERC20.sol\":4854:4859  value */\n      dup6\n        /* \"lib/openzeppelin-contracts/contracts/token/ERC20/ERC20.sol\":4823:4838  _spendAllowance */\n      tag_130\n        /* \"lib/openzeppelin-contracts/contracts/token/ERC20/ERC20.sol\":4823:4860  _spendAllowance(from, spender, value) */\n      jump\t// in\n    tag_129:\n        /* \"lib/openzeppelin-contracts/contracts/token/ERC20/ERC20.sol\":4870:4896  _transfer(from, to, value) */\n      tag_131\n        /* \"lib/openzeppelin-contracts/contracts/token/ERC20/ERC20.sol\":4880:4884  from */\n      dup6\n        /* \"lib/openzeppelin-contracts/contracts/token/ERC20/ERC20.sol\":4886:4888  to */\n      dup6\n        /* \"lib/openzeppelin-contracts/contracts/token/ERC20/ERC20.sol\":4890:4895  value */\n      dup6\n        /* \"lib/openzeppelin-contracts/contracts/token/ERC20/ERC20.sol\":4870:4879  _transfer */\n      tag_132\n        /* \"lib/openzeppelin-contracts/contracts/token/ERC20/ERC20.sol\":4870:4896  _transfer(from, to, value) */\n      jump\t// in\n    tag_131:\n        /* \"lib/openzeppelin-contracts/contracts/token/ERC20/ERC20.sol\":4913:4917  true */\n      0x01\n        /* \"lib/openzeppelin-contracts/contracts/token/ERC20/ERC20.sol\":4906:4917  return true */\n      swap2\n      pop\n      pop\n        /* \"lib/openzeppelin-contracts/contracts/token/ERC20/ERC20.sol\":4680:4924  function transferFrom(address from, address to, uint256 value) public virtual returns (bool) {... */\n      swap4\n      swap3\n      pop\n      pop\n      pop\n      jump\t// out\n        /* \"lib/openzeppelin-contracts/contracts/token/ERC20/ERC20.sol\":2688:2770  function decimals() public view virtual returns (uint8) {... */\n    tag_52:\n        /* \"lib/openzeppelin-contracts/contracts/token/ERC20/ERC20.sol\":2737:2742  uint8 */\n      0x00\n        /* \"lib/openzeppelin-contracts/contracts/token/ERC20/ERC20.sol\":2761:2763  18 */\n      0x12\n        /* \"lib/openzeppelin-contracts/contracts/token/ERC20/ERC20.sol\":2754:2763  return 18 */\n      swap1\n      pop\n        /* \"lib/openzeppelin-contracts/contracts/token/ERC20/ERC20.sol\":2688:2770  function decimals() public view virtual returns (uint8) {... */\n      swap1\n      jump\t// out\n        /* \"src/SBC.sol\":3165:3373  function mint(address to, uint256 amount) external onlyOwner {... */\n    tag_57:\n        /* \"lib/openzeppelin-contracts/contracts/access/Ownable.sol\":1531:1544  _checkOwner() */\n      tag_135\n        /* \"lib/openzeppelin-contracts/contracts/access/Ownable.sol\":1531:1542  _checkOwner */\n      tag_136\n        /* \"lib/openzeppelin-contracts/contracts/access/Ownable.sol\":1531:1544  _checkOwner() */\n      jump\t// in\n    tag_135:\n        /* \"src/SBC.sol\":3244:3252  students */\n      0x06\n        /* \"src/SBC.sol\":3244:3256  students[to] */\n      0x00\n        /* \"src/SBC.sol\":3253:3255  to */\n      dup4\n        /* \"src/SBC.sol\":3244:3256  students[to] */\n      0xffffffffffffffffffffffffffffffffffffffff\n      and\n      0xffffffffffffffffffffffffffffffffffffffff\n      and\n      dup2\n      mstore\n      0x20\n      add\n      swap1\n      dup2\n      mstore\n      0x20\n      add\n      0x00\n      keccak256\n        /* \"src/SBC.sol\":3244:3270  students[to].isWhitelisted */\n      0x02\n      add\n      0x00\n      swap1\n      sload\n      swap1\n      0x0100\n      exp\n      swap1\n      div\n      0xff\n      and\n        /* \"src/SBC.sol\":3236:3300  require(students[to].isWhitelisted, \"Recipient not whitelisted\") */\n      tag_138\n      jumpi\n      mload(0x40)\n      0x08c379a000000000000000000000000000000000000000000000000000000000\n      dup2\n      mstore\n      0x04\n      add\n      tag_139\n      swap1\n      tag_140\n      jump\t// in\n    tag_139:\n      mload(0x40)\n      dup1\n      swap2\n      sub\n      swap1\n      revert\n    tag_138:\n        /* \"src/SBC.sol\":3310:3327  _mint(to, amount) */\n      tag_141\n        /* \"src/SBC.sol\":3316:3318  to */\n      dup3\n        /* \"src/SBC.sol\":3320:3326  amount */\n      dup3\n        /* \"src/SBC.sol\":3310:3315  _mint */\n      tag_142\n        /* \"src/SBC.sol\":3310:3327  _mint(to, amount) */\n      jump\t// in\n    tag_141:\n        /* \"src/SBC.sol\":3355:3357  to */\n      dup2\n        /* \"src/SBC.sol\":3342:3366  TokensMinted(to, amount) */\n      0xffffffffffffffffffffffffffffffffffffffff\n      and\n      0x3f2c9d57c068687834f0de942a9babb9e5acab57d516d3480a3c16ee165a4273\n        /* \"src/SBC.sol\":3359:3365  amount */\n      dup3\n        /* \"src/SBC.sol\":3342:3366  TokensMinted(to, amount) */\n      mload(0x40)\n      tag_143\n      swap2\n      swap1\n      tag_42\n      jump\t// in\n    tag_143:\n      mload(0x40)\n      dup1\n      swap2\n      sub\n      swap1\n      log2\n        /* \"src/SBC.sol\":3165:3373  function mint(address to, uint256 amount) external onlyOwner {... */\n      pop\n      pop\n      jump\t// out\n        /* \"src/SBC.sol\":1833:2435  function removeStudent(uint256 studentId) external onlyOwner {... */\n    tag_60:\n        /* \"lib/openzeppelin-contracts/contracts/access/Ownable.sol\":1531:1544  _checkOwner() */\n      tag_145\n        /* \"lib/openzeppelin-contracts/contracts/access/Ownable.sol\":1531:1542  _checkOwner */\n      tag_136\n        /* \"lib/openzeppelin-contracts/contracts/access/Ownable.sol\":1531:1544  _checkOwner() */\n      jump\t// in\n    tag_145:\n        /* \"src/SBC.sol\":1904:1918  address wallet */\n      0x00\n        /* \"src/SBC.sol\":1921:1931  idToWallet */\n      0x07\n        /* \"src/SBC.sol\":1921:1942  idToWallet[studentId] */\n      0x00\n        /* \"src/SBC.sol\":1932:1941  studentId */\n      dup4\n        /* \"src/SBC.sol\":1921:1942  idToWallet[studentId] */\n      dup2\n      mstore\n      0x20\n      add\n      swap1\n      dup2\n      mstore\n      0x20\n      add\n      0x00\n      keccak256\n      0x00\n      swap1\n      sload\n      swap1\n      0x0100\n      exp\n      swap1\n      div\n      0xffffffffffffffffffffffffffffffffffffffff\n      and\n        /* \"src/SBC.sol\":1904:1942  address wallet = idToWallet[studentId] */\n      swap1\n      pop\n        /* \"src/SBC.sol\":1978:1979  0 */\n      0x00\n        /* \"src/SBC.sol\":1960:1980  wallet != address(0) */\n      0xffffffffffffffffffffffffffffffffffffffff\n      and\n        /* \"src/SBC.sol\":1960:1966  wallet */\n      dup2\n        /* \"src/SBC.sol\":1960:1980  wallet != address(0) */\n      0xffffffffffffffffffffffffffffffffffffffff\n      and\n      sub\n        /* \"src/SBC.sol\":1952:2007  require(wallet != address(0), \"Student does not exist\") */\n      tag_147\n      jumpi\n      mload(0x40)\n      0x08c379a000000000000000000000000000000000000000000000000000000000\n      dup2\n      mstore\n      0x04\n      add\n      tag_148\n      swap1\n      tag_149\n      jump\t// in\n    tag_148:\n      mload(0x40)\n      dup1\n      swap2\n      sub\n      swap1\n      revert\n    tag_147:\n        /* \"src/SBC.sol\":2025:2033  students */\n      0x06\n        /* \"src/SBC.sol\":2025:2041  students[wallet] */\n      0x00\n        /* \"src/SBC.sol\":2034:2040  wallet */\n      dup3\n        /* \"src/SBC.sol\":2025:2041  students[wallet] */\n      0xffffffffffffffffffffffffffffffffffffffff\n      and\n      0xffffffffffffffffffffffffffffffffffffffff\n      and\n      dup2\n      mstore\n      0x20\n      add\n      swap1\n      dup2\n      mstore\n      0x20\n      add\n      0x00\n      keccak256\n      0x00\n        /* \"src/SBC.sol\":2018:2041  delete students[wallet] */\n      0x00\n      dup3\n      add\n      0x00\n      tag_150\n      swap2\n      swap1\n      tag_151\n      jump\t// in\n    tag_150:\n      0x01\n      dup3\n      add\n      0x00\n      swap1\n      sstore\n      0x02\n      dup3\n      add\n      exp(0x0100, 0x00)\n      dup2\n      sload\n      swap1\n      0xff\n      mul\n      not\n      and\n      swap1\n      sstore\n      0x02\n      dup3\n      add\n      exp(0x0100, 0x01)\n      dup2\n      sload\n      swap1\n      0xffffffffffffffffffffffffffffffffffffffff\n      mul\n      not\n      and\n      swap1\n      sstore\n      pop\n      pop\n        /* \"src/SBC.sol\":2058:2068  idToWallet */\n      0x07\n        /* \"src/SBC.sol\":2058:2079  idToWallet[studentId] */\n      0x00\n        /* \"src/SBC.sol\":2069:2078  studentId */\n      dup4\n        /* \"src/SBC.sol\":2058:2079  idToWallet[studentId] */\n      dup2\n      mstore\n      0x20\n      add\n      swap1\n      dup2\n      mstore\n      0x20\n      add\n      0x00\n      keccak256\n      0x00\n        /* \"src/SBC.sol\":2051:2079  delete idToWallet[studentId] */\n      0x0100\n      exp\n      dup2\n      sload\n      swap1\n      0xffffffffffffffffffffffffffffffffffffffff\n      mul\n      not\n      and\n      swap1\n      sstore\n        /* \"src/SBC.sol\":2124:2133  uint256 i */\n      0x00\n        /* \"src/SBC.sol\":2136:2137  0 */\n      0x00\n        /* \"src/SBC.sol\":2124:2137  uint256 i = 0 */\n      swap1\n      pop\n        /* \"src/SBC.sol\":2119:2380  for (uint256 i = 0; i < allStudentIds.length; i++) {... */\n    tag_152:\n        /* \"src/SBC.sol\":2143:2156  allStudentIds */\n      0x08\n        /* \"src/SBC.sol\":2143:2163  allStudentIds.length */\n      dup1\n      sload\n      swap1\n      pop\n        /* \"src/SBC.sol\":2139:2140  i */\n      dup2\n        /* \"src/SBC.sol\":2139:2163  i < allStudentIds.length */\n      lt\n        /* \"src/SBC.sol\":2119:2380  for (uint256 i = 0; i < allStudentIds.length; i++) {... */\n      iszero\n      tag_153\n      jumpi\n        /* \"src/SBC.sol\":2208:2217  studentId */\n      dup3\n        /* \"src/SBC.sol\":2188:2201  allStudentIds */\n      0x08\n        /* \"src/SBC.sol\":2202:2203  i */\n      dup3\n        /* \"src/SBC.sol\":2188:2204  allStudentIds[i] */\n      dup2\n      sload\n      dup2\n      lt\n      tag_155\n      jumpi\n      tag_156\n      tag_157\n      jump\t// in\n    tag_156:\n    tag_155:\n      swap1\n      0x00\n      mstore\n      keccak256(0x00, 0x20)\n      add\n      sload\n        /* \"src/SBC.sol\":2188:2217  allStudentIds[i] == studentId */\n      sub\n        /* \"src/SBC.sol\":2184:2370  if (allStudentIds[i] == studentId) {... */\n      tag_159\n      jumpi\n        /* \"src/SBC.sol\":2256:2269  allStudentIds */\n      0x08\n        /* \"src/SBC.sol\":2293:2294  1 */\n      0x01\n        /* \"src/SBC.sol\":2270:2283  allStudentIds */\n      0x08\n        /* \"src/SBC.sol\":2270:2290  allStudentIds.length */\n      dup1\n      sload\n      swap1\n      pop\n        /* \"src/SBC.sol\":2270:2294  allStudentIds.length - 1 */\n      tag_160\n      swap2\n      swap1\n      tag_161\n      jump\t// in\n    tag_160:\n        /* \"src/SBC.sol\":2256:2295  allStudentIds[allStudentIds.length - 1] */\n      dup2\n      sload\n      dup2\n      lt\n      tag_162\n      jumpi\n      tag_163\n      tag_157\n      jump\t// in\n    tag_163:\n    tag_162:\n      swap1\n      0x00\n      mstore\n      keccak256(0x00, 0x20)\n      add\n      sload\n        /* \"src/SBC.sol\":2237:2250  allStudentIds */\n      0x08\n        /* \"src/SBC.sol\":2251:2252  i */\n      dup3\n        /* \"src/SBC.sol\":2237:2253  allStudentIds[i] */\n      dup2\n      sload\n      dup2\n      lt\n      tag_165\n      jumpi\n      tag_166\n      tag_157\n      jump\t// in\n    tag_166:\n    tag_165:\n      swap1\n      0x00\n      mstore\n      keccak256(0x00, 0x20)\n      add\n        /* \"src/SBC.sol\":2237:2295  allStudentIds[i] = allStudentIds[allStudentIds.length - 1] */\n      dup2\n      swap1\n      sstore\n      pop\n        /* \"src/SBC.sol\":2313:2326  allStudentIds */\n      0x08\n        /* \"src/SBC.sol\":2313:2332  allStudentIds.pop() */\n      dup1\n      sload\n      dup1\n      tag_168\n      jumpi\n      tag_169\n      tag_170\n      jump\t// in\n    tag_169:\n    tag_168:\n      0x01\n      swap1\n      sub\n      dup2\n      dup2\n      swap1\n      0x00\n      mstore\n      keccak256(0x00, 0x20)\n      add\n      0x00\n      swap1\n      sstore\n      swap1\n      sstore\n        /* \"src/SBC.sol\":2350:2355  break */\n      jump(tag_153)\n        /* \"src/SBC.sol\":2184:2370  if (allStudentIds[i] == studentId) {... */\n    tag_159:\n        /* \"src/SBC.sol\":2165:2168  i++ */\n      dup1\n      dup1\n      0x01\n      add\n      swap2\n      pop\n      pop\n        /* \"src/SBC.sol\":2119:2380  for (uint256 i = 0; i < allStudentIds.length; i++) {... */\n      jump(tag_152)\n    tag_153:\n      pop\n        /* \"src/SBC.sol\":2421:2427  wallet */\n      dup1\n        /* \"src/SBC.sol\":2395:2428  StudentRemoved(studentId, wallet) */\n      0xffffffffffffffffffffffffffffffffffffffff\n      and\n        /* \"src/SBC.sol\":2410:2419  studentId */\n      dup3\n        /* \"src/SBC.sol\":2395:2428  StudentRemoved(studentId, wallet) */\n      0x5a5f05ab7e4bb3b61b01fd908fb066ce1608190ad7e66ee978414d88cf0a99a9\n      mload(0x40)\n      mload(0x40)\n      dup1\n      swap2\n      sub\n      swap1\n      log3\n        /* \"src/SBC.sol\":1894:2435  {... */\n      pop\n        /* \"src/SBC.sol\":1833:2435  function removeStudent(uint256 studentId) external onlyOwner {... */\n      pop\n      jump\t// out\n        /* \"lib/openzeppelin-contracts/contracts/token/ERC20/ERC20.sol\":2933:3049  function balanceOf(address account) public view virtual returns (uint256) {... */\n    tag_64:\n        /* \"lib/openzeppelin-contracts/contracts/token/ERC20/ERC20.sol\":2998:3005  uint256 */\n      0x00\n        /* \"lib/openzeppelin-contracts/contracts/token/ERC20/ERC20.sol\":3024:3033  _balances */\n      0x00\n        /* \"lib/openzeppelin-contracts/contracts/token/ERC20/ERC20.sol\":3024:3042  _balances[account] */\n      0x00\n        /* \"lib/openzeppelin-contracts/contracts/token/ERC20/ERC20.sol\":3034:3041  account */\n      dup4\n        /* \"lib/openzeppelin-contracts/contracts/token/ERC20/ERC20.sol\":3024:3042  _balances[account] */\n      0xffffffffffffffffffffffffffffffffffffffff\n      and\n      0xffffffffffffffffffffffffffffffffffffffff\n      and\n      dup2\n      mstore\n      0x20\n      add\n      swap1\n      dup2\n      mstore\n      0x20\n      add\n      0x00\n      keccak256\n      sload\n        /* \"lib/openzeppelin-contracts/contracts/token/ERC20/ERC20.sol\":3017:3042  return _balances[account] */\n      swap1\n      pop\n        /* \"lib/openzeppelin-contracts/contracts/token/ERC20/ERC20.sol\":2933:3049  function balanceOf(address account) public view virtual returns (uint256) {... */\n      swap2\n      swap1\n      pop\n      jump\t// out\n        /* \"lib/openzeppelin-contracts/contracts/access/Ownable.sol\":2293:2394  function renounceOwnership() public virtual onlyOwner {... */\n    tag_67:\n        /* \"lib/openzeppelin-contracts/contracts/access/Ownable.sol\":1531:1544  _checkOwner() */\n      tag_174\n        /* \"lib/openzeppelin-contracts/contracts/access/Ownable.sol\":1531:1542  _checkOwner */\n      tag_136\n        /* \"lib/openzeppelin-contracts/contracts/access/Ownable.sol\":1531:1544  _checkOwner() */\n      jump\t// in\n    tag_174:\n        /* \"lib/openzeppelin-contracts/contracts/access/Ownable.sol\":2357:2387  _transferOwnership(address(0)) */\n      tag_176\n        /* \"lib/openzeppelin-contracts/contracts/access/Ownable.sol\":2384:2385  0 */\n      0x00\n        /* \"lib/openzeppelin-contracts/contracts/access/Ownable.sol\":2357:2375  _transferOwnership */\n      tag_177\n        /* \"lib/openzeppelin-contracts/contracts/access/Ownable.sol\":2357:2387  _transferOwnership(address(0)) */\n      jump\t// in\n    tag_176:\n        /* \"lib/openzeppelin-contracts/contracts/access/Ownable.sol\":2293:2394  function renounceOwnership() public virtual onlyOwner {... */\n      jump\t// out\n        /* \"lib/openzeppelin-contracts/contracts/access/Ownable.sol\":1638:1723  function owner() public view virtual returns (address) {... */\n    tag_69:\n        /* \"lib/openzeppelin-contracts/contracts/access/Ownable.sol\":1684:1691  address */\n      0x00\n        /* \"lib/openzeppelin-contracts/contracts/access/Ownable.sol\":1710:1716  _owner */\n      0x05\n      0x00\n      swap1\n      sload\n      swap1\n      0x0100\n      exp\n      swap1\n      div\n      0xffffffffffffffffffffffffffffffffffffffff\n      and\n        /* \"lib/openzeppelin-contracts/contracts/access/Ownable.sol\":1703:1716  return _owner */\n      swap1\n      pop\n        /* \"lib/openzeppelin-contracts/contracts/access/Ownable.sol\":1638:1723  function owner() public view virtual returns (address) {... */\n      swap1\n      jump\t// out\n        /* \"lib/openzeppelin-contracts/contracts/token/ERC20/ERC20.sol\":1962:2055  function symbol() public view virtual returns (string memory) {... */\n    tag_73:\n        /* \"lib/openzeppelin-contracts/contracts/token/ERC20/ERC20.sol\":2009:2022  string memory */\n      0x60\n        /* \"lib/openzeppelin-contracts/contracts/token/ERC20/ERC20.sol\":2041:2048  _symbol */\n      0x04\n        /* \"lib/openzeppelin-contracts/contracts/token/ERC20/ERC20.sol\":2034:2048  return _symbol */\n      dup1\n      sload\n      tag_180\n      swap1\n      tag_114\n      jump\t// in\n    tag_180:\n      dup1\n      0x1f\n      add\n      0x20\n      dup1\n      swap2\n      div\n      mul\n      0x20\n      add\n      mload(0x40)\n      swap1\n      dup2\n      add\n      0x40\n      mstore\n      dup1\n      swap3\n      swap2\n      swap1\n      dup2\n      dup2\n      mstore\n      0x20\n      add\n      dup3\n      dup1\n      sload\n      tag_181\n      swap1\n      tag_114\n      jump\t// in\n    tag_181:\n      dup1\n      iszero\n      tag_182\n      jumpi\n      dup1\n      0x1f\n      lt\n      tag_183\n      jumpi\n      0x0100\n      dup1\n      dup4\n      sload\n      div\n      mul\n      dup4\n      mstore\n      swap2\n      0x20\n      add\n      swap2\n      jump(tag_182)\n    tag_183:\n      dup3\n      add\n      swap2\n      swap1\n      0x00\n      mstore\n      keccak256(0x00, 0x20)\n      swap1\n    tag_184:\n      dup2\n      sload\n      dup2\n      mstore\n      swap1\n      0x01\n      add\n      swap1\n      0x20\n      add\n      dup1\n      dup4\n      gt\n      tag_184\n      jumpi\n      dup3\n      swap1\n      sub\n      0x1f\n      and\n      dup3\n      add\n      swap2\n    tag_182:\n      pop\n      pop\n      pop\n      pop\n      pop\n      swap1\n      pop\n        /* \"lib/openzeppelin-contracts/contracts/token/ERC20/ERC20.sol\":1962:2055  function symbol() public view virtual returns (string memory) {... */\n      swap1\n      jump\t// out\n        /* \"src/SBC.sol\":3379:3519  function burn(address from, uint256 amount) external onlyOwner {... */\n    tag_77:\n        /* \"lib/openzeppelin-contracts/contracts/access/Ownable.sol\":1531:1544  _checkOwner() */\n      tag_186\n        /* \"lib/openzeppelin-contracts/contracts/access/Ownable.sol\":1531:1542  _checkOwner */\n      tag_136\n        /* \"lib/openzeppelin-contracts/contracts/access/Ownable.sol\":1531:1544  _checkOwner() */\n      jump\t// in\n    tag_186:\n        /* \"src/SBC.sol\":3452:3471  _burn(from, amount) */\n      tag_188\n        /* \"src/SBC.sol\":3458:3462  from */\n      dup3\n        /* \"src/SBC.sol\":3464:3470  amount */\n      dup3\n        /* \"src/SBC.sol\":3452:3457  _burn */\n      tag_189\n        /* \"src/SBC.sol\":3452:3471  _burn(from, amount) */\n      jump\t// in\n    tag_188:\n        /* \"src/SBC.sol\":3499:3503  from */\n      dup2\n        /* \"src/SBC.sol\":3486:3512  TokensBurned(from, amount) */\n      0xffffffffffffffffffffffffffffffffffffffff\n      and\n      0xfd38818f5291bf0bb3a2a48aadc06ba8757865d1dabd804585338aab3009dcb6\n        /* \"src/SBC.sol\":3505:3511  amount */\n      dup3\n        /* \"src/SBC.sol\":3486:3512  TokensBurned(from, amount) */\n      mload(0x40)\n      tag_190\n      swap2\n      swap1\n      tag_42\n      jump\t// in\n    tag_190:\n      mload(0x40)\n      dup1\n      swap2\n      sub\n      swap1\n      log2\n        /* \"src/SBC.sol\":3379:3519  function burn(address from, uint256 amount) external onlyOwner {... */\n      pop\n      pop\n      jump\t// out\n        /* \"src/SBC.sol\":429:474  mapping(uint256 => address) public idToWallet */\n    tag_80:\n      mstore(0x20, 0x07)\n      dup1\n      0x00\n      mstore\n      keccak256(0x00, 0x40)\n      0x00\n      swap2\n      pop\n      sload\n      swap1\n      0x0100\n      exp\n      swap1\n      div\n      0xffffffffffffffffffffffffffffffffffffffff\n      and\n      dup2\n      jump\t// out\n        /* \"src/SBC.sol\":380:423  mapping(address => Student) public students */\n    tag_84:\n      mstore(0x20, 0x06)\n      dup1\n      0x00\n      mstore\n      keccak256(0x00, 0x40)\n      0x00\n      swap2\n      pop\n      swap1\n      pop\n      dup1\n      0x00\n      add\n      dup1\n      sload\n      tag_191\n      swap1\n      tag_114\n      jump\t// in\n    tag_191:\n      dup1\n      0x1f\n      add\n      0x20\n      dup1\n      swap2\n      div\n      mul\n      0x20\n      add\n      mload(0x40)\n      swap1\n      dup2\n      add\n      0x40\n      mstore\n      dup1\n      swap3\n      swap2\n      swap1\n      dup2\n      dup2\n      mstore\n      0x20\n      add\n      dup3\n      dup1\n      sload\n      tag_192\n      swap1\n      tag_114\n      jump\t// in\n    tag_192:\n      dup1\n      iszero\n      tag_193\n      jumpi\n      dup1\n      0x1f\n      lt\n      tag_194\n      jumpi\n      0x0100\n      dup1\n      dup4\n      sload\n      div\n      mul\n      dup4\n      mstore\n      swap2\n      0x20\n      add\n      swap2\n      jump(tag_193)\n    tag_194:\n      dup3\n      add\n      swap2\n      swap1\n      0x00\n      mstore\n      keccak256(0x00, 0x20)\n      swap1\n    tag_195:\n      dup2\n      sload\n      dup2\n      mstore\n      swap1\n      0x01\n      add\n      swap1\n      0x20\n      add\n      dup1\n      dup4\n      gt\n      tag_195\n      jumpi\n      dup3\n      swap1\n      sub\n      0x1f\n      and\n      dup3\n      add\n      swap2\n    tag_193:\n      pop\n      pop\n      pop\n      pop\n      pop\n      swap1\n      dup1\n      0x01\n      add\n      sload\n      swap1\n      dup1\n      0x02\n      add\n      0x00\n      swap1\n      sload\n      swap1\n      0x0100\n      exp\n      swap1\n      div\n      0xff\n      and\n      swap1\n      dup1\n      0x02\n      add\n      0x01\n      swap1\n      sload\n      swap1\n      0x0100\n      exp\n      swap1\n      div\n      0xffffffffffffffffffffffffffffffffffffffff\n      and\n      swap1\n      pop\n      dup5\n      jump\t// out\n        /* \"lib/openzeppelin-contracts/contracts/token/ERC20/ERC20.sol\":3244:3422  function transfer(address to, uint256 value) public virtual returns (bool) {... */\n    tag_89:\n        /* \"lib/openzeppelin-contracts/contracts/token/ERC20/ERC20.sol\":3313:3317  bool */\n      0x00\n        /* \"lib/openzeppelin-contracts/contracts/token/ERC20/ERC20.sol\":3329:3342  address owner */\n      0x00\n        /* \"lib/openzeppelin-contracts/contracts/token/ERC20/ERC20.sol\":3345:3357  _msgSender() */\n      tag_197\n        /* \"lib/openzeppelin-contracts/contracts/token/ERC20/ERC20.sol\":3345:3355  _msgSender */\n      tag_121\n        /* \"lib/openzeppelin-contracts/contracts/token/ERC20/ERC20.sol\":3345:3357  _msgSender() */\n      jump\t// in\n    tag_197:\n        /* \"lib/openzeppelin-contracts/contracts/token/ERC20/ERC20.sol\":3329:3357  address owner = _msgSender() */\n      swap1\n      pop\n        /* \"lib/openzeppelin-contracts/contracts/token/ERC20/ERC20.sol\":3367:3394  _transfer(owner, to, value) */\n      tag_198\n        /* \"lib/openzeppelin-contracts/contracts/token/ERC20/ERC20.sol\":3377:3382  owner */\n      dup2\n        /* \"lib/openzeppelin-contracts/contracts/token/ERC20/ERC20.sol\":3384:3386  to */\n      dup6\n        /* \"lib/openzeppelin-contracts/contracts/token/ERC20/ERC20.sol\":3388:3393  value */\n      dup6\n        /* \"lib/openzeppelin-contracts/contracts/token/ERC20/ERC20.sol\":3367:3376  _transfer */\n      tag_132\n        /* \"lib/openzeppelin-contracts/contracts/token/ERC20/ERC20.sol\":3367:3394  _transfer(owner, to, value) */\n      jump\t// in\n    tag_198:\n        /* \"lib/openzeppelin-contracts/contracts/token/ERC20/ERC20.sol\":3411:3415  true */\n      0x01\n        /* \"lib/openzeppelin-contracts/contracts/token/ERC20/ERC20.sol\":3404:3415  return true */\n      swap2\n      pop\n      pop\n        /* \"lib/openzeppelin-contracts/contracts/token/ERC20/ERC20.sol\":3244:3422  function transfer(address to, uint256 value) public virtual returns (bool) {... */\n      swap3\n      swap2\n      pop\n      pop\n      jump\t// out\n        /* \"src/SBC.sol\":2441:2859  function getStudentById(uint256 studentId)... */\n    tag_93:\n        /* \"src/SBC.sol\":2531:2545  Student memory */\n      tag_199\n      tag_200\n      jump\t// in\n    tag_199:\n        /* \"src/SBC.sol\":2561:2575  address wallet */\n      0x00\n        /* \"src/SBC.sol\":2578:2588  idToWallet */\n      0x07\n        /* \"src/SBC.sol\":2578:2599  idToWallet[studentId] */\n      0x00\n        /* \"src/SBC.sol\":2589:2598  studentId */\n      dup5\n        /* \"src/SBC.sol\":2578:2599  idToWallet[studentId] */\n      dup2\n      mstore\n      0x20\n      add\n      swap1\n      dup2\n      mstore\n      0x20\n      add\n      0x00\n      keccak256\n      0x00\n      swap1\n      sload\n      swap1\n      0x0100\n      exp\n      swap1\n      div\n      0xffffffffffffffffffffffffffffffffffffffff\n      and\n        /* \"src/SBC.sol\":2561:2599  address wallet = idToWallet[studentId] */\n      swap1\n      pop\n        /* \"src/SBC.sol\":2631:2632  0 */\n      0x00\n        /* \"src/SBC.sol\":2613:2633  wallet == address(0) */\n      0xffffffffffffffffffffffffffffffffffffffff\n      and\n        /* \"src/SBC.sol\":2613:2619  wallet */\n      dup2\n        /* \"src/SBC.sol\":2613:2633  wallet == address(0) */\n      0xffffffffffffffffffffffffffffffffffffffff\n      and\n      sub\n        /* \"src/SBC.sol\":2609:2820  if (wallet == address(0)) {... */\n      tag_202\n      jumpi\n        /* \"src/SBC.sol\":2656:2809  Student({... */\n      mload(0x40)\n      dup1\n      0x80\n      add\n      0x40\n      mstore\n      dup1\n      mload(0x40)\n      dup1\n      0x20\n      add\n      0x40\n      mstore\n      dup1\n      0x00\n      dup2\n      mstore\n      pop\n      dup2\n      mstore\n      0x20\n      add\n        /* \"src/SBC.sol\":2719:2720  0 */\n      0x00\n        /* \"src/SBC.sol\":2656:2809  Student({... */\n      dup2\n      mstore\n      0x20\n      add\n        /* \"src/SBC.sol\":2753:2758  false */\n      0x00\n        /* \"src/SBC.sol\":2656:2809  Student({... */\n      iszero\n      iszero\n      dup2\n      mstore\n      0x20\n      add\n        /* \"src/SBC.sol\":2792:2793  0 */\n      0x00\n        /* \"src/SBC.sol\":2656:2809  Student({... */\n      0xffffffffffffffffffffffffffffffffffffffff\n      and\n      dup2\n      mstore\n      pop\n        /* \"src/SBC.sol\":2649:2809  return Student({... */\n      swap2\n      pop\n      pop\n      jump(tag_201)\n        /* \"src/SBC.sol\":2609:2820  if (wallet == address(0)) {... */\n    tag_202:\n        /* \"src/SBC.sol\":2836:2844  students */\n      0x06\n        /* \"src/SBC.sol\":2836:2852  students[wallet] */\n      0x00\n        /* \"src/SBC.sol\":2845:2851  wallet */\n      dup3\n        /* \"src/SBC.sol\":2836:2852  students[wallet] */\n      0xffffffffffffffffffffffffffffffffffffffff\n      and\n      0xffffffffffffffffffffffffffffffffffffffff\n      and\n      dup2\n      mstore\n      0x20\n      add\n      swap1\n      dup2\n      mstore\n      0x20\n      add\n      0x00\n      keccak256\n        /* \"src/SBC.sol\":2829:2852  return students[wallet] */\n      mload(0x40)\n      dup1\n      0x80\n      add\n      0x40\n      mstore\n      swap1\n      dup2\n      0x00\n      dup3\n      add\n      dup1\n      sload\n      tag_203\n      swap1\n      tag_114\n      jump\t// in\n    tag_203:\n      dup1\n      0x1f\n      add\n      0x20\n      dup1\n      swap2\n      div\n      mul\n      0x20\n      add\n      mload(0x40)\n      swap1\n      dup2\n      add\n      0x40\n      mstore\n      dup1\n      swap3\n      swap2\n      swap1\n      dup2\n      dup2\n      mstore\n      0x20\n      add\n      dup3\n      dup1\n      sload\n      tag_204\n      swap1\n      tag_114\n      jump\t// in\n    tag_204:\n      dup1\n      iszero\n      tag_205\n      jumpi\n      dup1\n      0x1f\n      lt\n      tag_206\n      jumpi\n      0x0100\n      dup1\n      dup4\n      sload\n      div\n      mul\n      dup4\n      mstore\n      swap2\n      0x20\n      add\n      swap2\n      jump(tag_205)\n    tag_206:\n      dup3\n      add\n      swap2\n      swap1\n      0x00\n      mstore\n      keccak256(0x00, 0x20)\n      swap1\n    tag_207:\n      dup2\n      sload\n      dup2\n      mstore\n      swap1\n      0x01\n      add\n      swap1\n      0x20\n      add\n      dup1\n      dup4\n      gt\n      tag_207\n      jumpi\n      dup3\n      swap1\n      sub\n      0x1f\n      and\n      dup3\n      add\n      swap2\n    tag_205:\n      pop\n      pop\n      pop\n      pop\n      pop\n      dup2\n      mstore\n      0x20\n      add\n      0x01\n      dup3\n      add\n      sload\n      dup2\n      mstore\n      0x20\n      add\n      0x02\n      dup3\n      add\n      0x00\n      swap1\n      sload\n      swap1\n      0x0100\n      exp\n      swap1\n      div\n      0xff\n      and\n      iszero\n      iszero\n      iszero\n      iszero\n      dup2\n      mstore\n      0x20\n      add\n      0x02\n      dup3\n      add\n      0x01\n      swap1\n      sload\n      swap1\n      0x0100\n      exp\n      swap1\n      div\n      0xffffffffffffffffffffffffffffffffffffffff\n      and\n      0xffffffffffffffffffffffffffffffffffffffff\n      and\n      0xffffffffffffffffffffffffffffffffffffffff\n      and\n      dup2\n      mstore\n      pop\n      pop\n      swap2\n      pop\n      pop\n        /* \"src/SBC.sol\":2441:2859  function getStudentById(uint256 studentId)... */\n    tag_201:\n      swap2\n      swap1\n      pop\n      jump\t// out\n        /* \"lib/openzeppelin-contracts/contracts/token/ERC20/ERC20.sol\":3455:3595  function allowance(address owner, address spender) public view virtual returns (uint256) {... */\n    tag_99:\n        /* \"lib/openzeppelin-contracts/contracts/token/ERC20/ERC20.sol\":3535:3542  uint256 */\n      0x00\n        /* \"lib/openzeppelin-contracts/contracts/token/ERC20/ERC20.sol\":3561:3572  _allowances */\n      0x01\n        /* \"lib/openzeppelin-contracts/contracts/token/ERC20/ERC20.sol\":3561:3579  _allowances[owner] */\n      0x00\n        /* \"lib/openzeppelin-contracts/contracts/token/ERC20/ERC20.sol\":3573:3578  owner */\n      dup5\n        /* \"lib/openzeppelin-contracts/contracts/token/ERC20/ERC20.sol\":3561:3579  _allowances[owner] */\n      0xffffffffffffffffffffffffffffffffffffffff\n      and\n      0xffffffffffffffffffffffffffffffffffffffff\n      and\n      dup2\n      mstore\n      0x20\n      add\n      swap1\n      dup2\n      mstore\n      0x20\n      add\n      0x00\n      keccak256\n        /* \"lib/openzeppelin-contracts/contracts/token/ERC20/ERC20.sol\":3561:3588  _allowances[owner][spender] */\n      0x00\n        /* \"lib/openzeppelin-contracts/contracts/token/ERC20/ERC20.sol\":3580:3587  spender */\n      dup4\n        /* \"lib/openzeppelin-contracts/contracts/token/ERC20/ERC20.sol\":3561:3588  _allowances[owner][spender] */\n      0xffffffffffffffffffffffffffffffffffffffff\n      and\n      0xffffffffffffffffffffffffffffffffffffffff\n      and\n      dup2\n      mstore\n      0x20\n      add\n      swap1\n      dup2\n      mstore\n      0x20\n      add\n      0x00\n      keccak256\n      sload\n        /* \"lib/openzeppelin-contracts/contracts/token/ERC20/ERC20.sol\":3554:3588  return _allowances[owner][spender] */\n      swap1\n      pop\n        /* \"lib/openzeppelin-contracts/contracts/token/ERC20/ERC20.sol\":3455:3595  function allowance(address owner, address spender) public view virtual returns (uint256) {... */\n      swap3\n      swap2\n      pop\n      pop\n      jump\t// out\n        /* \"src/SBC.sol\":2865:3159  function getAllStudents() external view returns (Student[] memory) {... */\n    tag_102:\n        /* \"src/SBC.sol\":2914:2930  Student[] memory */\n      0x60\n        /* \"src/SBC.sol\":2942:2962  Student[] memory out */\n      0x00\n        /* \"src/SBC.sol\":2979:2992  allStudentIds */\n      0x08\n        /* \"src/SBC.sol\":2979:2999  allStudentIds.length */\n      dup1\n      sload\n      swap1\n      pop\n        /* \"src/SBC.sol\":2965:3000  new Student[](allStudentIds.length) */\n      0xffffffffffffffff\n      dup2\n      gt\n      iszero\n      tag_210\n      jumpi\n      tag_211\n      tag_212\n      jump\t// in\n    tag_211:\n    tag_210:\n      mload(0x40)\n      swap1\n      dup1\n      dup3\n      mstore\n      dup1\n      0x20\n      mul\n      0x20\n      add\n      dup3\n      add\n      0x40\n      mstore\n      dup1\n      iszero\n      tag_213\n      jumpi\n      dup2\n      0x20\n      add\n    tag_214:\n      tag_215\n      tag_200\n      jump\t// in\n    tag_215:\n      dup2\n      mstore\n      0x20\n      add\n      swap1\n      0x01\n      swap1\n      sub\n      swap1\n      dup2\n      tag_214\n      jumpi\n      swap1\n      pop\n    tag_213:\n      pop\n        /* \"src/SBC.sol\":2942:3000  Student[] memory out = new Student[](allStudentIds.length) */\n      swap1\n      pop\n        /* \"src/SBC.sol\":3015:3024  uint256 i */\n      0x00\n        /* \"src/SBC.sol\":3027:3028  0 */\n      0x00\n        /* \"src/SBC.sol\":3015:3028  uint256 i = 0 */\n      swap1\n      pop\n        /* \"src/SBC.sol\":3010:3133  for (uint256 i = 0; i < allStudentIds.length; i++) {... */\n    tag_216:\n        /* \"src/SBC.sol\":3034:3047  allStudentIds */\n      0x08\n        /* \"src/SBC.sol\":3034:3054  allStudentIds.length */\n      dup1\n      sload\n      swap1\n      pop\n        /* \"src/SBC.sol\":3030:3031  i */\n      dup2\n        /* \"src/SBC.sol\":3030:3054  i < allStudentIds.length */\n      lt\n        /* \"src/SBC.sol\":3010:3133  for (uint256 i = 0; i < allStudentIds.length; i++) {... */\n      iszero\n      tag_217\n      jumpi\n        /* \"src/SBC.sol\":3084:3092  students */\n      0x06\n        /* \"src/SBC.sol\":3084:3122  students[idToWallet[allStudentIds[i]]] */\n      0x00\n        /* \"src/SBC.sol\":3093:3103  idToWallet */\n      0x07\n        /* \"src/SBC.sol\":3093:3121  idToWallet[allStudentIds[i]] */\n      0x00\n        /* \"src/SBC.sol\":3104:3117  allStudentIds */\n      0x08\n        /* \"src/SBC.sol\":3118:3119  i */\n      dup6\n        /* \"src/SBC.sol\":3104:3120  allStudentIds[i] */\n      dup2\n      sload\n      dup2\n      lt\n      tag_219\n      jumpi\n      tag_220\n      tag_157\n      jump\t// in\n    tag_220:\n    tag_219:\n      swap1\n      0x00\n      mstore\n      keccak256(0x00, 0x20)\n      add\n      sload\n        /* \"src/SBC.sol\":3093:3121  idToWallet[allStudentIds[i]] */\n      dup2\n      mstore\n      0x20\n      add\n      swap1\n      dup2\n      mstore\n      0x20\n      add\n      0x00\n      keccak256\n      0x00\n      swap1\n      sload\n      swap1\n      0x0100\n      exp\n      swap1\n      div\n      0xffffffffffffffffffffffffffffffffffffffff\n      and\n        /* \"src/SBC.sol\":3084:3122  students[idToWallet[allStudentIds[i]]] */\n      0xffffffffffffffffffffffffffffffffffffffff\n      and\n      0xffffffffffffffffffffffffffffffffffffffff\n      and\n      dup2\n      mstore\n      0x20\n      add\n      swap1\n      dup2\n      mstore\n      0x20\n      add\n      0x00\n      keccak256\n        /* \"src/SBC.sol\":3075:3122  out[i] = students[idToWallet[allStudentIds[i]]] */\n      mload(0x40)\n      dup1\n      0x80\n      add\n      0x40\n      mstore\n      swap1\n      dup2\n      0x00\n      dup3\n      add\n      dup1\n      sload\n      tag_222\n      swap1\n      tag_114\n      jump\t// in\n    tag_222:\n      dup1\n      0x1f\n      add\n      0x20\n      dup1\n      swap2\n      div\n      mul\n      0x20\n      add\n      mload(0x40)\n      swap1\n      dup2\n      add\n      0x40\n      mstore\n      dup1\n      swap3\n      swap2\n      swap1\n      dup2\n      dup2\n      mstore\n      0x20\n      add\n      dup3\n      dup1\n      sload\n      tag_223\n      swap1\n      tag_114\n      jump\t// in\n    tag_223:\n      dup1\n      iszero\n      tag_224\n      jumpi\n      dup1\n      0x1f\n      lt\n      tag_225\n      jumpi\n      0x0100\n      dup1\n      dup4\n      sload\n      div\n      mul\n      dup4\n      mstore\n      swap2\n      0x20\n      add\n      swap2\n      jump(tag_224)\n    tag_225:\n      dup3\n      add\n      swap2\n      swap1\n      0x00\n      mstore\n      keccak256(0x00, 0x20)\n      swap1\n    tag_226:\n      dup2\n      sload\n      dup2\n      mstore\n      swap1\n      0x01\n      add\n      swap1\n      0x20\n      add\n      dup1\n      dup4\n      gt\n      tag_226\n      jumpi\n      dup3\n      swap1\n      sub\n      0x1f\n      and\n      dup3\n      add\n      swap2\n    tag_224:\n      pop\n      pop\n      pop\n      pop\n      pop\n      dup2\n      mstore\n      0x20\n      add\n      0x01\n      dup3\n      add\n      sload\n      dup2\n      mstore\n      0x20\n      add\n      0x02\n      dup3\n      add\n      0x00\n      swap1\n      sload\n      swap1\n      0x0100\n      exp\n      swap1\n      div\n      0xff\n      and\n      iszero\n      iszero\n      iszero\n      iszero\n      dup2\n      mstore\n      0x20\n      add\n      0x02\n      dup3\n      add\n      0x01\n      swap1\n      sload\n      swap1\n      0x0100\n      exp\n      swap1\n      div\n      0xffffffffffffffffffffffffffffffffffffffff\n      and\n      0xffffffffffffffffffffffffffffffffffffffff\n      and\n      0xffffffffffffffffffffffffffffffffffffffff\n      and\n      dup2\n      mstore\n      pop\n      pop\n        /* \"src/SBC.sol\":3075:3078  out */\n      dup3\n        /* \"src/SBC.sol\":3079:3080  i */\n      dup3\n        /* \"src/SBC.sol\":3075:3081  out[i] */\n      dup2\n      mload\n      dup2\n      lt\n      tag_227\n      jumpi\n      tag_228\n      tag_157\n      jump\t// in\n    tag_228:\n    tag_227:\n      0x20\n      mul\n      0x20\n      add\n      add\n        /* \"src/SBC.sol\":3075:3122  out[i] = students[idToWallet[allStudentIds[i]]] */\n      dup2\n      swap1\n      mstore\n      pop\n        /* \"src/SBC.sol\":3056:3059  i++ */\n      dup1\n      dup1\n      0x01\n      add\n      swap2\n      pop\n      pop\n        /* \"src/SBC.sol\":3010:3133  for (uint256 i = 0; i < allStudentIds.length; i++) {... */\n      jump(tag_216)\n    tag_217:\n      pop\n        /* \"src/SBC.sol\":3149:3152  out */\n      dup1\n        /* \"src/SBC.sol\":3142:3152  return out */\n      swap2\n      pop\n      pop\n        /* \"src/SBC.sol\":2865:3159  function getAllStudents() external view returns (Student[] memory) {... */\n      swap1\n      jump\t// out\n        /* \"src/SBC.sol\":898:1826  function addStudent(... */\n    tag_108:\n        /* \"lib/openzeppelin-contracts/contracts/access/Ownable.sol\":1531:1544  _checkOwner() */\n      tag_230\n        /* \"lib/openzeppelin-contracts/contracts/access/Ownable.sol\":1531:1542  _checkOwner */\n      tag_136\n        /* \"lib/openzeppelin-contracts/contracts/access/Ownable.sol\":1531:1544  _checkOwner() */\n      jump\t// in\n    tag_230:\n        /* \"src/SBC.sol\":1062:1079  address oldWallet */\n      0x00\n        /* \"src/SBC.sol\":1082:1092  idToWallet */\n      0x07\n        /* \"src/SBC.sol\":1082:1103  idToWallet[studentId] */\n      0x00\n        /* \"src/SBC.sol\":1093:1102  studentId */\n      dup4\n        /* \"src/SBC.sol\":1082:1103  idToWallet[studentId] */\n      dup2\n      mstore\n      0x20\n      add\n      swap1\n      dup2\n      mstore\n      0x20\n      add\n      0x00\n      keccak256\n      0x00\n      swap1\n      sload\n      swap1\n      0x0100\n      exp\n      swap1\n      div\n      0xffffffffffffffffffffffffffffffffffffffff\n      and\n        /* \"src/SBC.sol\":1062:1103  address oldWallet = idToWallet[studentId] */\n      swap1\n      pop\n        /* \"src/SBC.sol\":1138:1139  0 */\n      0x00\n        /* \"src/SBC.sol\":1117:1140  oldWallet != address(0) */\n      0xffffffffffffffffffffffffffffffffffffffff\n      and\n        /* \"src/SBC.sol\":1117:1126  oldWallet */\n      dup2\n        /* \"src/SBC.sol\":1117:1140  oldWallet != address(0) */\n      0xffffffffffffffffffffffffffffffffffffffff\n      and\n      eq\n        /* \"src/SBC.sol\":1113:1492  if (oldWallet != address(0)) {... */\n      tag_232\n      jumpi\n        /* \"src/SBC.sol\":1163:1171  students */\n      0x06\n        /* \"src/SBC.sol\":1163:1182  students[oldWallet] */\n      0x00\n        /* \"src/SBC.sol\":1172:1181  oldWallet */\n      dup3\n        /* \"src/SBC.sol\":1163:1182  students[oldWallet] */\n      0xffffffffffffffffffffffffffffffffffffffff\n      and\n      0xffffffffffffffffffffffffffffffffffffffff\n      and\n      dup2\n      mstore\n      0x20\n      add\n      swap1\n      dup2\n      mstore\n      0x20\n      add\n      0x00\n      keccak256\n      0x00\n        /* \"src/SBC.sol\":1156:1182  delete students[oldWallet] */\n      0x00\n      dup3\n      add\n      0x00\n      tag_233\n      swap2\n      swap1\n      tag_151\n      jump\t// in\n    tag_233:\n      0x01\n      dup3\n      add\n      0x00\n      swap1\n      sstore\n      0x02\n      dup3\n      add\n      exp(0x0100, 0x00)\n      dup2\n      sload\n      swap1\n      0xff\n      mul\n      not\n      and\n      swap1\n      sstore\n      0x02\n      dup3\n      add\n      exp(0x0100, 0x01)\n      dup2\n      sload\n      swap1\n      0xffffffffffffffffffffffffffffffffffffffff\n      mul\n      not\n      and\n      swap1\n      sstore\n      pop\n      pop\n        /* \"src/SBC.sol\":1202:1211  uint256 i */\n      0x00\n        /* \"src/SBC.sol\":1214:1215  0 */\n      0x00\n        /* \"src/SBC.sol\":1202:1215  uint256 i = 0 */\n      swap1\n      pop\n        /* \"src/SBC.sol\":1197:1482  for (uint256 i = 0; i < allStudentIds.length; i++) {... */\n    tag_234:\n        /* \"src/SBC.sol\":1221:1234  allStudentIds */\n      0x08\n        /* \"src/SBC.sol\":1221:1241  allStudentIds.length */\n      dup1\n      sload\n      swap1\n      pop\n        /* \"src/SBC.sol\":1217:1218  i */\n      dup2\n        /* \"src/SBC.sol\":1217:1241  i < allStudentIds.length */\n      lt\n        /* \"src/SBC.sol\":1197:1482  for (uint256 i = 0; i < allStudentIds.length; i++) {... */\n      iszero\n      tag_235\n      jumpi\n        /* \"src/SBC.sol\":1290:1299  studentId */\n      dup3\n        /* \"src/SBC.sol\":1270:1283  allStudentIds */\n      0x08\n        /* \"src/SBC.sol\":1284:1285  i */\n      dup3\n        /* \"src/SBC.sol\":1270:1286  allStudentIds[i] */\n      dup2\n      sload\n      dup2\n      lt\n      tag_237\n      jumpi\n      tag_238\n      tag_157\n      jump\t// in\n    tag_238:\n    tag_237:\n      swap1\n      0x00\n      mstore\n      keccak256(0x00, 0x20)\n      add\n      sload\n        /* \"src/SBC.sol\":1270:1299  allStudentIds[i] == studentId */\n      sub\n        /* \"src/SBC.sol\":1266:1468  if (allStudentIds[i] == studentId) {... */\n      tag_240\n      jumpi\n        /* \"src/SBC.sol\":1342:1355  allStudentIds */\n      0x08\n        /* \"src/SBC.sol\":1379:1380  1 */\n      0x01\n        /* \"src/SBC.sol\":1356:1369  allStudentIds */\n      0x08\n        /* \"src/SBC.sol\":1356:1376  allStudentIds.length */\n      dup1\n      sload\n      swap1\n      pop\n        /* \"src/SBC.sol\":1356:1380  allStudentIds.length - 1 */\n      tag_241\n      swap2\n      swap1\n      tag_161\n      jump\t// in\n    tag_241:\n        /* \"src/SBC.sol\":1342:1381  allStudentIds[allStudentIds.length - 1] */\n      dup2\n      sload\n      dup2\n      lt\n      tag_242\n      jumpi\n      tag_243\n      tag_157\n      jump\t// in\n    tag_243:\n    tag_242:\n      swap1\n      0x00\n      mstore\n      keccak256(0x00, 0x20)\n      add\n      sload\n        /* \"src/SBC.sol\":1323:1336  allStudentIds */\n      0x08\n        /* \"src/SBC.sol\":1337:1338  i */\n      dup3\n        /* \"src/SBC.sol\":1323:1339  allStudentIds[i] */\n      dup2\n      sload\n      dup2\n      lt\n      tag_245\n      jumpi\n      tag_246\n      tag_157\n      jump\t// in\n    tag_246:\n    tag_245:\n      swap1\n      0x00\n      mstore\n      keccak256(0x00, 0x20)\n      add\n        /* \"src/SBC.sol\":1323:1381  allStudentIds[i] = allStudentIds[allStudentIds.length - 1] */\n      dup2\n      swap1\n      sstore\n      pop\n        /* \"src/SBC.sol\":1403:1416  allStudentIds */\n      0x08\n        /* \"src/SBC.sol\":1403:1422  allStudentIds.pop() */\n      dup1\n      sload\n      dup1\n      tag_248\n      jumpi\n      tag_249\n      tag_170\n      jump\t// in\n    tag_249:\n    tag_248:\n      0x01\n      swap1\n      sub\n      dup2\n      dup2\n      swap1\n      0x00\n      mstore\n      keccak256(0x00, 0x20)\n      add\n      0x00\n      swap1\n      sstore\n      swap1\n      sstore\n        /* \"src/SBC.sol\":1444:1449  break */\n      jump(tag_235)\n        /* \"src/SBC.sol\":1266:1468  if (allStudentIds[i] == studentId) {... */\n    tag_240:\n        /* \"src/SBC.sol\":1243:1246  i++ */\n      dup1\n      dup1\n      0x01\n      add\n      swap2\n      pop\n      pop\n        /* \"src/SBC.sol\":1197:1482  for (uint256 i = 0; i < allStudentIds.length; i++) {... */\n      jump(tag_234)\n    tag_235:\n      pop\n        /* \"src/SBC.sol\":1113:1492  if (oldWallet != address(0)) {... */\n    tag_232:\n        /* \"src/SBC.sol\":1548:1686  Student({... */\n      mload(0x40)\n      dup1\n      0x80\n      add\n      0x40\n      mstore\n      dup1\n        /* \"src/SBC.sol\":1576:1580  name */\n      dup5\n        /* \"src/SBC.sol\":1548:1686  Student({... */\n      dup2\n      mstore\n      0x20\n      add\n        /* \"src/SBC.sol\":1605:1614  studentId */\n      dup4\n        /* \"src/SBC.sol\":1548:1686  Student({... */\n      dup2\n      mstore\n      0x20\n      add\n        /* \"src/SBC.sol\":1643:1647  true */\n      0x01\n        /* \"src/SBC.sol\":1548:1686  Student({... */\n      iszero\n      iszero\n      dup2\n      mstore\n      0x20\n      add\n        /* \"src/SBC.sol\":1669:1675  wallet */\n      dup6\n        /* \"src/SBC.sol\":1548:1686  Student({... */\n      0xffffffffffffffffffffffffffffffffffffffff\n      and\n      dup2\n      mstore\n      pop\n        /* \"src/SBC.sol\":1529:1537  students */\n      0x06\n        /* \"src/SBC.sol\":1529:1545  students[wallet] */\n      0x00\n        /* \"src/SBC.sol\":1538:1544  wallet */\n      dup7\n        /* \"src/SBC.sol\":1529:1545  students[wallet] */\n      0xffffffffffffffffffffffffffffffffffffffff\n      and\n      0xffffffffffffffffffffffffffffffffffffffff\n      and\n      dup2\n      mstore\n      0x20\n      add\n      swap1\n      dup2\n      mstore\n      0x20\n      add\n      0x00\n      keccak256\n        /* \"src/SBC.sol\":1529:1686  students[wallet] = Student({... */\n      0x00\n      dup3\n      add\n      mload\n      dup2\n      0x00\n      add\n      swap1\n      dup2\n      tag_251\n      swap2\n      swap1\n      tag_252\n      jump\t// in\n    tag_251:\n      pop\n      0x20\n      dup3\n      add\n      mload\n      dup2\n      0x01\n      add\n      sstore\n      0x40\n      dup3\n      add\n      mload\n      dup2\n      0x02\n      add\n      exp(0x0100, 0x00)\n      dup2\n      sload\n      dup2\n      0xff\n      mul\n      not\n      and\n      swap1\n      dup4\n      iszero\n      iszero\n      mul\n      or\n      swap1\n      sstore\n      pop\n      0x60\n      dup3\n      add\n      mload\n      dup2\n      0x02\n      add\n      exp(0x0100, 0x01)\n      dup2\n      sload\n      dup2\n      0xffffffffffffffffffffffffffffffffffffffff\n      mul\n      not\n      and\n      swap1\n      dup4\n      0xffffffffffffffffffffffffffffffffffffffff\n      and\n      mul\n      or\n      swap1\n      sstore\n      pop\n      swap1\n      pop\n      pop\n        /* \"src/SBC.sol\":1721:1727  wallet */\n      dup4\n        /* \"src/SBC.sol\":1697:1707  idToWallet */\n      0x07\n        /* \"src/SBC.sol\":1697:1718  idToWallet[studentId] */\n      0x00\n        /* \"src/SBC.sol\":1708:1717  studentId */\n      dup5\n        /* \"src/SBC.sol\":1697:1718  idToWallet[studentId] */\n      dup2\n      mstore\n      0x20\n      add\n      swap1\n      dup2\n      mstore\n      0x20\n      add\n      0x00\n      keccak256\n      0x00\n        /* \"src/SBC.sol\":1697:1727  idToWallet[studentId] = wallet */\n      0x0100\n      exp\n      dup2\n      sload\n      dup2\n      0xffffffffffffffffffffffffffffffffffffffff\n      mul\n      not\n      and\n      swap1\n      dup4\n      0xffffffffffffffffffffffffffffffffffffffff\n      and\n      mul\n      or\n      swap1\n      sstore\n      pop\n        /* \"src/SBC.sol\":1737:1750  allStudentIds */\n      0x08\n        /* \"src/SBC.sol\":1756:1765  studentId */\n      dup3\n        /* \"src/SBC.sol\":1737:1766  allStudentIds.push(studentId) */\n      swap1\n      dup1\n      0x01\n      dup2\n      sload\n      add\n      dup1\n      dup3\n      sstore\n      dup1\n      swap2\n      pop\n      pop\n      0x01\n      swap1\n      sub\n      swap1\n      0x00\n      mstore\n      keccak256(0x00, 0x20)\n      add\n      0x00\n      swap1\n      swap2\n      swap1\n      swap2\n      swap1\n      swap2\n      pop\n      sstore\n        /* \"src/SBC.sol\":1809:1818  studentId */\n      dup2\n        /* \"src/SBC.sol\":1795:1801  wallet */\n      dup5\n        /* \"src/SBC.sol\":1782:1819  StudentAdded(wallet, name, studentId) */\n      0xffffffffffffffffffffffffffffffffffffffff\n      and\n      0xac4a9513a5c8018262c0b02f41b831ce95aeefa4b387b7c565885fb0d0012d86\n        /* \"src/SBC.sol\":1803:1807  name */\n      dup6\n        /* \"src/SBC.sol\":1782:1819  StudentAdded(wallet, name, studentId) */\n      mload(0x40)\n      tag_254\n      swap2\n      swap1\n      tag_30\n      jump\t// in\n    tag_254:\n      mload(0x40)\n      dup1\n      swap2\n      sub\n      swap1\n      log3\n        /* \"src/SBC.sol\":1010:1826  {... */\n      pop\n        /* \"src/SBC.sol\":898:1826  function addStudent(... */\n      pop\n      pop\n      pop\n      jump\t// out\n        /* \"lib/openzeppelin-contracts/contracts/access/Ownable.sol\":2543:2758  function transferOwnership(address newOwner) public virtual onlyOwner {... */\n    tag_111:\n        /* \"lib/openzeppelin-contracts/contracts/access/Ownable.sol\":1531:1544  _checkOwner() */\n      tag_256\n        /* \"lib/openzeppelin-contracts/contracts/access/Ownable.sol\":1531:1542  _checkOwner */\n      tag_136\n        /* \"lib/openzeppelin-contracts/contracts/access/Ownable.sol\":1531:1544  _checkOwner() */\n      jump\t// in\n    tag_256:\n        /* \"lib/openzeppelin-contracts/contracts/access/Ownable.sol\":2647:2648  0 */\n      0x00\n        /* \"lib/openzeppelin-contracts/contracts/access/Ownable.sol\":2627:2649  newOwner == address(0) */\n      0xffffffffffffffffffffffffffffffffffffffff\n      and\n        /* \"lib/openzeppelin-contracts/contracts/access/Ownable.sol\":2627:2635  newOwner */\n      dup2\n        /* \"lib/openzeppelin-contracts/contracts/access/Ownable.sol\":2627:2649  newOwner == address(0) */\n      0xffffffffffffffffffffffffffffffffffffffff\n      and\n      sub\n        /* \"lib/openzeppelin-contracts/contracts/access/Ownable.sol\":2623:2714  if (newOwner == address(0)) {... */\n      tag_258\n      jumpi\n        /* \"lib/openzeppelin-contracts/contracts/access/Ownable.sol\":2700:2701  0 */\n      0x00\n        /* \"lib/openzeppelin-contracts/contracts/access/Ownable.sol\":2672:2703  OwnableInvalidOwner(address(0)) */\n      mload(0x40)\n      0x1e4fbdf700000000000000000000000000000000000000000000000000000000\n      dup2\n      mstore\n      0x04\n      add\n      tag_259\n      swap2\n      swap1\n      tag_71\n      jump\t// in\n    tag_259:\n      mload(0x40)\n      dup1\n      swap2\n      sub\n      swap1\n      revert\n        /* \"lib/openzeppelin-contracts/contracts/access/Ownable.sol\":2623:2714  if (newOwner == address(0)) {... */\n    tag_258:\n        /* \"lib/openzeppelin-contracts/contracts/access/Ownable.sol\":2723:2751  _transferOwnership(newOwner) */\n      tag_260\n        /* \"lib/openzeppelin-contracts/contracts/access/Ownable.sol\":2742:2750  newOwner */\n      dup2\n        /* \"lib/openzeppelin-contracts/contracts/access/Ownable.sol\":2723:2741  _transferOwnership */\n      tag_177\n        /* \"lib/openzeppelin-contracts/contracts/access/Ownable.sol\":2723:2751  _transferOwnership(newOwner) */\n      jump\t// in\n    tag_260:\n        /* \"lib/openzeppelin-contracts/contracts/access/Ownable.sol\":2543:2758  function transferOwnership(address newOwner) public virtual onlyOwner {... */\n      pop\n      jump\t// out\n        /* \"lib/openzeppelin-contracts/contracts/utils/Context.sol\":656:752  function _msgSender() internal view virtual returns (address) {... */\n    tag_121:\n        /* \"lib/openzeppelin-contracts/contracts/utils/Context.sol\":709:716  address */\n      0x00\n        /* \"lib/openzeppelin-contracts/contracts/utils/Context.sol\":735:745  msg.sender */\n      caller\n        /* \"lib/openzeppelin-contracts/contracts/utils/Context.sol\":728:745  return msg.sender */\n      swap1\n      pop\n        /* \"lib/openzeppelin-contracts/contracts/utils/Context.sol\":656:752  function _msgSender() internal view virtual returns (address) {... */\n      swap1\n      jump\t// out\n        /* \"lib/openzeppelin-contracts/contracts/token/ERC20/ERC20.sol\":8630:8758  function _approve(address owner, address spender, uint256 value) internal {... */\n    tag_123:\n        /* \"lib/openzeppelin-contracts/contracts/token/ERC20/ERC20.sol\":8714:8751  _approve(owner, spender, value, true) */\n      tag_263\n        /* \"lib/openzeppelin-contracts/contracts/token/ERC20/ERC20.sol\":8723:8728  owner */\n      dup4\n        /* \"lib/openzeppelin-contracts/contracts/token/ERC20/ERC20.sol\":8730:8737  spender */\n      dup4\n        /* \"lib/openzeppelin-contracts/contracts/token/ERC20/ERC20.sol\":8739:8744  value */\n      dup4\n        /* \"lib/openzeppelin-contracts/contracts/token/ERC20/ERC20.sol\":8746:8750  true */\n      0x01\n        /* \"lib/openzeppelin-contracts/contracts/token/ERC20/ERC20.sol\":8714:8722  _approve */\n      tag_264\n        /* \"lib/openzeppelin-contracts/contracts/token/ERC20/ERC20.sol\":8714:8751  _approve(owner, spender, value, true) */\n      jump\t// in\n    tag_263:\n        /* \"lib/openzeppelin-contracts/contracts/token/ERC20/ERC20.sol\":8630:8758  function _approve(address owner, address spender, uint256 value) internal {... */\n      pop\n      pop\n      pop\n      jump\t// out\n        /* \"lib/openzeppelin-contracts/contracts/token/ERC20/ERC20.sol\":10321:10797  function _spendAllowance(address owner, address spender, uint256 value) internal virtual {... */\n    tag_130:\n        /* \"lib/openzeppelin-contracts/contracts/token/ERC20/ERC20.sol\":10420:10444  uint256 currentAllowance */\n      0x00\n        /* \"lib/openzeppelin-contracts/contracts/token/ERC20/ERC20.sol\":10447:10472  allowance(owner, spender) */\n      tag_266\n        /* \"lib/openzeppelin-contracts/contracts/token/ERC20/ERC20.sol\":10457:10462  owner */\n      dup5\n        /* \"lib/openzeppelin-contracts/contracts/token/ERC20/ERC20.sol\":10464:10471  spender */\n      dup5\n        /* \"lib/openzeppelin-contracts/contracts/token/ERC20/ERC20.sol\":10447:10456  allowance */\n      tag_99\n        /* \"lib/openzeppelin-contracts/contracts/token/ERC20/ERC20.sol\":10447:10472  allowance(owner, spender) */\n      jump\t// in\n    tag_266:\n        /* \"lib/openzeppelin-contracts/contracts/token/ERC20/ERC20.sol\":10420:10472  uint256 currentAllowance = allowance(owner, spender) */\n      swap1\n      pop\n        /* \"lib/openzeppelin-contracts/contracts/token/ERC20/ERC20.sol\":10505:10522  type(uint256).max */\n      0xffffffffffffffffffffffffffffffffffffffffffffffffffffffffffffffff\n        /* \"lib/openzeppelin-contracts/contracts/token/ERC20/ERC20.sol\":10486:10502  currentAllowance */\n      dup2\n        /* \"lib/openzeppelin-contracts/contracts/token/ERC20/ERC20.sol\":10486:10522  currentAllowance < type(uint256).max */\n      lt\n        /* \"lib/openzeppelin-contracts/contracts/token/ERC20/ERC20.sol\":10482:10791  if (currentAllowance < type(uint256).max) {... */\n      iszero\n      tag_267\n      jumpi\n        /* \"lib/openzeppelin-contracts/contracts/token/ERC20/ERC20.sol\":10561:10566  value */\n      dup2\n        /* \"lib/openzeppelin-contracts/contracts/token/ERC20/ERC20.sol\":10542:10558  currentAllowance */\n      dup2\n        /* \"lib/openzeppelin-contracts/contracts/token/ERC20/ERC20.sol\":10542:10566  currentAllowance < value */\n      lt\n        /* \"lib/openzeppelin-contracts/contracts/token/ERC20/ERC20.sol\":10538:10668  if (currentAllowance < value) {... */\n      iszero\n      tag_268\n      jumpi\n        /* \"lib/openzeppelin-contracts/contracts/token/ERC20/ERC20.sol\":10620:10627  spender */\n      dup3\n        /* \"lib/openzeppelin-contracts/contracts/token/ERC20/ERC20.sol\":10629:10645  currentAllowance */\n      dup2\n        /* \"lib/openzeppelin-contracts/contracts/token/ERC20/ERC20.sol\":10647:10652  value */\n      dup4\n        /* \"lib/openzeppelin-contracts/contracts/token/ERC20/ERC20.sol\":10593:10653  ERC20InsufficientAllowance(spender, currentAllowance, value) */\n      mload(0x40)\n      0xfb8f41b200000000000000000000000000000000000000000000000000000000\n      dup2\n      mstore\n      0x04\n      add\n      tag_269\n      swap4\n      swap3\n      swap2\n      swap1\n      tag_270\n      jump\t// in\n    tag_269:\n      mload(0x40)\n      dup1\n      swap2\n      sub\n      swap1\n      revert\n        /* \"lib/openzeppelin-contracts/contracts/token/ERC20/ERC20.sol\":10538:10668  if (currentAllowance < value) {... */\n    tag_268:\n        /* \"lib/openzeppelin-contracts/contracts/token/ERC20/ERC20.sol\":10709:10766  _approve(owner, spender, currentAllowance - value, false) */\n      tag_271\n        /* \"lib/openzeppelin-contracts/contracts/token/ERC20/ERC20.sol\":10718:10723  owner */\n      dup5\n        /* \"lib/openzeppelin-contracts/contracts/token/ERC20/ERC20.sol\":10725:10732  spender */\n      dup5\n        /* \"lib/openzeppelin-contracts/contracts/token/ERC20/ERC20.sol\":10753:10758  value */\n      dup5\n        /* \"lib/openzeppelin-contracts/contracts/token/ERC20/ERC20.sol\":10734:10750  currentAllowance */\n      dup5\n        /* \"lib/openzeppelin-contracts/contracts/token/ERC20/ERC20.sol\":10734:10758  currentAllowance - value */\n      sub\n        /* \"lib/openzeppelin-contracts/contracts/token/ERC20/ERC20.sol\":10760:10765  false */\n      0x00\n        /* \"lib/openzeppelin-contracts/contracts/token/ERC20/ERC20.sol\":10709:10717  _approve */\n      tag_264\n        /* \"lib/openzeppelin-contracts/contracts/token/ERC20/ERC20.sol\":10709:10766  _approve(owner, spender, currentAllowance - value, false) */\n      jump\t// in\n    tag_271:\n        /* \"lib/openzeppelin-contracts/contracts/token/ERC20/ERC20.sol\":10482:10791  if (currentAllowance < type(uint256).max) {... */\n    tag_267:\n        /* \"lib/openzeppelin-contracts/contracts/token/ERC20/ERC20.sol\":10410:10797  {... */\n      pop\n        /* \"lib/openzeppelin-contracts/contracts/token/ERC20/ERC20.sol\":10321:10797  function _spendAllowance(address owner, address spender, uint256 value) internal virtual {... */\n      pop\n      pop\n      pop\n      jump\t// out\n        /* \"lib/openzeppelin-contracts/contracts/token/ERC20/ERC20.sol\":5297:5597  function _transfer(address from, address to, uint256 value) internal {... */\n    tag_132:\n        /* \"lib/openzeppelin-contracts/contracts/token/ERC20/ERC20.sol\":5396:5397  0 */\n      0x00\n        /* \"lib/openzeppelin-contracts/contracts/token/ERC20/ERC20.sol\":5380:5398  from == address(0) */\n      0xffffffffffffffffffffffffffffffffffffffff\n      and\n        /* \"lib/openzeppelin-contracts/contracts/token/ERC20/ERC20.sol\":5380:5384  from */\n      dup4\n        /* \"lib/openzeppelin-contracts/contracts/token/ERC20/ERC20.sol\":5380:5398  from == address(0) */\n      0xffffffffffffffffffffffffffffffffffffffff\n      and\n      sub\n        /* \"lib/openzeppelin-contracts/contracts/token/ERC20/ERC20.sol\":5376:5462  if (from == address(0)) {... */\n      tag_273\n      jumpi\n        /* \"lib/openzeppelin-contracts/contracts/token/ERC20/ERC20.sol\":5448:5449  0 */\n      0x00\n        /* \"lib/openzeppelin-contracts/contracts/token/ERC20/ERC20.sol\":5421:5451  ERC20InvalidSender(address(0)) */\n      mload(0x40)\n      0x96c6fd1e00000000000000000000000000000000000000000000000000000000\n      dup2\n      mstore\n      0x04\n      add\n      tag_274\n      swap2\n      swap1\n      tag_71\n      jump\t// in\n    tag_274:\n      mload(0x40)\n      dup1\n      swap2\n      sub\n      swap1\n      revert\n        /* \"lib/openzeppelin-contracts/contracts/token/ERC20/ERC20.sol\":5376:5462  if (from == address(0)) {... */\n    tag_273:\n        /* \"lib/openzeppelin-contracts/contracts/token/ERC20/ERC20.sol\":5489:5490  0 */\n      0x00\n        /* \"lib/openzeppelin-contracts/contracts/token/ERC20/ERC20.sol\":5475:5491  to == address(0) */\n      0xffffffffffffffffffffffffffffffffffffffff\n      and\n        /* \"lib/openzeppelin-contracts/contracts/token/ERC20/ERC20.sol\":5475:5477  to */\n      dup3\n        /* \"lib/openzeppelin-contracts/contracts/token/ERC20/ERC20.sol\":5475:5491  to == address(0) */\n      0xffffffffffffffffffffffffffffffffffffffff\n      and\n      sub\n        /* \"lib/openzeppelin-contracts/contracts/token/ERC20/ERC20.sol\":5471:5557  if (to == address(0)) {... */\n      tag_275\n      jumpi\n        /* \"lib/openzeppelin-contracts/contracts/token/ERC20/ERC20.sol\":5543:5544  0 */\n      0x00\n        /* \"lib/openzeppelin-contracts/contracts/token/ERC20/ERC20.sol\":5514:5546  ERC20InvalidReceiver(address(0)) */\n      mload(0x40)\n      0xec442f0500000000000000000000000000000000000000000000000000000000\n      dup2\n      mstore\n      0x04\n      add\n      tag_276\n      swap2\n      swap1\n      tag_71\n      jump\t// in\n    tag_276:\n      mload(0x40)\n      dup1\n      swap2\n      sub\n      swap1\n      revert\n        /* \"lib/openzeppelin-contracts/contracts/token/ERC20/ERC20.sol\":5471:5557  if (to == address(0)) {... */\n    tag_275:\n        /* \"lib/openzeppelin-contracts/contracts/token/ERC20/ERC20.sol\":5566:5590  _update(from, to, value) */\n      tag_277\n        /* \"lib/openzeppelin-contracts/contracts/token/ERC20/ERC20.sol\":5574:5578  from */\n      dup4\n        /* \"lib/openzeppelin-contracts/contracts/token/ERC20/ERC20.sol\":5580:5582  to */\n      dup4\n        /* \"lib/openzeppelin-contracts/contracts/token/ERC20/ERC20.sol\":5584:5589  value */\n      dup4\n        /* \"lib/openzeppelin-contracts/contracts/token/ERC20/ERC20.sol\":5566:5573  _update */\n      tag_278\n        /* \"lib/openzeppelin-contracts/contracts/token/ERC20/ERC20.sol\":5566:5590  _update(from, to, value) */\n      jump\t// in\n    tag_277:\n        /* \"lib/openzeppelin-contracts/contracts/token/ERC20/ERC20.sol\":5297:5597  function _transfer(address from, address to, uint256 value) internal {... */\n      pop\n      pop\n      pop\n      jump\t// out\n        /* \"lib/openzeppelin-contracts/contracts/access/Ownable.sol\":1796:1958  function _checkOwner() internal view virtual {... */\n    tag_136:\n        /* \"lib/openzeppelin-contracts/contracts/access/Ownable.sol\":1866:1878  _msgSender() */\n      tag_280\n        /* \"lib/openzeppelin-contracts/contracts/access/Ownable.sol\":1866:1876  _msgSender */\n      tag_121\n        /* \"lib/openzeppelin-contracts/contracts/access/Ownable.sol\":1866:1878  _msgSender() */\n      jump\t// in\n    tag_280:\n        /* \"lib/openzeppelin-contracts/contracts/access/Ownable.sol\":1855:1878  owner() != _msgSender() */\n      0xffffffffffffffffffffffffffffffffffffffff\n      and\n        /* \"lib/openzeppelin-contracts/contracts/access/Ownable.sol\":1855:1862  owner() */\n      tag_281\n        /* \"lib/openzeppelin-contracts/contracts/access/Ownable.sol\":1855:1860  owner */\n      tag_69\n        /* \"lib/openzeppelin-contracts/contracts/access/Ownable.sol\":1855:1862  owner() */\n      jump\t// in\n    tag_281:\n        /* \"lib/openzeppelin-contracts/contracts/access/Ownable.sol\":1855:1878  owner() != _msgSender() */\n      0xffffffffffffffffffffffffffffffffffffffff\n      and\n      eq\n        /* \"lib/openzeppelin-contracts/contracts/access/Ownable.sol\":1851:1952  if (owner() != _msgSender()) {... */\n      tag_282\n      jumpi\n        /* \"lib/openzeppelin-contracts/contracts/access/Ownable.sol\":1928:1940  _msgSender() */\n      tag_283\n        /* \"lib/openzeppelin-contracts/contracts/access/Ownable.sol\":1928:1938  _msgSender */\n      tag_121\n        /* \"lib/openzeppelin-contracts/contracts/access/Ownable.sol\":1928:1940  _msgSender() */\n      jump\t// in\n    tag_283:\n        /* \"lib/openzeppelin-contracts/contracts/access/Ownable.sol\":1901:1941  OwnableUnauthorizedAccount(_msgSender()) */\n      mload(0x40)\n      0x118cdaa700000000000000000000000000000000000000000000000000000000\n      dup2\n      mstore\n      0x04\n      add\n      tag_284\n      swap2\n      swap1\n      tag_71\n      jump\t// in\n    tag_284:\n      mload(0x40)\n      dup1\n      swap2\n      sub\n      swap1\n      revert\n        /* \"lib/openzeppelin-contracts/contracts/access/Ownable.sol\":1851:1952  if (owner() != _msgSender()) {... */\n    tag_282:\n        /* \"lib/openzeppelin-contracts/contracts/access/Ownable.sol\":1796:1958  function _checkOwner() internal view virtual {... */\n      jump\t// out\n        /* \"lib/openzeppelin-contracts/contracts/token/ERC20/ERC20.sol\":7362:7570  function _mint(address account, uint256 value) internal {... */\n    tag_142:\n        /* \"lib/openzeppelin-contracts/contracts/token/ERC20/ERC20.sol\":7451:7452  0 */\n      0x00\n        /* \"lib/openzeppelin-contracts/contracts/token/ERC20/ERC20.sol\":7432:7453  account == address(0) */\n      0xffffffffffffffffffffffffffffffffffffffff\n      and\n        /* \"lib/openzeppelin-contracts/contracts/token/ERC20/ERC20.sol\":7432:7439  account */\n      dup3\n        /* \"lib/openzeppelin-contracts/contracts/token/ERC20/ERC20.sol\":7432:7453  account == address(0) */\n      0xffffffffffffffffffffffffffffffffffffffff\n      and\n      sub\n        /* \"lib/openzeppelin-contracts/contracts/token/ERC20/ERC20.sol\":7428:7519  if (account == address(0)) {... */\n      tag_286\n      jumpi\n        /* \"lib/openzeppelin-contracts/contracts/token/ERC20/ERC20.sol\":7505:7506  0 */\n      0x00\n        /* \"lib/openzeppelin-contracts/contracts/token/ERC20/ERC20.sol\":7476:7508  ERC20InvalidReceiver(address(0)) */\n      mload(0x40)\n      0xec442f0500000000000000000000000000000000000000000000000000000000\n      dup2\n      mstore\n      0x04\n      add\n      tag_287\n      swap2\n      swap1\n      tag_71\n      jump\t// in\n    tag_287:\n      mload(0x40)\n      dup1\n      swap2\n      sub\n      swap1\n      revert\n        /* \"lib/openzeppelin-contracts/contracts/token/ERC20/ERC20.sol\":7428:7519  if (account == address(0)) {... */\n    tag_286:\n        /* \"lib/openzeppelin-contracts/contracts/token/ERC20/ERC20.sol\":7528:7563  _update(address(0), account, value) */\n      tag_288\n        /* \"lib/openzeppelin-contracts/contracts/token/ERC20/ERC20.sol\":7544:7545  0 */\n      0x00\n        /* \"lib/openzeppelin-contracts/contracts/token/ERC20/ERC20.sol\":7548:7555  account */\n      dup4\n        /* \"lib/openzeppelin-contracts/contracts/token/ERC20/ERC20.sol\":7557:7562  value */\n      dup4\n        /* \"lib/openzeppelin-contracts/contracts/token/ERC20/ERC20.sol\":7528:7535  _update */\n      tag_278\n        /* \"lib/openzeppelin-contracts/contracts/token/ERC20/ERC20.sol\":7528:7563  _update(address(0), account, value) */\n      jump\t// in\n    tag_288:\n        /* \"lib/openzeppelin-contracts/contracts/token/ERC20/ERC20.sol\":7362:7570  function _mint(address account, uint256 value) internal {... */\n      pop\n      pop\n      jump\t// out\n        /* \"lib/openzeppelin-contracts/contracts/access/Ownable.sol\":2912:3099  function _transferOwnership(address newOwner) internal virtual {... */\n    tag_177:\n        /* \"lib/openzeppelin-contracts/contracts/access/Ownable.sol\":2985:3001  address oldOwner */\n      0x00\n        /* \"lib/openzeppelin-contracts/contracts/access/Ownable.sol\":3004:3010  _owner */\n      0x05\n      0x00\n      swap1\n      sload\n      swap1\n      0x0100\n      exp\n      swap1\n      div\n      0xffffffffffffffffffffffffffffffffffffffff\n      and\n        /* \"lib/openzeppelin-contracts/contracts/access/Ownable.sol\":2985:3010  address oldOwner = _owner */\n      swap1\n      pop\n        /* \"lib/openzeppelin-contracts/contracts/access/Ownable.sol\":3029:3037  newOwner */\n      dup2\n        /* \"lib/openzeppelin-contracts/contracts/access/Ownable.sol\":3020:3026  _owner */\n      0x05\n      0x00\n        /* \"lib/openzeppelin-contracts/contracts/access/Ownable.sol\":3020:3037  _owner = newOwner */\n      0x0100\n      exp\n      dup2\n      sload\n      dup2\n      0xffffffffffffffffffffffffffffffffffffffff\n      mul\n      not\n      and\n      swap1\n      dup4\n      0xffffffffffffffffffffffffffffffffffffffff\n      and\n      mul\n      or\n      swap1\n      sstore\n      pop\n        /* \"lib/openzeppelin-contracts/contracts/access/Ownable.sol\":3083:3091  newOwner */\n      dup2\n        /* \"lib/openzeppelin-contracts/contracts/access/Ownable.sol\":3052:3092  OwnershipTransferred(oldOwner, newOwner) */\n      0xffffffffffffffffffffffffffffffffffffffff\n      and\n        /* \"lib/openzeppelin-contracts/contracts/access/Ownable.sol\":3073:3081  oldOwner */\n      dup2\n        /* \"lib/openzeppelin-contracts/contracts/access/Ownable.sol\":3052:3092  OwnershipTransferred(oldOwner, newOwner) */\n      0xffffffffffffffffffffffffffffffffffffffff\n      and\n      0x8be0079c531659141344cd1fd0a4f28419497f9722a3daafe3b4186f6b6457e0\n      mload(0x40)\n      mload(0x40)\n      dup1\n      swap2\n      sub\n      swap1\n      log3\n        /* \"lib/openzeppelin-contracts/contracts/access/Ownable.sol\":2975:3099  {... */\n      pop\n        /* \"lib/openzeppelin-contracts/contracts/access/Ownable.sol\":2912:3099  function _transferOwnership(address newOwner) internal virtual {... */\n      pop\n      jump\t// out\n        /* \"lib/openzeppelin-contracts/contracts/token/ERC20/ERC20.sol\":7888:8094  function _burn(address account, uint256 value) internal {... */\n    tag_189:\n        /* \"lib/openzeppelin-contracts/contracts/token/ERC20/ERC20.sol\":7977:7978  0 */\n      0x00\n        /* \"lib/openzeppelin-contracts/contracts/token/ERC20/ERC20.sol\":7958:7979  account == address(0) */\n      0xffffffffffffffffffffffffffffffffffffffff\n      and\n        /* \"lib/openzeppelin-contracts/contracts/token/ERC20/ERC20.sol\":7958:7965  account */\n      dup3\n        /* \"lib/openzeppelin-contracts/contracts/token/ERC20/ERC20.sol\":7958:7979  account == address(0) */\n      0xffffffffffffffffffffffffffffffffffffffff\n      and\n      sub\n        /* \"lib/openzeppelin-contracts/contracts/token/ERC20/ERC20.sol\":7954:8043  if (account == address(0)) {... */\n      tag_291\n      jumpi\n        /* \"lib/openzeppelin-contracts/contracts/token/ERC20/ERC20.sol\":8029:8030  0 */\n      0x00\n        /* \"lib/openzeppelin-contracts/contracts/token/ERC20/ERC20.sol\":8002:8032  ERC20InvalidSender(address(0)) */\n      mload(0x40)\n      0x96c6fd1e00000000000000000000000000000000000000000000000000000000\n      dup2\n      mstore\n      0x04\n      add\n      tag_292\n      swap2\n      swap1\n      tag_71\n      jump\t// in\n    tag_292:\n      mload(0x40)\n      dup1\n      swap2\n      sub\n      swap1\n      revert\n        /* \"lib/openzeppelin-contracts/contracts/token/ERC20/ERC20.sol\":7954:8043  if (account == address(0)) {... */\n    tag_291:\n        /* \"lib/openzeppelin-contracts/contracts/token/ERC20/ERC20.sol\":8052:8087  _update(account, address(0), value) */\n      tag_293\n        /* \"lib/openzeppelin-contracts/contracts/token/ERC20/ERC20.sol\":8060:8067  account */\n      dup3\n        /* \"lib/openzeppelin-contracts/contracts/token/ERC20/ERC20.sol\":8077:8078  0 */\n      0x00\n        /* \"lib/openzeppelin-contracts/contracts/token/ERC20/ERC20.sol\":8081:8086  value */\n      dup4\n        /* \"lib/openzeppelin-contracts/contracts/token/ERC20/ERC20.sol\":8052:8059  _update */\n      tag_278\n        /* \"lib/openzeppelin-contracts/contracts/token/ERC20/ERC20.sol\":8052:8087  _update(account, address(0), value) */\n      jump\t// in\n    tag_293:\n        /* \"lib/openzeppelin-contracts/contracts/token/ERC20/ERC20.sol\":7888:8094  function _burn(address account, uint256 value) internal {... */\n      pop\n      pop\n      jump\t// out\n        /* \"lib/openzeppelin-contracts/contracts/token/ERC20/ERC20.sol\":9607:10039  function _approve(address owner, address spender, uint256 value, bool emitEvent) internal virtual {... */\n    tag_264:\n        /* \"lib/openzeppelin-contracts/contracts/token/ERC20/ERC20.sol\":9736:9737  0 */\n      0x00\n        /* \"lib/openzeppelin-contracts/contracts/token/ERC20/ERC20.sol\":9719:9738  owner == address(0) */\n      0xffffffffffffffffffffffffffffffffffffffff\n      and\n        /* \"lib/openzeppelin-contracts/contracts/token/ERC20/ERC20.sol\":9719:9724  owner */\n      dup5\n        /* \"lib/openzeppelin-contracts/contracts/token/ERC20/ERC20.sol\":9719:9738  owner == address(0) */\n      0xffffffffffffffffffffffffffffffffffffffff\n      and\n      sub\n        /* \"lib/openzeppelin-contracts/contracts/token/ERC20/ERC20.sol\":9715:9804  if (owner == address(0)) {... */\n      tag_295\n      jumpi\n        /* \"lib/openzeppelin-contracts/contracts/token/ERC20/ERC20.sol\":9790:9791  0 */\n      0x00\n        /* \"lib/openzeppelin-contracts/contracts/token/ERC20/ERC20.sol\":9761:9793  ERC20InvalidApprover(address(0)) */\n      mload(0x40)\n      0xe602df0500000000000000000000000000000000000000000000000000000000\n      dup2\n      mstore\n      0x04\n      add\n      tag_296\n      swap2\n      swap1\n      tag_71\n      jump\t// in\n    tag_296:\n      mload(0x40)\n      dup1\n      swap2\n      sub\n      swap1\n      revert\n        /* \"lib/openzeppelin-contracts/contracts/token/ERC20/ERC20.sol\":9715:9804  if (owner == address(0)) {... */\n    tag_295:\n        /* \"lib/openzeppelin-contracts/contracts/token/ERC20/ERC20.sol\":9836:9837  0 */\n      0x00\n        /* \"lib/openzeppelin-contracts/contracts/token/ERC20/ERC20.sol\":9817:9838  spender == address(0) */\n      0xffffffffffffffffffffffffffffffffffffffff\n      and\n        /* \"lib/openzeppelin-contracts/contracts/token/ERC20/ERC20.sol\":9817:9824  spender */\n      dup4\n        /* \"lib/openzeppelin-contracts/contracts/token/ERC20/ERC20.sol\":9817:9838  spender == address(0) */\n      0xffffffffffffffffffffffffffffffffffffffff\n      and\n      sub\n        /* \"lib/openzeppelin-contracts/contracts/token/ERC20/ERC20.sol\":9813:9903  if (spender == address(0)) {... */\n      tag_297\n      jumpi\n        /* \"lib/openzeppelin-contracts/contracts/token/ERC20/ERC20.sol\":9889:9890  0 */\n      0x00\n        /* \"lib/openzeppelin-contracts/contracts/token/ERC20/ERC20.sol\":9861:9892  ERC20InvalidSpender(address(0)) */\n      mload(0x40)\n      0x94280d6200000000000000000000000000000000000000000000000000000000\n      dup2\n      mstore\n      0x04\n      add\n      tag_298\n      swap2\n      swap1\n      tag_71\n      jump\t// in\n    tag_298:\n      mload(0x40)\n      dup1\n      swap2\n      sub\n      swap1\n      revert\n        /* \"lib/openzeppelin-contracts/contracts/token/ERC20/ERC20.sol\":9813:9903  if (spender == address(0)) {... */\n    tag_297:\n        /* \"lib/openzeppelin-contracts/contracts/token/ERC20/ERC20.sol\":9942:9947  value */\n      dup2\n        /* \"lib/openzeppelin-contracts/contracts/token/ERC20/ERC20.sol\":9912:9923  _allowances */\n      0x01\n        /* \"lib/openzeppelin-contracts/contracts/token/ERC20/ERC20.sol\":9912:9930  _allowances[owner] */\n      0x00\n        /* \"lib/openzeppelin-contracts/contracts/token/ERC20/ERC20.sol\":9924:9929  owner */\n      dup7\n        /* \"lib/openzeppelin-contracts/contracts/token/ERC20/ERC20.sol\":9912:9930  _allowances[owner] */\n      0xffffffffffffffffffffffffffffffffffffffff\n      and\n      0xffffffffffffffffffffffffffffffffffffffff\n      and\n      dup2\n      mstore\n      0x20\n      add\n      swap1\n      dup2\n      mstore\n      0x20\n      add\n      0x00\n      keccak256\n        /* \"lib/openzeppelin-contracts/contracts/token/ERC20/ERC20.sol\":9912:9939  _allowances[owner][spender] */\n      0x00\n        /* \"lib/openzeppelin-contracts/contracts/token/ERC20/ERC20.sol\":9931:9938  spender */\n      dup6\n        /* \"lib/openzeppelin-contracts/contracts/token/ERC20/ERC20.sol\":9912:9939  _allowances[owner][spender] */\n      0xffffffffffffffffffffffffffffffffffffffff\n      and\n      0xffffffffffffffffffffffffffffffffffffffff\n      and\n      dup2\n      mstore\n      0x20\n      add\n      swap1\n      dup2\n      mstore\n      0x20\n      add\n      0x00\n      keccak256\n        /* \"lib/openzeppelin-contracts/contracts/token/ERC20/ERC20.sol\":9912:9947  _allowances[owner][spender] = value */\n      dup2\n      swap1\n      sstore\n      pop\n        /* \"lib/openzeppelin-contracts/contracts/token/ERC20/ERC20.sol\":9961:9970  emitEvent */\n      dup1\n        /* \"lib/openzeppelin-contracts/contracts/token/ERC20/ERC20.sol\":9957:10033  if (emitEvent) {... */\n      iszero\n      tag_299\n      jumpi\n        /* \"lib/openzeppelin-contracts/contracts/token/ERC20/ERC20.sol\":10007:10014  spender */\n      dup3\n        /* \"lib/openzeppelin-contracts/contracts/token/ERC20/ERC20.sol\":9991:10022  Approval(owner, spender, value) */\n      0xffffffffffffffffffffffffffffffffffffffff\n      and\n        /* \"lib/openzeppelin-contracts/contracts/token/ERC20/ERC20.sol\":10000:10005  owner */\n      dup5\n        /* \"lib/openzeppelin-contracts/contracts/token/ERC20/ERC20.sol\":9991:10022  Approval(owner, spender, value) */\n      0xffffffffffffffffffffffffffffffffffffffff\n      and\n      0x8c5be1e5ebec7d5bd14f71427d1e84f3dd0314c0f7b2291e5b200ac8c7c3b925\n        /* \"lib/openzeppelin-contracts/contracts/token/ERC20/ERC20.sol\":10016:10021  value */\n      dup5\n        /* \"lib/openzeppelin-contracts/contracts/token/ERC20/ERC20.sol\":9991:10022  Approval(owner, spender, value) */\n      mload(0x40)\n      tag_300\n      swap2\n      swap1\n      tag_42\n      jump\t// in\n    tag_300:\n      mload(0x40)\n      dup1\n      swap2\n      sub\n      swap1\n      log3\n        /* \"lib/openzeppelin-contracts/contracts/token/ERC20/ERC20.sol\":9957:10033  if (emitEvent) {... */\n    tag_299:\n        /* \"lib/openzeppelin-contracts/contracts/token/ERC20/ERC20.sol\":9607:10039  function _approve(address owner, address spender, uint256 value, bool emitEvent) internal virtual {... */\n      pop\n      pop\n      pop\n      pop\n      jump\t// out\n        /* \"src/SBC.sol\":3525:3892  function _update(address from, address to, uint256 value) internal override {... */\n    tag_278:\n        /* \"src/SBC.sol\":3631:3632  0 */\n      0x00\n        /* \"src/SBC.sol\":3615:3633  from == address(0) */\n      0xffffffffffffffffffffffffffffffffffffffff\n      and\n        /* \"src/SBC.sol\":3615:3619  from */\n      dup4\n        /* \"src/SBC.sol\":3615:3633  from == address(0) */\n      0xffffffffffffffffffffffffffffffffffffffff\n      and\n      sub\n        /* \"src/SBC.sol\":3611:3846  if (from == address(0)) {... */\n      tag_302\n      jumpi\n        /* \"src/SBC.sol\":3657:3665  students */\n      0x06\n        /* \"src/SBC.sol\":3657:3669  students[to] */\n      0x00\n        /* \"src/SBC.sol\":3666:3668  to */\n      dup4\n        /* \"src/SBC.sol\":3657:3669  students[to] */\n      0xffffffffffffffffffffffffffffffffffffffff\n      and\n      0xffffffffffffffffffffffffffffffffffffffff\n      and\n      dup2\n      mstore\n      0x20\n      add\n      swap1\n      dup2\n      mstore\n      0x20\n      add\n      0x00\n      keccak256\n        /* \"src/SBC.sol\":3657:3683  students[to].isWhitelisted */\n      0x02\n      add\n      0x00\n      swap1\n      sload\n      swap1\n      0x0100\n      exp\n      swap1\n      div\n      0xff\n      and\n        /* \"src/SBC.sol\":3649:3718  require(students[to].isWhitelisted, \"Mint recipient not whitelisted\") */\n      tag_303\n      jumpi\n      mload(0x40)\n      0x08c379a000000000000000000000000000000000000000000000000000000000\n      dup2\n      mstore\n      0x04\n      add\n      tag_304\n      swap1\n      tag_305\n      jump\t// in\n    tag_304:\n      mload(0x40)\n      dup1\n      swap2\n      sub\n      swap1\n      revert\n    tag_303:\n        /* \"src/SBC.sol\":3611:3846  if (from == address(0)) {... */\n      jump(tag_306)\n    tag_302:\n        /* \"src/SBC.sol\":3753:3754  0 */\n      0x00\n        /* \"src/SBC.sol\":3739:3755  to != address(0) */\n      0xffffffffffffffffffffffffffffffffffffffff\n      and\n        /* \"src/SBC.sol\":3739:3741  to */\n      dup3\n        /* \"src/SBC.sol\":3739:3755  to != address(0) */\n      0xffffffffffffffffffffffffffffffffffffffff\n      and\n      eq\n        /* \"src/SBC.sol\":3735:3846  if (to != address(0)) {... */\n      tag_307\n      jumpi\n        /* \"src/SBC.sol\":3779:3787  students */\n      0x06\n        /* \"src/SBC.sol\":3779:3791  students[to] */\n      0x00\n        /* \"src/SBC.sol\":3788:3790  to */\n      dup4\n        /* \"src/SBC.sol\":3779:3791  students[to] */\n      0xffffffffffffffffffffffffffffffffffffffff\n      and\n      0xffffffffffffffffffffffffffffffffffffffff\n      and\n      dup2\n      mstore\n      0x20\n      add\n      swap1\n      dup2\n      mstore\n      0x20\n      add\n      0x00\n      keccak256\n        /* \"src/SBC.sol\":3779:3805  students[to].isWhitelisted */\n      0x02\n      add\n      0x00\n      swap1\n      sload\n      swap1\n      0x0100\n      exp\n      swap1\n      div\n      0xff\n      and\n        /* \"src/SBC.sol\":3771:3835  require(students[to].isWhitelisted, \"Recipient not whitelisted\") */\n      tag_308\n      jumpi\n      mload(0x40)\n      0x08c379a000000000000000000000000000000000000000000000000000000000\n      dup2\n      mstore\n      0x04\n      add\n      tag_309\n      swap1\n      tag_140\n      jump\t// in\n    tag_309:\n      mload(0x40)\n      dup1\n      swap2\n      sub\n      swap1\n      revert\n    tag_308:\n        /* \"src/SBC.sol\":3735:3846  if (to != address(0)) {... */\n    tag_307:\n        /* \"src/SBC.sol\":3611:3846  if (from == address(0)) {... */\n    tag_306:\n        /* \"src/SBC.sol\":3855:3885  super._update(from, to, value) */\n      tag_310\n        /* \"src/SBC.sol\":3869:3873  from */\n      dup4\n        /* \"src/SBC.sol\":3875:3877  to */\n      dup4\n        /* \"src/SBC.sol\":3879:3884  value */\n      dup4\n        /* \"src/SBC.sol\":3855:3868  super._update */\n      tag_311\n        /* \"src/SBC.sol\":3855:3885  super._update(from, to, value) */\n      jump\t// in\n    tag_310:\n        /* \"src/SBC.sol\":3525:3892  function _update(address from, address to, uint256 value) internal override {... */\n      pop\n      pop\n      pop\n      jump\t// out\n        /* \"lib/openzeppelin-contracts/contracts/token/ERC20/ERC20.sol\":5912:7019  function _update(address from, address to, uint256 value) internal virtual {... */\n    tag_311:\n        /* \"lib/openzeppelin-contracts/contracts/token/ERC20/ERC20.sol\":6017:6018  0 */\n      0x00\n        /* \"lib/openzeppelin-contracts/contracts/token/ERC20/ERC20.sol\":6001:6019  from == address(0) */\n      0xffffffffffffffffffffffffffffffffffffffff\n      and\n        /* \"lib/openzeppelin-contracts/contracts/token/ERC20/ERC20.sol\":6001:6005  from */\n      dup4\n        /* \"lib/openzeppelin-contracts/contracts/token/ERC20/ERC20.sol\":6001:6019  from == address(0) */\n      0xffffffffffffffffffffffffffffffffffffffff\n      and\n      sub\n        /* \"lib/openzeppelin-contracts/contracts/token/ERC20/ERC20.sol\":5997:6537  if (from == address(0)) {... */\n      tag_313\n      jumpi\n        /* \"lib/openzeppelin-contracts/contracts/token/ERC20/ERC20.sol\":6153:6158  value */\n      dup1\n        /* \"lib/openzeppelin-contracts/contracts/token/ERC20/ERC20.sol\":6137:6149  _totalSupply */\n      0x02\n      0x00\n        /* \"lib/openzeppelin-contracts/contracts/token/ERC20/ERC20.sol\":6137:6158  _totalSupply += value */\n      dup3\n      dup3\n      sload\n      tag_314\n      swap2\n      swap1\n      tag_315\n      jump\t// in\n    tag_314:\n      swap3\n      pop\n      pop\n      dup2\n      swap1\n      sstore\n      pop\n        /* \"lib/openzeppelin-contracts/contracts/token/ERC20/ERC20.sol\":5997:6537  if (from == address(0)) {... */\n      jump(tag_316)\n    tag_313:\n        /* \"lib/openzeppelin-contracts/contracts/token/ERC20/ERC20.sol\":6189:6208  uint256 fromBalance */\n      0x00\n        /* \"lib/openzeppelin-contracts/contracts/token/ERC20/ERC20.sol\":6211:6220  _balances */\n      0x00\n        /* \"lib/openzeppelin-contracts/contracts/token/ERC20/ERC20.sol\":6211:6226  _balances[from] */\n      0x00\n        /* \"lib/openzeppelin-contracts/contracts/token/ERC20/ERC20.sol\":6221:6225  from */\n      dup6\n        /* \"lib/openzeppelin-contracts/contracts/token/ERC20/ERC20.sol\":6211:6226  _balances[from] */\n      0xffffffffffffffffffffffffffffffffffffffff\n      and\n      0xffffffffffffffffffffffffffffffffffffffff\n      and\n      dup2\n      mstore\n      0x20\n      add\n      swap1\n      dup2\n      mstore\n      0x20\n      add\n      0x00\n      keccak256\n      sload\n        /* \"lib/openzeppelin-contracts/contracts/token/ERC20/ERC20.sol\":6189:6226  uint256 fromBalance = _balances[from] */\n      swap1\n      pop\n        /* \"lib/openzeppelin-contracts/contracts/token/ERC20/ERC20.sol\":6258:6263  value */\n      dup2\n        /* \"lib/openzeppelin-contracts/contracts/token/ERC20/ERC20.sol\":6244:6255  fromBalance */\n      dup2\n        /* \"lib/openzeppelin-contracts/contracts/token/ERC20/ERC20.sol\":6244:6263  fromBalance < value */\n      lt\n        /* \"lib/openzeppelin-contracts/contracts/token/ERC20/ERC20.sol\":6240:6355  if (fromBalance < value) {... */\n      iszero\n      tag_317\n      jumpi\n        /* \"lib/openzeppelin-contracts/contracts/token/ERC20/ERC20.sol\":6315:6319  from */\n      dup4\n        /* \"lib/openzeppelin-contracts/contracts/token/ERC20/ERC20.sol\":6321:6332  fromBalance */\n      dup2\n        /* \"lib/openzeppelin-contracts/contracts/token/ERC20/ERC20.sol\":6334:6339  value */\n      dup4\n        /* \"lib/openzeppelin-contracts/contracts/token/ERC20/ERC20.sol\":6290:6340  ERC20InsufficientBalance(from, fromBalance, value) */\n      mload(0x40)\n      0xe450d38c00000000000000000000000000000000000000000000000000000000\n      dup2\n      mstore\n      0x04\n      add\n      tag_318\n      swap4\n      swap3\n      swap2\n      swap1\n      tag_270\n      jump\t// in\n    tag_318:\n      mload(0x40)\n      dup1\n      swap2\n      sub\n      swap1\n      revert\n        /* \"lib/openzeppelin-contracts/contracts/token/ERC20/ERC20.sol\":6240:6355  if (fromBalance < value) {... */\n    tag_317:\n        /* \"lib/openzeppelin-contracts/contracts/token/ERC20/ERC20.sol\":6507:6512  value */\n      dup2\n        /* \"lib/openzeppelin-contracts/contracts/token/ERC20/ERC20.sol\":6493:6504  fromBalance */\n      dup2\n        /* \"lib/openzeppelin-contracts/contracts/token/ERC20/ERC20.sol\":6493:6512  fromBalance - value */\n      sub\n        /* \"lib/openzeppelin-contracts/contracts/token/ERC20/ERC20.sol\":6475:6484  _balances */\n      0x00\n        /* \"lib/openzeppelin-contracts/contracts/token/ERC20/ERC20.sol\":6475:6490  _balances[from] */\n      0x00\n        /* \"lib/openzeppelin-contracts/contracts/token/ERC20/ERC20.sol\":6485:6489  from */\n      dup7\n        /* \"lib/openzeppelin-contracts/contracts/token/ERC20/ERC20.sol\":6475:6490  _balances[from] */\n      0xffffffffffffffffffffffffffffffffffffffff\n      and\n      0xffffffffffffffffffffffffffffffffffffffff\n      and\n      dup2\n      mstore\n      0x20\n      add\n      swap1\n      dup2\n      mstore\n      0x20\n      add\n      0x00\n      keccak256\n        /* \"lib/openzeppelin-contracts/contracts/token/ERC20/ERC20.sol\":6475:6512  _balances[from] = fromBalance - value */\n      dup2\n      swap1\n      sstore\n      pop\n        /* \"lib/openzeppelin-contracts/contracts/token/ERC20/ERC20.sol\":6175:6537  {... */\n      pop\n        /* \"lib/openzeppelin-contracts/contracts/token/ERC20/ERC20.sol\":5997:6537  if (from == address(0)) {... */\n    tag_316:\n        /* \"lib/openzeppelin-contracts/contracts/token/ERC20/ERC20.sol\":6565:6566  0 */\n      0x00\n        /* \"lib/openzeppelin-contracts/contracts/token/ERC20/ERC20.sol\":6551:6567  to == address(0) */\n      0xffffffffffffffffffffffffffffffffffffffff\n      and\n        /* \"lib/openzeppelin-contracts/contracts/token/ERC20/ERC20.sol\":6551:6553  to */\n      dup3\n        /* \"lib/openzeppelin-contracts/contracts/token/ERC20/ERC20.sol\":6551:6567  to == address(0) */\n      0xffffffffffffffffffffffffffffffffffffffff\n      and\n      sub\n        /* \"lib/openzeppelin-contracts/contracts/token/ERC20/ERC20.sol\":6547:6972  if (to == address(0)) {... */\n      tag_319\n      jumpi\n        /* \"lib/openzeppelin-contracts/contracts/token/ERC20/ERC20.sol\":6730:6735  value */\n      dup1\n        /* \"lib/openzeppelin-contracts/contracts/token/ERC20/ERC20.sol\":6714:6726  _totalSupply */\n      0x02\n      0x00\n        /* \"lib/openzeppelin-contracts/contracts/token/ERC20/ERC20.sol\":6714:6735  _totalSupply -= value */\n      dup3\n      dup3\n      sload\n      sub\n      swap3\n      pop\n      pop\n      dup2\n      swap1\n      sstore\n      pop\n        /* \"lib/openzeppelin-contracts/contracts/token/ERC20/ERC20.sol\":6547:6972  if (to == address(0)) {... */\n      jump(tag_320)\n    tag_319:\n        /* \"lib/openzeppelin-contracts/contracts/token/ERC20/ERC20.sol\":6942:6947  value */\n      dup1\n        /* \"lib/openzeppelin-contracts/contracts/token/ERC20/ERC20.sol\":6925:6934  _balances */\n      0x00\n        /* \"lib/openzeppelin-contracts/contracts/token/ERC20/ERC20.sol\":6925:6938  _balances[to] */\n      0x00\n        /* \"lib/openzeppelin-contracts/contracts/token/ERC20/ERC20.sol\":6935:6937  to */\n      dup5\n        /* \"lib/openzeppelin-contracts/contracts/token/ERC20/ERC20.sol\":6925:6938  _balances[to] */\n      0xffffffffffffffffffffffffffffffffffffffff\n      and\n      0xffffffffffffffffffffffffffffffffffffffff\n      and\n      dup2\n      mstore\n      0x20\n      add\n      swap1\n      dup2\n      mstore\n      0x20\n      add\n      0x00\n      keccak256\n      0x00\n        /* \"lib/openzeppelin-contracts/contracts/token/ERC20/ERC20.sol\":6925:6947  _balances[to] += value */\n      dup3\n      dup3\n      sload\n      add\n      swap3\n      pop\n      pop\n      dup2\n      swap1\n      sstore\n      pop\n        /* \"lib/openzeppelin-contracts/contracts/token/ERC20/ERC20.sol\":6547:6972  if (to == address(0)) {... */\n    tag_320:\n        /* \"lib/openzeppelin-contracts/contracts/token/ERC20/ERC20.sol\":7002:7004  to */\n      dup2\n        /* \"lib/openzeppelin-contracts/contracts/token/ERC20/ERC20.sol\":6987:7012  Transfer(from, to, value) */\n      0xffffffffffffffffffffffffffffffffffffffff\n      and\n        /* \"lib/openzeppelin-contracts/contracts/token/ERC20/ERC20.sol\":6996:7000  from */\n      dup4\n        /* \"lib/openzeppelin-contracts/contracts/token/ERC20/ERC20.sol\":6987:7012  Transfer(from, to, value) */\n      0xffffffffffffffffffffffffffffffffffffffff\n      and\n      0xddf252ad1be2c89b69c2b068fc378daa952ba7f163c4a11628f55a4df523b3ef\n        /* \"lib/openzeppelin-contracts/contracts/token/ERC20/ERC20.sol\":7006:7011  value */\n      dup4\n        /* \"lib/openzeppelin-contracts/contracts/token/ERC20/ERC20.sol\":6987:7012  Transfer(from, to, value) */\n      mload(0x40)\n      tag_321\n      swap2\n      swap1\n      tag_42\n      jump\t// in\n    tag_321:\n      mload(0x40)\n      dup1\n      swap2\n      sub\n      swap1\n      log3\n        /* \"lib/openzeppelin-contracts/contracts/token/ERC20/ERC20.sol\":5912:7019  function _update(address from, address to, uint256 value) internal virtual {... */\n      pop\n      pop\n      pop\n      jump\t// out\n    tag_151:\n      pop\n      dup1\n      sload\n      tag_322\n      swap1\n      tag_114\n      jump\t// in\n    tag_322:\n      0x00\n      dup3\n      sstore\n      dup1\n      0x1f\n      lt\n      tag_324\n      jumpi\n      pop\n      jump(tag_323)\n    tag_324:\n      0x1f\n      add\n      0x20\n      swap1\n      div\n      swap1\n      0x00\n      mstore\n      keccak256(0x00, 0x20)\n      swap1\n      dup2\n      add\n      swap1\n      tag_325\n      swap2\n      swap1\n      tag_326\n      jump\t// in\n    tag_325:\n    tag_323:\n      pop\n      jump\t// out\n    tag_200:\n      mload(0x40)\n      dup1\n      0x80\n      add\n      0x40\n      mstore\n      dup1\n      0x60\n      dup2\n      mstore\n      0x20\n      add\n      0x00\n      dup2\n      mstore\n      0x20\n      add\n      iszero(iszero(0x00))\n      dup2\n      mstore\n      0x20\n      add\n      and(0xffffffffffffffffffffffffffffffffffffffff, 0x00)\n      dup2\n      mstore\n      pop\n      swap1\n      jump\t// out\n    tag_326:\n    tag_327:\n      dup1\n      dup3\n      gt\n      iszero\n      tag_328\n      jumpi\n      0x00\n      dup2\n      0x00\n      swap1\n      sstore\n      pop\n      0x01\n      add\n      jump(tag_327)\n    tag_328:\n      pop\n      swap1\n      jump\t// out\n        /* \"#utility.yul\":7:106   */\n    tag_329:\n        /* \"#utility.yul\":59:65   */\n      0x00\n        /* \"#utility.yul\":93:98   */\n      dup2\n        /* \"#utility.yul\":87:99   */\n      mload\n        /* \"#utility.yul\":77:99   */\n      swap1\n      pop\n        /* \"#utility.yul\":7:106   */\n      swap2\n      swap1\n      pop\n      jump\t// out\n        /* \"#utility.yul\":112:281   */\n    tag_330:\n        /* \"#utility.yul\":196:207   */\n      0x00\n        /* \"#utility.yul\":230:236   */\n      dup3\n        /* \"#utility.yul\":225:228   */\n      dup3\n        /* \"#utility.yul\":218:237   */\n      mstore\n        /* \"#utility.yul\":270:274   */\n      0x20\n        /* \"#utility.yul\":265:268   */\n      dup3\n        /* \"#utility.yul\":261:275   */\n      add\n        /* \"#utility.yul\":246:275   */\n      swap1\n      pop\n        /* \"#utility.yul\":112:281   */\n      swap3\n      swap2\n      pop\n      pop\n      jump\t// out\n        /* \"#utility.yul\":287:426   */\n    tag_331:\n        /* \"#utility.yul\":376:382   */\n      dup3\n        /* \"#utility.yul\":371:374   */\n      dup2\n        /* \"#utility.yul\":366:369   */\n      dup4\n        /* \"#utility.yul\":360:383   */\n      mcopy\n        /* \"#utility.yul\":417:418   */\n      0x00\n        /* \"#utility.yul\":408:414   */\n      dup4\n        /* \"#utility.yul\":403:406   */\n      dup4\n        /* \"#utility.yul\":399:415   */\n      add\n        /* \"#utility.yul\":392:419   */\n      mstore\n        /* \"#utility.yul\":287:426   */\n      pop\n      pop\n      pop\n      jump\t// out\n        /* \"#utility.yul\":432:534   */\n    tag_332:\n        /* \"#utility.yul\":473:479   */\n      0x00\n        /* \"#utility.yul\":524:526   */\n      0x1f\n        /* \"#utility.yul\":520:527   */\n      not\n        /* \"#utility.yul\":515:517   */\n      0x1f\n        /* \"#utility.yul\":508:513   */\n      dup4\n        /* \"#utility.yul\":504:518   */\n      add\n        /* \"#utility.yul\":500:528   */\n      and\n        /* \"#utility.yul\":490:528   */\n      swap1\n      pop\n        /* \"#utility.yul\":432:534   */\n      swap2\n      swap1\n      pop\n      jump\t// out\n        /* \"#utility.yul\":540:917   */\n    tag_333:\n        /* \"#utility.yul\":628:631   */\n      0x00\n        /* \"#utility.yul\":656:695   */\n      tag_400\n        /* \"#utility.yul\":689:694   */\n      dup3\n        /* \"#utility.yul\":656:695   */\n      tag_329\n      jump\t// in\n    tag_400:\n        /* \"#utility.yul\":711:782   */\n      tag_401\n        /* \"#utility.yul\":775:781   */\n      dup2\n        /* \"#utility.yul\":770:773   */\n      dup6\n        /* \"#utility.yul\":711:782   */\n      tag_330\n      jump\t// in\n    tag_401:\n        /* \"#utility.yul\":704:782   */\n      swap4\n      pop\n        /* \"#utility.yul\":791:856   */\n      tag_402\n        /* \"#utility.yul\":849:855   */\n      dup2\n        /* \"#utility.yul\":844:847   */\n      dup6\n        /* \"#utility.yul\":837:841   */\n      0x20\n        /* \"#utility.yul\":830:835   */\n      dup7\n        /* \"#utility.yul\":826:842   */\n      add\n        /* \"#utility.yul\":791:856   */\n      tag_331\n      jump\t// in\n    tag_402:\n        /* \"#utility.yul\":881:910   */\n      tag_403\n        /* \"#utility.yul\":903:909   */\n      dup2\n        /* \"#utility.yul\":881:910   */\n      tag_332\n      jump\t// in\n    tag_403:\n        /* \"#utility.yul\":876:879   */\n      dup5\n        /* \"#utility.yul\":872:911   */\n      add\n        /* \"#utility.yul\":865:911   */\n      swap2\n      pop\n        /* \"#utility.yul\":632:917   */\n      pop\n        /* \"#utility.yul\":540:917   */\n      swap3\n      swap2\n      pop\n      pop\n      jump\t// out\n        /* \"#utility.yul\":923:1236   */\n    tag_30:\n        /* \"#utility.yul\":1036:1040   */\n      0x00\n        /* \"#utility.yul\":1074:1076   */\n      0x20\n        /* \"#utility.yul\":1063:1072   */\n      dup3\n        /* \"#utility.yul\":1059:1077   */\n      add\n        /* \"#utility.yul\":1051:1077   */\n      swap1\n      pop\n        /* \"#utility.yul\":1123:1132   */\n      dup2\n        /* \"#utility.yul\":1117:1121   */\n      dup2\n        /* \"#utility.yul\":1113:1133   */\n      sub\n        /* \"#utility.yul\":1109:1110   */\n      0x00\n        /* \"#utility.yul\":1098:1107   */\n      dup4\n        /* \"#utility.yul\":1094:1111   */\n      add\n        /* \"#utility.yul\":1087:1134   */\n      mstore\n        /* \"#utility.yul\":1151:1229   */\n      tag_405\n        /* \"#utility.yul\":1224:1228   */\n      dup2\n        /* \"#utility.yul\":1215:1221   */\n      dup5\n        /* \"#utility.yul\":1151:1229   */\n      tag_333\n      jump\t// in\n    tag_405:\n        /* \"#utility.yul\":1143:1229   */\n      swap1\n      pop\n        /* \"#utility.yul\":923:1236   */\n      swap3\n      swap2\n      pop\n      pop\n      jump\t// out\n        /* \"#utility.yul\":1242:1317   */\n    tag_334:\n        /* \"#utility.yul\":1275:1281   */\n      0x00\n        /* \"#utility.yul\":1308:1310   */\n      0x40\n        /* \"#utility.yul\":1302:1311   */\n      mload\n        /* \"#utility.yul\":1292:1311   */\n      swap1\n      pop\n        /* \"#utility.yul\":1242:1317   */\n      swap1\n      jump\t// out\n        /* \"#utility.yul\":1323:1440   */\n    tag_335:\n        /* \"#utility.yul\":1432:1433   */\n      0x00\n        /* \"#utility.yul\":1429:1430   */\n      0x00\n        /* \"#utility.yul\":1422:1434   */\n      revert\n        /* \"#utility.yul\":1446:1563   */\n    tag_336:\n        /* \"#utility.yul\":1555:1556   */\n      0x00\n        /* \"#utility.yul\":1552:1553   */\n      0x00\n        /* \"#utility.yul\":1545:1557   */\n      revert\n        /* \"#utility.yul\":1569:1695   */\n    tag_337:\n        /* \"#utility.yul\":1606:1613   */\n      0x00\n        /* \"#utility.yul\":1646:1688   */\n      0xffffffffffffffffffffffffffffffffffffffff\n        /* \"#utility.yul\":1639:1644   */\n      dup3\n        /* \"#utility.yul\":1635:1689   */\n      and\n        /* \"#utility.yul\":1624:1689   */\n      swap1\n      pop\n        /* \"#utility.yul\":1569:1695   */\n      swap2\n      swap1\n      pop\n      jump\t// out\n        /* \"#utility.yul\":1701:1797   */\n    tag_338:\n        /* \"#utility.yul\":1738:1745   */\n      0x00\n        /* \"#utility.yul\":1767:1791   */\n      tag_411\n        /* \"#utility.yul\":1785:1790   */\n      dup3\n        /* \"#utility.yul\":1767:1791   */\n      tag_337\n      jump\t// in\n    tag_411:\n        /* \"#utility.yul\":1756:1791   */\n      swap1\n      pop\n        /* \"#utility.yul\":1701:1797   */\n      swap2\n      swap1\n      pop\n      jump\t// out\n        /* \"#utility.yul\":1803:1925   */\n    tag_339:\n        /* \"#utility.yul\":1876:1900   */\n      tag_413\n        /* \"#utility.yul\":1894:1899   */\n      dup2\n        /* \"#utility.yul\":1876:1900   */\n      tag_338\n      jump\t// in\n    tag_413:\n        /* \"#utility.yul\":1869:1874   */\n      dup2\n        /* \"#utility.yul\":1866:1901   */\n      eq\n        /* \"#utility.yul\":1856:1919   */\n      tag_414\n      jumpi\n        /* \"#utility.yul\":1915:1916   */\n      0x00\n        /* \"#utility.yul\":1912:1913   */\n      0x00\n        /* \"#utility.yul\":1905:1917   */\n      revert\n        /* \"#utility.yul\":1856:1919   */\n    tag_414:\n        /* \"#utility.yul\":1803:1925   */\n      pop\n      jump\t// out\n        /* \"#utility.yul\":1931:2070   */\n    tag_340:\n        /* \"#utility.yul\":1977:1982   */\n      0x00\n        /* \"#utility.yul\":2015:2021   */\n      dup2\n        /* \"#utility.yul\":2002:2022   */\n      calldataload\n        /* \"#utility.yul\":1993:2022   */\n      swap1\n      pop\n        /* \"#utility.yul\":2031:2064   */\n      tag_416\n        /* \"#utility.yul\":2058:2063   */\n      dup2\n        /* \"#utility.yul\":2031:2064   */\n      tag_339\n      jump\t// in\n    tag_416:\n        /* \"#utility.yul\":1931:2070   */\n      swap3\n      swap2\n      pop\n      pop\n      jump\t// out\n        /* \"#utility.yul\":2076:2153   */\n    tag_341:\n        /* \"#utility.yul\":2113:2120   */\n      0x00\n        /* \"#utility.yul\":2142:2147   */\n      dup2\n        /* \"#utility.yul\":2131:2147   */\n      swap1\n      pop\n        /* \"#utility.yul\":2076:2153   */\n      swap2\n      swap1\n      pop\n      jump\t// out\n        /* \"#utility.yul\":2159:2281   */\n    tag_342:\n        /* \"#utility.yul\":2232:2256   */\n      tag_419\n        /* \"#utility.yul\":2250:2255   */\n      dup2\n        /* \"#utility.yul\":2232:2256   */\n      tag_341\n      jump\t// in\n    tag_419:\n        /* \"#utility.yul\":2225:2230   */\n      dup2\n        /* \"#utility.yul\":2222:2257   */\n      eq\n        /* \"#utility.yul\":2212:2275   */\n      tag_420\n      jumpi\n        /* \"#utility.yul\":2271:2272   */\n      0x00\n        /* \"#utility.yul\":2268:2269   */\n      0x00\n        /* \"#utility.yul\":2261:2273   */\n      revert\n        /* \"#utility.yul\":2212:2275   */\n    tag_420:\n        /* \"#utility.yul\":2159:2281   */\n      pop\n      jump\t// out\n        /* \"#utility.yul\":2287:2426   */\n    tag_343:\n        /* \"#utility.yul\":2333:2338   */\n      0x00\n        /* \"#utility.yul\":2371:2377   */\n      dup2\n        /* \"#utility.yul\":2358:2378   */\n      calldataload\n        /* \"#utility.yul\":2349:2378   */\n      swap1\n      pop\n        /* \"#utility.yul\":2387:2420   */\n      tag_422\n        /* \"#utility.yul\":2414:2419   */\n      dup2\n        /* \"#utility.yul\":2387:2420   */\n      tag_342\n      jump\t// in\n    tag_422:\n        /* \"#utility.yul\":2287:2426   */\n      swap3\n      swap2\n      pop\n      pop\n      jump\t// out\n        /* \"#utility.yul\":2432:2906   */\n    tag_33:\n        /* \"#utility.yul\":2500:2506   */\n      0x00\n        /* \"#utility.yul\":2508:2514   */\n      0x00\n        /* \"#utility.yul\":2557:2559   */\n      0x40\n        /* \"#utility.yul\":2545:2554   */\n      dup4\n        /* \"#utility.yul\":2536:2543   */\n      dup6\n        /* \"#utility.yul\":2532:2555   */\n      sub\n        /* \"#utility.yul\":2528:2560   */\n      slt\n        /* \"#utility.yul\":2525:2644   */\n      iszero\n      tag_424\n      jumpi\n        /* \"#utility.yul\":2563:2642   */\n      tag_425\n      tag_335\n      jump\t// in\n    tag_425:\n        /* \"#utility.yul\":2525:2644   */\n    tag_424:\n        /* \"#utility.yul\":2683:2684   */\n      0x00\n        /* \"#utility.yul\":2708:2761   */\n      tag_426\n        /* \"#utility.yul\":2753:2760   */\n      dup6\n        /* \"#utility.yul\":2744:2750   */\n      dup3\n        /* \"#utility.yul\":2733:2742   */\n      dup7\n        /* \"#utility.yul\":2729:2751   */\n      add\n        /* \"#utility.yul\":2708:2761   */\n      tag_340\n      jump\t// in\n    tag_426:\n        /* \"#utility.yul\":2698:2761   */\n      swap3\n      pop\n        /* \"#utility.yul\":2654:2771   */\n      pop\n        /* \"#utility.yul\":2810:2812   */\n      0x20\n        /* \"#utility.yul\":2836:2889   */\n      tag_427\n        /* \"#utility.yul\":2881:2888   */\n      dup6\n        /* \"#utility.yul\":2872:2878   */\n      dup3\n        /* \"#utility.yul\":2861:2870   */\n      dup7\n        /* \"#utility.yul\":2857:2879   */\n      add\n        /* \"#utility.yul\":2836:2889   */\n      tag_343\n      jump\t// in\n    tag_427:\n        /* \"#utility.yul\":2826:2889   */\n      swap2\n      pop\n        /* \"#utility.yul\":2781:2899   */\n      pop\n        /* \"#utility.yul\":2432:2906   */\n      swap3\n      pop\n      swap3\n      swap1\n      pop\n      jump\t// out\n        /* \"#utility.yul\":2912:3002   */\n    tag_344:\n        /* \"#utility.yul\":2946:2953   */\n      0x00\n        /* \"#utility.yul\":2989:2994   */\n      dup2\n        /* \"#utility.yul\":2982:2995   */\n      iszero\n        /* \"#utility.yul\":2975:2996   */\n      iszero\n        /* \"#utility.yul\":2964:2996   */\n      swap1\n      pop\n        /* \"#utility.yul\":2912:3002   */\n      swap2\n      swap1\n      pop\n      jump\t// out\n        /* \"#utility.yul\":3008:3117   */\n    tag_345:\n        /* \"#utility.yul\":3089:3110   */\n      tag_430\n        /* \"#utility.yul\":3104:3109   */\n      dup2\n        /* \"#utility.yul\":3089:3110   */\n      tag_344\n      jump\t// in\n    tag_430:\n        /* \"#utility.yul\":3084:3087   */\n      dup3\n        /* \"#utility.yul\":3077:3111   */\n      mstore\n        /* \"#utility.yul\":3008:3117   */\n      pop\n      pop\n      jump\t// out\n        /* \"#utility.yul\":3123:3333   */\n    tag_36:\n        /* \"#utility.yul\":3210:3214   */\n      0x00\n        /* \"#utility.yul\":3248:3250   */\n      0x20\n        /* \"#utility.yul\":3237:3246   */\n      dup3\n        /* \"#utility.yul\":3233:3251   */\n      add\n        /* \"#utility.yul\":3225:3251   */\n      swap1\n      pop\n        /* \"#utility.yul\":3261:3326   */\n      tag_432\n        /* \"#utility.yul\":3323:3324   */\n      0x00\n        /* \"#utility.yul\":3312:3321   */\n      dup4\n        /* \"#utility.yul\":3308:3325   */\n      add\n        /* \"#utility.yul\":3299:3305   */\n      dup5\n        /* \"#utility.yul\":3261:3326   */\n      tag_345\n      jump\t// in\n    tag_432:\n        /* \"#utility.yul\":3123:3333   */\n      swap3\n      swap2\n      pop\n      pop\n      jump\t// out\n        /* \"#utility.yul\":3339:3668   */\n    tag_39:\n        /* \"#utility.yul\":3398:3404   */\n      0x00\n        /* \"#utility.yul\":3447:3449   */\n      0x20\n        /* \"#utility.yul\":3435:3444   */\n      dup3\n        /* \"#utility.yul\":3426:3433   */\n      dup5\n        /* \"#utility.yul\":3422:3445   */\n      sub\n        /* \"#utility.yul\":3418:3450   */\n      slt\n        /* \"#utility.yul\":3415:3534   */\n      iszero\n      tag_434\n      jumpi\n        /* \"#utility.yul\":3453:3532   */\n      tag_435\n      tag_335\n      jump\t// in\n    tag_435:\n        /* \"#utility.yul\":3415:3534   */\n    tag_434:\n        /* \"#utility.yul\":3573:3574   */\n      0x00\n        /* \"#utility.yul\":3598:3651   */\n      tag_436\n        /* \"#utility.yul\":3643:3650   */\n      dup5\n        /* \"#utility.yul\":3634:3640   */\n      dup3\n        /* \"#utility.yul\":3623:3632   */\n      dup6\n        /* \"#utility.yul\":3619:3641   */\n      add\n        /* \"#utility.yul\":3598:3651   */\n      tag_343\n      jump\t// in\n    tag_436:\n        /* \"#utility.yul\":3588:3651   */\n      swap2\n      pop\n        /* \"#utility.yul\":3544:3661   */\n      pop\n        /* \"#utility.yul\":3339:3668   */\n      swap3\n      swap2\n      pop\n      pop\n      jump\t// out\n        /* \"#utility.yul\":3674:3792   */\n    tag_346:\n        /* \"#utility.yul\":3761:3785   */\n      tag_438\n        /* \"#utility.yul\":3779:3784   */\n      dup2\n        /* \"#utility.yul\":3761:3785   */\n      tag_341\n      jump\t// in\n    tag_438:\n        /* \"#utility.yul\":3756:3759   */\n      dup3\n        /* \"#utility.yul\":3749:3786   */\n      mstore\n        /* \"#utility.yul\":3674:3792   */\n      pop\n      pop\n      jump\t// out\n        /* \"#utility.yul\":3798:4020   */\n    tag_42:\n        /* \"#utility.yul\":3891:3895   */\n      0x00\n        /* \"#utility.yul\":3929:3931   */\n      0x20\n        /* \"#utility.yul\":3918:3927   */\n      dup3\n        /* \"#utility.yul\":3914:3932   */\n      add\n        /* \"#utility.yul\":3906:3932   */\n      swap1\n      pop\n        /* \"#utility.yul\":3942:4013   */\n      tag_440\n        /* \"#utility.yul\":4010:4011   */\n      0x00\n        /* \"#utility.yul\":3999:4008   */\n      dup4\n        /* \"#utility.yul\":3995:4012   */\n      add\n        /* \"#utility.yul\":3986:3992   */\n      dup5\n        /* \"#utility.yul\":3942:4013   */\n      tag_346\n      jump\t// in\n    tag_440:\n        /* \"#utility.yul\":3798:4020   */\n      swap3\n      swap2\n      pop\n      pop\n      jump\t// out\n        /* \"#utility.yul\":4026:4645   */\n    tag_48:\n        /* \"#utility.yul\":4103:4109   */\n      0x00\n        /* \"#utility.yul\":4111:4117   */\n      0x00\n        /* \"#utility.yul\":4119:4125   */\n      0x00\n        /* \"#utility.yul\":4168:4170   */\n      0x60\n        /* \"#utility.yul\":4156:4165   */\n      dup5\n        /* \"#utility.yul\":4147:4154   */\n      dup7\n        /* \"#utility.yul\":4143:4166   */\n      sub\n        /* \"#utility.yul\":4139:4171   */\n      slt\n        /* \"#utility.yul\":4136:4255   */\n      iszero\n      tag_442\n      jumpi\n        /* \"#utility.yul\":4174:4253   */\n      tag_443\n      tag_335\n      jump\t// in\n    tag_443:\n        /* \"#utility.yul\":4136:4255   */\n    tag_442:\n        /* \"#utility.yul\":4294:4295   */\n      0x00\n        /* \"#utility.yul\":4319:4372   */\n      tag_444\n        /* \"#utility.yul\":4364:4371   */\n      dup7\n        /* \"#utility.yul\":4355:4361   */\n      dup3\n        /* \"#utility.yul\":4344:4353   */\n      dup8\n        /* \"#utility.yul\":4340:4362   */\n      add\n        /* \"#utility.yul\":4319:4372   */\n      tag_340\n      jump\t// in\n    tag_444:\n        /* \"#utility.yul\":4309:4372   */\n      swap4\n      pop\n        /* \"#utility.yul\":4265:4382   */\n      pop\n        /* \"#utility.yul\":4421:4423   */\n      0x20\n        /* \"#utility.yul\":4447:4500   */\n      tag_445\n        /* \"#utility.yul\":4492:4499   */\n      dup7\n        /* \"#utility.yul\":4483:4489   */\n      dup3\n        /* \"#utility.yul\":4472:4481   */\n      dup8\n        /* \"#utility.yul\":4468:4490   */\n      add\n        /* \"#utility.yul\":4447:4500   */\n      tag_340\n      jump\t// in\n    tag_445:\n        /* \"#utility.yul\":4437:4500   */\n      swap3\n      pop\n        /* \"#utility.yul\":4392:4510   */\n      pop\n        /* \"#utility.yul\":4549:4551   */\n      0x40\n        /* \"#utility.yul\":4575:4628   */\n      tag_446\n        /* \"#utility.yul\":4620:4627   */\n      dup7\n        /* \"#utility.yul\":4611:4617   */\n      dup3\n        /* \"#utility.yul\":4600:4609   */\n      dup8\n        /* \"#utility.yul\":4596:4618   */\n      add\n        /* \"#utility.yul\":4575:4628   */\n      tag_343\n      jump\t// in\n    tag_446:\n        /* \"#utility.yul\":4565:4628   */\n      swap2\n      pop\n        /* \"#utility.yul\":4520:4638   */\n      pop\n        /* \"#utility.yul\":4026:4645   */\n      swap3\n      pop\n      swap3\n      pop\n      swap3\n      jump\t// out\n        /* \"#utility.yul\":4651:4737   */\n    tag_347:\n        /* \"#utility.yul\":4686:4693   */\n      0x00\n        /* \"#utility.yul\":4726:4730   */\n      0xff\n        /* \"#utility.yul\":4719:4724   */\n      dup3\n        /* \"#utility.yul\":4715:4731   */\n      and\n        /* \"#utility.yul\":4704:4731   */\n      swap1\n      pop\n        /* \"#utility.yul\":4651:4737   */\n      swap2\n      swap1\n      pop\n      jump\t// out\n        /* \"#utility.yul\":4743:4855   */\n    tag_348:\n        /* \"#utility.yul\":4826:4848   */\n      tag_449\n        /* \"#utility.yul\":4842:4847   */\n      dup2\n        /* \"#utility.yul\":4826:4848   */\n      tag_347\n      jump\t// in\n    tag_449:\n        /* \"#utility.yul\":4821:4824   */\n      dup3\n        /* \"#utility.yul\":4814:4849   */\n      mstore\n        /* \"#utility.yul\":4743:4855   */\n      pop\n      pop\n      jump\t// out\n        /* \"#utility.yul\":4861:5075   */\n    tag_54:\n        /* \"#utility.yul\":4950:4954   */\n      0x00\n        /* \"#utility.yul\":4988:4990   */\n      0x20\n        /* \"#utility.yul\":4977:4986   */\n      dup3\n        /* \"#utility.yul\":4973:4991   */\n      add\n        /* \"#utility.yul\":4965:4991   */\n      swap1\n      pop\n        /* \"#utility.yul\":5001:5068   */\n      tag_451\n        /* \"#utility.yul\":5065:5066   */\n      0x00\n        /* \"#utility.yul\":5054:5063   */\n      dup4\n        /* \"#utility.yul\":5050:5067   */\n      add\n        /* \"#utility.yul\":5041:5047   */\n      dup5\n        /* \"#utility.yul\":5001:5068   */\n      tag_348\n      jump\t// in\n    tag_451:\n        /* \"#utility.yul\":4861:5075   */\n      swap3\n      swap2\n      pop\n      pop\n      jump\t// out\n        /* \"#utility.yul\":5081:5410   */\n    tag_63:\n        /* \"#utility.yul\":5140:5146   */\n      0x00\n        /* \"#utility.yul\":5189:5191   */\n      0x20\n        /* \"#utility.yul\":5177:5186   */\n      dup3\n        /* \"#utility.yul\":5168:5175   */\n      dup5\n        /* \"#utility.yul\":5164:5187   */\n      sub\n        /* \"#utility.yul\":5160:5192   */\n      slt\n        /* \"#utility.yul\":5157:5276   */\n      iszero\n      tag_453\n      jumpi\n        /* \"#utility.yul\":5195:5274   */\n      tag_454\n      tag_335\n      jump\t// in\n    tag_454:\n        /* \"#utility.yul\":5157:5276   */\n    tag_453:\n        /* \"#utility.yul\":5315:5316   */\n      0x00\n        /* \"#utility.yul\":5340:5393   */\n      tag_455\n        /* \"#utility.yul\":5385:5392   */\n      dup5\n        /* \"#utility.yul\":5376:5382   */\n      dup3\n        /* \"#utility.yul\":5365:5374   */\n      dup6\n        /* \"#utility.yul\":5361:5383   */\n      add\n        /* \"#utility.yul\":5340:5393   */\n      tag_340\n      jump\t// in\n    tag_455:\n        /* \"#utility.yul\":5330:5393   */\n      swap2\n      pop\n        /* \"#utility.yul\":5286:5403   */\n      pop\n        /* \"#utility.yul\":5081:5410   */\n      swap3\n      swap2\n      pop\n      pop\n      jump\t// out\n        /* \"#utility.yul\":5416:5534   */\n    tag_349:\n        /* \"#utility.yul\":5503:5527   */\n      tag_457\n        /* \"#utility.yul\":5521:5526   */\n      dup2\n        /* \"#utility.yul\":5503:5527   */\n      tag_338\n      jump\t// in\n    tag_457:\n        /* \"#utility.yul\":5498:5501   */\n      dup3\n        /* \"#utility.yul\":5491:5528   */\n      mstore\n        /* \"#utility.yul\":5416:5534   */\n      pop\n      pop\n      jump\t// out\n        /* \"#utility.yul\":5540:5762   */\n    tag_71:\n        /* \"#utility.yul\":5633:5637   */\n      0x00\n        /* \"#utility.yul\":5671:5673   */\n      0x20\n        /* \"#utility.yul\":5660:5669   */\n      dup3\n        /* \"#utility.yul\":5656:5674   */\n      add\n        /* \"#utility.yul\":5648:5674   */\n      swap1\n      pop\n        /* \"#utility.yul\":5684:5755   */\n      tag_459\n        /* \"#utility.yul\":5752:5753   */\n      0x00\n        /* \"#utility.yul\":5741:5750   */\n      dup4\n        /* \"#utility.yul\":5737:5754   */\n      add\n        /* \"#utility.yul\":5728:5734   */\n      dup5\n        /* \"#utility.yul\":5684:5755   */\n      tag_349\n      jump\t// in\n    tag_459:\n        /* \"#utility.yul\":5540:5762   */\n      swap3\n      swap2\n      pop\n      pop\n      jump\t// out\n        /* \"#utility.yul\":5768:6400   */\n    tag_86:\n        /* \"#utility.yul\":5959:5963   */\n      0x00\n        /* \"#utility.yul\":5997:6000   */\n      0x80\n        /* \"#utility.yul\":5986:5995   */\n      dup3\n        /* \"#utility.yul\":5982:6001   */\n      add\n        /* \"#utility.yul\":5974:6001   */\n      swap1\n      pop\n        /* \"#utility.yul\":6047:6056   */\n      dup2\n        /* \"#utility.yul\":6041:6045   */\n      dup2\n        /* \"#utility.yul\":6037:6057   */\n      sub\n        /* \"#utility.yul\":6033:6034   */\n      0x00\n        /* \"#utility.yul\":6022:6031   */\n      dup4\n        /* \"#utility.yul\":6018:6035   */\n      add\n        /* \"#utility.yul\":6011:6058   */\n      mstore\n        /* \"#utility.yul\":6075:6153   */\n      tag_461\n        /* \"#utility.yul\":6148:6152   */\n      dup2\n        /* \"#utility.yul\":6139:6145   */\n      dup8\n        /* \"#utility.yul\":6075:6153   */\n      tag_333\n      jump\t// in\n    tag_461:\n        /* \"#utility.yul\":6067:6153   */\n      swap1\n      pop\n        /* \"#utility.yul\":6163:6235   */\n      tag_462\n        /* \"#utility.yul\":6231:6233   */\n      0x20\n        /* \"#utility.yul\":6220:6229   */\n      dup4\n        /* \"#utility.yul\":6216:6234   */\n      add\n        /* \"#utility.yul\":6207:6213   */\n      dup7\n        /* \"#utility.yul\":6163:6235   */\n      tag_346\n      jump\t// in\n    tag_462:\n        /* \"#utility.yul\":6245:6311   */\n      tag_463\n        /* \"#utility.yul\":6307:6309   */\n      0x40\n        /* \"#utility.yul\":6296:6305   */\n      dup4\n        /* \"#utility.yul\":6292:6310   */\n      add\n        /* \"#utility.yul\":6283:6289   */\n      dup6\n        /* \"#utility.yul\":6245:6311   */\n      tag_345\n      jump\t// in\n    tag_463:\n        /* \"#utility.yul\":6321:6393   */\n      tag_464\n        /* \"#utility.yul\":6389:6391   */\n      0x60\n        /* \"#utility.yul\":6378:6387   */\n      dup4\n        /* \"#utility.yul\":6374:6392   */\n      add\n        /* \"#utility.yul\":6365:6371   */\n      dup5\n        /* \"#utility.yul\":6321:6393   */\n      tag_349\n      jump\t// in\n    tag_464:\n        /* \"#utility.yul\":5768:6400   */\n      swap6\n      swap5\n      pop\n      pop\n      pop\n      pop\n      pop\n      jump\t// out\n        /* \"#utility.yul\":6406:6565   */\n    tag_350:\n        /* \"#utility.yul\":6480:6491   */\n      0x00\n        /* \"#utility.yul\":6514:6520   */\n      dup3\n        /* \"#utility.yul\":6509:6512   */\n      dup3\n        /* \"#utility.yul\":6502:6521   */\n      mstore\n        /* \"#utility.yul\":6554:6558   */\n      0x20\n        /* \"#utility.yul\":6549:6552   */\n      dup3\n        /* \"#utility.yul\":6545:6559   */\n      add\n        /* \"#utility.yul\":6530:6559   */\n      swap1\n      pop\n        /* \"#utility.yul\":6406:6565   */\n      swap3\n      swap2\n      pop\n      pop\n      jump\t// out\n        /* \"#utility.yul\":6571:6928   */\n    tag_351:\n        /* \"#utility.yul\":6649:6652   */\n      0x00\n        /* \"#utility.yul\":6677:6716   */\n      tag_467\n        /* \"#utility.yul\":6710:6715   */\n      dup3\n        /* \"#utility.yul\":6677:6716   */\n      tag_329\n      jump\t// in\n    tag_467:\n        /* \"#utility.yul\":6732:6793   */\n      tag_468\n        /* \"#utility.yul\":6786:6792   */\n      dup2\n        /* \"#utility.yul\":6781:6784   */\n      dup6\n        /* \"#utility.yul\":6732:6793   */\n      tag_350\n      jump\t// in\n    tag_468:\n        /* \"#utility.yul\":6725:6793   */\n      swap4\n      pop\n        /* \"#utility.yul\":6802:6867   */\n      tag_469\n        /* \"#utility.yul\":6860:6866   */\n      dup2\n        /* \"#utility.yul\":6855:6858   */\n      dup6\n        /* \"#utility.yul\":6848:6852   */\n      0x20\n        /* \"#utility.yul\":6841:6846   */\n      dup7\n        /* \"#utility.yul\":6837:6853   */\n      add\n        /* \"#utility.yul\":6802:6867   */\n      tag_331\n      jump\t// in\n    tag_469:\n        /* \"#utility.yul\":6892:6921   */\n      tag_470\n        /* \"#utility.yul\":6914:6920   */\n      dup2\n        /* \"#utility.yul\":6892:6921   */\n      tag_332\n      jump\t// in\n    tag_470:\n        /* \"#utility.yul\":6887:6890   */\n      dup5\n        /* \"#utility.yul\":6883:6922   */\n      add\n        /* \"#utility.yul\":6876:6922   */\n      swap2\n      pop\n        /* \"#utility.yul\":6653:6928   */\n      pop\n        /* \"#utility.yul\":6571:6928   */\n      swap3\n      swap2\n      pop\n      pop\n      jump\t// out\n        /* \"#utility.yul\":6934:7042   */\n    tag_352:\n        /* \"#utility.yul\":7011:7035   */\n      tag_472\n        /* \"#utility.yul\":7029:7034   */\n      dup2\n        /* \"#utility.yul\":7011:7035   */\n      tag_341\n      jump\t// in\n    tag_472:\n        /* \"#utility.yul\":7006:7009   */\n      dup3\n        /* \"#utility.yul\":6999:7036   */\n      mstore\n        /* \"#utility.yul\":6934:7042   */\n      pop\n      pop\n      jump\t// out\n        /* \"#utility.yul\":7048:7147   */\n    tag_353:\n        /* \"#utility.yul\":7119:7140   */\n      tag_474\n        /* \"#utility.yul\":7134:7139   */\n      dup2\n        /* \"#utility.yul\":7119:7140   */\n      tag_344\n      jump\t// in\n    tag_474:\n        /* \"#utility.yul\":7114:7117   */\n      dup3\n        /* \"#utility.yul\":7107:7141   */\n      mstore\n        /* \"#utility.yul\":7048:7147   */\n      pop\n      pop\n      jump\t// out\n        /* \"#utility.yul\":7153:7261   */\n    tag_354:\n        /* \"#utility.yul\":7230:7254   */\n      tag_476\n        /* \"#utility.yul\":7248:7253   */\n      dup2\n        /* \"#utility.yul\":7230:7254   */\n      tag_338\n      jump\t// in\n    tag_476:\n        /* \"#utility.yul\":7225:7228   */\n      dup3\n        /* \"#utility.yul\":7218:7255   */\n      mstore\n        /* \"#utility.yul\":7153:7261   */\n      pop\n      pop\n      jump\t// out\n        /* \"#utility.yul\":7343:8305   */\n    tag_355:\n        /* \"#utility.yul\":7460:7463   */\n      0x00\n        /* \"#utility.yul\":7496:7500   */\n      0x80\n        /* \"#utility.yul\":7491:7494   */\n      dup4\n        /* \"#utility.yul\":7487:7501   */\n      add\n        /* \"#utility.yul\":7583:7587   */\n      0x00\n        /* \"#utility.yul\":7576:7581   */\n      dup4\n        /* \"#utility.yul\":7572:7588   */\n      add\n        /* \"#utility.yul\":7566:7589   */\n      mload\n        /* \"#utility.yul\":7636:7639   */\n      dup5\n        /* \"#utility.yul\":7630:7634   */\n      dup3\n        /* \"#utility.yul\":7626:7640   */\n      sub\n        /* \"#utility.yul\":7619:7623   */\n      0x00\n        /* \"#utility.yul\":7614:7617   */\n      dup7\n        /* \"#utility.yul\":7610:7624   */\n      add\n        /* \"#utility.yul\":7603:7641   */\n      mstore\n        /* \"#utility.yul\":7662:7735   */\n      tag_478\n        /* \"#utility.yul\":7730:7734   */\n      dup3\n        /* \"#utility.yul\":7716:7728   */\n      dup3\n        /* \"#utility.yul\":7662:7735   */\n      tag_351\n      jump\t// in\n    tag_478:\n        /* \"#utility.yul\":7654:7735   */\n      swap2\n      pop\n        /* \"#utility.yul\":7511:7746   */\n      pop\n        /* \"#utility.yul\":7833:7837   */\n      0x20\n        /* \"#utility.yul\":7826:7831   */\n      dup4\n        /* \"#utility.yul\":7822:7838   */\n      add\n        /* \"#utility.yul\":7816:7839   */\n      mload\n        /* \"#utility.yul\":7852:7915   */\n      tag_479\n        /* \"#utility.yul\":7909:7913   */\n      0x20\n        /* \"#utility.yul\":7904:7907   */\n      dup7\n        /* \"#utility.yul\":7900:7914   */\n      add\n        /* \"#utility.yul\":7886:7898   */\n      dup3\n        /* \"#utility.yul\":7852:7915   */\n      tag_352\n      jump\t// in\n    tag_479:\n        /* \"#utility.yul\":7756:7925   */\n      pop\n        /* \"#utility.yul\":8016:8020   */\n      0x40\n        /* \"#utility.yul\":8009:8014   */\n      dup4\n        /* \"#utility.yul\":8005:8021   */\n      add\n        /* \"#utility.yul\":7999:8022   */\n      mload\n        /* \"#utility.yul\":8035:8092   */\n      tag_480\n        /* \"#utility.yul\":8086:8090   */\n      0x40\n        /* \"#utility.yul\":8081:8084   */\n      dup7\n        /* \"#utility.yul\":8077:8091   */\n      add\n        /* \"#utility.yul\":8063:8075   */\n      dup3\n        /* \"#utility.yul\":8035:8092   */\n      tag_353\n      jump\t// in\n    tag_480:\n        /* \"#utility.yul\":7935:8102   */\n      pop\n        /* \"#utility.yul\":8186:8190   */\n      0x60\n        /* \"#utility.yul\":8179:8184   */\n      dup4\n        /* \"#utility.yul\":8175:8191   */\n      add\n        /* \"#utility.yul\":8169:8192   */\n      mload\n        /* \"#utility.yul\":8205:8268   */\n      tag_481\n        /* \"#utility.yul\":8262:8266   */\n      0x60\n        /* \"#utility.yul\":8257:8260   */\n      dup7\n        /* \"#utility.yul\":8253:8267   */\n      add\n        /* \"#utility.yul\":8239:8251   */\n      dup3\n        /* \"#utility.yul\":8205:8268   */\n      tag_354\n      jump\t// in\n    tag_481:\n        /* \"#utility.yul\":8112:8278   */\n      pop\n        /* \"#utility.yul\":8295:8299   */\n      dup1\n        /* \"#utility.yul\":8288:8299   */\n      swap2\n      pop\n        /* \"#utility.yul\":7465:8305   */\n      pop\n        /* \"#utility.yul\":7343:8305   */\n      swap3\n      swap2\n      pop\n      pop\n      jump\t// out\n        /* \"#utility.yul\":8311:8680   */\n    tag_95:\n        /* \"#utility.yul\":8452:8456   */\n      0x00\n        /* \"#utility.yul\":8490:8492   */\n      0x20\n        /* \"#utility.yul\":8479:8488   */\n      dup3\n        /* \"#utility.yul\":8475:8493   */\n      add\n        /* \"#utility.yul\":8467:8493   */\n      swap1\n      pop\n        /* \"#utility.yul\":8539:8548   */\n      dup2\n        /* \"#utility.yul\":8533:8537   */\n      dup2\n        /* \"#utility.yul\":8529:8549   */\n      sub\n        /* \"#utility.yul\":8525:8526   */\n      0x00\n        /* \"#utility.yul\":8514:8523   */\n      dup4\n        /* \"#utility.yul\":8510:8527   */\n      add\n        /* \"#utility.yul\":8503:8550   */\n      mstore\n        /* \"#utility.yul\":8567:8673   */\n      tag_483\n        /* \"#utility.yul\":8668:8672   */\n      dup2\n        /* \"#utility.yul\":8659:8665   */\n      dup5\n        /* \"#utility.yul\":8567:8673   */\n      tag_355\n      jump\t// in\n    tag_483:\n        /* \"#utility.yul\":8559:8673   */\n      swap1\n      pop\n        /* \"#utility.yul\":8311:8680   */\n      swap3\n      swap2\n      pop\n      pop\n      jump\t// out\n        /* \"#utility.yul\":8686:9160   */\n    tag_98:\n        /* \"#utility.yul\":8754:8760   */\n      0x00\n        /* \"#utility.yul\":8762:8768   */\n      0x00\n        /* \"#utility.yul\":8811:8813   */\n      0x40\n        /* \"#utility.yul\":8799:8808   */\n      dup4\n        /* \"#utility.yul\":8790:8797   */\n      dup6\n        /* \"#utility.yul\":8786:8809   */\n      sub\n        /* \"#utility.yul\":8782:8814   */\n      slt\n        /* \"#utility.yul\":8779:8898   */\n      iszero\n      tag_485\n      jumpi\n        /* \"#utility.yul\":8817:8896   */\n      tag_486\n      tag_335\n      jump\t// in\n    tag_486:\n        /* \"#utility.yul\":8779:8898   */\n    tag_485:\n        /* \"#utility.yul\":8937:8938   */\n      0x00\n        /* \"#utility.yul\":8962:9015   */\n      tag_487\n        /* \"#utility.yul\":9007:9014   */\n      dup6\n        /* \"#utility.yul\":8998:9004   */\n      dup3\n        /* \"#utility.yul\":8987:8996   */\n      dup7\n        /* \"#utility.yul\":8983:9005   */\n      add\n        /* \"#utility.yul\":8962:9015   */\n      tag_340\n      jump\t// in\n    tag_487:\n        /* \"#utility.yul\":8952:9015   */\n      swap3\n      pop\n        /* \"#utility.yul\":8908:9025   */\n      pop\n        /* \"#utility.yul\":9064:9066   */\n      0x20\n        /* \"#utility.yul\":9090:9143   */\n      tag_488\n        /* \"#utility.yul\":9135:9142   */\n      dup6\n        /* \"#utility.yul\":9126:9132   */\n      dup3\n        /* \"#utility.yul\":9115:9124   */\n      dup7\n        /* \"#utility.yul\":9111:9133   */\n      add\n        /* \"#utility.yul\":9090:9143   */\n      tag_340\n      jump\t// in\n    tag_488:\n        /* \"#utility.yul\":9080:9143   */\n      swap2\n      pop\n        /* \"#utility.yul\":9035:9153   */\n      pop\n        /* \"#utility.yul\":8686:9160   */\n      swap3\n      pop\n      swap3\n      swap1\n      pop\n      jump\t// out\n        /* \"#utility.yul\":9166:9304   */\n    tag_356:\n        /* \"#utility.yul\":9257:9263   */\n      0x00\n        /* \"#utility.yul\":9291:9296   */\n      dup2\n        /* \"#utility.yul\":9285:9297   */\n      mload\n        /* \"#utility.yul\":9275:9297   */\n      swap1\n      pop\n        /* \"#utility.yul\":9166:9304   */\n      swap2\n      swap1\n      pop\n      jump\t// out\n        /* \"#utility.yul\":9310:9518   */\n    tag_357:\n        /* \"#utility.yul\":9433:9444   */\n      0x00\n        /* \"#utility.yul\":9467:9473   */\n      dup3\n        /* \"#utility.yul\":9462:9465   */\n      dup3\n        /* \"#utility.yul\":9455:9474   */\n      mstore\n        /* \"#utility.yul\":9507:9511   */\n      0x20\n        /* \"#utility.yul\":9502:9505   */\n      dup3\n        /* \"#utility.yul\":9498:9512   */\n      add\n        /* \"#utility.yul\":9483:9512   */\n      swap1\n      pop\n        /* \"#utility.yul\":9310:9518   */\n      swap3\n      swap2\n      pop\n      pop\n      jump\t// out\n        /* \"#utility.yul\":9524:9680   */\n    tag_358:\n        /* \"#utility.yul\":9615:9619   */\n      0x00\n        /* \"#utility.yul\":9638:9641   */\n      dup2\n        /* \"#utility.yul\":9630:9641   */\n      swap1\n      pop\n        /* \"#utility.yul\":9668:9672   */\n      0x20\n        /* \"#utility.yul\":9663:9666   */\n      dup3\n        /* \"#utility.yul\":9659:9673   */\n      add\n        /* \"#utility.yul\":9651:9673   */\n      swap1\n      pop\n        /* \"#utility.yul\":9524:9680   */\n      swap2\n      swap1\n      pop\n      jump\t// out\n        /* \"#utility.yul\":9762:10714   */\n    tag_359:\n        /* \"#utility.yul\":9869:9872   */\n      0x00\n        /* \"#utility.yul\":9905:9909   */\n      0x80\n        /* \"#utility.yul\":9900:9903   */\n      dup4\n        /* \"#utility.yul\":9896:9910   */\n      add\n        /* \"#utility.yul\":9992:9996   */\n      0x00\n        /* \"#utility.yul\":9985:9990   */\n      dup4\n        /* \"#utility.yul\":9981:9997   */\n      add\n        /* \"#utility.yul\":9975:9998   */\n      mload\n        /* \"#utility.yul\":10045:10048   */\n      dup5\n        /* \"#utility.yul\":10039:10043   */\n      dup3\n        /* \"#utility.yul\":10035:10049   */\n      sub\n        /* \"#utility.yul\":10028:10032   */\n      0x00\n        /* \"#utility.yul\":10023:10026   */\n      dup7\n        /* \"#utility.yul\":10019:10033   */\n      add\n        /* \"#utility.yul\":10012:10050   */\n      mstore\n        /* \"#utility.yul\":10071:10144   */\n      tag_493\n        /* \"#utility.yul\":10139:10143   */\n      dup3\n        /* \"#utility.yul\":10125:10137   */\n      dup3\n        /* \"#utility.yul\":10071:10144   */\n      tag_351\n      jump\t// in\n    tag_493:\n        /* \"#utility.yul\":10063:10144   */\n      swap2\n      pop\n        /* \"#utility.yul\":9920:10155   */\n      pop\n        /* \"#utility.yul\":10242:10246   */\n      0x20\n        /* \"#utility.yul\":10235:10240   */\n      dup4\n        /* \"#utility.yul\":10231:10247   */\n      add\n        /* \"#utility.yul\":10225:10248   */\n      mload\n        /* \"#utility.yul\":10261:10324   */\n      tag_494\n        /* \"#utility.yul\":10318:10322   */\n      0x20\n        /* \"#utility.yul\":10313:10316   */\n      dup7\n        /* \"#utility.yul\":10309:10323   */\n      add\n        /* \"#utility.yul\":10295:10307   */\n      dup3\n        /* \"#utility.yul\":10261:10324   */\n      tag_352\n      jump\t// in\n    tag_494:\n        /* \"#utility.yul\":10165:10334   */\n      pop\n        /* \"#utility.yul\":10425:10429   */\n      0x40\n        /* \"#utility.yul\":10418:10423   */\n      dup4\n        /* \"#utility.yul\":10414:10430   */\n      add\n        /* \"#utility.yul\":10408:10431   */\n      mload\n        /* \"#utility.yul\":10444:10501   */\n      tag_495\n        /* \"#utility.yul\":10495:10499   */\n      0x40\n        /* \"#utility.yul\":10490:10493   */\n      dup7\n        /* \"#utility.yul\":10486:10500   */\n      add\n        /* \"#utility.yul\":10472:10484   */\n      dup3\n        /* \"#utility.yul\":10444:10501   */\n      tag_353\n      jump\t// in\n    tag_495:\n        /* \"#utility.yul\":10344:10511   */\n      pop\n        /* \"#utility.yul\":10595:10599   */\n      0x60\n        /* \"#utility.yul\":10588:10593   */\n      dup4\n        /* \"#utility.yul\":10584:10600   */\n      add\n        /* \"#utility.yul\":10578:10601   */\n      mload\n        /* \"#utility.yul\":10614:10677   */\n      tag_496\n        /* \"#utility.yul\":10671:10675   */\n      0x60\n        /* \"#utility.yul\":10666:10669   */\n      dup7\n        /* \"#utility.yul\":10662:10676   */\n      add\n        /* \"#utility.yul\":10648:10660   */\n      dup3\n        /* \"#utility.yul\":10614:10677   */\n      tag_354\n      jump\t// in\n    tag_496:\n        /* \"#utility.yul\":10521:10687   */\n      pop\n        /* \"#utility.yul\":10704:10708   */\n      dup1\n        /* \"#utility.yul\":10697:10708   */\n      swap2\n      pop\n        /* \"#utility.yul\":9874:10714   */\n      pop\n        /* \"#utility.yul\":9762:10714   */\n      swap3\n      swap2\n      pop\n      pop\n      jump\t// out\n        /* \"#utility.yul\":10720:10972   */\n    tag_360:\n        /* \"#utility.yul\":10837:10847   */\n      0x00\n        /* \"#utility.yul\":10872:10966   */\n      tag_498\n        /* \"#utility.yul\":10962:10965   */\n      dup4\n        /* \"#utility.yul\":10954:10960   */\n      dup4\n        /* \"#utility.yul\":10872:10966   */\n      tag_359\n      jump\t// in\n    tag_498:\n        /* \"#utility.yul\":10858:10966   */\n      swap1\n      pop\n        /* \"#utility.yul\":10720:10972   */\n      swap3\n      swap2\n      pop\n      pop\n      jump\t// out\n        /* \"#utility.yul\":10978:11115   */\n    tag_361:\n        /* \"#utility.yul\":11072:11076   */\n      0x00\n        /* \"#utility.yul\":11104:11108   */\n      0x20\n        /* \"#utility.yul\":11099:11102   */\n      dup3\n        /* \"#utility.yul\":11095:11109   */\n      add\n        /* \"#utility.yul\":11087:11109   */\n      swap1\n      pop\n        /* \"#utility.yul\":10978:11115   */\n      swap2\n      swap1\n      pop\n      jump\t// out\n        /* \"#utility.yul\":11201:12304   */\n    tag_362:\n        /* \"#utility.yul\":11368:11371   */\n      0x00\n        /* \"#utility.yul\":11397:11475   */\n      tag_501\n        /* \"#utility.yul\":11469:11474   */\n      dup3\n        /* \"#utility.yul\":11397:11475   */\n      tag_356\n      jump\t// in\n    tag_501:\n        /* \"#utility.yul\":11491:11601   */\n      tag_502\n        /* \"#utility.yul\":11594:11600   */\n      dup2\n        /* \"#utility.yul\":11589:11592   */\n      dup6\n        /* \"#utility.yul\":11491:11601   */\n      tag_357\n      jump\t// in\n    tag_502:\n        /* \"#utility.yul\":11484:11601   */\n      swap4\n      pop\n        /* \"#utility.yul\":11627:11630   */\n      dup4\n        /* \"#utility.yul\":11672:11676   */\n      0x20\n        /* \"#utility.yul\":11664:11670   */\n      dup3\n        /* \"#utility.yul\":11660:11677   */\n      mul\n        /* \"#utility.yul\":11655:11658   */\n      dup6\n        /* \"#utility.yul\":11651:11678   */\n      add\n        /* \"#utility.yul\":11702:11782   */\n      tag_503\n        /* \"#utility.yul\":11776:11781   */\n      dup6\n        /* \"#utility.yul\":11702:11782   */\n      tag_358\n      jump\t// in\n    tag_503:\n        /* \"#utility.yul\":11805:11812   */\n      dup1\n        /* \"#utility.yul\":11836:11837   */\n      0x00\n        /* \"#utility.yul\":11821:12259   */\n    tag_504:\n        /* \"#utility.yul\":11846:11852   */\n      dup6\n        /* \"#utility.yul\":11843:11844   */\n      dup2\n        /* \"#utility.yul\":11840:11853   */\n      lt\n        /* \"#utility.yul\":11821:12259   */\n      iszero\n      tag_506\n      jumpi\n        /* \"#utility.yul\":11917:11926   */\n      dup5\n        /* \"#utility.yul\":11911:11915   */\n      dup5\n        /* \"#utility.yul\":11907:11927   */\n      sub\n        /* \"#utility.yul\":11902:11905   */\n      dup10\n        /* \"#utility.yul\":11895:11928   */\n      mstore\n        /* \"#utility.yul\":11968:11974   */\n      dup2\n        /* \"#utility.yul\":11962:11975   */\n      mload\n        /* \"#utility.yul\":11996:12108   */\n      tag_507\n        /* \"#utility.yul\":12103:12107   */\n      dup6\n        /* \"#utility.yul\":12088:12101   */\n      dup3\n        /* \"#utility.yul\":11996:12108   */\n      tag_360\n      jump\t// in\n    tag_507:\n        /* \"#utility.yul\":11988:12108   */\n      swap5\n      pop\n        /* \"#utility.yul\":12131:12215   */\n      tag_508\n        /* \"#utility.yul\":12208:12214   */\n      dup4\n        /* \"#utility.yul\":12131:12215   */\n      tag_361\n      jump\t// in\n    tag_508:\n        /* \"#utility.yul\":12121:12215   */\n      swap3\n      pop\n        /* \"#utility.yul\":12244:12248   */\n      0x20\n        /* \"#utility.yul\":12239:12242   */\n      dup11\n        /* \"#utility.yul\":12235:12249   */\n      add\n        /* \"#utility.yul\":12228:12249   */\n      swap10\n      pop\n        /* \"#utility.yul\":11881:12259   */\n      pop\n        /* \"#utility.yul\":11868:11869   */\n      0x01\n        /* \"#utility.yul\":11865:11866   */\n      dup2\n        /* \"#utility.yul\":11861:11870   */\n      add\n        /* \"#utility.yul\":11856:11870   */\n      swap1\n      pop\n        /* \"#utility.yul\":11821:12259   */\n      jump(tag_504)\n    tag_506:\n        /* \"#utility.yul\":11825:11839   */\n      pop\n        /* \"#utility.yul\":12275:12279   */\n      dup3\n        /* \"#utility.yul\":12268:12279   */\n      swap8\n      pop\n        /* \"#utility.yul\":12295:12298   */\n      dup8\n        /* \"#utility.yul\":12288:12298   */\n      swap6\n      pop\n        /* \"#utility.yul\":11373:12304   */\n      pop\n      pop\n      pop\n      pop\n      pop\n        /* \"#utility.yul\":11201:12304   */\n      swap3\n      swap2\n      pop\n      pop\n      jump\t// out\n        /* \"#utility.yul\":12310:12779   */\n    tag_104:\n        /* \"#utility.yul\":12501:12505   */\n      0x00\n        /* \"#utility.yul\":12539:12541   */\n      0x20\n        /* \"#utility.yul\":12528:12537   */\n      dup3\n        /* \"#utility.yul\":12524:12542   */\n      add\n        /* \"#utility.yul\":12516:12542   */\n      swap1\n      pop\n        /* \"#utility.yul\":12588:12597   */\n      dup2\n        /* \"#utility.yul\":12582:12586   */\n      dup2\n        /* \"#utility.yul\":12578:12598   */\n      sub\n        /* \"#utility.yul\":12574:12575   */\n      0x00\n        /* \"#utility.yul\":12563:12572   */\n      dup4\n        /* \"#utility.yul\":12559:12576   */\n      add\n        /* \"#utility.yul\":12552:12599   */\n      mstore\n        /* \"#utility.yul\":12616:12772   */\n      tag_510\n        /* \"#utility.yul\":12767:12771   */\n      dup2\n        /* \"#utility.yul\":12758:12764   */\n      dup5\n        /* \"#utility.yul\":12616:12772   */\n      tag_362\n      jump\t// in\n    tag_510:\n        /* \"#utility.yul\":12608:12772   */\n      swap1\n      pop\n        /* \"#utility.yul\":12310:12779   */\n      swap3\n      swap2\n      pop\n      pop\n      jump\t// out\n        /* \"#utility.yul\":12785:12902   */\n    tag_363:\n        /* \"#utility.yul\":12894:12895   */\n      0x00\n        /* \"#utility.yul\":12891:12892   */\n      0x00\n        /* \"#utility.yul\":12884:12896   */\n      revert\n        /* \"#utility.yul\":12908:13025   */\n    tag_364:\n        /* \"#utility.yul\":13017:13018   */\n      0x00\n        /* \"#utility.yul\":13014:13015   */\n      0x00\n        /* \"#utility.yul\":13007:13019   */\n      revert\n        /* \"#utility.yul\":13031:13211   */\n    tag_212:\n        /* \"#utility.yul\":13079:13156   */\n      0x4e487b7100000000000000000000000000000000000000000000000000000000\n        /* \"#utility.yul\":13076:13077   */\n      0x00\n        /* \"#utility.yul\":13069:13157   */\n      mstore\n        /* \"#utility.yul\":13176:13180   */\n      0x41\n        /* \"#utility.yul\":13173:13174   */\n      0x04\n        /* \"#utility.yul\":13166:13181   */\n      mstore\n        /* \"#utility.yul\":13200:13204   */\n      0x24\n        /* \"#utility.yul\":13197:13198   */\n      0x00\n        /* \"#utility.yul\":13190:13205   */\n      revert\n        /* \"#utility.yul\":13217:13498   */\n    tag_365:\n        /* \"#utility.yul\":13300:13327   */\n      tag_515\n        /* \"#utility.yul\":13322:13326   */\n      dup3\n        /* \"#utility.yul\":13300:13327   */\n      tag_332\n      jump\t// in\n    tag_515:\n        /* \"#utility.yul\":13292:13298   */\n      dup2\n        /* \"#utility.yul\":13288:13328   */\n      add\n        /* \"#utility.yul\":13430:13436   */\n      dup2\n        /* \"#utility.yul\":13418:13428   */\n      dup2\n        /* \"#utility.yul\":13415:13437   */\n      lt\n        /* \"#utility.yul\":13394:13412   */\n      0xffffffffffffffff\n        /* \"#utility.yul\":13382:13392   */\n      dup3\n        /* \"#utility.yul\":13379:13413   */\n      gt\n        /* \"#utility.yul\":13376:13438   */\n      or\n        /* \"#utility.yul\":13373:13461   */\n      iszero\n      tag_516\n      jumpi\n        /* \"#utility.yul\":13441:13459   */\n      tag_517\n      tag_212\n      jump\t// in\n    tag_517:\n        /* \"#utility.yul\":13373:13461   */\n    tag_516:\n        /* \"#utility.yul\":13481:13491   */\n      dup1\n        /* \"#utility.yul\":13477:13479   */\n      0x40\n        /* \"#utility.yul\":13470:13492   */\n      mstore\n        /* \"#utility.yul\":13260:13498   */\n      pop\n        /* \"#utility.yul\":13217:13498   */\n      pop\n      pop\n      jump\t// out\n        /* \"#utility.yul\":13504:13633   */\n    tag_366:\n        /* \"#utility.yul\":13538:13544   */\n      0x00\n        /* \"#utility.yul\":13565:13585   */\n      tag_519\n      tag_334\n      jump\t// in\n    tag_519:\n        /* \"#utility.yul\":13555:13585   */\n      swap1\n      pop\n        /* \"#utility.yul\":13594:13627   */\n      tag_520\n        /* \"#utility.yul\":13622:13626   */\n      dup3\n        /* \"#utility.yul\":13614:13620   */\n      dup3\n        /* \"#utility.yul\":13594:13627   */\n      tag_365\n      jump\t// in\n    tag_520:\n        /* \"#utility.yul\":13504:13633   */\n      swap2\n      swap1\n      pop\n      jump\t// out\n        /* \"#utility.yul\":13639:13947   */\n    tag_367:\n        /* \"#utility.yul\":13701:13705   */\n      0x00\n        /* \"#utility.yul\":13791:13809   */\n      0xffffffffffffffff\n        /* \"#utility.yul\":13783:13789   */\n      dup3\n        /* \"#utility.yul\":13780:13810   */\n      gt\n        /* \"#utility.yul\":13777:13833   */\n      iszero\n      tag_522\n      jumpi\n        /* \"#utility.yul\":13813:13831   */\n      tag_523\n      tag_212\n      jump\t// in\n    tag_523:\n        /* \"#utility.yul\":13777:13833   */\n    tag_522:\n        /* \"#utility.yul\":13851:13880   */\n      tag_524\n        /* \"#utility.yul\":13873:13879   */\n      dup3\n        /* \"#utility.yul\":13851:13880   */\n      tag_332\n      jump\t// in\n    tag_524:\n        /* \"#utility.yul\":13843:13880   */\n      swap1\n      pop\n        /* \"#utility.yul\":13935:13939   */\n      0x20\n        /* \"#utility.yul\":13929:13933   */\n      dup2\n        /* \"#utility.yul\":13925:13940   */\n      add\n        /* \"#utility.yul\":13917:13940   */\n      swap1\n      pop\n        /* \"#utility.yul\":13639:13947   */\n      swap2\n      swap1\n      pop\n      jump\t// out\n        /* \"#utility.yul\":13953:14101   */\n    tag_368:\n        /* \"#utility.yul\":14051:14057   */\n      dup3\n        /* \"#utility.yul\":14046:14049   */\n      dup2\n        /* \"#utility.yul\":14041:14044   */\n      dup4\n        /* \"#utility.yul\":14028:14058   */\n      calldatacopy\n        /* \"#utility.yul\":14092:14093   */\n      0x00\n        /* \"#utility.yul\":14083:14089   */\n      dup4\n        /* \"#utility.yul\":14078:14081   */\n      dup4\n        /* \"#utility.yul\":14074:14090   */\n      add\n        /* \"#utility.yul\":14067:14094   */\n      mstore\n        /* \"#utility.yul\":13953:14101   */\n      pop\n      pop\n      pop\n      jump\t// out\n        /* \"#utility.yul\":14107:14532   */\n    tag_369:\n        /* \"#utility.yul\":14185:14190   */\n      0x00\n        /* \"#utility.yul\":14210:14276   */\n      tag_527\n        /* \"#utility.yul\":14226:14275   */\n      tag_528\n        /* \"#utility.yul\":14268:14274   */\n      dup5\n        /* \"#utility.yul\":14226:14275   */\n      tag_367\n      jump\t// in\n    tag_528:\n        /* \"#utility.yul\":14210:14276   */\n      tag_366\n      jump\t// in\n    tag_527:\n        /* \"#utility.yul\":14201:14276   */\n      swap1\n      pop\n        /* \"#utility.yul\":14299:14305   */\n      dup3\n        /* \"#utility.yul\":14292:14297   */\n      dup2\n        /* \"#utility.yul\":14285:14306   */\n      mstore\n        /* \"#utility.yul\":14337:14341   */\n      0x20\n        /* \"#utility.yul\":14330:14335   */\n      dup2\n        /* \"#utility.yul\":14326:14342   */\n      add\n        /* \"#utility.yul\":14375:14378   */\n      dup5\n        /* \"#utility.yul\":14366:14372   */\n      dup5\n        /* \"#utility.yul\":14361:14364   */\n      dup5\n        /* \"#utility.yul\":14357:14373   */\n      add\n        /* \"#utility.yul\":14354:14379   */\n      gt\n        /* \"#utility.yul\":14351:14463   */\n      iszero\n      tag_529\n      jumpi\n        /* \"#utility.yul\":14382:14461   */\n      tag_530\n      tag_364\n      jump\t// in\n    tag_530:\n        /* \"#utility.yul\":14351:14463   */\n    tag_529:\n        /* \"#utility.yul\":14472:14526   */\n      tag_531\n        /* \"#utility.yul\":14519:14525   */\n      dup5\n        /* \"#utility.yul\":14514:14517   */\n      dup3\n        /* \"#utility.yul\":14509:14512   */\n      dup6\n        /* \"#utility.yul\":14472:14526   */\n      tag_368\n      jump\t// in\n    tag_531:\n        /* \"#utility.yul\":14191:14532   */\n      pop\n        /* \"#utility.yul\":14107:14532   */\n      swap4\n      swap3\n      pop\n      pop\n      pop\n      jump\t// out\n        /* \"#utility.yul\":14552:14892   */\n    tag_370:\n        /* \"#utility.yul\":14608:14613   */\n      0x00\n        /* \"#utility.yul\":14657:14660   */\n      dup3\n        /* \"#utility.yul\":14650:14654   */\n      0x1f\n        /* \"#utility.yul\":14642:14648   */\n      dup4\n        /* \"#utility.yul\":14638:14655   */\n      add\n        /* \"#utility.yul\":14634:14661   */\n      slt\n        /* \"#utility.yul\":14624:14746   */\n      tag_533\n      jumpi\n        /* \"#utility.yul\":14665:14744   */\n      tag_534\n      tag_363\n      jump\t// in\n    tag_534:\n        /* \"#utility.yul\":14624:14746   */\n    tag_533:\n        /* \"#utility.yul\":14782:14788   */\n      dup2\n        /* \"#utility.yul\":14769:14789   */\n      calldataload\n        /* \"#utility.yul\":14807:14886   */\n      tag_535\n        /* \"#utility.yul\":14882:14885   */\n      dup5\n        /* \"#utility.yul\":14874:14880   */\n      dup3\n        /* \"#utility.yul\":14867:14871   */\n      0x20\n        /* \"#utility.yul\":14859:14865   */\n      dup7\n        /* \"#utility.yul\":14855:14872   */\n      add\n        /* \"#utility.yul\":14807:14886   */\n      tag_369\n      jump\t// in\n    tag_535:\n        /* \"#utility.yul\":14798:14886   */\n      swap2\n      pop\n        /* \"#utility.yul\":14614:14892   */\n      pop\n        /* \"#utility.yul\":14552:14892   */\n      swap3\n      swap2\n      pop\n      pop\n      jump\t// out\n        /* \"#utility.yul\":14898:15697   */\n    tag_107:\n        /* \"#utility.yul\":14985:14991   */\n      0x00\n        /* \"#utility.yul\":14993:14999   */\n      0x00\n        /* \"#utility.yul\":15001:15007   */\n      0x00\n        /* \"#utility.yul\":15050:15052   */\n      0x60\n        /* \"#utility.yul\":15038:15047   */\n      dup5\n        /* \"#utility.yul\":15029:15036   */\n      dup7\n        /* \"#utility.yul\":15025:15048   */\n      sub\n        /* \"#utility.yul\":15021:15053   */\n      slt\n        /* \"#utility.yul\":15018:15137   */\n      iszero\n      tag_537\n      jumpi\n        /* \"#utility.yul\":15056:15135   */\n      tag_538\n      tag_335\n      jump\t// in\n    tag_538:\n        /* \"#utility.yul\":15018:15137   */\n    tag_537:\n        /* \"#utility.yul\":15176:15177   */\n      0x00\n        /* \"#utility.yul\":15201:15254   */\n      tag_539\n        /* \"#utility.yul\":15246:15253   */\n      dup7\n        /* \"#utility.yul\":15237:15243   */\n      dup3\n        /* \"#utility.yul\":15226:15235   */\n      dup8\n        /* \"#utility.yul\":15222:15244   */\n      add\n        /* \"#utility.yul\":15201:15254   */\n      tag_340\n      jump\t// in\n    tag_539:\n        /* \"#utility.yul\":15191:15254   */\n      swap4\n      pop\n        /* \"#utility.yul\":15147:15264   */\n      pop\n        /* \"#utility.yul\":15331:15333   */\n      0x20\n        /* \"#utility.yul\":15320:15329   */\n      dup5\n        /* \"#utility.yul\":15316:15334   */\n      add\n        /* \"#utility.yul\":15303:15335   */\n      calldataload\n        /* \"#utility.yul\":15362:15380   */\n      0xffffffffffffffff\n        /* \"#utility.yul\":15354:15360   */\n      dup2\n        /* \"#utility.yul\":15351:15381   */\n      gt\n        /* \"#utility.yul\":15348:15465   */\n      iszero\n      tag_540\n      jumpi\n        /* \"#utility.yul\":15384:15463   */\n      tag_541\n      tag_336\n      jump\t// in\n    tag_541:\n        /* \"#utility.yul\":15348:15465   */\n    tag_540:\n        /* \"#utility.yul\":15489:15552   */\n      tag_542\n        /* \"#utility.yul\":15544:15551   */\n      dup7\n        /* \"#utility.yul\":15535:15541   */\n      dup3\n        /* \"#utility.yul\":15524:15533   */\n      dup8\n        /* \"#utility.yul\":15520:15542   */\n      add\n        /* \"#utility.yul\":15489:15552   */\n      tag_370\n      jump\t// in\n    tag_542:\n        /* \"#utility.yul\":15479:15552   */\n      swap3\n      pop\n        /* \"#utility.yul\":15274:15562   */\n      pop\n        /* \"#utility.yul\":15601:15603   */\n      0x40\n        /* \"#utility.yul\":15627:15680   */\n      tag_543\n        /* \"#utility.yul\":15672:15679   */\n      dup7\n        /* \"#utility.yul\":15663:15669   */\n      dup3\n        /* \"#utility.yul\":15652:15661   */\n      dup8\n        /* \"#utility.yul\":15648:15670   */\n      add\n        /* \"#utility.yul\":15627:15680   */\n      tag_343\n      jump\t// in\n    tag_543:\n        /* \"#utility.yul\":15617:15680   */\n      swap2\n      pop\n        /* \"#utility.yul\":15572:15690   */\n      pop\n        /* \"#utility.yul\":14898:15697   */\n      swap3\n      pop\n      swap3\n      pop\n      swap3\n      jump\t// out\n        /* \"#utility.yul\":15703:15883   */\n    tag_371:\n        /* \"#utility.yul\":15751:15828   */\n      0x4e487b7100000000000000000000000000000000000000000000000000000000\n        /* \"#utility.yul\":15748:15749   */\n      0x00\n        /* \"#utility.yul\":15741:15829   */\n      mstore\n        /* \"#utility.yul\":15848:15852   */\n      0x22\n        /* \"#utility.yul\":15845:15846   */\n      0x04\n        /* \"#utility.yul\":15838:15853   */\n      mstore\n        /* \"#utility.yul\":15872:15876   */\n      0x24\n        /* \"#utility.yul\":15869:15870   */\n      0x00\n        /* \"#utility.yul\":15862:15877   */\n      revert\n        /* \"#utility.yul\":15889:16209   */\n    tag_114:\n        /* \"#utility.yul\":15933:15939   */\n      0x00\n        /* \"#utility.yul\":15970:15971   */\n      0x02\n        /* \"#utility.yul\":15964:15968   */\n      dup3\n        /* \"#utility.yul\":15960:15972   */\n      div\n        /* \"#utility.yul\":15950:15972   */\n      swap1\n      pop\n        /* \"#utility.yul\":16017:16018   */\n      0x01\n        /* \"#utility.yul\":16011:16015   */\n      dup3\n        /* \"#utility.yul\":16007:16019   */\n      and\n        /* \"#utility.yul\":16038:16056   */\n      dup1\n        /* \"#utility.yul\":16028:16109   */\n      tag_546\n      jumpi\n        /* \"#utility.yul\":16094:16098   */\n      0x7f\n        /* \"#utility.yul\":16086:16092   */\n      dup3\n        /* \"#utility.yul\":16082:16099   */\n      and\n        /* \"#utility.yul\":16072:16099   */\n      swap2\n      pop\n        /* \"#utility.yul\":16028:16109   */\n    tag_546:\n        /* \"#utility.yul\":16156:16158   */\n      0x20\n        /* \"#utility.yul\":16148:16154   */\n      dup3\n        /* \"#utility.yul\":16145:16159   */\n      lt\n        /* \"#utility.yul\":16125:16143   */\n      dup2\n        /* \"#utility.yul\":16122:16160   */\n      sub\n        /* \"#utility.yul\":16119:16203   */\n      tag_547\n      jumpi\n        /* \"#utility.yul\":16175:16193   */\n      tag_548\n      tag_371\n      jump\t// in\n    tag_548:\n        /* \"#utility.yul\":16119:16203   */\n    tag_547:\n        /* \"#utility.yul\":15940:16209   */\n      pop\n        /* \"#utility.yul\":15889:16209   */\n      swap2\n      swap1\n      pop\n      jump\t// out\n        /* \"#utility.yul\":16215:16390   */\n    tag_372:\n        /* \"#utility.yul\":16355:16382   */\n      0x526563697069656e74206e6f742077686974656c697374656400000000000000\n        /* \"#utility.yul\":16351:16352   */\n      0x00\n        /* \"#utility.yul\":16343:16349   */\n      dup3\n        /* \"#utility.yul\":16339:16353   */\n      add\n        /* \"#utility.yul\":16332:16383   */\n      mstore\n        /* \"#utility.yul\":16215:16390   */\n      pop\n      jump\t// out\n        /* \"#utility.yul\":16396:16762   */\n    tag_373:\n        /* \"#utility.yul\":16538:16541   */\n      0x00\n        /* \"#utility.yul\":16559:16626   */\n      tag_551\n        /* \"#utility.yul\":16623:16625   */\n      0x19\n        /* \"#utility.yul\":16618:16621   */\n      dup4\n        /* \"#utility.yul\":16559:16626   */\n      tag_330\n      jump\t// in\n    tag_551:\n        /* \"#utility.yul\":16552:16626   */\n      swap2\n      pop\n        /* \"#utility.yul\":16635:16728   */\n      tag_552\n        /* \"#utility.yul\":16724:16727   */\n      dup3\n        /* \"#utility.yul\":16635:16728   */\n      tag_372\n      jump\t// in\n    tag_552:\n        /* \"#utility.yul\":16753:16755   */\n      0x20\n        /* \"#utility.yul\":16748:16751   */\n      dup3\n        /* \"#utility.yul\":16744:16756   */\n      add\n        /* \"#utility.yul\":16737:16756   */\n      swap1\n      pop\n        /* \"#utility.yul\":16396:16762   */\n      swap2\n      swap1\n      pop\n      jump\t// out\n        /* \"#utility.yul\":16768:17187   */\n    tag_140:\n        /* \"#utility.yul\":16934:16938   */\n      0x00\n        /* \"#utility.yul\":16972:16974   */\n      0x20\n        /* \"#utility.yul\":16961:16970   */\n      dup3\n        /* \"#utility.yul\":16957:16975   */\n      add\n        /* \"#utility.yul\":16949:16975   */\n      swap1\n      pop\n        /* \"#utility.yul\":17021:17030   */\n      dup2\n        /* \"#utility.yul\":17015:17019   */\n      dup2\n        /* \"#utility.yul\":17011:17031   */\n      sub\n        /* \"#utility.yul\":17007:17008   */\n      0x00\n        /* \"#utility.yul\":16996:17005   */\n      dup4\n        /* \"#utility.yul\":16992:17009   */\n      add\n        /* \"#utility.yul\":16985:17032   */\n      mstore\n        /* \"#utility.yul\":17049:17180   */\n      tag_554\n        /* \"#utility.yul\":17175:17179   */\n      dup2\n        /* \"#utility.yul\":17049:17180   */\n      tag_373\n      jump\t// in\n    tag_554:\n        /* \"#utility.yul\":17041:17180   */\n      swap1\n      pop\n        /* \"#utility.yul\":16768:17187   */\n      swap2\n      swap1\n      pop\n      jump\t// out\n        /* \"#utility.yul\":17193:17365   */\n    tag_374:\n        /* \"#utility.yul\":17333:17357   */\n      0x53747564656e7420646f6573206e6f7420657869737400000000000000000000\n        /* \"#utility.yul\":17329:17330   */\n      0x00\n        /* \"#utility.yul\":17321:17327   */\n      dup3\n        /* \"#utility.yul\":17317:17331   */\n      add\n        /* \"#utility.yul\":17310:17358   */\n      mstore\n        /* \"#utility.yul\":17193:17365   */\n      pop\n      jump\t// out\n        /* \"#utility.yul\":17371:17737   */\n    tag_375:\n        /* \"#utility.yul\":17513:17516   */\n      0x00\n        /* \"#utility.yul\":17534:17601   */\n      tag_557\n        /* \"#utility.yul\":17598:17600   */\n      0x16\n        /* \"#utility.yul\":17593:17596   */\n      dup4\n        /* \"#utility.yul\":17534:17601   */\n      tag_330\n      jump\t// in\n    tag_557:\n        /* \"#utility.yul\":17527:17601   */\n      swap2\n      pop\n        /* \"#utility.yul\":17610:17703   */\n      tag_558\n        /* \"#utility.yul\":17699:17702   */\n      dup3\n        /* \"#utility.yul\":17610:17703   */\n      tag_374\n      jump\t// in\n    tag_558:\n        /* \"#utility.yul\":17728:17730   */\n      0x20\n        /* \"#utility.yul\":17723:17726   */\n      dup3\n        /* \"#utility.yul\":17719:17731   */\n      add\n        /* \"#utility.yul\":17712:17731   */\n      swap1\n      pop\n        /* \"#utility.yul\":17371:17737   */\n      swap2\n      swap1\n      pop\n      jump\t// out\n        /* \"#utility.yul\":17743:18162   */\n    tag_149:\n        /* \"#utility.yul\":17909:17913   */\n      0x00\n        /* \"#utility.yul\":17947:17949   */\n      0x20\n        /* \"#utility.yul\":17936:17945   */\n      dup3\n        /* \"#utility.yul\":17932:17950   */\n      add\n        /* \"#utility.yul\":17924:17950   */\n      swap1\n      pop\n        /* \"#utility.yul\":17996:18005   */\n      dup2\n        /* \"#utility.yul\":17990:17994   */\n      dup2\n        /* \"#utility.yul\":17986:18006   */\n      sub\n        /* \"#utility.yul\":17982:17983   */\n      0x00\n        /* \"#utility.yul\":17971:17980   */\n      dup4\n        /* \"#utility.yul\":17967:17984   */\n      add\n        /* \"#utility.yul\":17960:18007   */\n      mstore\n        /* \"#utility.yul\":18024:18155   */\n      tag_560\n        /* \"#utility.yul\":18150:18154   */\n      dup2\n        /* \"#utility.yul\":18024:18155   */\n      tag_375\n      jump\t// in\n    tag_560:\n        /* \"#utility.yul\":18016:18155   */\n      swap1\n      pop\n        /* \"#utility.yul\":17743:18162   */\n      swap2\n      swap1\n      pop\n      jump\t// out\n        /* \"#utility.yul\":18168:18348   */\n    tag_157:\n        /* \"#utility.yul\":18216:18293   */\n      0x4e487b7100000000000000000000000000000000000000000000000000000000\n        /* \"#utility.yul\":18213:18214   */\n      0x00\n        /* \"#utility.yul\":18206:18294   */\n      mstore\n        /* \"#utility.yul\":18313:18317   */\n      0x32\n        /* \"#utility.yul\":18310:18311   */\n      0x04\n        /* \"#utility.yul\":18303:18318   */\n      mstore\n        /* \"#utility.yul\":18337:18341   */\n      0x24\n        /* \"#utility.yul\":18334:18335   */\n      0x00\n        /* \"#utility.yul\":18327:18342   */\n      revert\n        /* \"#utility.yul\":18354:18534   */\n    tag_376:\n        /* \"#utility.yul\":18402:18479   */\n      0x4e487b7100000000000000000000000000000000000000000000000000000000\n        /* \"#utility.yul\":18399:18400   */\n      0x00\n        /* \"#utility.yul\":18392:18480   */\n      mstore\n        /* \"#utility.yul\":18499:18503   */\n      0x11\n        /* \"#utility.yul\":18496:18497   */\n      0x04\n        /* \"#utility.yul\":18489:18504   */\n      mstore\n        /* \"#utility.yul\":18523:18527   */\n      0x24\n        /* \"#utility.yul\":18520:18521   */\n      0x00\n        /* \"#utility.yul\":18513:18528   */\n      revert\n        /* \"#utility.yul\":18540:18734   */\n    tag_161:\n        /* \"#utility.yul\":18580:18584   */\n      0x00\n        /* \"#utility.yul\":18600:18620   */\n      tag_564\n        /* \"#utility.yul\":18618:18619   */\n      dup3\n        /* \"#utility.yul\":18600:18620   */\n      tag_341\n      jump\t// in\n    tag_564:\n        /* \"#utility.yul\":18595:18620   */\n      swap2\n      pop\n        /* \"#utility.yul\":18634:18654   */\n      tag_565\n        /* \"#utility.yul\":18652:18653   */\n      dup4\n        /* \"#utility.yul\":18634:18654   */\n      tag_341\n      jump\t// in\n    tag_565:\n        /* \"#utility.yul\":18629:18654   */\n      swap3\n      pop\n        /* \"#utility.yul\":18678:18679   */\n      dup3\n        /* \"#utility.yul\":18675:18676   */\n      dup3\n        /* \"#utility.yul\":18671:18680   */\n      sub\n        /* \"#utility.yul\":18663:18680   */\n      swap1\n      pop\n        /* \"#utility.yul\":18702:18703   */\n      dup2\n        /* \"#utility.yul\":18696:18700   */\n      dup2\n        /* \"#utility.yul\":18693:18704   */\n      gt\n        /* \"#utility.yul\":18690:18727   */\n      iszero\n      tag_566\n      jumpi\n        /* \"#utility.yul\":18707:18725   */\n      tag_567\n      tag_376\n      jump\t// in\n    tag_567:\n        /* \"#utility.yul\":18690:18727   */\n    tag_566:\n        /* \"#utility.yul\":18540:18734   */\n      swap3\n      swap2\n      pop\n      pop\n      jump\t// out\n        /* \"#utility.yul\":18740:18920   */\n    tag_170:\n        /* \"#utility.yul\":18788:18865   */\n      0x4e487b7100000000000000000000000000000000000000000000000000000000\n        /* \"#utility.yul\":18785:18786   */\n      0x00\n        /* \"#utility.yul\":18778:18866   */\n      mstore\n        /* \"#utility.yul\":18885:18889   */\n      0x31\n        /* \"#utility.yul\":18882:18883   */\n      0x04\n        /* \"#utility.yul\":18875:18890   */\n      mstore\n        /* \"#utility.yul\":18909:18913   */\n      0x24\n        /* \"#utility.yul\":18906:18907   */\n      0x00\n        /* \"#utility.yul\":18899:18914   */\n      revert\n        /* \"#utility.yul\":18926:19067   */\n    tag_377:\n        /* \"#utility.yul\":18975:18979   */\n      0x00\n        /* \"#utility.yul\":18998:19001   */\n      dup2\n        /* \"#utility.yul\":18990:19001   */\n      swap1\n      pop\n        /* \"#utility.yul\":19021:19024   */\n      dup2\n        /* \"#utility.yul\":19018:19019   */\n      0x00\n        /* \"#utility.yul\":19011:19025   */\n      mstore\n        /* \"#utility.yul\":19055:19059   */\n      0x20\n        /* \"#utility.yul\":19052:19053   */\n      0x00\n        /* \"#utility.yul\":19042:19060   */\n      keccak256\n        /* \"#utility.yul\":19034:19060   */\n      swap1\n      pop\n        /* \"#utility.yul\":18926:19067   */\n      swap2\n      swap1\n      pop\n      jump\t// out\n        /* \"#utility.yul\":19073:19166   */\n    tag_378:\n        /* \"#utility.yul\":19110:19116   */\n      0x00\n        /* \"#utility.yul\":19157:19159   */\n      0x20\n        /* \"#utility.yul\":19152:19154   */\n      0x1f\n        /* \"#utility.yul\":19145:19150   */\n      dup4\n        /* \"#utility.yul\":19141:19155   */\n      add\n        /* \"#utility.yul\":19137:19160   */\n      div\n        /* \"#utility.yul\":19127:19160   */\n      swap1\n      pop\n        /* \"#utility.yul\":19073:19166   */\n      swap2\n      swap1\n      pop\n      jump\t// out\n        /* \"#utility.yul\":19172:19279   */\n    tag_379:\n        /* \"#utility.yul\":19216:19224   */\n      0x00\n        /* \"#utility.yul\":19266:19271   */\n      dup3\n        /* \"#utility.yul\":19260:19264   */\n      dup3\n        /* \"#utility.yul\":19256:19272   */\n      shl\n        /* \"#utility.yul\":19235:19272   */\n      swap1\n      pop\n        /* \"#utility.yul\":19172:19279   */\n      swap3\n      swap2\n      pop\n      pop\n      jump\t// out\n        /* \"#utility.yul\":19285:19678   */\n    tag_380:\n        /* \"#utility.yul\":19354:19360   */\n      0x00\n        /* \"#utility.yul\":19404:19405   */\n      0x08\n        /* \"#utility.yul\":19392:19402   */\n      dup4\n        /* \"#utility.yul\":19388:19406   */\n      mul\n        /* \"#utility.yul\":19427:19524   */\n      tag_573\n        /* \"#utility.yul\":19457:19523   */\n      0xffffffffffffffffffffffffffffffffffffffffffffffffffffffffffffffff\n        /* \"#utility.yul\":19446:19455   */\n      dup3\n        /* \"#utility.yul\":19427:19524   */\n      tag_379\n      jump\t// in\n    tag_573:\n        /* \"#utility.yul\":19545:19584   */\n      tag_574\n        /* \"#utility.yul\":19575:19583   */\n      dup7\n        /* \"#utility.yul\":19564:19573   */\n      dup4\n        /* \"#utility.yul\":19545:19584   */\n      tag_379\n      jump\t// in\n    tag_574:\n        /* \"#utility.yul\":19533:19584   */\n      swap6\n      pop\n        /* \"#utility.yul\":19617:19621   */\n      dup1\n        /* \"#utility.yul\":19613:19622   */\n      not\n        /* \"#utility.yul\":19606:19611   */\n      dup5\n        /* \"#utility.yul\":19602:19623   */\n      and\n        /* \"#utility.yul\":19593:19623   */\n      swap4\n      pop\n        /* \"#utility.yul\":19666:19670   */\n      dup1\n        /* \"#utility.yul\":19656:19664   */\n      dup7\n        /* \"#utility.yul\":19652:19671   */\n      and\n        /* \"#utility.yul\":19645:19650   */\n      dup5\n        /* \"#utility.yul\":19642:19672   */\n      or\n        /* \"#utility.yul\":19632:19672   */\n      swap3\n      pop\n        /* \"#utility.yul\":19361:19678   */\n      pop\n      pop\n        /* \"#utility.yul\":19285:19678   */\n      swap4\n      swap3\n      pop\n      pop\n      pop\n      jump\t// out\n        /* \"#utility.yul\":19684:19744   */\n    tag_381:\n        /* \"#utility.yul\":19712:19715   */\n      0x00\n        /* \"#utility.yul\":19733:19738   */\n      dup2\n        /* \"#utility.yul\":19726:19738   */\n      swap1\n      pop\n        /* \"#utility.yul\":19684:19744   */\n      swap2\n      swap1\n      pop\n      jump\t// out\n        /* \"#utility.yul\":19750:19892   */\n    tag_382:\n        /* \"#utility.yul\":19800:19809   */\n      0x00\n        /* \"#utility.yul\":19833:19886   */\n      tag_577\n        /* \"#utility.yul\":19851:19885   */\n      tag_578\n        /* \"#utility.yul\":19860:19884   */\n      tag_579\n        /* \"#utility.yul\":19878:19883   */\n      dup5\n        /* \"#utility.yul\":19860:19884   */\n      tag_341\n      jump\t// in\n    tag_579:\n        /* \"#utility.yul\":19851:19885   */\n      tag_381\n      jump\t// in\n    tag_578:\n        /* \"#utility.yul\":19833:19886   */\n      tag_341\n      jump\t// in\n    tag_577:\n        /* \"#utility.yul\":19820:19886   */\n      swap1\n      pop\n        /* \"#utility.yul\":19750:19892   */\n      swap2\n      swap1\n      pop\n      jump\t// out\n        /* \"#utility.yul\":19898:19973   */\n    tag_383:\n        /* \"#utility.yul\":19941:19944   */\n      0x00\n        /* \"#utility.yul\":19962:19967   */\n      dup2\n        /* \"#utility.yul\":19955:19967   */\n      swap1\n      pop\n        /* \"#utility.yul\":19898:19973   */\n      swap2\n      swap1\n      pop\n      jump\t// out\n        /* \"#utility.yul\":19979:20248   */\n    tag_384:\n        /* \"#utility.yul\":20089:20128   */\n      tag_582\n        /* \"#utility.yul\":20120:20127   */\n      dup4\n        /* \"#utility.yul\":20089:20128   */\n      tag_382\n      jump\t// in\n    tag_582:\n        /* \"#utility.yul\":20150:20241   */\n      tag_583\n        /* \"#utility.yul\":20199:20240   */\n      tag_584\n        /* \"#utility.yul\":20223:20239   */\n      dup3\n        /* \"#utility.yul\":20199:20240   */\n      tag_383\n      jump\t// in\n    tag_584:\n        /* \"#utility.yul\":20191:20197   */\n      dup5\n        /* \"#utility.yul\":20184:20188   */\n      dup5\n        /* \"#utility.yul\":20178:20189   */\n      sload\n        /* \"#utility.yul\":20150:20241   */\n      tag_380\n      jump\t// in\n    tag_583:\n        /* \"#utility.yul\":20144:20148   */\n      dup3\n        /* \"#utility.yul\":20137:20242   */\n      sstore\n        /* \"#utility.yul\":20055:20248   */\n      pop\n        /* \"#utility.yul\":19979:20248   */\n      pop\n      pop\n      pop\n      jump\t// out\n        /* \"#utility.yul\":20254:20327   */\n    tag_385:\n        /* \"#utility.yul\":20299:20302   */\n      0x00\n        /* \"#utility.yul\":20320:20321   */\n      0x00\n        /* \"#utility.yul\":20313:20321   */\n      swap1\n      pop\n        /* \"#utility.yul\":20254:20327   */\n      swap1\n      jump\t// out\n        /* \"#utility.yul\":20333:20522   */\n    tag_386:\n        /* \"#utility.yul\":20410:20442   */\n      tag_587\n      tag_385\n      jump\t// in\n    tag_587:\n        /* \"#utility.yul\":20451:20516   */\n      tag_588\n        /* \"#utility.yul\":20509:20515   */\n      dup2\n        /* \"#utility.yul\":20501:20507   */\n      dup5\n        /* \"#utility.yul\":20495:20499   */\n      dup5\n        /* \"#utility.yul\":20451:20516   */\n      tag_384\n      jump\t// in\n    tag_588:\n        /* \"#utility.yul\":20386:20522   */\n      pop\n        /* \"#utility.yul\":20333:20522   */\n      pop\n      pop\n      jump\t// out\n        /* \"#utility.yul\":20528:20714   */\n    tag_387:\n        /* \"#utility.yul\":20588:20708   */\n    tag_590:\n        /* \"#utility.yul\":20605:20608   */\n      dup2\n        /* \"#utility.yul\":20598:20603   */\n      dup2\n        /* \"#utility.yul\":20595:20609   */\n      lt\n        /* \"#utility.yul\":20588:20708   */\n      iszero\n      tag_592\n      jumpi\n        /* \"#utility.yul\":20659:20698   */\n      tag_593\n        /* \"#utility.yul\":20696:20697   */\n      0x00\n        /* \"#utility.yul\":20689:20694   */\n      dup3\n        /* \"#utility.yul\":20659:20698   */\n      tag_386\n      jump\t// in\n    tag_593:\n        /* \"#utility.yul\":20632:20633   */\n      0x01\n        /* \"#utility.yul\":20625:20630   */\n      dup2\n        /* \"#utility.yul\":20621:20634   */\n      add\n        /* \"#utility.yul\":20612:20634   */\n      swap1\n      pop\n        /* \"#utility.yul\":20588:20708   */\n      jump(tag_590)\n    tag_592:\n        /* \"#utility.yul\":20528:20714   */\n      pop\n      pop\n      jump\t// out\n        /* \"#utility.yul\":20720:21263   */\n    tag_388:\n        /* \"#utility.yul\":20821:20823   */\n      0x1f\n        /* \"#utility.yul\":20816:20819   */\n      dup3\n        /* \"#utility.yul\":20813:20824   */\n      gt\n        /* \"#utility.yul\":20810:21256   */\n      iszero\n      tag_595\n      jumpi\n        /* \"#utility.yul\":20855:20893   */\n      tag_596\n        /* \"#utility.yul\":20887:20892   */\n      dup2\n        /* \"#utility.yul\":20855:20893   */\n      tag_377\n      jump\t// in\n    tag_596:\n        /* \"#utility.yul\":20939:20968   */\n      tag_597\n        /* \"#utility.yul\":20957:20967   */\n      dup5\n        /* \"#utility.yul\":20939:20968   */\n      tag_378\n      jump\t// in\n    tag_597:\n        /* \"#utility.yul\":20929:20937   */\n      dup2\n        /* \"#utility.yul\":20925:20969   */\n      add\n        /* \"#utility.yul\":21122:21124   */\n      0x20\n        /* \"#utility.yul\":21110:21120   */\n      dup6\n        /* \"#utility.yul\":21107:21125   */\n      lt\n        /* \"#utility.yul\":21104:21153   */\n      iszero\n      tag_598\n      jumpi\n        /* \"#utility.yul\":21143:21151   */\n      dup2\n        /* \"#utility.yul\":21128:21151   */\n      swap1\n      pop\n        /* \"#utility.yul\":21104:21153   */\n    tag_598:\n        /* \"#utility.yul\":21166:21246   */\n      tag_599\n        /* \"#utility.yul\":21222:21244   */\n      tag_600\n        /* \"#utility.yul\":21240:21243   */\n      dup6\n        /* \"#utility.yul\":21222:21244   */\n      tag_378\n      jump\t// in\n    tag_600:\n        /* \"#utility.yul\":21212:21220   */\n      dup4\n        /* \"#utility.yul\":21208:21245   */\n      add\n        /* \"#utility.yul\":21195:21206   */\n      dup3\n        /* \"#utility.yul\":21166:21246   */\n      tag_387\n      jump\t// in\n    tag_599:\n        /* \"#utility.yul\":20825:21256   */\n      pop\n      pop\n        /* \"#utility.yul\":20810:21256   */\n    tag_595:\n        /* \"#utility.yul\":20720:21263   */\n      pop\n      pop\n      pop\n      jump\t// out\n        /* \"#utility.yul\":21269:21386   */\n    tag_389:\n        /* \"#utility.yul\":21323:21331   */\n      0x00\n        /* \"#utility.yul\":21373:21378   */\n      dup3\n        /* \"#utility.yul\":21367:21371   */\n      dup3\n        /* \"#utility.yul\":21363:21379   */\n      shr\n        /* \"#utility.yul\":21342:21379   */\n      swap1\n      pop\n        /* \"#utility.yul\":21269:21386   */\n      swap3\n      swap2\n      pop\n      pop\n      jump\t// out\n        /* \"#utility.yul\":21392:21561   */\n    tag_390:\n        /* \"#utility.yul\":21436:21442   */\n      0x00\n        /* \"#utility.yul\":21469:21520   */\n      tag_603\n        /* \"#utility.yul\":21517:21518   */\n      0x00\n        /* \"#utility.yul\":21513:21519   */\n      not\n        /* \"#utility.yul\":21505:21510   */\n      dup5\n        /* \"#utility.yul\":21502:21503   */\n      0x08\n        /* \"#utility.yul\":21498:21511   */\n      mul\n        /* \"#utility.yul\":21469:21520   */\n      tag_389\n      jump\t// in\n    tag_603:\n        /* \"#utility.yul\":21465:21521   */\n      not\n        /* \"#utility.yul\":21550:21554   */\n      dup1\n        /* \"#utility.yul\":21544:21548   */\n      dup4\n        /* \"#utility.yul\":21540:21555   */\n      and\n        /* \"#utility.yul\":21530:21555   */\n      swap2\n      pop\n        /* \"#utility.yul\":21443:21561   */\n      pop\n        /* \"#utility.yul\":21392:21561   */\n      swap3\n      swap2\n      pop\n      pop\n      jump\t// out\n        /* \"#utility.yul\":21566:21861   */\n    tag_391:\n        /* \"#utility.yul\":21642:21646   */\n      0x00\n        /* \"#utility.yul\":21788:21817   */\n      tag_605\n        /* \"#utility.yul\":21813:21816   */\n      dup4\n        /* \"#utility.yul\":21807:21811   */\n      dup4\n        /* \"#utility.yul\":21788:21817   */\n      tag_390\n      jump\t// in\n    tag_605:\n        /* \"#utility.yul\":21780:21817   */\n      swap2\n      pop\n        /* \"#utility.yul\":21850:21853   */\n      dup3\n        /* \"#utility.yul\":21847:21848   */\n      0x02\n        /* \"#utility.yul\":21843:21854   */\n      mul\n        /* \"#utility.yul\":21837:21841   */\n      dup3\n        /* \"#utility.yul\":21834:21855   */\n      or\n        /* \"#utility.yul\":21826:21855   */\n      swap1\n      pop\n        /* \"#utility.yul\":21566:21861   */\n      swap3\n      swap2\n      pop\n      pop\n      jump\t// out\n        /* \"#utility.yul\":21866:23261   */\n    tag_252:\n        /* \"#utility.yul\":21983:22020   */\n      tag_607\n        /* \"#utility.yul\":22016:22019   */\n      dup3\n        /* \"#utility.yul\":21983:22020   */\n      tag_329\n      jump\t// in\n    tag_607:\n        /* \"#utility.yul\":22085:22103   */\n      0xffffffffffffffff\n        /* \"#utility.yul\":22077:22083   */\n      dup2\n        /* \"#utility.yul\":22074:22104   */\n      gt\n        /* \"#utility.yul\":22071:22127   */\n      iszero\n      tag_608\n      jumpi\n        /* \"#utility.yul\":22107:22125   */\n      tag_609\n      tag_212\n      jump\t// in\n    tag_609:\n        /* \"#utility.yul\":22071:22127   */\n    tag_608:\n        /* \"#utility.yul\":22151:22189   */\n      tag_610\n        /* \"#utility.yul\":22183:22187   */\n      dup3\n        /* \"#utility.yul\":22177:22188   */\n      sload\n        /* \"#utility.yul\":22151:22189   */\n      tag_114\n      jump\t// in\n    tag_610:\n        /* \"#utility.yul\":22236:22303   */\n      tag_611\n        /* \"#utility.yul\":22296:22302   */\n      dup3\n        /* \"#utility.yul\":22288:22294   */\n      dup3\n        /* \"#utility.yul\":22282:22286   */\n      dup6\n        /* \"#utility.yul\":22236:22303   */\n      tag_388\n      jump\t// in\n    tag_611:\n        /* \"#utility.yul\":22330:22331   */\n      0x00\n        /* \"#utility.yul\":22354:22358   */\n      0x20\n        /* \"#utility.yul\":22341:22358   */\n      swap1\n      pop\n        /* \"#utility.yul\":22386:22388   */\n      0x1f\n        /* \"#utility.yul\":22378:22384   */\n      dup4\n        /* \"#utility.yul\":22375:22389   */\n      gt\n        /* \"#utility.yul\":22403:22404   */\n      0x01\n        /* \"#utility.yul\":22398:23016   */\n      dup2\n      eq\n      tag_613\n      jumpi\n        /* \"#utility.yul\":23060:23061   */\n      0x00\n        /* \"#utility.yul\":23077:23083   */\n      dup5\n        /* \"#utility.yul\":23074:23151   */\n      iszero\n      tag_614\n      jumpi\n        /* \"#utility.yul\":23126:23135   */\n      dup3\n        /* \"#utility.yul\":23121:23124   */\n      dup8\n        /* \"#utility.yul\":23117:23136   */\n      add\n        /* \"#utility.yul\":23111:23137   */\n      mload\n        /* \"#utility.yul\":23102:23137   */\n      swap1\n      pop\n        /* \"#utility.yul\":23074:23151   */\n    tag_614:\n        /* \"#utility.yul\":23177:23244   */\n      tag_615\n        /* \"#utility.yul\":23237:23243   */\n      dup6\n        /* \"#utility.yul\":23230:23235   */\n      dup3\n        /* \"#utility.yul\":23177:23244   */\n      tag_391\n      jump\t// in\n    tag_615:\n        /* \"#utility.yul\":23171:23175   */\n      dup7\n        /* \"#utility.yul\":23164:23245   */\n      sstore\n        /* \"#utility.yul\":23033:23255   */\n      pop\n        /* \"#utility.yul\":22368:23255   */\n      jump(tag_612)\n        /* \"#utility.yul\":22398:23016   */\n    tag_613:\n        /* \"#utility.yul\":22450:22454   */\n      0x1f\n        /* \"#utility.yul\":22446:22455   */\n      not\n        /* \"#utility.yul\":22438:22444   */\n      dup5\n        /* \"#utility.yul\":22434:22456   */\n      and\n        /* \"#utility.yul\":22484:22521   */\n      tag_616\n        /* \"#utility.yul\":22516:22520   */\n      dup7\n        /* \"#utility.yul\":22484:22521   */\n      tag_377\n      jump\t// in\n    tag_616:\n        /* \"#utility.yul\":22543:22544   */\n      0x00\n        /* \"#utility.yul\":22557:22765   */\n    tag_617:\n        /* \"#utility.yul\":22571:22578   */\n      dup3\n        /* \"#utility.yul\":22568:22569   */\n      dup2\n        /* \"#utility.yul\":22565:22579   */\n      lt\n        /* \"#utility.yul\":22557:22765   */\n      iszero\n      tag_619\n      jumpi\n        /* \"#utility.yul\":22650:22659   */\n      dup5\n        /* \"#utility.yul\":22645:22648   */\n      dup10\n        /* \"#utility.yul\":22641:22660   */\n      add\n        /* \"#utility.yul\":22635:22661   */\n      mload\n        /* \"#utility.yul\":22627:22633   */\n      dup3\n        /* \"#utility.yul\":22620:22662   */\n      sstore\n        /* \"#utility.yul\":22701:22702   */\n      0x01\n        /* \"#utility.yul\":22693:22699   */\n      dup3\n        /* \"#utility.yul\":22689:22703   */\n      add\n        /* \"#utility.yul\":22679:22703   */\n      swap2\n      pop\n        /* \"#utility.yul\":22748:22750   */\n      0x20\n        /* \"#utility.yul\":22737:22746   */\n      dup6\n        /* \"#utility.yul\":22733:22751   */\n      add\n        /* \"#utility.yul\":22720:22751   */\n      swap5\n      pop\n        /* \"#utility.yul\":22594:22598   */\n      0x20\n        /* \"#utility.yul\":22591:22592   */\n      dup2\n        /* \"#utility.yul\":22587:22599   */\n      add\n        /* \"#utility.yul\":22582:22599   */\n      swap1\n      pop\n        /* \"#utility.yul\":22557:22765   */\n      jump(tag_617)\n    tag_619:\n        /* \"#utility.yul\":22793:22799   */\n      dup7\n        /* \"#utility.yul\":22784:22791   */\n      dup4\n        /* \"#utility.yul\":22781:22800   */\n      lt\n        /* \"#utility.yul\":22778:22957   */\n      iszero\n      tag_620\n      jumpi\n        /* \"#utility.yul\":22851:22860   */\n      dup5\n        /* \"#utility.yul\":22846:22849   */\n      dup10\n        /* \"#utility.yul\":22842:22861   */\n      add\n        /* \"#utility.yul\":22836:22862   */\n      mload\n        /* \"#utility.yul\":22894:22942   */\n      tag_621\n        /* \"#utility.yul\":22936:22940   */\n      0x1f\n        /* \"#utility.yul\":22928:22934   */\n      dup10\n        /* \"#utility.yul\":22924:22941   */\n      and\n        /* \"#utility.yul\":22913:22922   */\n      dup3\n        /* \"#utility.yul\":22894:22942   */\n      tag_390\n      jump\t// in\n    tag_621:\n        /* \"#utility.yul\":22886:22892   */\n      dup4\n        /* \"#utility.yul\":22879:22943   */\n      sstore\n        /* \"#utility.yul\":22801:22957   */\n      pop\n        /* \"#utility.yul\":22778:22957   */\n    tag_620:\n        /* \"#utility.yul\":23003:23004   */\n      0x01\n        /* \"#utility.yul\":22999:23000   */\n      0x02\n        /* \"#utility.yul\":22991:22997   */\n      dup9\n        /* \"#utility.yul\":22987:23001   */\n      mul\n        /* \"#utility.yul\":22983:23005   */\n      add\n        /* \"#utility.yul\":22977:22981   */\n      dup9\n        /* \"#utility.yul\":22970:23006   */\n      sstore\n        /* \"#utility.yul\":22405:23016   */\n      pop\n      pop\n      pop\n        /* \"#utility.yul\":22368:23255   */\n    tag_612:\n      pop\n        /* \"#utility.yul\":21958:23261   */\n      pop\n      pop\n      pop\n        /* \"#utility.yul\":21866:23261   */\n      pop\n      pop\n      jump\t// out\n        /* \"#utility.yul\":23267:23709   */\n    tag_270:\n        /* \"#utility.yul\":23416:23420   */\n      0x00\n        /* \"#utility.yul\":23454:23456   */\n      0x60\n        /* \"#utility.yul\":23443:23452   */\n      dup3\n        /* \"#utility.yul\":23439:23457   */\n      add\n        /* \"#utility.yul\":23431:23457   */\n      swap1\n      pop\n        /* \"#utility.yul\":23467:23538   */\n      tag_623\n        /* \"#utility.yul\":23535:23536   */\n      0x00\n        /* \"#utility.yul\":23524:23533   */\n      dup4\n        /* \"#utility.yul\":23520:23537   */\n      add\n        /* \"#utility.yul\":23511:23517   */\n      dup7\n        /* \"#utility.yul\":23467:23538   */\n      tag_349\n      jump\t// in\n    tag_623:\n        /* \"#utility.yul\":23548:23620   */\n      tag_624\n        /* \"#utility.yul\":23616:23618   */\n      0x20\n        /* \"#utility.yul\":23605:23614   */\n      dup4\n        /* \"#utility.yul\":23601:23619   */\n      add\n        /* \"#utility.yul\":23592:23598   */\n      dup6\n        /* \"#utility.yul\":23548:23620   */\n      tag_346\n      jump\t// in\n    tag_624:\n        /* \"#utility.yul\":23630:23702   */\n      tag_625\n        /* \"#utility.yul\":23698:23700   */\n      0x40\n        /* \"#utility.yul\":23687:23696   */\n      dup4\n        /* \"#utility.yul\":23683:23701   */\n      add\n        /* \"#utility.yul\":23674:23680   */\n      dup5\n        /* \"#utility.yul\":23630:23702   */\n      tag_346\n      jump\t// in\n    tag_625:\n        /* \"#utility.yul\":23267:23709   */\n      swap5\n      swap4\n      pop\n      pop\n      pop\n      pop\n      jump\t// out\n        /* \"#utility.yul\":23715:23895   */\n    tag_392:\n        /* \"#utility.yul\":23855:23887   */\n      0x4d696e7420726563697069656e74206e6f742077686974656c69737465640000\n        /* \"#utility.yul\":23851:23852   */\n      0x00\n        /* \"#utility.yul\":23843:23849   */\n      dup3\n        /* \"#utility.yul\":23839:23853   */\n      add\n        /* \"#utility.yul\":23832:23888   */\n      mstore\n        /* \"#utility.yul\":23715:23895   */\n      pop\n      jump\t// out\n        /* \"#utility.yul\":23901:24267   */\n    tag_393:\n        /* \"#utility.yul\":24043:24046   */\n      0x00\n        /* \"#utility.yul\":24064:24131   */\n      tag_628\n        /* \"#utility.yul\":24128:24130   */\n      0x1e\n        /* \"#utility.yul\":24123:24126   */\n      dup4\n        /* \"#utility.yul\":24064:24131   */\n      tag_330\n      jump\t// in\n    tag_628:\n        /* \"#utility.yul\":24057:24131   */\n      swap2\n      pop\n        /* \"#utility.yul\":24140:24233   */\n      tag_629\n        /* \"#utility.yul\":24229:24232   */\n      dup3\n        /* \"#utility.yul\":24140:24233   */\n      tag_392\n      jump\t// in\n    tag_629:\n        /* \"#utility.yul\":24258:24260   */\n      0x20\n        /* \"#utility.yul\":24253:24256   */\n      dup3\n        /* \"#utility.yul\":24249:24261   */\n      add\n        /* \"#utility.yul\":24242:24261   */\n      swap1\n      pop\n        /* \"#utility.yul\":23901:24267   */\n      swap2\n      swap1\n      pop\n      jump\t// out\n        /* \"#utility.yul\":24273:24692   */\n    tag_305:\n        /* \"#utility.yul\":24439:24443   */\n      0x00\n        /* \"#utility.yul\":24477:24479   */\n      0x20\n        /* \"#utility.yul\":24466:24475   */\n      dup3\n        /* \"#utility.yul\":24462:24480   */\n      add\n        /* \"#utility.yul\":24454:24480   */\n      swap1\n      pop\n        /* \"#utility.yul\":24526:24535   */\n      dup2\n        /* \"#utility.yul\":24520:24524   */\n      dup2\n        /* \"#utility.yul\":24516:24536   */\n      sub\n        /* \"#utility.yul\":24512:24513   */\n      0x00\n        /* \"#utility.yul\":24501:24510   */\n      dup4\n        /* \"#utility.yul\":24497:24514   */\n      add\n        /* \"#utility.yul\":24490:24537   */\n      mstore\n        /* \"#utility.yul\":24554:24685   */\n      tag_631\n        /* \"#utility.yul\":24680:24684   */\n      dup2\n        /* \"#utility.yul\":24554:24685   */\n      tag_393\n      jump\t// in\n    tag_631:\n        /* \"#utility.yul\":24546:24685   */\n      swap1\n      pop\n        /* \"#utility.yul\":24273:24692   */\n      swap2\n      swap1\n      pop\n      jump\t// out\n        /* \"#utility.yul\":24698:24889   */\n    tag_315:\n        /* \"#utility.yul\":24738:24741   */\n      0x00\n        /* \"#utility.yul\":24757:24777   */\n      tag_633\n        /* \"#utility.yul\":24775:24776   */\n      dup3\n        /* \"#utility.yul\":24757:24777   */\n      tag_341\n      jump\t// in\n    tag_633:\n        /* \"#utility.yul\":24752:24777   */\n      swap2\n      pop\n        /* \"#utility.yul\":24791:24811   */\n      tag_634\n        /* \"#utility.yul\":24809:24810   */\n      dup4\n        /* \"#utility.yul\":24791:24811   */\n      tag_341\n      jump\t// in\n    tag_634:\n        /* \"#utility.yul\":24786:24811   */\n      swap3\n      pop\n        /* \"#utility.yul\":24834:24835   */\n      dup3\n        /* \"#utility.yul\":24831:24832   */\n      dup3\n        /* \"#utility.yul\":24827:24836   */\n      add\n        /* \"#utility.yul\":24820:24836   */\n      swap1\n      pop\n        /* \"#utility.yul\":24855:24858   */\n      dup1\n        /* \"#utility.yul\":24852:24853   */\n      dup3\n        /* \"#utility.yul\":24849:24859   */\n      gt\n        /* \"#utility.yul\":24846:24882   */\n      iszero\n      tag_635\n      jumpi\n        /* \"#utility.yul\":24862:24880   */\n      tag_636\n      tag_376\n      jump\t// in\n    tag_636:\n        /* \"#utility.yul\":24846:24882   */\n    tag_635:\n        /* \"#utility.yul\":24698:24889   */\n      swap3\n      swap2\n      pop\n      pop\n      jump\t// out\n\n    auxdata: 0xa2646970667358221220320b9dd958fac22be162e28dd4098ba7b738553d4f4b065dfbe40b5e69bf107264736f6c634300081e0033\n}\n",
				"bytecode": {
					"linkReferences": {},
					"object": "608060405234801561000f575f5ffd5b50336040518060400160405280601381526020017f53746576656e732042616e616e6120436f696e000000000000000000000000008152506040518060400160405280600381526020017f5342430000000000000000000000000000000000000000000000000000000000815250816003908161008c9190610424565b50806004908161009c9190610424565b5050505f73ffffffffffffffffffffffffffffffffffffffff168173ffffffffffffffffffffffffffffffffffffffff160361010f575f6040517f1e4fbdf70000000000000000000000000000000000000000000000000000000081526004016101069190610532565b60405180910390fd5b61011e8161012460201b60201c565b5061054b565b5f60055f9054906101000a900473ffffffffffffffffffffffffffffffffffffffff1690508160055f6101000a81548173ffffffffffffffffffffffffffffffffffffffff021916908373ffffffffffffffffffffffffffffffffffffffff1602179055508173ffffffffffffffffffffffffffffffffffffffff168173ffffffffffffffffffffffffffffffffffffffff167f8be0079c531659141344cd1fd0a4f28419497f9722a3daafe3b4186f6b6457e060405160405180910390a35050565b5f81519050919050565b7f4e487b71000000000000000000000000000000000000000000000000000000005f52604160045260245ffd5b7f4e487b71000000000000000000000000000000000000000000000000000000005f52602260045260245ffd5b5f600282049050600182168061026257607f821691505b6020821081036102755761027461021e565b5b50919050565b5f819050815f5260205f209050919050565b5f6020601f8301049050919050565b5f82821b905092915050565b5f600883026102d77fffffffffffffffffffffffffffffffffffffffffffffffffffffffffffffffff8261029c565b6102e1868361029c565b95508019841693508086168417925050509392505050565b5f819050919050565b5f819050919050565b5f61032561032061031b846102f9565b610302565b6102f9565b9050919050565b5f819050919050565b61033e8361030b565b61035261034a8261032c565b8484546102a8565b825550505050565b5f5f905090565b61036961035a565b610374818484610335565b505050565b5b818110156103975761038c5f82610361565b60018101905061037a565b5050565b601f8211156103dc576103ad8161027b565b6103b68461028d565b810160208510156103c5578190505b6103d96103d18561028d565b830182610379565b50505b505050565b5f82821c905092915050565b5f6103fc5f19846008026103e1565b1980831691505092915050565b5f61041483836103ed565b9150826002028217905092915050565b61042d826101e7565b67ffffffffffffffff811115610446576104456101f1565b5b610450825461024b565b61045b82828561039b565b5f60209050601f83116001811461048c575f841561047a578287015190505b6104848582610409565b8655506104eb565b601f19841661049a8661027b565b5f5b828110156104c15784890151825560018201915060208501945060208101905061049c565b868310156104de57848901516104da601f8916826103ed565b8355505b6001600288020188555050505b505050505050565b5f73ffffffffffffffffffffffffffffffffffffffff82169050919050565b5f61051c826104f3565b9050919050565b61052c81610512565b82525050565b5f6020820190506105455f830184610523565b92915050565b612a95806105585f395ff3fe608060405234801561000f575f5ffd5b5060043610610135575f3560e01c80638da5cb5b116100b6578063a9059cbb1161007a578063a9059cbb14610350578063c8fb079314610380578063dd62ed3e146103b0578063e9e30927146103e0578063f041f73f146103fe578063f2fde38b1461041a57610135565b80638da5cb5b1461029557806395d89b41146102b35780639dc29fac146102d1578063a6b46bbc146102ed578063a6c807a91461031d57610135565b8063313ce567116100fd578063313ce5671461020557806340c10f19146102235780636af838451461023f57806370a082311461025b578063715018a61461028b57610135565b806306fdde0314610139578063095ea7b3146101575780630e8081881461018757806318160ddd146101b757806323b872dd146101d5575b5f5ffd5b610141610436565b60405161014e9190611e90565b60405180910390f35b610171600480360381019061016c9190611f4e565b6104c6565b60405161017e9190611fa6565b60405180910390f35b6101a1600480360381019061019c9190611fbf565b6104e8565b6040516101ae9190611ff9565b60405180910390f35b6101bf610508565b6040516101cc9190611ff9565b60405180910390f35b6101ef60048036038101906101ea9190612012565b610511565b6040516101fc9190611fa6565b60405180910390f35b61020d61053f565b60405161021a919061207d565b60405180910390f35b61023d60048036038101906102389190611f4e565b610547565b005b61025960048036038101906102549190611fbf565b610637565b005b61027560048036038101906102709190612096565b6108a6565b6040516102829190611ff9565b60405180910390f35b6102936108eb565b005b61029d6108fe565b6040516102aa91906120d0565b60405180910390f35b6102bb610926565b6040516102c89190611e90565b60405180910390f35b6102eb60048036038101906102e69190611f4e565b6109b6565b005b61030760048036038101906103029190611fbf565b610a1a565b60405161031491906120d0565b60405180910390f35b61033760048036038101906103329190612096565b610a4a565b60405161034794939291906120e9565b60405180910390f35b61036a60048036038101906103659190611f4e565b610b28565b6040516103779190611fa6565b60405180910390f35b61039a60048036038101906103959190611fbf565b610b4a565b6040516103a79190612208565b60405180910390f35b6103ca60048036038101906103c59190612228565b610d62565b6040516103d79190611ff9565b60405180910390f35b6103e8610de4565b6040516103f59190612381565b60405180910390f35b610418600480360381019061041391906124cd565b611024565b005b610434600480360381019061042f9190612096565b6113a6565b005b60606003805461044590612566565b80601f016020809104026020016040519081016040528092919081815260200182805461047190612566565b80156104bc5780601f10610493576101008083540402835291602001916104bc565b820191905f5260205f20905b81548152906001019060200180831161049f57829003601f168201915b5050505050905090565b5f5f6104d061142a565b90506104dd818585611431565b600191505092915050565b600881815481106104f7575f80fd5b905f5260205f20015f915090505481565b5f600254905090565b5f5f61051b61142a565b9050610528858285611443565b6105338585856114d6565b60019150509392505050565b5f6012905090565b61054f6115c6565b60065f8373ffffffffffffffffffffffffffffffffffffffff1673ffffffffffffffffffffffffffffffffffffffff1681526020019081526020015f206002015f9054906101000a900460ff166105db576040517f08c379a00000000000000000000000000000000000000000000000000000000081526004016105d2906125e0565b60405180910390fd5b6105e5828261164d565b8173ffffffffffffffffffffffffffffffffffffffff167f3f2c9d57c068687834f0de942a9babb9e5acab57d516d3480a3c16ee165a42738260405161062b9190611ff9565b60405180910390a25050565b61063f6115c6565b5f60075f8381526020019081526020015f205f9054906101000a900473ffffffffffffffffffffffffffffffffffffffff1690505f73ffffffffffffffffffffffffffffffffffffffff168173ffffffffffffffffffffffffffffffffffffffff16036106e1576040517f08c379a00000000000000000000000000000000000000000000000000000000081526004016106d890612648565b60405180910390fd5b60065f8273ffffffffffffffffffffffffffffffffffffffff1673ffffffffffffffffffffffffffffffffffffffff1681526020019081526020015f205f5f82015f61072d9190611d8b565b600182015f9055600282015f6101000a81549060ff02191690556002820160016101000a81549073ffffffffffffffffffffffffffffffffffffffff0219169055505060075f8381526020019081526020015f205f6101000a81549073ffffffffffffffffffffffffffffffffffffffff02191690555f5f90505b60088054905081101561085d5782600882815481106107ca576107c9612666565b5b905f5260205f2001540361085057600860016008805490506107ec91906126c0565b815481106107fd576107fc612666565b5b905f5260205f2001546008828154811061081a57610819612666565b5b905f5260205f2001819055506008805480610838576108376126f3565b5b600190038181905f5260205f20015f9055905561085d565b80806001019150506107a8565b508073ffffffffffffffffffffffffffffffffffffffff16827f5a5f05ab7e4bb3b61b01fd908fb066ce1608190ad7e66ee978414d88cf0a99a960405160405180910390a35050565b5f5f5f8373ffffffffffffffffffffffffffffffffffffffff1673ffffffffffffffffffffffffffffffffffffffff1681526020019081526020015f20549050919050565b6108f36115c6565b6108fc5f6116cc565b565b5f60055f9054906101000a900473ffffffffffffffffffffffffffffffffffffffff16905090565b60606004805461093590612566565b80601f016020809104026020016040519081016040528092919081815260200182805461096190612566565b80156109ac5780601f10610983576101008083540402835291602001916109ac565b820191905f5260205f20905b81548152906001019060200180831161098f57829003601f168201915b5050505050905090565b6109be6115c6565b6109c8828261178f565b8173ffffffffffffffffffffffffffffffffffffffff167ffd38818f5291bf0bb3a2a48aadc06ba8757865d1dabd804585338aab3009dcb682604051610a0e9190611ff9565b60405180910390a25050565b6007602052805f5260405f205f915054906101000a900473ffffffffffffffffffffffffffffffffffffffff1681565b6006602052805f5260405f205f91509050805f018054610a6990612566565b80601f0160208091040260200160405190810160405280929190818152602001828054610a9590612566565b8015610ae05780601f10610ab757610100808354040283529160200191610ae0565b820191905f5260205f20905b815481529060010190602001808311610ac357829003601f168201915b505050505090806001015490806002015f9054906101000a900460ff16908060020160019054906101000a900473ffffffffffffffffffffffffffffffffffffffff16905084565b5f5f610b3261142a565b9050610b3f8185856114d6565b600191505092915050565b610b52611dc8565b5f60075f8481526020019081526020015f205f9054906101000a900473ffffffffffffffffffffffffffffffffffffffff1690505f73ffffffffffffffffffffffffffffffffffffffff168173ffffffffffffffffffffffffffffffffffffffff1603610c0857604051806080016040528060405180602001604052805f81525081526020015f81526020015f151581526020015f73ffffffffffffffffffffffffffffffffffffffff16815250915050610d5d565b60065f8273ffffffffffffffffffffffffffffffffffffffff1673ffffffffffffffffffffffffffffffffffffffff1681526020019081526020015f206040518060800160405290815f82018054610c5f90612566565b80601f0160208091040260200160405190810160405280929190818152602001828054610c8b90612566565b8015610cd65780601f10610cad57610100808354040283529160200191610cd6565b820191905f5260205f20905b815481529060010190602001808311610cb957829003601f168201915b5050505050815260200160018201548152602001600282015f9054906101000a900460ff161515151581526020016002820160019054906101000a900473ffffffffffffffffffffffffffffffffffffffff1673ffffffffffffffffffffffffffffffffffffffff1673ffffffffffffffffffffffffffffffffffffffff16815250509150505b919050565b5f60015f8473ffffffffffffffffffffffffffffffffffffffff1673ffffffffffffffffffffffffffffffffffffffff1681526020019081526020015f205f8373ffffffffffffffffffffffffffffffffffffffff1673ffffffffffffffffffffffffffffffffffffffff1681526020019081526020015f2054905092915050565b60605f60088054905067ffffffffffffffff811115610e0657610e056123a9565b5b604051908082528060200260200182016040528015610e3f57816020015b610e2c611dc8565b815260200190600190039081610e245790505b5090505f5f90505b60088054905081101561101c5760065f60075f60088581548110610e6e57610e6d612666565b5b905f5260205f20015481526020019081526020015f205f9054906101000a900473ffffffffffffffffffffffffffffffffffffffff1673ffffffffffffffffffffffffffffffffffffffff1673ffffffffffffffffffffffffffffffffffffffff1681526020019081526020015f206040518060800160405290815f82018054610ef790612566565b80601f0160208091040260200160405190810160405280929190818152602001828054610f2390612566565b8015610f6e5780601f10610f4557610100808354040283529160200191610f6e565b820191905f5260205f20905b815481529060010190602001808311610f5157829003601f168201915b5050505050815260200160018201548152602001600282015f9054906101000a900460ff161515151581526020016002820160019054906101000a900473ffffffffffffffffffffffffffffffffffffffff1673ffffffffffffffffffffffffffffffffffffffff1673ffffffffffffffffffffffffffffffffffffffff168152505082828151811061100457611003612666565b5b60200260200101819052508080600101915050610e47565b508091505090565b61102c6115c6565b5f60075f8381526020019081526020015f205f9054906101000a900473ffffffffffffffffffffffffffffffffffffffff1690505f73ffffffffffffffffffffffffffffffffffffffff168173ffffffffffffffffffffffffffffffffffffffff16146111de5760065f8273ffffffffffffffffffffffffffffffffffffffff1673ffffffffffffffffffffffffffffffffffffffff1681526020019081526020015f205f5f82015f6110df9190611d8b565b600182015f9055600282015f6101000a81549060ff02191690556002820160016101000a81549073ffffffffffffffffffffffffffffffffffffffff021916905550505f5f90505b6008805490508110156111dc57826008828154811061114957611148612666565b5b905f5260205f200154036111cf576008600160088054905061116b91906126c0565b8154811061117c5761117b612666565b5b905f5260205f2001546008828154811061119957611198612666565b5b905f5260205f20018190555060088054806111b7576111b66126f3565b5b600190038181905f5260205f20015f905590556111dc565b8080600101915050611127565b505b60405180608001604052808481526020018381526020016001151581526020018573ffffffffffffffffffffffffffffffffffffffff1681525060065f8673ffffffffffffffffffffffffffffffffffffffff1673ffffffffffffffffffffffffffffffffffffffff1681526020019081526020015f205f820151815f01908161126891906128c0565b50602082015181600101556040820151816002015f6101000a81548160ff02191690831515021790555060608201518160020160016101000a81548173ffffffffffffffffffffffffffffffffffffffff021916908373ffffffffffffffffffffffffffffffffffffffff1602179055509050508360075f8481526020019081526020015f205f6101000a81548173ffffffffffffffffffffffffffffffffffffffff021916908373ffffffffffffffffffffffffffffffffffffffff160217905550600882908060018154018082558091505060019003905f5260205f20015f9091909190915055818473ffffffffffffffffffffffffffffffffffffffff167fac4a9513a5c8018262c0b02f41b831ce95aeefa4b387b7c565885fb0d0012d86856040516113989190611e90565b60405180910390a350505050565b6113ae6115c6565b5f73ffffffffffffffffffffffffffffffffffffffff168173ffffffffffffffffffffffffffffffffffffffff160361141e575f6040517f1e4fbdf700000000000000000000000000000000000000000000000000000000815260040161141591906120d0565b60405180910390fd5b611427816116cc565b50565b5f33905090565b61143e838383600161180e565b505050565b5f61144e8484610d62565b90507fffffffffffffffffffffffffffffffffffffffffffffffffffffffffffffffff8110156114d057818110156114c1578281836040517ffb8f41b20000000000000000000000000000000000000000000000000000000081526004016114b89392919061298f565b60405180910390fd5b6114cf84848484035f61180e565b5b50505050565b5f73ffffffffffffffffffffffffffffffffffffffff168373ffffffffffffffffffffffffffffffffffffffff1603611546575f6040517f96c6fd1e00000000000000000000000000000000000000000000000000000000815260040161153d91906120d0565b60405180910390fd5b5f73ffffffffffffffffffffffffffffffffffffffff168273ffffffffffffffffffffffffffffffffffffffff16036115b6575f6040517fec442f050000000000000000000000000000000000000000000000000000000081526004016115ad91906120d0565b60405180910390fd5b6115c18383836119dd565b505050565b6115ce61142a565b73ffffffffffffffffffffffffffffffffffffffff166115ec6108fe565b73ffffffffffffffffffffffffffffffffffffffff161461164b5761160f61142a565b6040517f118cdaa700000000000000000000000000000000000000000000000000000000815260040161164291906120d0565b60405180910390fd5b565b5f73ffffffffffffffffffffffffffffffffffffffff168273ffffffffffffffffffffffffffffffffffffffff16036116bd575f6040517fec442f050000000000000000000000000000000000000000000000000000000081526004016116b491906120d0565b60405180910390fd5b6116c85f83836119dd565b5050565b5f60055f9054906101000a900473ffffffffffffffffffffffffffffffffffffffff1690508160055f6101000a81548173ffffffffffffffffffffffffffffffffffffffff021916908373ffffffffffffffffffffffffffffffffffffffff1602179055508173ffffffffffffffffffffffffffffffffffffffff168173ffffffffffffffffffffffffffffffffffffffff167f8be0079c531659141344cd1fd0a4f28419497f9722a3daafe3b4186f6b6457e060405160405180910390a35050565b5f73ffffffffffffffffffffffffffffffffffffffff168273ffffffffffffffffffffffffffffffffffffffff16036117ff575f6040517f96c6fd1e0000000000000000000000000000000000000000000000000000000081526004016117f691906120d0565b60405180910390fd5b61180a825f836119dd565b5050565b5f73ffffffffffffffffffffffffffffffffffffffff168473ffffffffffffffffffffffffffffffffffffffff160361187e575f6040517fe602df0500000000000000000000000000000000000000000000000000000000815260040161187591906120d0565b60405180910390fd5b5f73ffffffffffffffffffffffffffffffffffffffff168373ffffffffffffffffffffffffffffffffffffffff16036118ee575f6040517f94280d620000000000000000000000000000000000000000000000000000000081526004016118e591906120d0565b60405180910390fd5b8160015f8673ffffffffffffffffffffffffffffffffffffffff1673ffffffffffffffffffffffffffffffffffffffff1681526020019081526020015f205f8573ffffffffffffffffffffffffffffffffffffffff1673ffffffffffffffffffffffffffffffffffffffff1681526020019081526020015f208190555080156119d7578273ffffffffffffffffffffffffffffffffffffffff168473ffffffffffffffffffffffffffffffffffffffff167f8c5be1e5ebec7d5bd14f71427d1e84f3dd0314c0f7b2291e5b200ac8c7c3b925846040516119ce9190611ff9565b60405180910390a35b50505050565b5f73ffffffffffffffffffffffffffffffffffffffff168373ffffffffffffffffffffffffffffffffffffffff1603611aa15760065f8373ffffffffffffffffffffffffffffffffffffffff1673ffffffffffffffffffffffffffffffffffffffff1681526020019081526020015f206002015f9054906101000a900460ff16611a9c576040517f08c379a0000000000000000000000000000000000000000000000000000000008152600401611a9390612a0e565b60405180910390fd5b611b62565b5f73ffffffffffffffffffffffffffffffffffffffff168273ffffffffffffffffffffffffffffffffffffffff1614611b615760065f8373ffffffffffffffffffffffffffffffffffffffff1673ffffffffffffffffffffffffffffffffffffffff1681526020019081526020015f206002015f9054906101000a900460ff16611b60576040517f08c379a0000000000000000000000000000000000000000000000000000000008152600401611b57906125e0565b60405180910390fd5b5b5b611b6d838383611b72565b505050565b5f73ffffffffffffffffffffffffffffffffffffffff168373ffffffffffffffffffffffffffffffffffffffff1603611bc2578060025f828254611bb69190612a2c565b92505081905550611c90565b5f5f5f8573ffffffffffffffffffffffffffffffffffffffff1673ffffffffffffffffffffffffffffffffffffffff1681526020019081526020015f2054905081811015611c4b578381836040517fe450d38c000000000000000000000000000000000000000000000000000000008152600401611c429392919061298f565b60405180910390fd5b8181035f5f8673ffffffffffffffffffffffffffffffffffffffff1673ffffffffffffffffffffffffffffffffffffffff1681526020019081526020015f2081905550505b5f73ffffffffffffffffffffffffffffffffffffffff168273ffffffffffffffffffffffffffffffffffffffff1603611cd7578060025f8282540392505081905550611d21565b805f5f8473ffffffffffffffffffffffffffffffffffffffff1673ffffffffffffffffffffffffffffffffffffffff1681526020019081526020015f205f82825401925050819055505b8173ffffffffffffffffffffffffffffffffffffffff168373ffffffffffffffffffffffffffffffffffffffff167fddf252ad1be2c89b69c2b068fc378daa952ba7f163c4a11628f55a4df523b3ef83604051611d7e9190611ff9565b60405180910390a3505050565b508054611d9790612566565b5f825580601f10611da85750611dc5565b601f0160209004905f5260205f2090810190611dc49190611e05565b5b50565b6040518060800160405280606081526020015f81526020015f151581526020015f73ffffffffffffffffffffffffffffffffffffffff1681525090565b5b80821115611e1c575f815f905550600101611e06565b5090565b5f81519050919050565b5f82825260208201905092915050565b8281835e5f83830152505050565b5f601f19601f8301169050919050565b5f611e6282611e20565b611e6c8185611e2a565b9350611e7c818560208601611e3a565b611e8581611e48565b840191505092915050565b5f6020820190508181035f830152611ea88184611e58565b905092915050565b5f604051905090565b5f5ffd5b5f5ffd5b5f73ffffffffffffffffffffffffffffffffffffffff82169050919050565b5f611eea82611ec1565b9050919050565b611efa81611ee0565b8114611f04575f5ffd5b50565b5f81359050611f1581611ef1565b92915050565b5f819050919050565b611f2d81611f1b565b8114611f37575f5ffd5b50565b5f81359050611f4881611f24565b92915050565b5f5f60408385031215611f6457611f63611eb9565b5b5f611f7185828601611f07565b9250506020611f8285828601611f3a565b9150509250929050565b5f8115159050919050565b611fa081611f8c565b82525050565b5f602082019050611fb95f830184611f97565b92915050565b5f60208284031215611fd457611fd3611eb9565b5b5f611fe184828501611f3a565b91505092915050565b611ff381611f1b565b82525050565b5f60208201905061200c5f830184611fea565b92915050565b5f5f5f6060848603121561202957612028611eb9565b5b5f61203686828701611f07565b935050602061204786828701611f07565b925050604061205886828701611f3a565b9150509250925092565b5f60ff82169050919050565b61207781612062565b82525050565b5f6020820190506120905f83018461206e565b92915050565b5f602082840312156120ab576120aa611eb9565b5b5f6120b884828501611f07565b91505092915050565b6120ca81611ee0565b82525050565b5f6020820190506120e35f8301846120c1565b92915050565b5f6080820190508181035f8301526121018187611e58565b90506121106020830186611fea565b61211d6040830185611f97565b61212a60608301846120c1565b95945050505050565b5f82825260208201905092915050565b5f61214d82611e20565b6121578185612133565b9350612167818560208601611e3a565b61217081611e48565b840191505092915050565b61218481611f1b565b82525050565b61219381611f8c565b82525050565b6121a281611ee0565b82525050565b5f608083015f8301518482035f8601526121c28282612143565b91505060208301516121d7602086018261217b565b5060408301516121ea604086018261218a565b5060608301516121fd6060860182612199565b508091505092915050565b5f6020820190508181035f83015261222081846121a8565b905092915050565b5f5f6040838503121561223e5761223d611eb9565b5b5f61224b85828601611f07565b925050602061225c85828601611f07565b9150509250929050565b5f81519050919050565b5f82825260208201905092915050565b5f819050602082019050919050565b5f608083015f8301518482035f8601526122a98282612143565b91505060208301516122be602086018261217b565b5060408301516122d1604086018261218a565b5060608301516122e46060860182612199565b508091505092915050565b5f6122fa838361228f565b905092915050565b5f602082019050919050565b5f61231882612266565b6123228185612270565b93508360208202850161233485612280565b805f5b8581101561236f578484038952815161235085826122ef565b945061235b83612302565b925060208a01995050600181019050612337565b50829750879550505050505092915050565b5f6020820190508181035f830152612399818461230e565b905092915050565b5f5ffd5b5f5ffd5b7f4e487b71000000000000000000000000000000000000000000000000000000005f52604160045260245ffd5b6123df82611e48565b810181811067ffffffffffffffff821117156123fe576123fd6123a9565b5b80604052505050565b5f612410611eb0565b905061241c82826123d6565b919050565b5f67ffffffffffffffff82111561243b5761243a6123a9565b5b61244482611e48565b9050602081019050919050565b828183375f83830152505050565b5f61247161246c84612421565b612407565b90508281526020810184848401111561248d5761248c6123a5565b5b612498848285612451565b509392505050565b5f82601f8301126124b4576124b36123a1565b5b81356124c484826020860161245f565b91505092915050565b5f5f5f606084860312156124e4576124e3611eb9565b5b5f6124f186828701611f07565b935050602084013567ffffffffffffffff81111561251257612511611ebd565b5b61251e868287016124a0565b925050604061252f86828701611f3a565b9150509250925092565b7f4e487b71000000000000000000000000000000000000000000000000000000005f52602260045260245ffd5b5f600282049050600182168061257d57607f821691505b6020821081036125905761258f612539565b5b50919050565b7f526563697069656e74206e6f742077686974656c6973746564000000000000005f82015250565b5f6125ca601983611e2a565b91506125d582612596565b602082019050919050565b5f6020820190508181035f8301526125f7816125be565b9050919050565b7f53747564656e7420646f6573206e6f74206578697374000000000000000000005f82015250565b5f612632601683611e2a565b915061263d826125fe565b602082019050919050565b5f6020820190508181035f83015261265f81612626565b9050919050565b7f4e487b71000000000000000000000000000000000000000000000000000000005f52603260045260245ffd5b7f4e487b71000000000000000000000000000000000000000000000000000000005f52601160045260245ffd5b5f6126ca82611f1b565b91506126d583611f1b565b92508282039050818111156126ed576126ec612693565b5b92915050565b7f4e487b71000000000000000000000000000000000000000000000000000000005f52603160045260245ffd5b5f819050815f5260205f209050919050565b5f6020601f8301049050919050565b5f82821b905092915050565b5f6008830261277c7fffffffffffffffffffffffffffffffffffffffffffffffffffffffffffffffff82612741565b6127868683612741565b95508019841693508086168417925050509392505050565b5f819050919050565b5f6127c16127bc6127b784611f1b565b61279e565b611f1b565b9050919050565b5f819050919050565b6127da836127a7565b6127ee6127e6826127c8565b84845461274d565b825550505050565b5f5f905090565b6128056127f6565b6128108184846127d1565b505050565b5b81811015612833576128285f826127fd565b600181019050612816565b5050565b601f8211156128785761284981612720565b61285284612732565b81016020851015612861578190505b61287561286d85612732565b830182612815565b50505b505050565b5f82821c905092915050565b5f6128985f198460080261287d565b1980831691505092915050565b5f6128b08383612889565b9150826002028217905092915050565b6128c982611e20565b67ffffffffffffffff8111156128e2576128e16123a9565b5b6128ec8254612566565b6128f7828285612837565b5f60209050601f831160018114612928575f8415612916578287015190505b61292085826128a5565b865550612987565b601f19841661293686612720565b5f5b8281101561295d57848901518255600182019150602085019450602081019050612938565b8683101561297a5784890151612976601f891682612889565b8355505b6001600288020188555050505b505050505050565b5f6060820190506129a25f8301866120c1565b6129af6020830185611fea565b6129bc6040830184611fea565b949350505050565b7f4d696e7420726563697069656e74206e6f742077686974656c697374656400005f82015250565b5f6129f8601e83611e2a565b9150612a03826129c4565b602082019050919050565b5f6020820190508181035f830152612a25816129ec565b9050919050565b5f612a3682611f1b565b9150612a4183611f1b565b9250828201905080821115612a5957612a58612693565b5b9291505056fea2646970667358221220320b9dd958fac22be162e28dd4098ba7b738553d4f4b065dfbe40b5e69bf107264736f6c634300081e0033",
					"opcodes": "PUSH1 0x80 PUSH1 0x40 MSTORE CALLVALUE DUP1 ISZERO PUSH2 0xF JUMPI PUSH0 PUSH0 REVERT JUMPDEST POP CALLER PUSH1 0x40 MLOAD DUP1 PUSH1 0x40 ADD PUSH1 0x40 MSTORE DUP1 PUSH1 0x13 DUP2 MSTORE PUSH1 0x20 ADD PUSH32 0x53746576656E732042616E616E6120436F696E00000000000000000000000000 DUP2 MSTORE POP PUSH1 0x40 MLOAD DUP1 PUSH1 0x40 ADD PUSH1 0x40 MSTORE DUP1 PUSH1 0x3 DUP2 MSTORE PUSH1 0x20 ADD PUSH32 0x5342430000000000000000000000000000000000000000000000000000000000 DUP2 MSTORE POP DUP2 PUSH1 0x3 SWAP1 DUP2 PUSH2 0x8C SWAP2 SWAP1 PUSH2 0x424 JUMP JUMPDEST POP DUP1 PUSH1 0x4 SWAP1 DUP2 PUSH2 0x9C SWAP2 SWAP1 PUSH2 0x424 JUMP JUMPDEST POP POP POP PUSH0 PUSH20 0xFFFFFFFFFFFFFFFFFFFFFFFFFFFFFFFFFFFFFFFF AND DUP2 PUSH20 0xFFFFFFFFFFFFFFFFFFFFFFFFFFFFFFFFFFFFFFFF AND SUB PUSH2 0x10F JUMPI PUSH0 PUSH1 0x40 MLOAD PUSH32 0x1E4FBDF700000000000000000000000000000000000000000000000000000000 DUP2 MSTORE PUSH1 0x4 ADD PUSH2 0x106 SWAP2 SWAP1 PUSH2 0x532 JUMP JUMPDEST PUSH1 0x40 MLOAD DUP1 SWAP2 SUB SWAP1 REVERT JUMPDEST PUSH2 0x11E DUP2 PUSH2 0x124 PUSH1 0x20 SHL PUSH1 0x20 SHR JUMP JUMPDEST POP PUSH2 0x54B JUMP JUMPDEST PUSH0 PUSH1 0x5 PUSH0 SWAP1 SLOAD SWAP1 PUSH2 0x100 EXP SWAP1 DIV PUSH20 0xFFFFFFFFFFFFFFFFFFFFFFFFFFFFFFFFFFFFFFFF AND SWAP1 POP DUP2 PUSH1 0x5 PUSH0 PUSH2 0x100 EXP DUP2 SLOAD DUP2 PUSH20 0xFFFFFFFFFFFFFFFFFFFFFFFFFFFFFFFFFFFFFFFF MUL NOT AND SWAP1 DUP4 PUSH20 0xFFFFFFFFFFFFFFFFFFFFFFFFFFFFFFFFFFFFFFFF AND MUL OR SWAP1 SSTORE POP DUP2 PUSH20 0xFFFFFFFFFFFFFFFFFFFFFFFFFFFFFFFFFFFFFFFF AND DUP2 PUSH20 0xFFFFFFFFFFFFFFFFFFFFFFFFFFFFFFFFFFFFFFFF AND PUSH32 0x8BE0079C531659141344CD1FD0A4F28419497F9722A3DAAFE3B4186F6B6457E0 PUSH1 0x40 MLOAD PUSH1 0x40 MLOAD DUP1 SWAP2 SUB SWAP1 LOG3 POP POP JUMP JUMPDEST PUSH0 DUP2 MLOAD SWAP1 POP SWAP2 SWAP1 POP JUMP JUMPDEST PUSH32 0x4E487B7100000000000000000000000000000000000000000000000000000000 PUSH0 MSTORE PUSH1 0x41 PUSH1 0x4 MSTORE PUSH1 0x24 PUSH0 REVERT JUMPDEST PUSH32 0x4E487B7100000000000000000000000000000000000000000000000000000000 PUSH0 MSTORE PUSH1 0x22 PUSH1 0x4 MSTORE PUSH1 0x24 PUSH0 REVERT JUMPDEST PUSH0 PUSH1 0x2 DUP3 DIV SWAP1 POP PUSH1 0x1 DUP3 AND DUP1 PUSH2 0x262 JUMPI PUSH1 0x7F DUP3 AND SWAP2 POP JUMPDEST PUSH1 0x20 DUP3 LT DUP2 SUB PUSH2 0x275 JUMPI PUSH2 0x274 PUSH2 0x21E JUMP JUMPDEST JUMPDEST POP SWAP2 SWAP1 POP JUMP JUMPDEST PUSH0 DUP2 SWAP1 POP DUP2 PUSH0 MSTORE PUSH1 0x20 PUSH0 KECCAK256 SWAP1 POP SWAP2 SWAP1 POP JUMP JUMPDEST PUSH0 PUSH1 0x20 PUSH1 0x1F DUP4 ADD DIV SWAP1 POP SWAP2 SWAP1 POP JUMP JUMPDEST PUSH0 DUP3 DUP3 SHL SWAP1 POP SWAP3 SWAP2 POP POP JUMP JUMPDEST PUSH0 PUSH1 0x8 DUP4 MUL PUSH2 0x2D7 PUSH32 0xFFFFFFFFFFFFFFFFFFFFFFFFFFFFFFFFFFFFFFFFFFFFFFFFFFFFFFFFFFFFFFFF DUP3 PUSH2 0x29C JUMP JUMPDEST PUSH2 0x2E1 DUP7 DUP4 PUSH2 0x29C JUMP JUMPDEST SWAP6 POP DUP1 NOT DUP5 AND SWAP4 POP DUP1 DUP7 AND DUP5 OR SWAP3 POP POP POP SWAP4 SWAP3 POP POP POP JUMP JUMPDEST PUSH0 DUP2 SWAP1 POP SWAP2 SWAP1 POP JUMP JUMPDEST PUSH0 DUP2 SWAP1 POP SWAP2 SWAP1 POP JUMP JUMPDEST PUSH0 PUSH2 0x325 PUSH2 0x320 PUSH2 0x31B DUP5 PUSH2 0x2F9 JUMP JUMPDEST PUSH2 0x302 JUMP JUMPDEST PUSH2 0x2F9 JUMP JUMPDEST SWAP1 POP SWAP2 SWAP1 POP JUMP JUMPDEST PUSH0 DUP2 SWAP1 POP SWAP2 SWAP1 POP JUMP JUMPDEST PUSH2 0x33E DUP4 PUSH2 0x30B JUMP JUMPDEST PUSH2 0x352 PUSH2 0x34A DUP3 PUSH2 0x32C JUMP JUMPDEST DUP5 DUP5 SLOAD PUSH2 0x2A8 JUMP JUMPDEST DUP3 SSTORE POP POP POP POP JUMP JUMPDEST PUSH0 PUSH0 SWAP1 POP SWAP1 JUMP JUMPDEST PUSH2 0x369 PUSH2 0x35A JUMP JUMPDEST PUSH2 0x374 DUP2 DUP5 DUP5 PUSH2 0x335 JUMP JUMPDEST POP POP POP JUMP JUMPDEST JUMPDEST DUP2 DUP2 LT ISZERO PUSH2 0x397 JUMPI PUSH2 0x38C PUSH0 DUP3 PUSH2 0x361 JUMP JUMPDEST PUSH1 0x1 DUP2 ADD SWAP1 POP PUSH2 0x37A JUMP JUMPDEST POP POP JUMP JUMPDEST PUSH1 0x1F DUP3 GT ISZERO PUSH2 0x3DC JUMPI PUSH2 0x3AD DUP2 PUSH2 0x27B JUMP JUMPDEST PUSH2 0x3B6 DUP5 PUSH2 0x28D JUMP JUMPDEST DUP2 ADD PUSH1 0x20 DUP6 LT ISZERO PUSH2 0x3C5 JUMPI DUP2 SWAP1 POP JUMPDEST PUSH2 0x3D9 PUSH2 0x3D1 DUP6 PUSH2 0x28D JUMP JUMPDEST DUP4 ADD DUP3 PUSH2 0x379 JUMP JUMPDEST POP POP JUMPDEST POP POP POP JUMP JUMPDEST PUSH0 DUP3 DUP3 SHR SWAP1 POP SWAP3 SWAP2 POP POP JUMP JUMPDEST PUSH0 PUSH2 0x3FC PUSH0 NOT DUP5 PUSH1 0x8 MUL PUSH2 0x3E1 JUMP JUMPDEST NOT DUP1 DUP4 AND SWAP2 POP POP SWAP3 SWAP2 POP POP JUMP JUMPDEST PUSH0 PUSH2 0x414 DUP4 DUP4 PUSH2 0x3ED JUMP JUMPDEST SWAP2 POP DUP3 PUSH1 0x2 MUL DUP3 OR SWAP1 POP SWAP3 SWAP2 POP POP JUMP JUMPDEST PUSH2 0x42D DUP3 PUSH2 0x1E7 JUMP JUMPDEST PUSH8 0xFFFFFFFFFFFFFFFF DUP2 GT ISZERO PUSH2 0x446 JUMPI PUSH2 0x445 PUSH2 0x1F1 JUMP JUMPDEST JUMPDEST PUSH2 0x450 DUP3 SLOAD PUSH2 0x24B JUMP JUMPDEST PUSH2 0x45B DUP3 DUP3 DUP6 PUSH2 0x39B JUMP JUMPDEST PUSH0 PUSH1 0x20 SWAP1 POP PUSH1 0x1F DUP4 GT PUSH1 0x1 DUP2 EQ PUSH2 0x48C JUMPI PUSH0 DUP5 ISZERO PUSH2 0x47A JUMPI DUP3 DUP8 ADD MLOAD SWAP1 POP JUMPDEST PUSH2 0x484 DUP6 DUP3 PUSH2 0x409 JUMP JUMPDEST DUP7 SSTORE POP PUSH2 0x4EB JUMP JUMPDEST PUSH1 0x1F NOT DUP5 AND PUSH2 0x49A DUP7 PUSH2 0x27B JUMP JUMPDEST PUSH0 JUMPDEST DUP3 DUP2 LT ISZERO PUSH2 0x4C1 JUMPI DUP5 DUP10 ADD MLOAD DUP3 SSTORE PUSH1 0x1 DUP3 ADD SWAP2 POP PUSH1 0x20 DUP6 ADD SWAP5 POP PUSH1 0x20 DUP2 ADD SWAP1 POP PUSH2 0x49C JUMP JUMPDEST DUP7 DUP4 LT ISZERO PUSH2 0x4DE JUMPI DUP5 DUP10 ADD MLOAD PUSH2 0x4DA PUSH1 0x1F DUP10 AND DUP3 PUSH2 0x3ED JUMP JUMPDEST DUP4 SSTORE POP JUMPDEST PUSH1 0x1 PUSH1 0x2 DUP9 MUL ADD DUP9 SSTORE POP POP POP JUMPDEST POP POP POP POP POP POP JUMP JUMPDEST PUSH0 PUSH20 0xFFFFFFFFFFFFFFFFFFFFFFFFFFFFFFFFFFFFFFFF DUP3 AND SWAP1 POP SWAP2 SWAP1 POP JUMP JUMPDEST PUSH0 PUSH2 0x51C DUP3 PUSH2 0x4F3 JUMP JUMPDEST SWAP1 POP SWAP2 SWAP1 POP JUMP JUMPDEST PUSH2 0x52C DUP2 PUSH2 0x512 JUMP JUMPDEST DUP3 MSTORE POP POP JUMP JUMPDEST PUSH0 PUSH1 0x20 DUP3 ADD SWAP1 POP PUSH2 0x545 PUSH0 DUP4 ADD DUP5 PUSH2 0x523 JUMP JUMPDEST SWAP3 SWAP2 POP POP JUMP JUMPDEST PUSH2 0x2A95 DUP1 PUSH2 0x558 PUSH0 CODECOPY PUSH0 RETURN INVALID PUSH1 0x80 PUSH1 0x40 MSTORE CALLVALUE DUP1 ISZERO PUSH2 0xF JUMPI PUSH0 PUSH0 REVERT JUMPDEST POP PUSH1 0x4 CALLDATASIZE LT PUSH2 0x135 JUMPI PUSH0 CALLDATALOAD PUSH1 0xE0 SHR DUP1 PUSH4 0x8DA5CB5B GT PUSH2 0xB6 JUMPI DUP1 PUSH4 0xA9059CBB GT PUSH2 0x7A JUMPI DUP1 PUSH4 0xA9059CBB EQ PUSH2 0x350 JUMPI DUP1 PUSH4 0xC8FB0793 EQ PUSH2 0x380 JUMPI DUP1 PUSH4 0xDD62ED3E EQ PUSH2 0x3B0 JUMPI DUP1 PUSH4 0xE9E30927 EQ PUSH2 0x3E0 JUMPI DUP1 PUSH4 0xF041F73F EQ PUSH2 0x3FE JUMPI DUP1 PUSH4 0xF2FDE38B EQ PUSH2 0x41A JUMPI PUSH2 0x135 JUMP JUMPDEST DUP1 PUSH4 0x8DA5CB5B EQ PUSH2 0x295 JUMPI DUP1 PUSH4 0x95D89B41 EQ PUSH2 0x2B3 JUMPI DUP1 PUSH4 0x9DC29FAC EQ PUSH2 0x2D1 JUMPI DUP1 PUSH4 0xA6B46BBC EQ PUSH2 0x2ED JUMPI DUP1 PUSH4 0xA6C807A9 EQ PUSH2 0x31D JUMPI PUSH2 0x135 JUMP JUMPDEST DUP1 PUSH4 0x313CE567 GT PUSH2 0xFD JUMPI DUP1 PUSH4 0x313CE567 EQ PUSH2 0x205 JUMPI DUP1 PUSH4 0x40C10F19 EQ PUSH2 0x223 JUMPI DUP1 PUSH4 0x6AF83845 EQ PUSH2 0x23F JUMPI DUP1 PUSH4 0x70A08231 EQ PUSH2 0x25B JUMPI DUP1 PUSH4 0x715018A6 EQ PUSH2 0x28B JUMPI PUSH2 0x135 JUMP JUMPDEST DUP1 PUSH4 0x6FDDE03 EQ PUSH2 0x139 JUMPI DUP1 PUSH4 0x95EA7B3 EQ PUSH2 0x157 JUMPI DUP1 PUSH4 0xE808188 EQ PUSH2 0x187 JUMPI DUP1 PUSH4 0x18160DDD EQ PUSH2 0x1B7 JUMPI DUP1 PUSH4 0x23B872DD EQ PUSH2 0x1D5 JUMPI JUMPDEST PUSH0 PUSH0 REVERT JUMPDEST PUSH2 0x141 PUSH2 0x436 JUMP JUMPDEST PUSH1 0x40 MLOAD PUSH2 0x14E SWAP2 SWAP1 PUSH2 0x1E90 JUMP JUMPDEST PUSH1 0x40 MLOAD DUP1 SWAP2 SUB SWAP1 RETURN JUMPDEST PUSH2 0x171 PUSH1 0x4 DUP1 CALLDATASIZE SUB DUP2 ADD SWAP1 PUSH2 0x16C SWAP2 SWAP1 PUSH2 0x1F4E JUMP JUMPDEST PUSH2 0x4C6 JUMP JUMPDEST PUSH1 0x40 MLOAD PUSH2 0x17E SWAP2 SWAP1 PUSH2 0x1FA6 JUMP JUMPDEST PUSH1 0x40 MLOAD DUP1 SWAP2 SUB SWAP1 RETURN JUMPDEST PUSH2 0x1A1 PUSH1 0x4 DUP1 CALLDATASIZE SUB DUP2 ADD SWAP1 PUSH2 0x19C SWAP2 SWAP1 PUSH2 0x1FBF JUMP JUMPDEST PUSH2 0x4E8 JUMP JUMPDEST PUSH1 0x40 MLOAD PUSH2 0x1AE SWAP2 SWAP1 PUSH2 0x1FF9 JUMP JUMPDEST PUSH1 0x40 MLOAD DUP1 SWAP2 SUB SWAP1 RETURN JUMPDEST PUSH2 0x1BF PUSH2 0x508 JUMP JUMPDEST PUSH1 0x40 MLOAD PUSH2 0x1CC SWAP2 SWAP1 PUSH2 0x1FF9 JUMP JUMPDEST PUSH1 0x40 MLOAD DUP1 SWAP2 SUB SWAP1 RETURN JUMPDEST PUSH2 0x1EF PUSH1 0x4 DUP1 CALLDATASIZE SUB DUP2 ADD SWAP1 PUSH2 0x1EA SWAP2 SWAP1 PUSH2 0x2012 JUMP JUMPDEST PUSH2 0x511 JUMP JUMPDEST PUSH1 0x40 MLOAD PUSH2 0x1FC SWAP2 SWAP1 PUSH2 0x1FA6 JUMP JUMPDEST PUSH1 0x40 MLOAD DUP1 SWAP2 SUB SWAP1 RETURN JUMPDEST PUSH2 0x20D PUSH2 0x53F JUMP JUMPDEST PUSH1 0x40 MLOAD PUSH2 0x21A SWAP2 SWAP1 PUSH2 0x207D JUMP JUMPDEST PUSH1 0x40 MLOAD DUP1 SWAP2 SUB SWAP1 RETURN JUMPDEST PUSH2 0x23D PUSH1 0x4 DUP1 CALLDATASIZE SUB DUP2 ADD SWAP1 PUSH2 0x238 SWAP2 SWAP1 PUSH2 0x1F4E JUMP JUMPDEST PUSH2 0x547 JUMP JUMPDEST STOP JUMPDEST PUSH2 0x259 PUSH1 0x4 DUP1 CALLDATASIZE SUB DUP2 ADD SWAP1 PUSH2 0x254 SWAP2 SWAP1 PUSH2 0x1FBF JUMP JUMPDEST PUSH2 0x637 JUMP JUMPDEST STOP JUMPDEST PUSH2 0x275 PUSH1 0x4 DUP1 CALLDATASIZE SUB DUP2 ADD SWAP1 PUSH2 0x270 SWAP2 SWAP1 PUSH2 0x2096 JUMP JUMPDEST PUSH2 0x8A6 JUMP JUMPDEST PUSH1 0x40 MLOAD PUSH2 0x282 SWAP2 SWAP1 PUSH2 0x1FF9 JUMP JUMPDEST PUSH1 0x40 MLOAD DUP1 SWAP2 SUB SWAP1 RETURN JUMPDEST PUSH2 0x293 PUSH2 0x8EB JUMP JUMPDEST STOP JUMPDEST PUSH2 0x29D PUSH2 0x8FE JUMP JUMPDEST PUSH1 0x40 MLOAD PUSH2 0x2AA SWAP2 SWAP1 PUSH2 0x20D0 JUMP JUMPDEST PUSH1 0x40 MLOAD DUP1 SWAP2 SUB SWAP1 RETURN JUMPDEST PUSH2 0x2BB PUSH2 0x926 JUMP JUMPDEST PUSH1 0x40 MLOAD PUSH2 0x2C8 SWAP2 SWAP1 PUSH2 0x1E90 JUMP JUMPDEST PUSH1 0x40 MLOAD DUP1 SWAP2 SUB SWAP1 RETURN JUMPDEST PUSH2 0x2EB PUSH1 0x4 DUP1 CALLDATASIZE SUB DUP2 ADD SWAP1 PUSH2 0x2E6 SWAP2 SWAP1 PUSH2 0x1F4E JUMP JUMPDEST PUSH2 0x9B6 JUMP JUMPDEST STOP JUMPDEST PUSH2 0x307 PUSH1 0x4 DUP1 CALLDATASIZE SUB DUP2 ADD SWAP1 PUSH2 0x302 SWAP2 SWAP1 PUSH2 0x1FBF JUMP JUMPDEST PUSH2 0xA1A JUMP JUMPDEST PUSH1 0x40 MLOAD PUSH2 0x314 SWAP2 SWAP1 PUSH2 0x20D0 JUMP JUMPDEST PUSH1 0x40 MLOAD DUP1 SWAP2 SUB SWAP1 RETURN JUMPDEST PUSH2 0x337 PUSH1 0x4 DUP1 CALLDATASIZE SUB DUP2 ADD SWAP1 PUSH2 0x332 SWAP2 SWAP1 PUSH2 0x2096 JUMP JUMPDEST PUSH2 0xA4A JUMP JUMPDEST PUSH1 0x40 MLOAD PUSH2 0x347 SWAP5 SWAP4 SWAP3 SWAP2 SWAP1 PUSH2 0x20E9 JUMP JUMPDEST PUSH1 0x40 MLOAD DUP1 SWAP2 SUB SWAP1 RETURN JUMPDEST PUSH2 0x36A PUSH1 0x4 DUP1 CALLDATASIZE SUB DUP2 ADD SWAP1 PUSH2 0x365 SWAP2 SWAP1 PUSH2 0x1F4E JUMP JUMPDEST PUSH2 0xB28 JUMP JUMPDEST PUSH1 0x40 MLOAD PUSH2 0x377 SWAP2 SWAP1 PUSH2 0x1FA6 JUMP JUMPDEST PUSH1 0x40 MLOAD DUP1 SWAP2 SUB SWAP1 RETURN JUMPDEST PUSH2 0x39A PUSH1 0x4 DUP1 CALLDATASIZE SUB DUP2 ADD SWAP1 PUSH2 0x395 SWAP2 SWAP1 PUSH2 0x1FBF JUMP JUMPDEST PUSH2 0xB4A JUMP JUMPDEST PUSH1 0x40 MLOAD PUSH2 0x3A7 SWAP2 SWAP1 PUSH2 0x2208 JUMP JUMPDEST PUSH1 0x40 MLOAD DUP1 SWAP2 SUB SWAP1 RETURN JUMPDEST PUSH2 0x3CA PUSH1 0x4 DUP1 CALLDATASIZE SUB DUP2 ADD SWAP1 PUSH2 0x3C5 SWAP2 SWAP1 PUSH2 0x2228 JUMP JUMPDEST PUSH2 0xD62 JUMP JUMPDEST PUSH1 0x40 MLOAD PUSH2 0x3D7 SWAP2 SWAP1 PUSH2 0x1FF9 JUMP JUMPDEST PUSH1 0x40 MLOAD DUP1 SWAP2 SUB SWAP1 RETURN JUMPDEST PUSH2 0x3E8 PUSH2 0xDE4 JUMP JUMPDEST PUSH1 0x40 MLOAD PUSH2 0x3F5 SWAP2 SWAP1 PUSH2 0x2381 JUMP JUMPDEST PUSH1 0x40 MLOAD DUP1 SWAP2 SUB SWAP1 RETURN JUMPDEST PUSH2 0x418 PUSH1 0x4 DUP1 CALLDATASIZE SUB DUP2 ADD SWAP1 PUSH2 0x413 SWAP2 SWAP1 PUSH2 0x24CD JUMP JUMPDEST PUSH2 0x1024 JUMP JUMPDEST STOP JUMPDEST PUSH2 0x434 PUSH1 0x4 DUP1 CALLDATASIZE SUB DUP2 ADD SWAP1 PUSH2 0x42F SWAP2 SWAP1 PUSH2 0x2096 JUMP JUMPDEST PUSH2 0x13A6 JUMP JUMPDEST STOP JUMPDEST PUSH1 0x60 PUSH1 0x3 DUP1 SLOAD PUSH2 0x445 SWAP1 PUSH2 0x2566 JUMP JUMPDEST DUP1 PUSH1 0x1F ADD PUSH1 0x20 DUP1 SWAP2 DIV MUL PUSH1 0x20 ADD PUSH1 0x40 MLOAD SWAP1 DUP2 ADD PUSH1 0x40 MSTORE DUP1 SWAP3 SWAP2 SWAP1 DUP2 DUP2 MSTORE PUSH1 0x20 ADD DUP3 DUP1 SLOAD PUSH2 0x471 SWAP1 PUSH2 0x2566 JUMP JUMPDEST DUP1 ISZERO PUSH2 0x4BC JUMPI DUP1 PUSH1 0x1F LT PUSH2 0x493 JUMPI PUSH2 0x100 DUP1 DUP4 SLOAD DIV MUL DUP4 MSTORE SWAP2 PUSH1 0x20 ADD SWAP2 PUSH2 0x4BC JUMP JUMPDEST DUP3 ADD SWAP2 SWAP1 PUSH0 MSTORE PUSH1 0x20 PUSH0 KECCAK256 SWAP1 JUMPDEST DUP2 SLOAD DUP2 MSTORE SWAP1 PUSH1 0x1 ADD SWAP1 PUSH1 0x20 ADD DUP1 DUP4 GT PUSH2 0x49F JUMPI DUP3 SWAP1 SUB PUSH1 0x1F AND DUP3 ADD SWAP2 JUMPDEST POP POP POP POP POP SWAP1 POP SWAP1 JUMP JUMPDEST PUSH0 PUSH0 PUSH2 0x4D0 PUSH2 0x142A JUMP JUMPDEST SWAP1 POP PUSH2 0x4DD DUP2 DUP6 DUP6 PUSH2 0x1431 JUMP JUMPDEST PUSH1 0x1 SWAP2 POP POP SWAP3 SWAP2 POP POP JUMP JUMPDEST PUSH1 0x8 DUP2 DUP2 SLOAD DUP2 LT PUSH2 0x4F7 JUMPI PUSH0 DUP1 REVERT JUMPDEST SWAP1 PUSH0 MSTORE PUSH1 0x20 PUSH0 KECCAK256 ADD PUSH0 SWAP2 POP SWAP1 POP SLOAD DUP2 JUMP JUMPDEST PUSH0 PUSH1 0x2 SLOAD SWAP1 POP SWAP1 JUMP JUMPDEST PUSH0 PUSH0 PUSH2 0x51B PUSH2 0x142A JUMP JUMPDEST SWAP1 POP PUSH2 0x528 DUP6 DUP3 DUP6 PUSH2 0x1443 JUMP JUMPDEST PUSH2 0x533 DUP6 DUP6 DUP6 PUSH2 0x14D6 JUMP JUMPDEST PUSH1 0x1 SWAP2 POP POP SWAP4 SWAP3 POP POP POP JUMP JUMPDEST PUSH0 PUSH1 0x12 SWAP1 POP SWAP1 JUMP JUMPDEST PUSH2 0x54F PUSH2 0x15C6 JUMP JUMPDEST PUSH1 0x6 PUSH0 DUP4 PUSH20 0xFFFFFFFFFFFFFFFFFFFFFFFFFFFFFFFFFFFFFFFF AND PUSH20 0xFFFFFFFFFFFFFFFFFFFFFFFFFFFFFFFFFFFFFFFF AND DUP2 MSTORE PUSH1 0x20 ADD SWAP1 DUP2 MSTORE PUSH1 0x20 ADD PUSH0 KECCAK256 PUSH1 0x2 ADD PUSH0 SWAP1 SLOAD SWAP1 PUSH2 0x100 EXP SWAP1 DIV PUSH1 0xFF AND PUSH2 0x5DB JUMPI PUSH1 0x40 MLOAD PUSH32 0x8C379A000000000000000000000000000000000000000000000000000000000 DUP2 MSTORE PUSH1 0x4 ADD PUSH2 0x5D2 SWAP1 PUSH2 0x25E0 JUMP JUMPDEST PUSH1 0x40 MLOAD DUP1 SWAP2 SUB SWAP1 REVERT JUMPDEST PUSH2 0x5E5 DUP3 DUP3 PUSH2 0x164D JUMP JUMPDEST DUP2 PUSH20 0xFFFFFFFFFFFFFFFFFFFFFFFFFFFFFFFFFFFFFFFF AND PUSH32 0x3F2C9D57C068687834F0DE942A9BABB9E5ACAB57D516D3480A3C16EE165A4273 DUP3 PUSH1 0x40 MLOAD PUSH2 0x62B SWAP2 SWAP1 PUSH2 0x1FF9 JUMP JUMPDEST PUSH1 0x40 MLOAD DUP1 SWAP2 SUB SWAP1 LOG2 POP POP JUMP JUMPDEST PUSH2 0x63F PUSH2 0x15C6 JUMP JUMPDEST PUSH0 PUSH1 0x7 PUSH0 DUP4 DUP2 MSTORE PUSH1 0x20 ADD SWAP1 DUP2 MSTORE PUSH1 0x20 ADD PUSH0 KECCAK256 PUSH0 SWAP1 SLOAD SWAP1 PUSH2 0x100 EXP SWAP1 DIV PUSH20 0xFFFFFFFFFFFFFFFFFFFFFFFFFFFFFFFFFFFFFFFF AND SWAP1 POP PUSH0 PUSH20 0xFFFFFFFFFFFFFFFFFFFFFFFFFFFFFFFFFFFFFFFF AND DUP2 PUSH20 0xFFFFFFFFFFFFFFFFFFFFFFFFFFFFFFFFFFFFFFFF AND SUB PUSH2 0x6E1 JUMPI PUSH1 0x40 MLOAD PUSH32 0x8C379A000000000000000000000000000000000000000000000000000000000 DUP2 MSTORE PUSH1 0x4 ADD PUSH2 0x6D8 SWAP1 PUSH2 0x2648 JUMP JUMPDEST PUSH1 0x40 MLOAD DUP1 SWAP2 SUB SWAP1 REVERT JUMPDEST PUSH1 0x6 PUSH0 DUP3 PUSH20 0xFFFFFFFFFFFFFFFFFFFFFFFFFFFFFFFFFFFFFFFF AND PUSH20 0xFFFFFFFFFFFFFFFFFFFFFFFFFFFFFFFFFFFFFFFF AND DUP2 MSTORE PUSH1 0x20 ADD SWAP1 DUP2 MSTORE PUSH1 0x20 ADD PUSH0 KECCAK256 PUSH0 PUSH0 DUP3 ADD PUSH0 PUSH2 0x72D SWAP2 SWAP1 PUSH2 0x1D8B JUMP JUMPDEST PUSH1 0x1 DUP3 ADD PUSH0 SWAP1 SSTORE PUSH1 0x2 DUP3 ADD PUSH0 PUSH2 0x100 EXP DUP2 SLOAD SWAP1 PUSH1 0xFF MUL NOT AND SWAP1 SSTORE PUSH1 0x2 DUP3 ADD PUSH1 0x1 PUSH2 0x100 EXP DUP2 SLOAD SWAP1 PUSH20 0xFFFFFFFFFFFFFFFFFFFFFFFFFFFFFFFFFFFFFFFF MUL NOT AND SWAP1 SSTORE POP POP PUSH1 0x7 PUSH0 DUP4 DUP2 MSTORE PUSH1 0x20 ADD SWAP1 DUP2 MSTORE PUSH1 0x20 ADD PUSH0 KECCAK256 PUSH0 PUSH2 0x100 EXP DUP2 SLOAD SWAP1 PUSH20 0xFFFFFFFFFFFFFFFFFFFFFFFFFFFFFFFFFFFFFFFF MUL NOT AND SWAP1 SSTORE PUSH0 PUSH0 SWAP1 POP JUMPDEST PUSH1 0x8 DUP1 SLOAD SWAP1 POP DUP2 LT ISZERO PUSH2 0x85D JUMPI DUP3 PUSH1 0x8 DUP3 DUP2 SLOAD DUP2 LT PUSH2 0x7CA JUMPI PUSH2 0x7C9 PUSH2 0x2666 JUMP JUMPDEST JUMPDEST SWAP1 PUSH0 MSTORE PUSH1 0x20 PUSH0 KECCAK256 ADD SLOAD SUB PUSH2 0x850 JUMPI PUSH1 0x8 PUSH1 0x1 PUSH1 0x8 DUP1 SLOAD SWAP1 POP PUSH2 0x7EC SWAP2 SWAP1 PUSH2 0x26C0 JUMP JUMPDEST DUP2 SLOAD DUP2 LT PUSH2 0x7FD JUMPI PUSH2 0x7FC PUSH2 0x2666 JUMP JUMPDEST JUMPDEST SWAP1 PUSH0 MSTORE PUSH1 0x20 PUSH0 KECCAK256 ADD SLOAD PUSH1 0x8 DUP3 DUP2 SLOAD DUP2 LT PUSH2 0x81A JUMPI PUSH2 0x819 PUSH2 0x2666 JUMP JUMPDEST JUMPDEST SWAP1 PUSH0 MSTORE PUSH1 0x20 PUSH0 KECCAK256 ADD DUP2 SWAP1 SSTORE POP PUSH1 0x8 DUP1 SLOAD DUP1 PUSH2 0x838 JUMPI PUSH2 0x837 PUSH2 0x26F3 JUMP JUMPDEST JUMPDEST PUSH1 0x1 SWAP1 SUB DUP2 DUP2 SWAP1 PUSH0 MSTORE PUSH1 0x20 PUSH0 KECCAK256 ADD PUSH0 SWAP1 SSTORE SWAP1 SSTORE PUSH2 0x85D JUMP JUMPDEST DUP1 DUP1 PUSH1 0x1 ADD SWAP2 POP POP PUSH2 0x7A8 JUMP JUMPDEST POP DUP1 PUSH20 0xFFFFFFFFFFFFFFFFFFFFFFFFFFFFFFFFFFFFFFFF AND DUP3 PUSH32 0x5A5F05AB7E4BB3B61B01FD908FB066CE1608190AD7E66EE978414D88CF0A99A9 PUSH1 0x40 MLOAD PUSH1 0x40 MLOAD DUP1 SWAP2 SUB SWAP1 LOG3 POP POP JUMP JUMPDEST PUSH0 PUSH0 PUSH0 DUP4 PUSH20 0xFFFFFFFFFFFFFFFFFFFFFFFFFFFFFFFFFFFFFFFF AND PUSH20 0xFFFFFFFFFFFFFFFFFFFFFFFFFFFFFFFFFFFFFFFF AND DUP2 MSTORE PUSH1 0x20 ADD SWAP1 DUP2 MSTORE PUSH1 0x20 ADD PUSH0 KECCAK256 SLOAD SWAP1 POP SWAP2 SWAP1 POP JUMP JUMPDEST PUSH2 0x8F3 PUSH2 0x15C6 JUMP JUMPDEST PUSH2 0x8FC PUSH0 PUSH2 0x16CC JUMP JUMPDEST JUMP JUMPDEST PUSH0 PUSH1 0x5 PUSH0 SWAP1 SLOAD SWAP1 PUSH2 0x100 EXP SWAP1 DIV PUSH20 0xFFFFFFFFFFFFFFFFFFFFFFFFFFFFFFFFFFFFFFFF AND SWAP1 POP SWAP1 JUMP JUMPDEST PUSH1 0x60 PUSH1 0x4 DUP1 SLOAD PUSH2 0x935 SWAP1 PUSH2 0x2566 JUMP JUMPDEST DUP1 PUSH1 0x1F ADD PUSH1 0x20 DUP1 SWAP2 DIV MUL PUSH1 0x20 ADD PUSH1 0x40 MLOAD SWAP1 DUP2 ADD PUSH1 0x40 MSTORE DUP1 SWAP3 SWAP2 SWAP1 DUP2 DUP2 MSTORE PUSH1 0x20 ADD DUP3 DUP1 SLOAD PUSH2 0x961 SWAP1 PUSH2 0x2566 JUMP JUMPDEST DUP1 ISZERO PUSH2 0x9AC JUMPI DUP1 PUSH1 0x1F LT PUSH2 0x983 JUMPI PUSH2 0x100 DUP1 DUP4 SLOAD DIV MUL DUP4 MSTORE SWAP2 PUSH1 0x20 ADD SWAP2 PUSH2 0x9AC JUMP JUMPDEST DUP3 ADD SWAP2 SWAP1 PUSH0 MSTORE PUSH1 0x20 PUSH0 KECCAK256 SWAP1 JUMPDEST DUP2 SLOAD DUP2 MSTORE SWAP1 PUSH1 0x1 ADD SWAP1 PUSH1 0x20 ADD DUP1 DUP4 GT PUSH2 0x98F JUMPI DUP3 SWAP1 SUB PUSH1 0x1F AND DUP3 ADD SWAP2 JUMPDEST POP POP POP POP POP SWAP1 POP SWAP1 JUMP JUMPDEST PUSH2 0x9BE PUSH2 0x15C6 JUMP JUMPDEST PUSH2 0x9C8 DUP3 DUP3 PUSH2 0x178F JUMP JUMPDEST DUP2 PUSH20 0xFFFFFFFFFFFFFFFFFFFFFFFFFFFFFFFFFFFFFFFF AND PUSH32 0xFD38818F5291BF0BB3A2A48AADC06BA8757865D1DABD804585338AAB3009DCB6 DUP3 PUSH1 0x40 MLOAD PUSH2 0xA0E SWAP2 SWAP1 PUSH2 0x1FF9 JUMP JUMPDEST PUSH1 0x40 MLOAD DUP1 SWAP2 SUB SWAP1 LOG2 POP POP JUMP JUMPDEST PUSH1 0x7 PUSH1 0x20 MSTORE DUP1 PUSH0 MSTORE PUSH1 0x40 PUSH0 KECCAK256 PUSH0 SWAP2 POP SLOAD SWAP1 PUSH2 0x100 EXP SWAP1 DIV PUSH20 0xFFFFFFFFFFFFFFFFFFFFFFFFFFFFFFFFFFFFFFFF AND DUP2 JUMP JUMPDEST PUSH1 0x6 PUSH1 0x20 MSTORE DUP1 PUSH0 MSTORE PUSH1 0x40 PUSH0 KECCAK256 PUSH0 SWAP2 POP SWAP1 POP DUP1 PUSH0 ADD DUP1 SLOAD PUSH2 0xA69 SWAP1 PUSH2 0x2566 JUMP JUMPDEST DUP1 PUSH1 0x1F ADD PUSH1 0x20 DUP1 SWAP2 DIV MUL PUSH1 0x20 ADD PUSH1 0x40 MLOAD SWAP1 DUP2 ADD PUSH1 0x40 MSTORE DUP1 SWAP3 SWAP2 SWAP1 DUP2 DUP2 MSTORE PUSH1 0x20 ADD DUP3 DUP1 SLOAD PUSH2 0xA95 SWAP1 PUSH2 0x2566 JUMP JUMPDEST DUP1 ISZERO PUSH2 0xAE0 JUMPI DUP1 PUSH1 0x1F LT PUSH2 0xAB7 JUMPI PUSH2 0x100 DUP1 DUP4 SLOAD DIV MUL DUP4 MSTORE SWAP2 PUSH1 0x20 ADD SWAP2 PUSH2 0xAE0 JUMP JUMPDEST DUP3 ADD SWAP2 SWAP1 PUSH0 MSTORE PUSH1 0x20 PUSH0 KECCAK256 SWAP1 JUMPDEST DUP2 SLOAD DUP2 MSTORE SWAP1 PUSH1 0x1 ADD SWAP1 PUSH1 0x20 ADD DUP1 DUP4 GT PUSH2 0xAC3 JUMPI DUP3 SWAP1 SUB PUSH1 0x1F AND DUP3 ADD SWAP2 JUMPDEST POP POP POP POP POP SWAP1 DUP1 PUSH1 0x1 ADD SLOAD SWAP1 DUP1 PUSH1 0x2 ADD PUSH0 SWAP1 SLOAD SWAP1 PUSH2 0x100 EXP SWAP1 DIV PUSH1 0xFF AND SWAP1 DUP1 PUSH1 0x2 ADD PUSH1 0x1 SWAP1 SLOAD SWAP1 PUSH2 0x100 EXP SWAP1 DIV PUSH20 0xFFFFFFFFFFFFFFFFFFFFFFFFFFFFFFFFFFFFFFFF AND SWAP1 POP DUP5 JUMP JUMPDEST PUSH0 PUSH0 PUSH2 0xB32 PUSH2 0x142A JUMP JUMPDEST SWAP1 POP PUSH2 0xB3F DUP2 DUP6 DUP6 PUSH2 0x14D6 JUMP JUMPDEST PUSH1 0x1 SWAP2 POP POP SWAP3 SWAP2 POP POP JUMP JUMPDEST PUSH2 0xB52 PUSH2 0x1DC8 JUMP JUMPDEST PUSH0 PUSH1 0x7 PUSH0 DUP5 DUP2 MSTORE PUSH1 0x20 ADD SWAP1 DUP2 MSTORE PUSH1 0x20 ADD PUSH0 KECCAK256 PUSH0 SWAP1 SLOAD SWAP1 PUSH2 0x100 EXP SWAP1 DIV PUSH20 0xFFFFFFFFFFFFFFFFFFFFFFFFFFFFFFFFFFFFFFFF AND SWAP1 POP PUSH0 PUSH20 0xFFFFFFFFFFFFFFFFFFFFFFFFFFFFFFFFFFFFFFFF AND DUP2 PUSH20 0xFFFFFFFFFFFFFFFFFFFFFFFFFFFFFFFFFFFFFFFF AND SUB PUSH2 0xC08 JUMPI PUSH1 0x40 MLOAD DUP1 PUSH1 0x80 ADD PUSH1 0x40 MSTORE DUP1 PUSH1 0x40 MLOAD DUP1 PUSH1 0x20 ADD PUSH1 0x40 MSTORE DUP1 PUSH0 DUP2 MSTORE POP DUP2 MSTORE PUSH1 0x20 ADD PUSH0 DUP2 MSTORE PUSH1 0x20 ADD PUSH0 ISZERO ISZERO DUP2 MSTORE PUSH1 0x20 ADD PUSH0 PUSH20 0xFFFFFFFFFFFFFFFFFFFFFFFFFFFFFFFFFFFFFFFF AND DUP2 MSTORE POP SWAP2 POP POP PUSH2 0xD5D JUMP JUMPDEST PUSH1 0x6 PUSH0 DUP3 PUSH20 0xFFFFFFFFFFFFFFFFFFFFFFFFFFFFFFFFFFFFFFFF AND PUSH20 0xFFFFFFFFFFFFFFFFFFFFFFFFFFFFFFFFFFFFFFFF AND DUP2 MSTORE PUSH1 0x20 ADD SWAP1 DUP2 MSTORE PUSH1 0x20 ADD PUSH0 KECCAK256 PUSH1 0x40 MLOAD DUP1 PUSH1 0x80 ADD PUSH1 0x40 MSTORE SWAP1 DUP2 PUSH0 DUP3 ADD DUP1 SLOAD PUSH2 0xC5F SWAP1 PUSH2 0x2566 JUMP JUMPDEST DUP1 PUSH1 0x1F ADD PUSH1 0x20 DUP1 SWAP2 DIV MUL PUSH1 0x20 ADD PUSH1 0x40 MLOAD SWAP1 DUP2 ADD PUSH1 0x40 MSTORE DUP1 SWAP3 SWAP2 SWAP1 DUP2 DUP2 MSTORE PUSH1 0x20 ADD DUP3 DUP1 SLOAD PUSH2 0xC8B SWAP1 PUSH2 0x2566 JUMP JUMPDEST DUP1 ISZERO PUSH2 0xCD6 JUMPI DUP1 PUSH1 0x1F LT PUSH2 0xCAD JUMPI PUSH2 0x100 DUP1 DUP4 SLOAD DIV MUL DUP4 MSTORE SWAP2 PUSH1 0x20 ADD SWAP2 PUSH2 0xCD6 JUMP JUMPDEST DUP3 ADD SWAP2 SWAP1 PUSH0 MSTORE PUSH1 0x20 PUSH0 KECCAK256 SWAP1 JUMPDEST DUP2 SLOAD DUP2 MSTORE SWAP1 PUSH1 0x1 ADD SWAP1 PUSH1 0x20 ADD DUP1 DUP4 GT PUSH2 0xCB9 JUMPI DUP3 SWAP1 SUB PUSH1 0x1F AND DUP3 ADD SWAP2 JUMPDEST POP POP POP POP POP DUP2 MSTORE PUSH1 0x20 ADD PUSH1 0x1 DUP3 ADD SLOAD DUP2 MSTORE PUSH1 0x20 ADD PUSH1 0x2 DUP3 ADD PUSH0 SWAP1 SLOAD SWAP1 PUSH2 0x100 EXP SWAP1 DIV PUSH1 0xFF AND ISZERO ISZERO ISZERO ISZERO DUP2 MSTORE PUSH1 0x20 ADD PUSH1 0x2 DUP3 ADD PUSH1 0x1 SWAP1 SLOAD SWAP1 PUSH2 0x100 EXP SWAP1 DIV PUSH20 0xFFFFFFFFFFFFFFFFFFFFFFFFFFFFFFFFFFFFFFFF AND PUSH20 0xFFFFFFFFFFFFFFFFFFFFFFFFFFFFFFFFFFFFFFFF AND PUSH20 0xFFFFFFFFFFFFFFFFFFFFFFFFFFFFFFFFFFFFFFFF AND DUP2 MSTORE POP POP SWAP2 POP POP JUMPDEST SWAP2 SWAP1 POP JUMP JUMPDEST PUSH0 PUSH1 0x1 PUSH0 DUP5 PUSH20 0xFFFFFFFFFFFFFFFFFFFFFFFFFFFFFFFFFFFFFFFF AND PUSH20 0xFFFFFFFFFFFFFFFFFFFFFFFFFFFFFFFFFFFFFFFF AND DUP2 MSTORE PUSH1 0x20 ADD SWAP1 DUP2 MSTORE PUSH1 0x20 ADD PUSH0 KECCAK256 PUSH0 DUP4 PUSH20 0xFFFFFFFFFFFFFFFFFFFFFFFFFFFFFFFFFFFFFFFF AND PUSH20 0xFFFFFFFFFFFFFFFFFFFFFFFFFFFFFFFFFFFFFFFF AND DUP2 MSTORE PUSH1 0x20 ADD SWAP1 DUP2 MSTORE PUSH1 0x20 ADD PUSH0 KECCAK256 SLOAD SWAP1 POP SWAP3 SWAP2 POP POP JUMP JUMPDEST PUSH1 0x60 PUSH0 PUSH1 0x8 DUP1 SLOAD SWAP1 POP PUSH8 0xFFFFFFFFFFFFFFFF DUP2 GT ISZERO PUSH2 0xE06 JUMPI PUSH2 0xE05 PUSH2 0x23A9 JUMP JUMPDEST JUMPDEST PUSH1 0x40 MLOAD SWAP1 DUP1 DUP3 MSTORE DUP1 PUSH1 0x20 MUL PUSH1 0x20 ADD DUP3 ADD PUSH1 0x40 MSTORE DUP1 ISZERO PUSH2 0xE3F JUMPI DUP2 PUSH1 0x20 ADD JUMPDEST PUSH2 0xE2C PUSH2 0x1DC8 JUMP JUMPDEST DUP2 MSTORE PUSH1 0x20 ADD SWAP1 PUSH1 0x1 SWAP1 SUB SWAP1 DUP2 PUSH2 0xE24 JUMPI SWAP1 POP JUMPDEST POP SWAP1 POP PUSH0 PUSH0 SWAP1 POP JUMPDEST PUSH1 0x8 DUP1 SLOAD SWAP1 POP DUP2 LT ISZERO PUSH2 0x101C JUMPI PUSH1 0x6 PUSH0 PUSH1 0x7 PUSH0 PUSH1 0x8 DUP6 DUP2 SLOAD DUP2 LT PUSH2 0xE6E JUMPI PUSH2 0xE6D PUSH2 0x2666 JUMP JUMPDEST JUMPDEST SWAP1 PUSH0 MSTORE PUSH1 0x20 PUSH0 KECCAK256 ADD SLOAD DUP2 MSTORE PUSH1 0x20 ADD SWAP1 DUP2 MSTORE PUSH1 0x20 ADD PUSH0 KECCAK256 PUSH0 SWAP1 SLOAD SWAP1 PUSH2 0x100 EXP SWAP1 DIV PUSH20 0xFFFFFFFFFFFFFFFFFFFFFFFFFFFFFFFFFFFFFFFF AND PUSH20 0xFFFFFFFFFFFFFFFFFFFFFFFFFFFFFFFFFFFFFFFF AND PUSH20 0xFFFFFFFFFFFFFFFFFFFFFFFFFFFFFFFFFFFFFFFF AND DUP2 MSTORE PUSH1 0x20 ADD SWAP1 DUP2 MSTORE PUSH1 0x20 ADD PUSH0 KECCAK256 PUSH1 0x40 MLOAD DUP1 PUSH1 0x80 ADD PUSH1 0x40 MSTORE SWAP1 DUP2 PUSH0 DUP3 ADD DUP1 SLOAD PUSH2 0xEF7 SWAP1 PUSH2 0x2566 JUMP JUMPDEST DUP1 PUSH1 0x1F ADD PUSH1 0x20 DUP1 SWAP2 DIV MUL PUSH1 0x20 ADD PUSH1 0x40 MLOAD SWAP1 DUP2 ADD PUSH1 0x40 MSTORE DUP1 SWAP3 SWAP2 SWAP1 DUP2 DUP2 MSTORE PUSH1 0x20 ADD DUP3 DUP1 SLOAD PUSH2 0xF23 SWAP1 PUSH2 0x2566 JUMP JUMPDEST DUP1 ISZERO PUSH2 0xF6E JUMPI DUP1 PUSH1 0x1F LT PUSH2 0xF45 JUMPI PUSH2 0x100 DUP1 DUP4 SLOAD DIV MUL DUP4 MSTORE SWAP2 PUSH1 0x20 ADD SWAP2 PUSH2 0xF6E JUMP JUMPDEST DUP3 ADD SWAP2 SWAP1 PUSH0 MSTORE PUSH1 0x20 PUSH0 KECCAK256 SWAP1 JUMPDEST DUP2 SLOAD DUP2 MSTORE SWAP1 PUSH1 0x1 ADD SWAP1 PUSH1 0x20 ADD DUP1 DUP4 GT PUSH2 0xF51 JUMPI DUP3 SWAP1 SUB PUSH1 0x1F AND DUP3 ADD SWAP2 JUMPDEST POP POP POP POP POP DUP2 MSTORE PUSH1 0x20 ADD PUSH1 0x1 DUP3 ADD SLOAD DUP2 MSTORE PUSH1 0x20 ADD PUSH1 0x2 DUP3 ADD PUSH0 SWAP1 SLOAD SWAP1 PUSH2 0x100 EXP SWAP1 DIV PUSH1 0xFF AND ISZERO ISZERO ISZERO ISZERO DUP2 MSTORE PUSH1 0x20 ADD PUSH1 0x2 DUP3 ADD PUSH1 0x1 SWAP1 SLOAD SWAP1 PUSH2 0x100 EXP SWAP1 DIV PUSH20 0xFFFFFFFFFFFFFFFFFFFFFFFFFFFFFFFFFFFFFFFF AND PUSH20 0xFFFFFFFFFFFFFFFFFFFFFFFFFFFFFFFFFFFFFFFF AND PUSH20 0xFFFFFFFFFFFFFFFFFFFFFFFFFFFFFFFFFFFFFFFF AND DUP2 MSTORE POP POP DUP3 DUP3 DUP2 MLOAD DUP2 LT PUSH2 0x1004 JUMPI PUSH2 0x1003 PUSH2 0x2666 JUMP JUMPDEST JUMPDEST PUSH1 0x20 MUL PUSH1 0x20 ADD ADD DUP2 SWAP1 MSTORE POP DUP1 DUP1 PUSH1 0x1 ADD SWAP2 POP POP PUSH2 0xE47 JUMP JUMPDEST POP DUP1 SWAP2 POP POP SWAP1 JUMP JUMPDEST PUSH2 0x102C PUSH2 0x15C6 JUMP JUMPDEST PUSH0 PUSH1 0x7 PUSH0 DUP4 DUP2 MSTORE PUSH1 0x20 ADD SWAP1 DUP2 MSTORE PUSH1 0x20 ADD PUSH0 KECCAK256 PUSH0 SWAP1 SLOAD SWAP1 PUSH2 0x100 EXP SWAP1 DIV PUSH20 0xFFFFFFFFFFFFFFFFFFFFFFFFFFFFFFFFFFFFFFFF AND SWAP1 POP PUSH0 PUSH20 0xFFFFFFFFFFFFFFFFFFFFFFFFFFFFFFFFFFFFFFFF AND DUP2 PUSH20 0xFFFFFFFFFFFFFFFFFFFFFFFFFFFFFFFFFFFFFFFF AND EQ PUSH2 0x11DE JUMPI PUSH1 0x6 PUSH0 DUP3 PUSH20 0xFFFFFFFFFFFFFFFFFFFFFFFFFFFFFFFFFFFFFFFF AND PUSH20 0xFFFFFFFFFFFFFFFFFFFFFFFFFFFFFFFFFFFFFFFF AND DUP2 MSTORE PUSH1 0x20 ADD SWAP1 DUP2 MSTORE PUSH1 0x20 ADD PUSH0 KECCAK256 PUSH0 PUSH0 DUP3 ADD PUSH0 PUSH2 0x10DF SWAP2 SWAP1 PUSH2 0x1D8B JUMP JUMPDEST PUSH1 0x1 DUP3 ADD PUSH0 SWAP1 SSTORE PUSH1 0x2 DUP3 ADD PUSH0 PUSH2 0x100 EXP DUP2 SLOAD SWAP1 PUSH1 0xFF MUL NOT AND SWAP1 SSTORE PUSH1 0x2 DUP3 ADD PUSH1 0x1 PUSH2 0x100 EXP DUP2 SLOAD SWAP1 PUSH20 0xFFFFFFFFFFFFFFFFFFFFFFFFFFFFFFFFFFFFFFFF MUL NOT AND SWAP1 SSTORE POP POP PUSH0 PUSH0 SWAP1 POP JUMPDEST PUSH1 0x8 DUP1 SLOAD SWAP1 POP DUP2 LT ISZERO PUSH2 0x11DC JUMPI DUP3 PUSH1 0x8 DUP3 DUP2 SLOAD DUP2 LT PUSH2 0x1149 JUMPI PUSH2 0x1148 PUSH2 0x2666 JUMP JUMPDEST JUMPDEST SWAP1 PUSH0 MSTORE PUSH1 0x20 PUSH0 KECCAK256 ADD SLOAD SUB PUSH2 0x11CF JUMPI PUSH1 0x8 PUSH1 0x1 PUSH1 0x8 DUP1 SLOAD SWAP1 POP PUSH2 0x116B SWAP2 SWAP1 PUSH2 0x26C0 JUMP JUMPDEST DUP2 SLOAD DUP2 LT PUSH2 0x117C JUMPI PUSH2 0x117B PUSH2 0x2666 JUMP JUMPDEST JUMPDEST SWAP1 PUSH0 MSTORE PUSH1 0x20 PUSH0 KECCAK256 ADD SLOAD PUSH1 0x8 DUP3 DUP2 SLOAD DUP2 LT PUSH2 0x1199 JUMPI PUSH2 0x1198 PUSH2 0x2666 JUMP JUMPDEST JUMPDEST SWAP1 PUSH0 MSTORE PUSH1 0x20 PUSH0 KECCAK256 ADD DUP2 SWAP1 SSTORE POP PUSH1 0x8 DUP1 SLOAD DUP1 PUSH2 0x11B7 JUMPI PUSH2 0x11B6 PUSH2 0x26F3 JUMP JUMPDEST JUMPDEST PUSH1 0x1 SWAP1 SUB DUP2 DUP2 SWAP1 PUSH0 MSTORE PUSH1 0x20 PUSH0 KECCAK256 ADD PUSH0 SWAP1 SSTORE SWAP1 SSTORE PUSH2 0x11DC JUMP JUMPDEST DUP1 DUP1 PUSH1 0x1 ADD SWAP2 POP POP PUSH2 0x1127 JUMP JUMPDEST POP JUMPDEST PUSH1 0x40 MLOAD DUP1 PUSH1 0x80 ADD PUSH1 0x40 MSTORE DUP1 DUP5 DUP2 MSTORE PUSH1 0x20 ADD DUP4 DUP2 MSTORE PUSH1 0x20 ADD PUSH1 0x1 ISZERO ISZERO DUP2 MSTORE PUSH1 0x20 ADD DUP6 PUSH20 0xFFFFFFFFFFFFFFFFFFFFFFFFFFFFFFFFFFFFFFFF AND DUP2 MSTORE POP PUSH1 0x6 PUSH0 DUP7 PUSH20 0xFFFFFFFFFFFFFFFFFFFFFFFFFFFFFFFFFFFFFFFF AND PUSH20 0xFFFFFFFFFFFFFFFFFFFFFFFFFFFFFFFFFFFFFFFF AND DUP2 MSTORE PUSH1 0x20 ADD SWAP1 DUP2 MSTORE PUSH1 0x20 ADD PUSH0 KECCAK256 PUSH0 DUP3 ADD MLOAD DUP2 PUSH0 ADD SWAP1 DUP2 PUSH2 0x1268 SWAP2 SWAP1 PUSH2 0x28C0 JUMP JUMPDEST POP PUSH1 0x20 DUP3 ADD MLOAD DUP2 PUSH1 0x1 ADD SSTORE PUSH1 0x40 DUP3 ADD MLOAD DUP2 PUSH1 0x2 ADD PUSH0 PUSH2 0x100 EXP DUP2 SLOAD DUP2 PUSH1 0xFF MUL NOT AND SWAP1 DUP4 ISZERO ISZERO MUL OR SWAP1 SSTORE POP PUSH1 0x60 DUP3 ADD MLOAD DUP2 PUSH1 0x2 ADD PUSH1 0x1 PUSH2 0x100 EXP DUP2 SLOAD DUP2 PUSH20 0xFFFFFFFFFFFFFFFFFFFFFFFFFFFFFFFFFFFFFFFF MUL NOT AND SWAP1 DUP4 PUSH20 0xFFFFFFFFFFFFFFFFFFFFFFFFFFFFFFFFFFFFFFFF AND MUL OR SWAP1 SSTORE POP SWAP1 POP POP DUP4 PUSH1 0x7 PUSH0 DUP5 DUP2 MSTORE PUSH1 0x20 ADD SWAP1 DUP2 MSTORE PUSH1 0x20 ADD PUSH0 KECCAK256 PUSH0 PUSH2 0x100 EXP DUP2 SLOAD DUP2 PUSH20 0xFFFFFFFFFFFFFFFFFFFFFFFFFFFFFFFFFFFFFFFF MUL NOT AND SWAP1 DUP4 PUSH20 0xFFFFFFFFFFFFFFFFFFFFFFFFFFFFFFFFFFFFFFFF AND MUL OR SWAP1 SSTORE POP PUSH1 0x8 DUP3 SWAP1 DUP1 PUSH1 0x1 DUP2 SLOAD ADD DUP1 DUP3 SSTORE DUP1 SWAP2 POP POP PUSH1 0x1 SWAP1 SUB SWAP1 PUSH0 MSTORE PUSH1 0x20 PUSH0 KECCAK256 ADD PUSH0 SWAP1 SWAP2 SWAP1 SWAP2 SWAP1 SWAP2 POP SSTORE DUP2 DUP5 PUSH20 0xFFFFFFFFFFFFFFFFFFFFFFFFFFFFFFFFFFFFFFFF AND PUSH32 0xAC4A9513A5C8018262C0B02F41B831CE95AEEFA4B387B7C565885FB0D0012D86 DUP6 PUSH1 0x40 MLOAD PUSH2 0x1398 SWAP2 SWAP1 PUSH2 0x1E90 JUMP JUMPDEST PUSH1 0x40 MLOAD DUP1 SWAP2 SUB SWAP1 LOG3 POP POP POP POP JUMP JUMPDEST PUSH2 0x13AE PUSH2 0x15C6 JUMP JUMPDEST PUSH0 PUSH20 0xFFFFFFFFFFFFFFFFFFFFFFFFFFFFFFFFFFFFFFFF AND DUP2 PUSH20 0xFFFFFFFFFFFFFFFFFFFFFFFFFFFFFFFFFFFFFFFF AND SUB PUSH2 0x141E JUMPI PUSH0 PUSH1 0x40 MLOAD PUSH32 0x1E4FBDF700000000000000000000000000000000000000000000000000000000 DUP2 MSTORE PUSH1 0x4 ADD PUSH2 0x1415 SWAP2 SWAP1 PUSH2 0x20D0 JUMP JUMPDEST PUSH1 0x40 MLOAD DUP1 SWAP2 SUB SWAP1 REVERT JUMPDEST PUSH2 0x1427 DUP2 PUSH2 0x16CC JUMP JUMPDEST POP JUMP JUMPDEST PUSH0 CALLER SWAP1 POP SWAP1 JUMP JUMPDEST PUSH2 0x143E DUP4 DUP4 DUP4 PUSH1 0x1 PUSH2 0x180E JUMP JUMPDEST POP POP POP JUMP JUMPDEST PUSH0 PUSH2 0x144E DUP5 DUP5 PUSH2 0xD62 JUMP JUMPDEST SWAP1 POP PUSH32 0xFFFFFFFFFFFFFFFFFFFFFFFFFFFFFFFFFFFFFFFFFFFFFFFFFFFFFFFFFFFFFFFF DUP2 LT ISZERO PUSH2 0x14D0 JUMPI DUP2 DUP2 LT ISZERO PUSH2 0x14C1 JUMPI DUP3 DUP2 DUP4 PUSH1 0x40 MLOAD PUSH32 0xFB8F41B200000000000000000000000000000000000000000000000000000000 DUP2 MSTORE PUSH1 0x4 ADD PUSH2 0x14B8 SWAP4 SWAP3 SWAP2 SWAP1 PUSH2 0x298F JUMP JUMPDEST PUSH1 0x40 MLOAD DUP1 SWAP2 SUB SWAP1 REVERT JUMPDEST PUSH2 0x14CF DUP5 DUP5 DUP5 DUP5 SUB PUSH0 PUSH2 0x180E JUMP JUMPDEST JUMPDEST POP POP POP POP JUMP JUMPDEST PUSH0 PUSH20 0xFFFFFFFFFFFFFFFFFFFFFFFFFFFFFFFFFFFFFFFF AND DUP4 PUSH20 0xFFFFFFFFFFFFFFFFFFFFFFFFFFFFFFFFFFFFFFFF AND SUB PUSH2 0x1546 JUMPI PUSH0 PUSH1 0x40 MLOAD PUSH32 0x96C6FD1E00000000000000000000000000000000000000000000000000000000 DUP2 MSTORE PUSH1 0x4 ADD PUSH2 0x153D SWAP2 SWAP1 PUSH2 0x20D0 JUMP JUMPDEST PUSH1 0x40 MLOAD DUP1 SWAP2 SUB SWAP1 REVERT JUMPDEST PUSH0 PUSH20 0xFFFFFFFFFFFFFFFFFFFFFFFFFFFFFFFFFFFFFFFF AND DUP3 PUSH20 0xFFFFFFFFFFFFFFFFFFFFFFFFFFFFFFFFFFFFFFFF AND SUB PUSH2 0x15B6 JUMPI PUSH0 PUSH1 0x40 MLOAD PUSH32 0xEC442F0500000000000000000000000000000000000000000000000000000000 DUP2 MSTORE PUSH1 0x4 ADD PUSH2 0x15AD SWAP2 SWAP1 PUSH2 0x20D0 JUMP JUMPDEST PUSH1 0x40 MLOAD DUP1 SWAP2 SUB SWAP1 REVERT JUMPDEST PUSH2 0x15C1 DUP4 DUP4 DUP4 PUSH2 0x19DD JUMP JUMPDEST POP POP POP JUMP JUMPDEST PUSH2 0x15CE PUSH2 0x142A JUMP JUMPDEST PUSH20 0xFFFFFFFFFFFFFFFFFFFFFFFFFFFFFFFFFFFFFFFF AND PUSH2 0x15EC PUSH2 0x8FE JUMP JUMPDEST PUSH20 0xFFFFFFFFFFFFFFFFFFFFFFFFFFFFFFFFFFFFFFFF AND EQ PUSH2 0x164B JUMPI PUSH2 0x160F PUSH2 0x142A JUMP JUMPDEST PUSH1 0x40 MLOAD PUSH32 0x118CDAA700000000000000000000000000000000000000000000000000000000 DUP2 MSTORE PUSH1 0x4 ADD PUSH2 0x1642 SWAP2 SWAP1 PUSH2 0x20D0 JUMP JUMPDEST PUSH1 0x40 MLOAD DUP1 SWAP2 SUB SWAP1 REVERT JUMPDEST JUMP JUMPDEST PUSH0 PUSH20 0xFFFFFFFFFFFFFFFFFFFFFFFFFFFFFFFFFFFFFFFF AND DUP3 PUSH20 0xFFFFFFFFFFFFFFFFFFFFFFFFFFFFFFFFFFFFFFFF AND SUB PUSH2 0x16BD JUMPI PUSH0 PUSH1 0x40 MLOAD PUSH32 0xEC442F0500000000000000000000000000000000000000000000000000000000 DUP2 MSTORE PUSH1 0x4 ADD PUSH2 0x16B4 SWAP2 SWAP1 PUSH2 0x20D0 JUMP JUMPDEST PUSH1 0x40 MLOAD DUP1 SWAP2 SUB SWAP1 REVERT JUMPDEST PUSH2 0x16C8 PUSH0 DUP4 DUP4 PUSH2 0x19DD JUMP JUMPDEST POP POP JUMP JUMPDEST PUSH0 PUSH1 0x5 PUSH0 SWAP1 SLOAD SWAP1 PUSH2 0x100 EXP SWAP1 DIV PUSH20 0xFFFFFFFFFFFFFFFFFFFFFFFFFFFFFFFFFFFFFFFF AND SWAP1 POP DUP2 PUSH1 0x5 PUSH0 PUSH2 0x100 EXP DUP2 SLOAD DUP2 PUSH20 0xFFFFFFFFFFFFFFFFFFFFFFFFFFFFFFFFFFFFFFFF MUL NOT AND SWAP1 DUP4 PUSH20 0xFFFFFFFFFFFFFFFFFFFFFFFFFFFFFFFFFFFFFFFF AND MUL OR SWAP1 SSTORE POP DUP2 PUSH20 0xFFFFFFFFFFFFFFFFFFFFFFFFFFFFFFFFFFFFFFFF AND DUP2 PUSH20 0xFFFFFFFFFFFFFFFFFFFFFFFFFFFFFFFFFFFFFFFF AND PUSH32 0x8BE0079C531659141344CD1FD0A4F28419497F9722A3DAAFE3B4186F6B6457E0 PUSH1 0x40 MLOAD PUSH1 0x40 MLOAD DUP1 SWAP2 SUB SWAP1 LOG3 POP POP JUMP JUMPDEST PUSH0 PUSH20 0xFFFFFFFFFFFFFFFFFFFFFFFFFFFFFFFFFFFFFFFF AND DUP3 PUSH20 0xFFFFFFFFFFFFFFFFFFFFFFFFFFFFFFFFFFFFFFFF AND SUB PUSH2 0x17FF JUMPI PUSH0 PUSH1 0x40 MLOAD PUSH32 0x96C6FD1E00000000000000000000000000000000000000000000000000000000 DUP2 MSTORE PUSH1 0x4 ADD PUSH2 0x17F6 SWAP2 SWAP1 PUSH2 0x20D0 JUMP JUMPDEST PUSH1 0x40 MLOAD DUP1 SWAP2 SUB SWAP1 REVERT JUMPDEST PUSH2 0x180A DUP3 PUSH0 DUP4 PUSH2 0x19DD JUMP JUMPDEST POP POP JUMP JUMPDEST PUSH0 PUSH20 0xFFFFFFFFFFFFFFFFFFFFFFFFFFFFFFFFFFFFFFFF AND DUP5 PUSH20 0xFFFFFFFFFFFFFFFFFFFFFFFFFFFFFFFFFFFFFFFF AND SUB PUSH2 0x187E JUMPI PUSH0 PUSH1 0x40 MLOAD PUSH32 0xE602DF0500000000000000000000000000000000000000000000000000000000 DUP2 MSTORE PUSH1 0x4 ADD PUSH2 0x1875 SWAP2 SWAP1 PUSH2 0x20D0 JUMP JUMPDEST PUSH1 0x40 MLOAD DUP1 SWAP2 SUB SWAP1 REVERT JUMPDEST PUSH0 PUSH20 0xFFFFFFFFFFFFFFFFFFFFFFFFFFFFFFFFFFFFFFFF AND DUP4 PUSH20 0xFFFFFFFFFFFFFFFFFFFFFFFFFFFFFFFFFFFFFFFF AND SUB PUSH2 0x18EE JUMPI PUSH0 PUSH1 0x40 MLOAD PUSH32 0x94280D6200000000000000000000000000000000000000000000000000000000 DUP2 MSTORE PUSH1 0x4 ADD PUSH2 0x18E5 SWAP2 SWAP1 PUSH2 0x20D0 JUMP JUMPDEST PUSH1 0x40 MLOAD DUP1 SWAP2 SUB SWAP1 REVERT JUMPDEST DUP2 PUSH1 0x1 PUSH0 DUP7 PUSH20 0xFFFFFFFFFFFFFFFFFFFFFFFFFFFFFFFFFFFFFFFF AND PUSH20 0xFFFFFFFFFFFFFFFFFFFFFFFFFFFFFFFFFFFFFFFF AND DUP2 MSTORE PUSH1 0x20 ADD SWAP1 DUP2 MSTORE PUSH1 0x20 ADD PUSH0 KECCAK256 PUSH0 DUP6 PUSH20 0xFFFFFFFFFFFFFFFFFFFFFFFFFFFFFFFFFFFFFFFF AND PUSH20 0xFFFFFFFFFFFFFFFFFFFFFFFFFFFFFFFFFFFFFFFF AND DUP2 MSTORE PUSH1 0x20 ADD SWAP1 DUP2 MSTORE PUSH1 0x20 ADD PUSH0 KECCAK256 DUP2 SWAP1 SSTORE POP DUP1 ISZERO PUSH2 0x19D7 JUMPI DUP3 PUSH20 0xFFFFFFFFFFFFFFFFFFFFFFFFFFFFFFFFFFFFFFFF AND DUP5 PUSH20 0xFFFFFFFFFFFFFFFFFFFFFFFFFFFFFFFFFFFFFFFF AND PUSH32 0x8C5BE1E5EBEC7D5BD14F71427D1E84F3DD0314C0F7B2291E5B200AC8C7C3B925 DUP5 PUSH1 0x40 MLOAD PUSH2 0x19CE SWAP2 SWAP1 PUSH2 0x1FF9 JUMP JUMPDEST PUSH1 0x40 MLOAD DUP1 SWAP2 SUB SWAP1 LOG3 JUMPDEST POP POP POP POP JUMP JUMPDEST PUSH0 PUSH20 0xFFFFFFFFFFFFFFFFFFFFFFFFFFFFFFFFFFFFFFFF AND DUP4 PUSH20 0xFFFFFFFFFFFFFFFFFFFFFFFFFFFFFFFFFFFFFFFF AND SUB PUSH2 0x1AA1 JUMPI PUSH1 0x6 PUSH0 DUP4 PUSH20 0xFFFFFFFFFFFFFFFFFFFFFFFFFFFFFFFFFFFFFFFF AND PUSH20 0xFFFFFFFFFFFFFFFFFFFFFFFFFFFFFFFFFFFFFFFF AND DUP2 MSTORE PUSH1 0x20 ADD SWAP1 DUP2 MSTORE PUSH1 0x20 ADD PUSH0 KECCAK256 PUSH1 0x2 ADD PUSH0 SWAP1 SLOAD SWAP1 PUSH2 0x100 EXP SWAP1 DIV PUSH1 0xFF AND PUSH2 0x1A9C JUMPI PUSH1 0x40 MLOAD PUSH32 0x8C379A000000000000000000000000000000000000000000000000000000000 DUP2 MSTORE PUSH1 0x4 ADD PUSH2 0x1A93 SWAP1 PUSH2 0x2A0E JUMP JUMPDEST PUSH1 0x40 MLOAD DUP1 SWAP2 SUB SWAP1 REVERT JUMPDEST PUSH2 0x1B62 JUMP JUMPDEST PUSH0 PUSH20 0xFFFFFFFFFFFFFFFFFFFFFFFFFFFFFFFFFFFFFFFF AND DUP3 PUSH20 0xFFFFFFFFFFFFFFFFFFFFFFFFFFFFFFFFFFFFFFFF AND EQ PUSH2 0x1B61 JUMPI PUSH1 0x6 PUSH0 DUP4 PUSH20 0xFFFFFFFFFFFFFFFFFFFFFFFFFFFFFFFFFFFFFFFF AND PUSH20 0xFFFFFFFFFFFFFFFFFFFFFFFFFFFFFFFFFFFFFFFF AND DUP2 MSTORE PUSH1 0x20 ADD SWAP1 DUP2 MSTORE PUSH1 0x20 ADD PUSH0 KECCAK256 PUSH1 0x2 ADD PUSH0 SWAP1 SLOAD SWAP1 PUSH2 0x100 EXP SWAP1 DIV PUSH1 0xFF AND PUSH2 0x1B60 JUMPI PUSH1 0x40 MLOAD PUSH32 0x8C379A000000000000000000000000000000000000000000000000000000000 DUP2 MSTORE PUSH1 0x4 ADD PUSH2 0x1B57 SWAP1 PUSH2 0x25E0 JUMP JUMPDEST PUSH1 0x40 MLOAD DUP1 SWAP2 SUB SWAP1 REVERT JUMPDEST JUMPDEST JUMPDEST PUSH2 0x1B6D DUP4 DUP4 DUP4 PUSH2 0x1B72 JUMP JUMPDEST POP POP POP JUMP JUMPDEST PUSH0 PUSH20 0xFFFFFFFFFFFFFFFFFFFFFFFFFFFFFFFFFFFFFFFF AND DUP4 PUSH20 0xFFFFFFFFFFFFFFFFFFFFFFFFFFFFFFFFFFFFFFFF AND SUB PUSH2 0x1BC2 JUMPI DUP1 PUSH1 0x2 PUSH0 DUP3 DUP3 SLOAD PUSH2 0x1BB6 SWAP2 SWAP1 PUSH2 0x2A2C JUMP JUMPDEST SWAP3 POP POP DUP2 SWAP1 SSTORE POP PUSH2 0x1C90 JUMP JUMPDEST PUSH0 PUSH0 PUSH0 DUP6 PUSH20 0xFFFFFFFFFFFFFFFFFFFFFFFFFFFFFFFFFFFFFFFF AND PUSH20 0xFFFFFFFFFFFFFFFFFFFFFFFFFFFFFFFFFFFFFFFF AND DUP2 MSTORE PUSH1 0x20 ADD SWAP1 DUP2 MSTORE PUSH1 0x20 ADD PUSH0 KECCAK256 SLOAD SWAP1 POP DUP2 DUP2 LT ISZERO PUSH2 0x1C4B JUMPI DUP4 DUP2 DUP4 PUSH1 0x40 MLOAD PUSH32 0xE450D38C00000000000000000000000000000000000000000000000000000000 DUP2 MSTORE PUSH1 0x4 ADD PUSH2 0x1C42 SWAP4 SWAP3 SWAP2 SWAP1 PUSH2 0x298F JUMP JUMPDEST PUSH1 0x40 MLOAD DUP1 SWAP2 SUB SWAP1 REVERT JUMPDEST DUP2 DUP2 SUB PUSH0 PUSH0 DUP7 PUSH20 0xFFFFFFFFFFFFFFFFFFFFFFFFFFFFFFFFFFFFFFFF AND PUSH20 0xFFFFFFFFFFFFFFFFFFFFFFFFFFFFFFFFFFFFFFFF AND DUP2 MSTORE PUSH1 0x20 ADD SWAP1 DUP2 MSTORE PUSH1 0x20 ADD PUSH0 KECCAK256 DUP2 SWAP1 SSTORE POP POP JUMPDEST PUSH0 PUSH20 0xFFFFFFFFFFFFFFFFFFFFFFFFFFFFFFFFFFFFFFFF AND DUP3 PUSH20 0xFFFFFFFFFFFFFFFFFFFFFFFFFFFFFFFFFFFFFFFF AND SUB PUSH2 0x1CD7 JUMPI DUP1 PUSH1 0x2 PUSH0 DUP3 DUP3 SLOAD SUB SWAP3 POP POP DUP2 SWAP1 SSTORE POP PUSH2 0x1D21 JUMP JUMPDEST DUP1 PUSH0 PUSH0 DUP5 PUSH20 0xFFFFFFFFFFFFFFFFFFFFFFFFFFFFFFFFFFFFFFFF AND PUSH20 0xFFFFFFFFFFFFFFFFFFFFFFFFFFFFFFFFFFFFFFFF AND DUP2 MSTORE PUSH1 0x20 ADD SWAP1 DUP2 MSTORE PUSH1 0x20 ADD PUSH0 KECCAK256 PUSH0 DUP3 DUP3 SLOAD ADD SWAP3 POP POP DUP2 SWAP1 SSTORE POP JUMPDEST DUP2 PUSH20 0xFFFFFFFFFFFFFFFFFFFFFFFFFFFFFFFFFFFFFFFF AND DUP4 PUSH20 0xFFFFFFFFFFFFFFFFFFFFFFFFFFFFFFFFFFFFFFFF AND PUSH32 0xDDF252AD1BE2C89B69C2B068FC378DAA952BA7F163C4A11628F55A4DF523B3EF DUP4 PUSH1 0x40 MLOAD PUSH2 0x1D7E SWAP2 SWAP1 PUSH2 0x1FF9 JUMP JUMPDEST PUSH1 0x40 MLOAD DUP1 SWAP2 SUB SWAP1 LOG3 POP POP POP JUMP JUMPDEST POP DUP1 SLOAD PUSH2 0x1D97 SWAP1 PUSH2 0x2566 JUMP JUMPDEST PUSH0 DUP3 SSTORE DUP1 PUSH1 0x1F LT PUSH2 0x1DA8 JUMPI POP PUSH2 0x1DC5 JUMP JUMPDEST PUSH1 0x1F ADD PUSH1 0x20 SWAP1 DIV SWAP1 PUSH0 MSTORE PUSH1 0x20 PUSH0 KECCAK256 SWAP1 DUP2 ADD SWAP1 PUSH2 0x1DC4 SWAP2 SWAP1 PUSH2 0x1E05 JUMP JUMPDEST JUMPDEST POP JUMP JUMPDEST PUSH1 0x40 MLOAD DUP1 PUSH1 0x80 ADD PUSH1 0x40 MSTORE DUP1 PUSH1 0x60 DUP2 MSTORE PUSH1 0x20 ADD PUSH0 DUP2 MSTORE PUSH1 0x20 ADD PUSH0 ISZERO ISZERO DUP2 MSTORE PUSH1 0x20 ADD PUSH0 PUSH20 0xFFFFFFFFFFFFFFFFFFFFFFFFFFFFFFFFFFFFFFFF AND DUP2 MSTORE POP SWAP1 JUMP JUMPDEST JUMPDEST DUP1 DUP3 GT ISZERO PUSH2 0x1E1C JUMPI PUSH0 DUP2 PUSH0 SWAP1 SSTORE POP PUSH1 0x1 ADD PUSH2 0x1E06 JUMP JUMPDEST POP SWAP1 JUMP JUMPDEST PUSH0 DUP2 MLOAD SWAP1 POP SWAP2 SWAP1 POP JUMP JUMPDEST PUSH0 DUP3 DUP3 MSTORE PUSH1 0x20 DUP3 ADD SWAP1 POP SWAP3 SWAP2 POP POP JUMP JUMPDEST DUP3 DUP2 DUP4 MCOPY PUSH0 DUP4 DUP4 ADD MSTORE POP POP POP JUMP JUMPDEST PUSH0 PUSH1 0x1F NOT PUSH1 0x1F DUP4 ADD AND SWAP1 POP SWAP2 SWAP1 POP JUMP JUMPDEST PUSH0 PUSH2 0x1E62 DUP3 PUSH2 0x1E20 JUMP JUMPDEST PUSH2 0x1E6C DUP2 DUP6 PUSH2 0x1E2A JUMP JUMPDEST SWAP4 POP PUSH2 0x1E7C DUP2 DUP6 PUSH1 0x20 DUP7 ADD PUSH2 0x1E3A JUMP JUMPDEST PUSH2 0x1E85 DUP2 PUSH2 0x1E48 JUMP JUMPDEST DUP5 ADD SWAP2 POP POP SWAP3 SWAP2 POP POP JUMP JUMPDEST PUSH0 PUSH1 0x20 DUP3 ADD SWAP1 POP DUP2 DUP2 SUB PUSH0 DUP4 ADD MSTORE PUSH2 0x1EA8 DUP2 DUP5 PUSH2 0x1E58 JUMP JUMPDEST SWAP1 POP SWAP3 SWAP2 POP POP JUMP JUMPDEST PUSH0 PUSH1 0x40 MLOAD SWAP1 POP SWAP1 JUMP JUMPDEST PUSH0 PUSH0 REVERT JUMPDEST PUSH0 PUSH0 REVERT JUMPDEST PUSH0 PUSH20 0xFFFFFFFFFFFFFFFFFFFFFFFFFFFFFFFFFFFFFFFF DUP3 AND SWAP1 POP SWAP2 SWAP1 POP JUMP JUMPDEST PUSH0 PUSH2 0x1EEA DUP3 PUSH2 0x1EC1 JUMP JUMPDEST SWAP1 POP SWAP2 SWAP1 POP JUMP JUMPDEST PUSH2 0x1EFA DUP2 PUSH2 0x1EE0 JUMP JUMPDEST DUP2 EQ PUSH2 0x1F04 JUMPI PUSH0 PUSH0 REVERT JUMPDEST POP JUMP JUMPDEST PUSH0 DUP2 CALLDATALOAD SWAP1 POP PUSH2 0x1F15 DUP2 PUSH2 0x1EF1 JUMP JUMPDEST SWAP3 SWAP2 POP POP JUMP JUMPDEST PUSH0 DUP2 SWAP1 POP SWAP2 SWAP1 POP JUMP JUMPDEST PUSH2 0x1F2D DUP2 PUSH2 0x1F1B JUMP JUMPDEST DUP2 EQ PUSH2 0x1F37 JUMPI PUSH0 PUSH0 REVERT JUMPDEST POP JUMP JUMPDEST PUSH0 DUP2 CALLDATALOAD SWAP1 POP PUSH2 0x1F48 DUP2 PUSH2 0x1F24 JUMP JUMPDEST SWAP3 SWAP2 POP POP JUMP JUMPDEST PUSH0 PUSH0 PUSH1 0x40 DUP4 DUP6 SUB SLT ISZERO PUSH2 0x1F64 JUMPI PUSH2 0x1F63 PUSH2 0x1EB9 JUMP JUMPDEST JUMPDEST PUSH0 PUSH2 0x1F71 DUP6 DUP3 DUP7 ADD PUSH2 0x1F07 JUMP JUMPDEST SWAP3 POP POP PUSH1 0x20 PUSH2 0x1F82 DUP6 DUP3 DUP7 ADD PUSH2 0x1F3A JUMP JUMPDEST SWAP2 POP POP SWAP3 POP SWAP3 SWAP1 POP JUMP JUMPDEST PUSH0 DUP2 ISZERO ISZERO SWAP1 POP SWAP2 SWAP1 POP JUMP JUMPDEST PUSH2 0x1FA0 DUP2 PUSH2 0x1F8C JUMP JUMPDEST DUP3 MSTORE POP POP JUMP JUMPDEST PUSH0 PUSH1 0x20 DUP3 ADD SWAP1 POP PUSH2 0x1FB9 PUSH0 DUP4 ADD DUP5 PUSH2 0x1F97 JUMP JUMPDEST SWAP3 SWAP2 POP POP JUMP JUMPDEST PUSH0 PUSH1 0x20 DUP3 DUP5 SUB SLT ISZERO PUSH2 0x1FD4 JUMPI PUSH2 0x1FD3 PUSH2 0x1EB9 JUMP JUMPDEST JUMPDEST PUSH0 PUSH2 0x1FE1 DUP5 DUP3 DUP6 ADD PUSH2 0x1F3A JUMP JUMPDEST SWAP2 POP POP SWAP3 SWAP2 POP POP JUMP JUMPDEST PUSH2 0x1FF3 DUP2 PUSH2 0x1F1B JUMP JUMPDEST DUP3 MSTORE POP POP JUMP JUMPDEST PUSH0 PUSH1 0x20 DUP3 ADD SWAP1 POP PUSH2 0x200C PUSH0 DUP4 ADD DUP5 PUSH2 0x1FEA JUMP JUMPDEST SWAP3 SWAP2 POP POP JUMP JUMPDEST PUSH0 PUSH0 PUSH0 PUSH1 0x60 DUP5 DUP7 SUB SLT ISZERO PUSH2 0x2029 JUMPI PUSH2 0x2028 PUSH2 0x1EB9 JUMP JUMPDEST JUMPDEST PUSH0 PUSH2 0x2036 DUP7 DUP3 DUP8 ADD PUSH2 0x1F07 JUMP JUMPDEST SWAP4 POP POP PUSH1 0x20 PUSH2 0x2047 DUP7 DUP3 DUP8 ADD PUSH2 0x1F07 JUMP JUMPDEST SWAP3 POP POP PUSH1 0x40 PUSH2 0x2058 DUP7 DUP3 DUP8 ADD PUSH2 0x1F3A JUMP JUMPDEST SWAP2 POP POP SWAP3 POP SWAP3 POP SWAP3 JUMP JUMPDEST PUSH0 PUSH1 0xFF DUP3 AND SWAP1 POP SWAP2 SWAP1 POP JUMP JUMPDEST PUSH2 0x2077 DUP2 PUSH2 0x2062 JUMP JUMPDEST DUP3 MSTORE POP POP JUMP JUMPDEST PUSH0 PUSH1 0x20 DUP3 ADD SWAP1 POP PUSH2 0x2090 PUSH0 DUP4 ADD DUP5 PUSH2 0x206E JUMP JUMPDEST SWAP3 SWAP2 POP POP JUMP JUMPDEST PUSH0 PUSH1 0x20 DUP3 DUP5 SUB SLT ISZERO PUSH2 0x20AB JUMPI PUSH2 0x20AA PUSH2 0x1EB9 JUMP JUMPDEST JUMPDEST PUSH0 PUSH2 0x20B8 DUP5 DUP3 DUP6 ADD PUSH2 0x1F07 JUMP JUMPDEST SWAP2 POP POP SWAP3 SWAP2 POP POP JUMP JUMPDEST PUSH2 0x20CA DUP2 PUSH2 0x1EE0 JUMP JUMPDEST DUP3 MSTORE POP POP JUMP JUMPDEST PUSH0 PUSH1 0x20 DUP3 ADD SWAP1 POP PUSH2 0x20E3 PUSH0 DUP4 ADD DUP5 PUSH2 0x20C1 JUMP JUMPDEST SWAP3 SWAP2 POP POP JUMP JUMPDEST PUSH0 PUSH1 0x80 DUP3 ADD SWAP1 POP DUP2 DUP2 SUB PUSH0 DUP4 ADD MSTORE PUSH2 0x2101 DUP2 DUP8 PUSH2 0x1E58 JUMP JUMPDEST SWAP1 POP PUSH2 0x2110 PUSH1 0x20 DUP4 ADD DUP7 PUSH2 0x1FEA JUMP JUMPDEST PUSH2 0x211D PUSH1 0x40 DUP4 ADD DUP6 PUSH2 0x1F97 JUMP JUMPDEST PUSH2 0x212A PUSH1 0x60 DUP4 ADD DUP5 PUSH2 0x20C1 JUMP JUMPDEST SWAP6 SWAP5 POP POP POP POP POP JUMP JUMPDEST PUSH0 DUP3 DUP3 MSTORE PUSH1 0x20 DUP3 ADD SWAP1 POP SWAP3 SWAP2 POP POP JUMP JUMPDEST PUSH0 PUSH2 0x214D DUP3 PUSH2 0x1E20 JUMP JUMPDEST PUSH2 0x2157 DUP2 DUP6 PUSH2 0x2133 JUMP JUMPDEST SWAP4 POP PUSH2 0x2167 DUP2 DUP6 PUSH1 0x20 DUP7 ADD PUSH2 0x1E3A JUMP JUMPDEST PUSH2 0x2170 DUP2 PUSH2 0x1E48 JUMP JUMPDEST DUP5 ADD SWAP2 POP POP SWAP3 SWAP2 POP POP JUMP JUMPDEST PUSH2 0x2184 DUP2 PUSH2 0x1F1B JUMP JUMPDEST DUP3 MSTORE POP POP JUMP JUMPDEST PUSH2 0x2193 DUP2 PUSH2 0x1F8C JUMP JUMPDEST DUP3 MSTORE POP POP JUMP JUMPDEST PUSH2 0x21A2 DUP2 PUSH2 0x1EE0 JUMP JUMPDEST DUP3 MSTORE POP POP JUMP JUMPDEST PUSH0 PUSH1 0x80 DUP4 ADD PUSH0 DUP4 ADD MLOAD DUP5 DUP3 SUB PUSH0 DUP7 ADD MSTORE PUSH2 0x21C2 DUP3 DUP3 PUSH2 0x2143 JUMP JUMPDEST SWAP2 POP POP PUSH1 0x20 DUP4 ADD MLOAD PUSH2 0x21D7 PUSH1 0x20 DUP7 ADD DUP3 PUSH2 0x217B JUMP JUMPDEST POP PUSH1 0x40 DUP4 ADD MLOAD PUSH2 0x21EA PUSH1 0x40 DUP7 ADD DUP3 PUSH2 0x218A JUMP JUMPDEST POP PUSH1 0x60 DUP4 ADD MLOAD PUSH2 0x21FD PUSH1 0x60 DUP7 ADD DUP3 PUSH2 0x2199 JUMP JUMPDEST POP DUP1 SWAP2 POP POP SWAP3 SWAP2 POP POP JUMP JUMPDEST PUSH0 PUSH1 0x20 DUP3 ADD SWAP1 POP DUP2 DUP2 SUB PUSH0 DUP4 ADD MSTORE PUSH2 0x2220 DUP2 DUP5 PUSH2 0x21A8 JUMP JUMPDEST SWAP1 POP SWAP3 SWAP2 POP POP JUMP JUMPDEST PUSH0 PUSH0 PUSH1 0x40 DUP4 DUP6 SUB SLT ISZERO PUSH2 0x223E JUMPI PUSH2 0x223D PUSH2 0x1EB9 JUMP JUMPDEST JUMPDEST PUSH0 PUSH2 0x224B DUP6 DUP3 DUP7 ADD PUSH2 0x1F07 JUMP JUMPDEST SWAP3 POP POP PUSH1 0x20 PUSH2 0x225C DUP6 DUP3 DUP7 ADD PUSH2 0x1F07 JUMP JUMPDEST SWAP2 POP POP SWAP3 POP SWAP3 SWAP1 POP JUMP JUMPDEST PUSH0 DUP2 MLOAD SWAP1 POP SWAP2 SWAP1 POP JUMP JUMPDEST PUSH0 DUP3 DUP3 MSTORE PUSH1 0x20 DUP3 ADD SWAP1 POP SWAP3 SWAP2 POP POP JUMP JUMPDEST PUSH0 DUP2 SWAP1 POP PUSH1 0x20 DUP3 ADD SWAP1 POP SWAP2 SWAP1 POP JUMP JUMPDEST PUSH0 PUSH1 0x80 DUP4 ADD PUSH0 DUP4 ADD MLOAD DUP5 DUP3 SUB PUSH0 DUP7 ADD MSTORE PUSH2 0x22A9 DUP3 DUP3 PUSH2 0x2143 JUMP JUMPDEST SWAP2 POP POP PUSH1 0x20 DUP4 ADD MLOAD PUSH2 0x22BE PUSH1 0x20 DUP7 ADD DUP3 PUSH2 0x217B JUMP JUMPDEST POP PUSH1 0x40 DUP4 ADD MLOAD PUSH2 0x22D1 PUSH1 0x40 DUP7 ADD DUP3 PUSH2 0x218A JUMP JUMPDEST POP PUSH1 0x60 DUP4 ADD MLOAD PUSH2 0x22E4 PUSH1 0x60 DUP7 ADD DUP3 PUSH2 0x2199 JUMP JUMPDEST POP DUP1 SWAP2 POP POP SWAP3 SWAP2 POP POP JUMP JUMPDEST PUSH0 PUSH2 0x22FA DUP4 DUP4 PUSH2 0x228F JUMP JUMPDEST SWAP1 POP SWAP3 SWAP2 POP POP JUMP JUMPDEST PUSH0 PUSH1 0x20 DUP3 ADD SWAP1 POP SWAP2 SWAP1 POP JUMP JUMPDEST PUSH0 PUSH2 0x2318 DUP3 PUSH2 0x2266 JUMP JUMPDEST PUSH2 0x2322 DUP2 DUP6 PUSH2 0x2270 JUMP JUMPDEST SWAP4 POP DUP4 PUSH1 0x20 DUP3 MUL DUP6 ADD PUSH2 0x2334 DUP6 PUSH2 0x2280 JUMP JUMPDEST DUP1 PUSH0 JUMPDEST DUP6 DUP2 LT ISZERO PUSH2 0x236F JUMPI DUP5 DUP5 SUB DUP10 MSTORE DUP2 MLOAD PUSH2 0x2350 DUP6 DUP3 PUSH2 0x22EF JUMP JUMPDEST SWAP5 POP PUSH2 0x235B DUP4 PUSH2 0x2302 JUMP JUMPDEST SWAP3 POP PUSH1 0x20 DUP11 ADD SWAP10 POP POP PUSH1 0x1 DUP2 ADD SWAP1 POP PUSH2 0x2337 JUMP JUMPDEST POP DUP3 SWAP8 POP DUP8 SWAP6 POP POP POP POP POP POP SWAP3 SWAP2 POP POP JUMP JUMPDEST PUSH0 PUSH1 0x20 DUP3 ADD SWAP1 POP DUP2 DUP2 SUB PUSH0 DUP4 ADD MSTORE PUSH2 0x2399 DUP2 DUP5 PUSH2 0x230E JUMP JUMPDEST SWAP1 POP SWAP3 SWAP2 POP POP JUMP JUMPDEST PUSH0 PUSH0 REVERT JUMPDEST PUSH0 PUSH0 REVERT JUMPDEST PUSH32 0x4E487B7100000000000000000000000000000000000000000000000000000000 PUSH0 MSTORE PUSH1 0x41 PUSH1 0x4 MSTORE PUSH1 0x24 PUSH0 REVERT JUMPDEST PUSH2 0x23DF DUP3 PUSH2 0x1E48 JUMP JUMPDEST DUP2 ADD DUP2 DUP2 LT PUSH8 0xFFFFFFFFFFFFFFFF DUP3 GT OR ISZERO PUSH2 0x23FE JUMPI PUSH2 0x23FD PUSH2 0x23A9 JUMP JUMPDEST JUMPDEST DUP1 PUSH1 0x40 MSTORE POP POP POP JUMP JUMPDEST PUSH0 PUSH2 0x2410 PUSH2 0x1EB0 JUMP JUMPDEST SWAP1 POP PUSH2 0x241C DUP3 DUP3 PUSH2 0x23D6 JUMP JUMPDEST SWAP2 SWAP1 POP JUMP JUMPDEST PUSH0 PUSH8 0xFFFFFFFFFFFFFFFF DUP3 GT ISZERO PUSH2 0x243B JUMPI PUSH2 0x243A PUSH2 0x23A9 JUMP JUMPDEST JUMPDEST PUSH2 0x2444 DUP3 PUSH2 0x1E48 JUMP JUMPDEST SWAP1 POP PUSH1 0x20 DUP2 ADD SWAP1 POP SWAP2 SWAP1 POP JUMP JUMPDEST DUP3 DUP2 DUP4 CALLDATACOPY PUSH0 DUP4 DUP4 ADD MSTORE POP POP POP JUMP JUMPDEST PUSH0 PUSH2 0x2471 PUSH2 0x246C DUP5 PUSH2 0x2421 JUMP JUMPDEST PUSH2 0x2407 JUMP JUMPDEST SWAP1 POP DUP3 DUP2 MSTORE PUSH1 0x20 DUP2 ADD DUP5 DUP5 DUP5 ADD GT ISZERO PUSH2 0x248D JUMPI PUSH2 0x248C PUSH2 0x23A5 JUMP JUMPDEST JUMPDEST PUSH2 0x2498 DUP5 DUP3 DUP6 PUSH2 0x2451 JUMP JUMPDEST POP SWAP4 SWAP3 POP POP POP JUMP JUMPDEST PUSH0 DUP3 PUSH1 0x1F DUP4 ADD SLT PUSH2 0x24B4 JUMPI PUSH2 0x24B3 PUSH2 0x23A1 JUMP JUMPDEST JUMPDEST DUP2 CALLDATALOAD PUSH2 0x24C4 DUP5 DUP3 PUSH1 0x20 DUP7 ADD PUSH2 0x245F JUMP JUMPDEST SWAP2 POP POP SWAP3 SWAP2 POP POP JUMP JUMPDEST PUSH0 PUSH0 PUSH0 PUSH1 0x60 DUP5 DUP7 SUB SLT ISZERO PUSH2 0x24E4 JUMPI PUSH2 0x24E3 PUSH2 0x1EB9 JUMP JUMPDEST JUMPDEST PUSH0 PUSH2 0x24F1 DUP7 DUP3 DUP8 ADD PUSH2 0x1F07 JUMP JUMPDEST SWAP4 POP POP PUSH1 0x20 DUP5 ADD CALLDATALOAD PUSH8 0xFFFFFFFFFFFFFFFF DUP2 GT ISZERO PUSH2 0x2512 JUMPI PUSH2 0x2511 PUSH2 0x1EBD JUMP JUMPDEST JUMPDEST PUSH2 0x251E DUP7 DUP3 DUP8 ADD PUSH2 0x24A0 JUMP JUMPDEST SWAP3 POP POP PUSH1 0x40 PUSH2 0x252F DUP7 DUP3 DUP8 ADD PUSH2 0x1F3A JUMP JUMPDEST SWAP2 POP POP SWAP3 POP SWAP3 POP SWAP3 JUMP JUMPDEST PUSH32 0x4E487B7100000000000000000000000000000000000000000000000000000000 PUSH0 MSTORE PUSH1 0x22 PUSH1 0x4 MSTORE PUSH1 0x24 PUSH0 REVERT JUMPDEST PUSH0 PUSH1 0x2 DUP3 DIV SWAP1 POP PUSH1 0x1 DUP3 AND DUP1 PUSH2 0x257D JUMPI PUSH1 0x7F DUP3 AND SWAP2 POP JUMPDEST PUSH1 0x20 DUP3 LT DUP2 SUB PUSH2 0x2590 JUMPI PUSH2 0x258F PUSH2 0x2539 JUMP JUMPDEST JUMPDEST POP SWAP2 SWAP1 POP JUMP JUMPDEST PUSH32 0x526563697069656E74206E6F742077686974656C697374656400000000000000 PUSH0 DUP3 ADD MSTORE POP JUMP JUMPDEST PUSH0 PUSH2 0x25CA PUSH1 0x19 DUP4 PUSH2 0x1E2A JUMP JUMPDEST SWAP2 POP PUSH2 0x25D5 DUP3 PUSH2 0x2596 JUMP JUMPDEST PUSH1 0x20 DUP3 ADD SWAP1 POP SWAP2 SWAP1 POP JUMP JUMPDEST PUSH0 PUSH1 0x20 DUP3 ADD SWAP1 POP DUP2 DUP2 SUB PUSH0 DUP4 ADD MSTORE PUSH2 0x25F7 DUP2 PUSH2 0x25BE JUMP JUMPDEST SWAP1 POP SWAP2 SWAP1 POP JUMP JUMPDEST PUSH32 0x53747564656E7420646F6573206E6F7420657869737400000000000000000000 PUSH0 DUP3 ADD MSTORE POP JUMP JUMPDEST PUSH0 PUSH2 0x2632 PUSH1 0x16 DUP4 PUSH2 0x1E2A JUMP JUMPDEST SWAP2 POP PUSH2 0x263D DUP3 PUSH2 0x25FE JUMP JUMPDEST PUSH1 0x20 DUP3 ADD SWAP1 POP SWAP2 SWAP1 POP JUMP JUMPDEST PUSH0 PUSH1 0x20 DUP3 ADD SWAP1 POP DUP2 DUP2 SUB PUSH0 DUP4 ADD MSTORE PUSH2 0x265F DUP2 PUSH2 0x2626 JUMP JUMPDEST SWAP1 POP SWAP2 SWAP1 POP JUMP JUMPDEST PUSH32 0x4E487B7100000000000000000000000000000000000000000000000000000000 PUSH0 MSTORE PUSH1 0x32 PUSH1 0x4 MSTORE PUSH1 0x24 PUSH0 REVERT JUMPDEST PUSH32 0x4E487B7100000000000000000000000000000000000000000000000000000000 PUSH0 MSTORE PUSH1 0x11 PUSH1 0x4 MSTORE PUSH1 0x24 PUSH0 REVERT JUMPDEST PUSH0 PUSH2 0x26CA DUP3 PUSH2 0x1F1B JUMP JUMPDEST SWAP2 POP PUSH2 0x26D5 DUP4 PUSH2 0x1F1B JUMP JUMPDEST SWAP3 POP DUP3 DUP3 SUB SWAP1 POP DUP2 DUP2 GT ISZERO PUSH2 0x26ED JUMPI PUSH2 0x26EC PUSH2 0x2693 JUMP JUMPDEST JUMPDEST SWAP3 SWAP2 POP POP JUMP JUMPDEST PUSH32 0x4E487B7100000000000000000000000000000000000000000000000000000000 PUSH0 MSTORE PUSH1 0x31 PUSH1 0x4 MSTORE PUSH1 0x24 PUSH0 REVERT JUMPDEST PUSH0 DUP2 SWAP1 POP DUP2 PUSH0 MSTORE PUSH1 0x20 PUSH0 KECCAK256 SWAP1 POP SWAP2 SWAP1 POP JUMP JUMPDEST PUSH0 PUSH1 0x20 PUSH1 0x1F DUP4 ADD DIV SWAP1 POP SWAP2 SWAP1 POP JUMP JUMPDEST PUSH0 DUP3 DUP3 SHL SWAP1 POP SWAP3 SWAP2 POP POP JUMP JUMPDEST PUSH0 PUSH1 0x8 DUP4 MUL PUSH2 0x277C PUSH32 0xFFFFFFFFFFFFFFFFFFFFFFFFFFFFFFFFFFFFFFFFFFFFFFFFFFFFFFFFFFFFFFFF DUP3 PUSH2 0x2741 JUMP JUMPDEST PUSH2 0x2786 DUP7 DUP4 PUSH2 0x2741 JUMP JUMPDEST SWAP6 POP DUP1 NOT DUP5 AND SWAP4 POP DUP1 DUP7 AND DUP5 OR SWAP3 POP POP POP SWAP4 SWAP3 POP POP POP JUMP JUMPDEST PUSH0 DUP2 SWAP1 POP SWAP2 SWAP1 POP JUMP JUMPDEST PUSH0 PUSH2 0x27C1 PUSH2 0x27BC PUSH2 0x27B7 DUP5 PUSH2 0x1F1B JUMP JUMPDEST PUSH2 0x279E JUMP JUMPDEST PUSH2 0x1F1B JUMP JUMPDEST SWAP1 POP SWAP2 SWAP1 POP JUMP JUMPDEST PUSH0 DUP2 SWAP1 POP SWAP2 SWAP1 POP JUMP JUMPDEST PUSH2 0x27DA DUP4 PUSH2 0x27A7 JUMP JUMPDEST PUSH2 0x27EE PUSH2 0x27E6 DUP3 PUSH2 0x27C8 JUMP JUMPDEST DUP5 DUP5 SLOAD PUSH2 0x274D JUMP JUMPDEST DUP3 SSTORE POP POP POP POP JUMP JUMPDEST PUSH0 PUSH0 SWAP1 POP SWAP1 JUMP JUMPDEST PUSH2 0x2805 PUSH2 0x27F6 JUMP JUMPDEST PUSH2 0x2810 DUP2 DUP5 DUP5 PUSH2 0x27D1 JUMP JUMPDEST POP POP POP JUMP JUMPDEST JUMPDEST DUP2 DUP2 LT ISZERO PUSH2 0x2833 JUMPI PUSH2 0x2828 PUSH0 DUP3 PUSH2 0x27FD JUMP JUMPDEST PUSH1 0x1 DUP2 ADD SWAP1 POP PUSH2 0x2816 JUMP JUMPDEST POP POP JUMP JUMPDEST PUSH1 0x1F DUP3 GT ISZERO PUSH2 0x2878 JUMPI PUSH2 0x2849 DUP2 PUSH2 0x2720 JUMP JUMPDEST PUSH2 0x2852 DUP5 PUSH2 0x2732 JUMP JUMPDEST DUP2 ADD PUSH1 0x20 DUP6 LT ISZERO PUSH2 0x2861 JUMPI DUP2 SWAP1 POP JUMPDEST PUSH2 0x2875 PUSH2 0x286D DUP6 PUSH2 0x2732 JUMP JUMPDEST DUP4 ADD DUP3 PUSH2 0x2815 JUMP JUMPDEST POP POP JUMPDEST POP POP POP JUMP JUMPDEST PUSH0 DUP3 DUP3 SHR SWAP1 POP SWAP3 SWAP2 POP POP JUMP JUMPDEST PUSH0 PUSH2 0x2898 PUSH0 NOT DUP5 PUSH1 0x8 MUL PUSH2 0x287D JUMP JUMPDEST NOT DUP1 DUP4 AND SWAP2 POP POP SWAP3 SWAP2 POP POP JUMP JUMPDEST PUSH0 PUSH2 0x28B0 DUP4 DUP4 PUSH2 0x2889 JUMP JUMPDEST SWAP2 POP DUP3 PUSH1 0x2 MUL DUP3 OR SWAP1 POP SWAP3 SWAP2 POP POP JUMP JUMPDEST PUSH2 0x28C9 DUP3 PUSH2 0x1E20 JUMP JUMPDEST PUSH8 0xFFFFFFFFFFFFFFFF DUP2 GT ISZERO PUSH2 0x28E2 JUMPI PUSH2 0x28E1 PUSH2 0x23A9 JUMP JUMPDEST JUMPDEST PUSH2 0x28EC DUP3 SLOAD PUSH2 0x2566 JUMP JUMPDEST PUSH2 0x28F7 DUP3 DUP3 DUP6 PUSH2 0x2837 JUMP JUMPDEST PUSH0 PUSH1 0x20 SWAP1 POP PUSH1 0x1F DUP4 GT PUSH1 0x1 DUP2 EQ PUSH2 0x2928 JUMPI PUSH0 DUP5 ISZERO PUSH2 0x2916 JUMPI DUP3 DUP8 ADD MLOAD SWAP1 POP JUMPDEST PUSH2 0x2920 DUP6 DUP3 PUSH2 0x28A5 JUMP JUMPDEST DUP7 SSTORE POP PUSH2 0x2987 JUMP JUMPDEST PUSH1 0x1F NOT DUP5 AND PUSH2 0x2936 DUP7 PUSH2 0x2720 JUMP JUMPDEST PUSH0 JUMPDEST DUP3 DUP2 LT ISZERO PUSH2 0x295D JUMPI DUP5 DUP10 ADD MLOAD DUP3 SSTORE PUSH1 0x1 DUP3 ADD SWAP2 POP PUSH1 0x20 DUP6 ADD SWAP5 POP PUSH1 0x20 DUP2 ADD SWAP1 POP PUSH2 0x2938 JUMP JUMPDEST DUP7 DUP4 LT ISZERO PUSH2 0x297A JUMPI DUP5 DUP10 ADD MLOAD PUSH2 0x2976 PUSH1 0x1F DUP10 AND DUP3 PUSH2 0x2889 JUMP JUMPDEST DUP4 SSTORE POP JUMPDEST PUSH1 0x1 PUSH1 0x2 DUP9 MUL ADD DUP9 SSTORE POP POP POP JUMPDEST POP POP POP POP POP POP JUMP JUMPDEST PUSH0 PUSH1 0x60 DUP3 ADD SWAP1 POP PUSH2 0x29A2 PUSH0 DUP4 ADD DUP7 PUSH2 0x20C1 JUMP JUMPDEST PUSH2 0x29AF PUSH1 0x20 DUP4 ADD DUP6 PUSH2 0x1FEA JUMP JUMPDEST PUSH2 0x29BC PUSH1 0x40 DUP4 ADD DUP5 PUSH2 0x1FEA JUMP JUMPDEST SWAP5 SWAP4 POP POP POP POP JUMP JUMPDEST PUSH32 0x4D696E7420726563697069656E74206E6F742077686974656C69737465640000 PUSH0 DUP3 ADD MSTORE POP JUMP JUMPDEST PUSH0 PUSH2 0x29F8 PUSH1 0x1E DUP4 PUSH2 0x1E2A JUMP JUMPDEST SWAP2 POP PUSH2 0x2A03 DUP3 PUSH2 0x29C4 JUMP JUMPDEST PUSH1 0x20 DUP3 ADD SWAP1 POP SWAP2 SWAP1 POP JUMP JUMPDEST PUSH0 PUSH1 0x20 DUP3 ADD SWAP1 POP DUP2 DUP2 SUB PUSH0 DUP4 ADD MSTORE PUSH2 0x2A25 DUP2 PUSH2 0x29EC JUMP JUMPDEST SWAP1 POP SWAP2 SWAP1 POP JUMP JUMPDEST PUSH0 PUSH2 0x2A36 DUP3 PUSH2 0x1F1B JUMP JUMPDEST SWAP2 POP PUSH2 0x2A41 DUP4 PUSH2 0x1F1B JUMP JUMPDEST SWAP3 POP DUP3 DUP3 ADD SWAP1 POP DUP1 DUP3 GT ISZERO PUSH2 0x2A59 JUMPI PUSH2 0x2A58 PUSH2 0x2693 JUMP JUMPDEST JUMPDEST SWAP3 SWAP2 POP POP JUMP INVALID LOG2 PUSH5 0x6970667358 0x22 SLT KECCAK256 ORIGIN SIGNEXTEND SWAP14 0xD9 PC STATICCALL 0xC2 0x2B RJUMPI 0x62E2 DUP14 0xD4 MULMOD DUP12 0xA7 0xB7 CODESIZE SSTORE RETURNDATASIZE 0x4F 0x4B MOD TSTORE EXTSTATICCALL RETF SIGNEXTEND MCOPY PUSH10 0xBF107264736F6C634300 ADDMOD 0x1E STOP CALLER "
				},
				"gasEstimates": {
					"creation": {
						"codeDepositCost": "2180200",
						"executionCost": "infinite",
						"totalCost": "infinite"
					},
					"external": {
						"addStudent(address,string,uint256)": "infinite",
						"allStudentIds(uint256)": "infinite",
						"allowance(address,address)": "infinite",
						"approve(address,uint256)": "infinite",
						"balanceOf(address)": "2917",
						"burn(address,uint256)": "infinite",
						"decimals()": "361",
						"getAllStudents()": "infinite",
						"getStudentById(uint256)": "infinite",
						"idToWallet(uint256)": "2916",
						"mint(address,uint256)": "infinite",
						"name()": "infinite",
						"owner()": "2538",
						"removeStudent(uint256)": "infinite",
						"renounceOwnership()": "infinite",
						"students(address)": "infinite",
						"symbol()": "infinite",
						"totalSupply()": "2522",
						"transfer(address,uint256)": "infinite",
						"transferFrom(address,address,uint256)": "infinite",
						"transferOwnership(address)": "infinite"
					},
					"internal": {
						"_update(address,address,uint256)": "infinite"
					}
				},
				"methodIdentifiers": {
					"addStudent(address,string,uint256)": "f041f73f",
					"allStudentIds(uint256)": "0e808188",
					"allowance(address,address)": "dd62ed3e",
					"approve(address,uint256)": "095ea7b3",
					"balanceOf(address)": "70a08231",
					"burn(address,uint256)": "9dc29fac",
					"decimals()": "313ce567",
					"getAllStudents()": "e9e30927",
					"getStudentById(uint256)": "c8fb0793",
					"idToWallet(uint256)": "a6b46bbc",
					"mint(address,uint256)": "40c10f19",
					"name()": "06fdde03",
					"owner()": "8da5cb5b",
					"removeStudent(uint256)": "6af83845",
					"renounceOwnership()": "715018a6",
					"students(address)": "a6c807a9",
					"symbol()": "95d89b41",
					"totalSupply()": "18160ddd",
					"transfer(address,uint256)": "a9059cbb",
					"transferFrom(address,address,uint256)": "23b872dd",
					"transferOwnership(address)": "f2fde38b"
				}
			},
			"storageLayout": {
				"storage": [
					{
						"astId": 307,
						"contract": "src/SBC.sol:StevensBananaCoin",
						"label": "_balances",
						"offset": 0,
						"slot": "0",
						"type": "t_mapping(t_address,t_uint256)"
					},
					{
						"astId": 313,
						"contract": "src/SBC.sol:StevensBananaCoin",
						"label": "_allowances",
						"offset": 0,
						"slot": "1",
						"type": "t_mapping(t_address,t_mapping(t_address,t_uint256))"
					},
					{
						"astId": 315,
						"contract": "src/SBC.sol:StevensBananaCoin",
						"label": "_totalSupply",
						"offset": 0,
						"slot": "2",
						"type": "t_uint256"
					},
					{
						"astId": 317,
						"contract": "src/SBC.sol:StevensBananaCoin",
						"label": "_name",
						"offset": 0,
						"slot": "3",
						"type": "t_string_storage"
					},
					{
						"astId": 319,
						"contract": "src/SBC.sol:StevensBananaCoin",
						"label": "_symbol",
						"offset": 0,
						"slot": "4",
						"type": "t_string_storage"
					},
					{
						"astId": 8,
						"contract": "src/SBC.sol:StevensBananaCoin",
						"label": "_owner",
						"offset": 0,
						"slot": "5",
						"type": "t_address"
					},
					{
						"astId": 957,
						"contract": "src/SBC.sol:StevensBananaCoin",
						"label": "students",
						"offset": 0,
						"slot": "6",
						"type": "t_mapping(t_address,t_struct(Student)952_storage)"
					},
					{
						"astId": 961,
						"contract": "src/SBC.sol:StevensBananaCoin",
						"label": "idToWallet",
						"offset": 0,
						"slot": "7",
						"type": "t_mapping(t_uint256,t_address)"
					},
					{
						"astId": 964,
						"contract": "src/SBC.sol:StevensBananaCoin",
						"label": "allStudentIds",
						"offset": 0,
						"slot": "8",
						"type": "t_array(t_uint256)dyn_storage"
					}
				],
				"types": {
					"t_address": {
						"encoding": "inplace",
						"label": "address",
						"numberOfBytes": "20"
					},
					"t_array(t_uint256)dyn_storage": {
						"base": "t_uint256",
						"encoding": "dynamic_array",
						"label": "uint256[]",
						"numberOfBytes": "32"
					},
					"t_bool": {
						"encoding": "inplace",
						"label": "bool",
						"numberOfBytes": "1"
					},
					"t_mapping(t_address,t_mapping(t_address,t_uint256))": {
						"encoding": "mapping",
						"key": "t_address",
						"label": "mapping(address => mapping(address => uint256))",
						"numberOfBytes": "32",
						"value": "t_mapping(t_address,t_uint256)"
					},
					"t_mapping(t_address,t_struct(Student)952_storage)": {
						"encoding": "mapping",
						"key": "t_address",
						"label": "mapping(address => struct StevensBananaCoin.Student)",
						"numberOfBytes": "32",
						"value": "t_struct(Student)952_storage"
					},
					"t_mapping(t_address,t_uint256)": {
						"encoding": "mapping",
						"key": "t_address",
						"label": "mapping(address => uint256)",
						"numberOfBytes": "32",
						"value": "t_uint256"
					},
					"t_mapping(t_uint256,t_address)": {
						"encoding": "mapping",
						"key": "t_uint256",
						"label": "mapping(uint256 => address)",
						"numberOfBytes": "32",
						"value": "t_address"
					},
					"t_string_storage": {
						"encoding": "bytes",
						"label": "string",
						"numberOfBytes": "32"
					},
					"t_struct(Student)952_storage": {
						"encoding": "inplace",
						"label": "struct StevensBananaCoin.Student",
						"members": [
							{
								"astId": 945,
								"contract": "src/SBC.sol:StevensBananaCoin",
								"label": "name",
								"offset": 0,
								"slot": "0",
								"type": "t_string_storage"
							},
							{
								"astId": 947,
								"contract": "src/SBC.sol:StevensBananaCoin",
								"label": "studentId",
								"offset": 0,
								"slot": "1",
								"type": "t_uint256"
							},
							{
								"astId": 949,
								"contract": "src/SBC.sol:StevensBananaCoin",
								"label": "isWhitelisted",
								"offset": 0,
								"slot": "2",
								"type": "t_bool"
							},
							{
								"astId": 951,
								"contract": "src/SBC.sol:StevensBananaCoin",
								"label": "wallet",
								"offset": 1,
								"slot": "2",
								"type": "t_address"
							}
						],
						"numberOfBytes": "96"
					},
					"t_uint256": {
						"encoding": "inplace",
						"label": "uint256",
						"numberOfBytes": "32"
					}
				}
			},
			"userdoc": {
				"kind": "user",
				"methods": {},
				"version": 1
			}
		}
	}
}