{"abi":[{"type":"constructor","inputs":[],"stateMutability":"nonpayable"},{"type":"function","name":"addStudent","inputs":[{"name":"wallet","type":"address","internalType":"address"},{"name":"name","type":"string","internalType":"string"},{"name":"studentId","type":"uint256","internalType":"uint256"}],"outputs":[],"stateMutability":"nonpayable"},{"type":"function","name":"allStudentIds","inputs":[{"name":"","type":"uint256","internalType":"uint256"}],"outputs":[{"name":"","type":"uint256","internalType":"uint256"}],"stateMutability":"view"},{"type":"function","name":"allowance","inputs":[{"name":"owner","type":"address","internalType":"address"},{"name":"spender","type":"address","internalType":"address"}],"outputs":[{"name":"","type":"uint256","internalType":"uint256"}],"stateMutability":"view"},{"type":"function","name":"approve","inputs":[{"name":"spender","type":"address","internalType":"address"},{"name":"value","type":"uint256","internalType":"uint256"}],"outputs":[{"name":"","type":"bool","internalType":"bool"}],"stateMutability":"nonpayable"},{"type":"function","name":"balanceOf","inputs":[{"name":"account","type":"address","internalType":"address"}],"outputs":[{"name":"","type":"uint256","internalType":"uint256"}],"stateMutability":"view"},{"type":"function","name":"burn","inputs":[{"name":"from","type":"address","internalType":"address"},{"name":"amount","type":"uint256","internalType":"uint256"}],"outputs":[],"stateMutability":"nonpayable"},{"type":"function","name":"decimals","inputs":[],"outputs":[{"name":"","type":"uint8","internalType":"uint8"}],"stateMutability":"view"},{"type":"function","name":"getAllStudents","inputs":[],"outputs":[{"name":"","type":"tuple[]","internalType":"struct StevensBananaCoin.Student[]","components":[{"name":"name","type":"string","internalType":"string"},{"name":"studentId","type":"uint256","internalType":"uint256"},{"name":"isWhitelisted","type":"bool","internalType":"bool"},{"name":"wallet","type":"address","internalType":"address"}]}],"stateMutability":"view"},{"type":"function","name":"getStudentById","inputs":[{"name":"studentId","type":"uint256","internalType":"uint256"}],"outputs":[{"name":"","type":"tuple","internalType":"struct StevensBananaCoin.Student","components":[{"name":"name","type":"string","internalType":"string"},{"name":"studentId","type":"uint256","internalType":"uint256"},{"name":"isWhitelisted","type":"bool","internalType":"bool"},{"name":"wallet","type":"address","internalType":"address"}]}],"stateMutability":"view"},{"type":"function","name":"idToWallet","inputs":[{"name":"","type":"uint256","internalType":"uint256"}],"outputs":[{"name":"","type":"address","internalType":"address"}],"stateMutability":"view"},{"type":"function","name":"mint","inputs":[{"name":"to","type":"address","internalType":"address"},{"name":"amount","type":"uint256","internalType":"uint256"}],"outputs":[],"stateMutability":"nonpayable"},{"type":"function","name":"name","inputs":[],"outputs":[{"name":"","type":"string","internalType":"string"}],"stateMutability":"view"},{"type":"function","name":"owner","inputs":[],"outputs":[{"name":"","type":"address","internalType":"address"}],"stateMutability":"view"},{"type":"function","name":"removeStudent","inputs":[{"name":"studentId","type":"uint256","internalType":"uint256"}],"outputs":[],"stateMutability":"nonpayable"},{"type":"function","name":"renounceOwnership","inputs":[],"outputs":[],"stateMutability":"nonpayable"},{"type":"function","name":"students","inputs":[{"name":"","type":"address","internalType":"address"}],"outputs":[{"name":"name","type":"string","internalType":"string"},{"name":"studentId","type":"uint256","internalType":"uint256"},{"name":"isWhitelisted","type":"bool","internalType":"bool"},{"name":"wallet","type":"address","internalType":"address"}],"stateMutability":"view"},{"type":"function","name":"symbol","inputs":[],"outputs":[{"name":"","type":"string","internalType":"string"}],"stateMutability":"view"},{"type":"function","name":"totalSupply","inputs":[],"outputs":[{"name":"","type":"uint256","internalType":"uint256"}],"stateMutability":"view"},{"type":"function","name":"transfer","inputs":[{"name":"to","type":"address","internalType":"address"},{"name":"value","type":"uint256","internalType":"uint256"}],"outputs":[{"name":"","type":"bool","internalType":"bool"}],"stateMutability":"nonpayable"},{"type":"function","name":"transferFrom","inputs":[{"name":"from","type":"address","internalType":"address"},{"name":"to","type":"address","internalType":"address"},{"name":"value","type":"uint256","internalType":"uint256"}],"outputs":[{"name":"","type":"bool","internalType":"bool"}],"stateMutability":"nonpayable"},{"type":"function","name":"transferOwnership","inputs":[{"name":"newOwner","type":"address","internalType":"address"}],"outputs":[],"stateMutability":"nonpayable"},{"type":"event","name":"Approval","inputs":[{"name":"owner","type":"address","indexed":true,"internalType":"address"},{"name":"spender","type":"address","indexed":true,"internalType":"address"},{"name":"value","type":"uint256","indexed":false,"internalType":"uint256"}],"anonymous":false},{"type":"event","name":"OwnershipTransferred","inputs":[{"name":"previousOwner","type":"address","indexed":true,"internalType":"address"},{"name":"newOwner","type":"address","indexed":true,"internalType":"address"}],"anonymous":false},{"type":"event","name":"StudentAdded","inputs":[{"name":"wallet","type":"address","indexed":true,"internalType":"address"},{"name":"name","type":"string","indexed":false,"internalType":"string"},{"name":"studentId","type":"uint256","indexed":true,"internalType":"uint256"}],"anonymous":false},{"type":"event","name":"StudentRemoved","inputs":[{"name":"studentId","type":"uint256","indexed":true,"internalType":"uint256"},{"name":"wallet","type":"address","indexed":true,"internalType":"address"}],"anonymous":false},{"type":"event","name":"TokensBurned","inputs":[{"name":"from","type":"address","indexed":true,"internalType":"address"},{"name":"amount","type":"uint256","indexed":false,"internalType":"uint256"}],"anonymous":false},{"type":"event","name":"TokensMinted","inputs":[{"name":"to","type":"address","indexed":true,"internalType":"address"},{"name":"amount","type":"uint256","indexed":false,"internalType":"uint256"}],"anonymous":false},{"type":"event","name":"Transfer","inputs":[{"name":"from","type":"address","indexed":true,"internalType":"address"},{"name":"to","type":"address","indexed":true,"internalType":"address"},{"name":"value","type":"uint256","indexed":false,"internalType":"uint256"}],"anonymous":false},{"type":"error","name":"ERC20InsufficientAllowance","inputs":[{"name":"spender","type":"address","internalType":"address"},{"name":"allowance","type":"uint256","internalType":"uint256"},{"name":"needed","type":"uint256","internalType":"uint256"}]},{"type":"error","name":"ERC20InsufficientBalance","inputs":[{"name":"sender","type":"address","internalType":"address"},{"name":"balance","type":"uint256","internalType":"uint256"},{"name":"needed","type":"uint256","internalType":"uint256"}]},{"type":"error","name":"ERC20InvalidApprover","inputs":[{"name":"approver","type":"address","internalType":"address"}]},{"type":"error","name":"ERC20InvalidReceiver","inputs":[{"name":"receiver","type":"address","internalType":"address"}]},{"type":"error","name":"ERC20InvalidSender","inputs":[{"name":"sender","type":"address","internalType":"address"}]},{"type":"error","name":"ERC20InvalidSpender","inputs":[{"name":"spender","type":"address","internalType":"address"}]},{"type":"error","name":"OwnableInvalidOwner","inputs":[{"name":"owner","type":"address","internalType":"address"}]},{"type":"error","name":"OwnableUnauthorizedAccount","inputs":[{"name":"account","type":"address","internalType":"address"}]}],"bytecode":{"object":"0x608060405234801562000010575f80fd5b50336040518060400160405280601381526020017f53746576656e732042616e616e6120436f696e000000000000000000000000008152506040518060400160405280600381526020016253424360e81b8152508160039081620000759190620001b6565b506004620000848282620001b6565b5050506001600160a01b038116620000b557604051631e4fbdf760e01b81525f600482015260240160405180910390fd5b620000c081620000c7565b5062000282565b600580546001600160a01b038381166001600160a01b0319831681179093556040519116919082907f8be0079c531659141344cd1fd0a4f28419497f9722a3daafe3b4186f6b6457e0905f90a35050565b634e487b7160e01b5f52604160045260245ffd5b600181811c908216806200014157607f821691505b6020821081036200016057634e487b7160e01b5f52602260045260245ffd5b50919050565b601f821115620001b157805f5260205f20601f840160051c810160208510156200018d5750805b601f840160051c820191505b81811015620001ae575f815560010162000199565b50505b505050565b81516001600160401b03811115620001d257620001d262000118565b620001ea81620001e384546200012c565b8462000166565b602080601f83116001811462000220575f8415620002085750858301515b5f19600386901b1c1916600185901b1785556200027a565b5f85815260208120601f198616915b8281101562000250578886015182559484019460019091019084016200022f565b50858210156200026e57878501515f19600388901b60f8161c191681555b505060018460011b0185555b505050505050565b61174380620002905f395ff3fe608060405234801561000f575f80fd5b5060043610610132575f3560e01c80638da5cb5b116100b4578063a9059cbb11610079578063a9059cbb146102a5578063c8fb0793146102b8578063dd62ed3e146102d8578063e9e3092714610310578063f041f73f14610325578063f2fde38b14610338575f80fd5b80638da5cb5b1461021a57806395d89b411461023f5780639dc29fac14610247578063a6b46bbc1461025a578063a6c807a914610282575f80fd5b8063313ce567116100fa578063313ce567146101b357806340c10f19146101c25780636af83845146101d757806370a08231146101ea578063715018a614610212575f80fd5b806306fdde0314610136578063095ea7b3146101545780630e8081881461017757806318160ddd1461019857806323b872dd146101a0575b5f80fd5b61013e61034b565b60405161014b91906112ad565b60405180910390f35b6101676101623660046112e1565b6103db565b604051901515815260200161014b565b61018a610185366004611309565b6103f4565b60405190815260200161014b565b60025461018a565b6101676101ae366004611320565b610413565b6040516012815260200161014b565b6101d56101d03660046112e1565b610436565b005b6101d56101e5366004611309565b6104fa565b61018a6101f8366004611359565b6001600160a01b03165f9081526020819052604090205490565b6101d5610696565b6005546001600160a01b03165b6040516001600160a01b03909116815260200161014b565b61013e6106a9565b6101d56102553660046112e1565b6106b8565b610227610268366004611309565b60076020525f90815260409020546001600160a01b031681565b610295610290366004611359565b610705565b60405161014b9493929190611372565b6101676102b33660046112e1565b6107bf565b6102cb6102c6366004611309565b6107cc565b60405161014b91906113f1565b61018a6102e6366004611403565b6001600160a01b039182165f90815260016020908152604080832093909416825291909152205490565b610318610921565b60405161014b9190611434565b6101d56103333660046114aa565b610af7565b6101d5610346366004611359565b610d2c565b60606003805461035a9061156e565b80601f01602080910402602001604051908101604052809291908181526020018280546103869061156e565b80156103d15780601f106103a8576101008083540402835291602001916103d1565b820191905f5260205f20905b8154815290600101906020018083116103b457829003601f168201915b5050505050905090565b5f336103e8818585610d69565b60019150505b92915050565b60088181548110610403575f80fd5b5f91825260209091200154905081565b5f33610420858285610d7b565b61042b858585610df7565b506001949350505050565b61043e610e54565b6001600160a01b0382165f9081526006602052604090206002015460ff166104a95760405162461bcd60e51b8152602060048201526019602482015278149958da5c1a595b9d081b9bdd081dda1a5d195b1a5cdd1959603a1b60448201526064015b60405180910390fd5b6104b38282610e81565b816001600160a01b03167f3f2c9d57c068687834f0de942a9babb9e5acab57d516d3480a3c16ee165a4273826040516104ee91815260200190565b60405180910390a25050565b610502610e54565b5f818152600760205260409020546001600160a01b03168061055f5760405162461bcd60e51b815260206004820152601660248201527514dd1d59195b9d08191bd95cc81b9bdd08195e1a5cdd60521b60448201526064016104a0565b6001600160a01b0381165f908152600660205260408120906105818282611220565b505f60018201819055600290910180546001600160a81b031916905582815260076020526040812080546001600160a01b03191690555b60085481101561065c5782600882815481106105d6576105d66115a0565b905f5260205f2001540361065457600880546105f4906001906115c8565b81548110610604576106046115a0565b905f5260205f20015460088281548110610620576106206115a0565b5f91825260209091200155600880548061063c5761063c6115db565b600190038181905f5260205f20015f9055905561065c565b6001016105b8565b506040516001600160a01b0382169083907f5a5f05ab7e4bb3b61b01fd908fb066ce1608190ad7e66ee978414d88cf0a99a9905f90a35050565b61069e610e54565b6106a75f610eb9565b565b60606004805461035a9061156e565b6106c0610e54565b6106ca8282610f0a565b816001600160a01b03167ffd38818f5291bf0bb3a2a48aadc06ba8757865d1dabd804585338aab3009dcb6826040516104ee91815260200190565b60066020525f908152604090208054819061071f9061156e565b80601f016020809104026020016040519081016040528092919081815260200182805461074b9061156e565b80156107965780601f1061076d57610100808354040283529160200191610796565b820191905f5260205f20905b81548152906001019060200180831161077957829003601f168201915b50505050600183015460029093015491929160ff8116915061010090046001600160a01b031684565b5f336103e8818585610df7565b6040805160808101825260608082525f602083018190529282018390528101919091525f828152600760205260409020546001600160a01b03168061083b5750506040805160a0810182525f608082018181528252602082018190529181018290526060810191909152919050565b6001600160a01b0381165f908152600660205260409081902081516080810190925280548290829061086c9061156e565b80601f01602080910402602001604051908101604052809291908181526020018280546108989061156e565b80156108e35780601f106108ba576101008083540402835291602001916108e3565b820191905f5260205f20905b8154815290600101906020018083116108c657829003601f168201915b50505091835250506001820154602082015260029091015460ff81161515604083015261010090046001600160a01b03166060909101529392505050565b6008546060905f9067ffffffffffffffff81111561094157610941611496565b60405190808252806020026020018201604052801561099257816020015b6040805160808101825260608082525f60208084018290529383018190529082015282525f1990920191018161095f5790505b5090505f5b600854811015610af15760065f60075f600885815481106109ba576109ba6115a0565b905f5260205f20015481526020019081526020015f205f9054906101000a90046001600160a01b03166001600160a01b03166001600160a01b031681526020019081526020015f206040518060800160405290815f82018054610a1c9061156e565b80601f0160208091040260200160405190810160405280929190818152602001828054610a489061156e565b8015610a935780601f10610a6a57610100808354040283529160200191610a93565b820191905f5260205f20905b815481529060010190602001808311610a7657829003601f168201915b50505091835250506001820154602082015260029091015460ff81161515604083015261010090046001600160a01b03166060909101528251839083908110610ade57610ade6115a0565b6020908102919091010152600101610997565b50919050565b610aff610e54565b5f818152600760205260409020546001600160a01b03168015610c01576001600160a01b0381165f90815260066020526040812090610b3e8282611220565b505f60018201819055600290910180546001600160a81b03191690555b600854811015610bff578260088281548110610b7957610b796115a0565b905f5260205f20015403610bf75760088054610b97906001906115c8565b81548110610ba757610ba76115a0565b905f5260205f20015460088281548110610bc357610bc36115a0565b5f918252602090912001556008805480610bdf57610bdf6115db565b600190038181905f5260205f20015f90559055610bff565b600101610b5b565b505b6040805160808101825284815260208082018590526001828401526001600160a01b038716606083018190525f90815260069091529190912081518190610c48908261163a565b50602082810151600183810191909155604080850151600290940180546060909601516001600160a81b0319909616941515610100600160a81b031916949094176101006001600160a01b0396871602179093555f868152600790925282822080546001600160a01b03191694891694851790556008805491820181559091527ff3f7a9fe364faab93b216da50a3214154f22a0a2b415b23a84c8169e8b636ee301849055518391907fac4a9513a5c8018262c0b02f41b831ce95aeefa4b387b7c565885fb0d0012d8690610d1e9087906112ad565b60405180910390a350505050565b610d34610e54565b6001600160a01b038116610d5d57604051631e4fbdf760e01b81525f60048201526024016104a0565b610d6681610eb9565b50565b610d768383836001610f3e565b505050565b6001600160a01b038381165f908152600160209081526040808320938616835292905220545f19811015610df15781811015610de357604051637dc7a0d960e11b81526001600160a01b038416600482015260248101829052604481018390526064016104a0565b610df184848484035f610f3e565b50505050565b6001600160a01b038316610e2057604051634b637e8f60e11b81525f60048201526024016104a0565b6001600160a01b038216610e495760405163ec442f0560e01b81525f60048201526024016104a0565b610d76838383611002565b6005546001600160a01b031633146106a75760405163118cdaa760e01b81523360048201526024016104a0565b6001600160a01b038216610eaa5760405163ec442f0560e01b81525f60048201526024016104a0565b610eb55f8383611002565b5050565b600580546001600160a01b038381166001600160a01b0319831681179093556040519116919082907f8be0079c531659141344cd1fd0a4f28419497f9722a3daafe3b4186f6b6457e0905f90a35050565b6001600160a01b038216610f3357604051634b637e8f60e11b81525f60048201526024016104a0565b610eb5825f83611002565b6001600160a01b038416610f675760405163e602df0560e01b81525f60048201526024016104a0565b6001600160a01b038316610f9057604051634a1406b160e11b81525f60048201526024016104a0565b6001600160a01b038085165f9081526001602090815260408083209387168352929052208290558015610df157826001600160a01b0316846001600160a01b03167f8c5be1e5ebec7d5bd14f71427d1e84f3dd0314c0f7b2291e5b200ac8c7c3b92584604051610d1e91815260200190565b6001600160a01b03831661107f576001600160a01b0382165f9081526006602052604090206002015460ff1661107a5760405162461bcd60e51b815260206004820152601e60248201527f4d696e7420726563697069656e74206e6f742077686974656c6973746564000060448201526064016104a0565b6110f4565b6001600160a01b038216156110f4576001600160a01b0382165f9081526006602052604090206002015460ff166110f45760405162461bcd60e51b8152602060048201526019602482015278149958da5c1a595b9d081b9bdd081dda1a5d195b1a5cdd1959603a1b60448201526064016104a0565b610d768383836001600160a01b038316611124578060025f82825461111991906116fa565b909155506111949050565b6001600160a01b0383165f90815260208190526040902054818110156111765760405163391434e360e21b81526001600160a01b038516600482015260248101829052604481018390526064016104a0565b6001600160a01b0384165f9081526020819052604090209082900390555b6001600160a01b0382166111b0576002805482900390556111ce565b6001600160a01b0382165f9081526020819052604090208054820190555b816001600160a01b0316836001600160a01b03167fddf252ad1be2c89b69c2b068fc378daa952ba7f163c4a11628f55a4df523b3ef8360405161121391815260200190565b60405180910390a3505050565b50805461122c9061156e565b5f825580601f1061123b575050565b601f0160209004905f5260205f2090810190610d6691905b80821115611266575f8155600101611253565b5090565b5f81518084525f5b8181101561128e57602081850181015186830182015201611272565b505f602082860101526020601f19601f83011685010191505092915050565b602081525f6112bf602083018461126a565b9392505050565b80356001600160a01b03811681146112dc575f80fd5b919050565b5f80604083850312156112f2575f80fd5b6112fb836112c6565b946020939093013593505050565b5f60208284031215611319575f80fd5b5035919050565b5f805f60608486031215611332575f80fd5b61133b846112c6565b9250611349602085016112c6565b9150604084013590509250925092565b5f60208284031215611369575f80fd5b6112bf826112c6565b608081525f611384608083018761126a565b60208301959095525091151560408301526001600160a01b0316606090910152919050565b5f8151608084526113bd608085018261126a565b602084810151908601526040808501511515908601526060938401516001600160a01b031693909401929092525090919050565b602081525f6112bf60208301846113a9565b5f8060408385031215611414575f80fd5b61141d836112c6565b915061142b602084016112c6565b90509250929050565b5f60208083016020845280855180835260408601915060408160051b8701019250602087015f5b8281101561148957603f198886030184526114778583516113a9565b9450928501929085019060010161145b565b5092979650505050505050565b634e487b7160e01b5f52604160045260245ffd5b5f805f606084860312156114bc575f80fd5b6114c5846112c6565b9250602084013567ffffffffffffffff808211156114e1575f80fd5b818601915086601f8301126114f4575f80fd5b81358181111561150657611506611496565b604051601f8201601f19908116603f0116810190838211818310171561152e5761152e611496565b81604052828152896020848701011115611546575f80fd5b826020860160208301375f602084830101528096505050505050604084013590509250925092565b600181811c9082168061158257607f821691505b602082108103610af157634e487b7160e01b5f52602260045260245ffd5b634e487b7160e01b5f52603260045260245ffd5b634e487b7160e01b5f52601160045260245ffd5b818103818111156103ee576103ee6115b4565b634e487b7160e01b5f52603160045260245ffd5b601f821115610d7657805f5260205f20601f840160051c810160208510156116145750805b601f840160051c820191505b81811015611633575f8155600101611620565b5050505050565b815167ffffffffffffffff81111561165457611654611496565b61166881611662845461156e565b846115ef565b602080601f83116001811461169b575f84156116845750858301515b5f19600386901b1c1916600185901b1785556116f2565b5f85815260208120601f198616915b828110156116c9578886015182559484019460019091019084016116aa565b50858210156116e657878501515f19600388901b60f8161c191681555b505060018460011b0185555b505050505050565b808201808211156103ee576103ee6115b456fea2646970667358221220b5348d11d736c9642e89b7bff62f19658a1700d290d4f1b3c81da4d08d78e29264736f6c63430008180033","linkReferences":{}},"methodIdentifiers":{"addStudent(address,string,uint256)":"f041f73f","allStudentIds(uint256)":"0e808188","allowance(address,address)":"dd62ed3e","approve(address,uint256)":"095ea7b3","balanceOf(address)":"70a08231","burn(address,uint256)":"9dc29fac","decimals()":"313ce567","getAllStudents()":"e9e30927","getStudentById(uint256)":"c8fb0793","idToWallet(uint256)":"a6b46bbc","mint(address,uint256)":"40c10f19","name()":"06fdde03","owner()":"8da5cb5b","removeStudent(uint256)":"6af83845","renounceOwnership()":"715018a6","students(address)":"a6c807a9","symbol()":"95d89b41","totalSupply()":"18160ddd","transfer(address,uint256)":"a9059cbb","transferFrom(address,address,uint256)":"23b872dd","transferOwnership(address)":"f2fde38b"},"id":41}