{"abi":[{"type":"constructor","inputs":[],"stateMutability":"nonpayable"},{"type":"function","name":"addStudent","inputs":[{"name":"wallet","type":"address","internalType":"address"},{"name":"name","type":"string","internalType":"string"},{"name":"studentId","type":"uint256","internalType":"uint256"},{"name":"priority","type":"uint256","internalType":"uint256"},{"name":"total_amount_outstanding","type":"uint256","internalType":"uint256"}],"outputs":[],"stateMutability":"nonpayable"},{"type":"function","name":"allStudentIds","inputs":[{"name":"","type":"uint256","internalType":"uint256"}],"outputs":[{"name":"","type":"uint256","internalType":"uint256"}],"stateMutability":"view"},{"type":"function","name":"allowance","inputs":[{"name":"owner","type":"address","internalType":"address"},{"name":"spender","type":"address","internalType":"address"}],"outputs":[{"name":"","type":"uint256","internalType":"uint256"}],"stateMutability":"view"},{"type":"function","name":"approve","inputs":[{"name":"spender","type":"address","internalType":"address"},{"name":"value","type":"uint256","internalType":"uint256"}],"outputs":[{"name":"","type":"bool","internalType":"bool"}],"stateMutability":"nonpayable"},{"type":"function","name":"balanceOf","inputs":[{"name":"account","type":"address","internalType":"address"}],"outputs":[{"name":"","type":"uint256","internalType":"uint256"}],"stateMutability":"view"},{"type":"function","name":"burn","inputs":[{"name":"from","type":"address","internalType":"address"},{"name":"amount","type":"uint256","internalType":"uint256"}],"outputs":[],"stateMutability":"nonpayable"},{"type":"function","name":"decimals","inputs":[],"outputs":[{"name":"","type":"uint8","internalType":"uint8"}],"stateMutability":"view"},{"type":"function","name":"distribute","inputs":[{"name":"totalAmount","type":"uint256","internalType":"uint256"}],"outputs":[],"stateMutability":"nonpayable"},{"type":"function","name":"getAllStudents","inputs":[],"outputs":[{"name":"","type":"tuple[]","internalType":"struct StevensBananaCoin.Student[]","components":[{"name":"name","type":"string","internalType":"string"},{"name":"studentId","type":"uint256","internalType":"uint256"},{"name":"isWhitelisted","type":"bool","internalType":"bool"},{"name":"wallet","type":"address","internalType":"address"},{"name":"priority","type":"uint256","internalType":"uint256"},{"name":"total_amount_outstanding","type":"uint256","internalType":"uint256"}]}],"stateMutability":"view"},{"type":"function","name":"getStudentById","inputs":[{"name":"studentId","type":"uint256","internalType":"uint256"}],"outputs":[{"name":"","type":"tuple","internalType":"struct StevensBananaCoin.Student","components":[{"name":"name","type":"string","internalType":"string"},{"name":"studentId","type":"uint256","internalType":"uint256"},{"name":"isWhitelisted","type":"bool","internalType":"bool"},{"name":"wallet","type":"address","internalType":"address"},{"name":"priority","type":"uint256","internalType":"uint256"},{"name":"total_amount_outstanding","type":"uint256","internalType":"uint256"}]}],"stateMutability":"view"},{"type":"function","name":"idToWallet","inputs":[{"name":"","type":"uint256","internalType":"uint256"}],"outputs":[{"name":"","type":"address","internalType":"address"}],"stateMutability":"view"},{"type":"function","name":"mint","inputs":[{"name":"to","type":"address","internalType":"address"},{"name":"amount","type":"uint256","internalType":"uint256"}],"outputs":[],"stateMutability":"nonpayable"},{"type":"function","name":"name","inputs":[],"outputs":[{"name":"","type":"string","internalType":"string"}],"stateMutability":"view"},{"type":"function","name":"owner","inputs":[],"outputs":[{"name":"","type":"address","internalType":"address"}],"stateMutability":"view"},{"type":"function","name":"removeStudent","inputs":[{"name":"studentId","type":"uint256","internalType":"uint256"}],"outputs":[],"stateMutability":"nonpayable"},{"type":"function","name":"renounceOwnership","inputs":[],"outputs":[],"stateMutability":"nonpayable"},{"type":"function","name":"students","inputs":[{"name":"","type":"address","internalType":"address"}],"outputs":[{"name":"name","type":"string","internalType":"string"},{"name":"studentId","type":"uint256","internalType":"uint256"},{"name":"isWhitelisted","type":"bool","internalType":"bool"},{"name":"wallet","type":"address","internalType":"address"},{"name":"priority","type":"uint256","internalType":"uint256"},{"name":"total_amount_outstanding","type":"uint256","internalType":"uint256"}],"stateMutability":"view"},{"type":"function","name":"symbol","inputs":[],"outputs":[{"name":"","type":"string","internalType":"string"}],"stateMutability":"view"},{"type":"function","name":"totalSupply","inputs":[],"outputs":[{"name":"","type":"uint256","internalType":"uint256"}],"stateMutability":"view"},{"type":"function","name":"transfer","inputs":[{"name":"to","type":"address","internalType":"address"},{"name":"value","type":"uint256","internalType":"uint256"}],"outputs":[{"name":"","type":"bool","internalType":"bool"}],"stateMutability":"nonpayable"},{"type":"function","name":"transferFrom","inputs":[{"name":"from","type":"address","internalType":"address"},{"name":"to","type":"address","internalType":"address"},{"name":"value","type":"uint256","internalType":"uint256"}],"outputs":[{"name":"","type":"bool","internalType":"bool"}],"stateMutability":"nonpayable"},{"type":"function","name":"transferOwnership","inputs":[{"name":"newOwner","type":"address","internalType":"address"}],"outputs":[],"stateMutability":"nonpayable"},{"type":"event","name":"AmountDistributed","inputs":[{"name":"to","type":"address","indexed":true,"internalType":"address"},{"name":"amount","type":"uint256","indexed":false,"internalType":"uint256"},{"name":"remainingOutstanding","type":"uint256","indexed":false,"internalType":"uint256"}],"anonymous":false},{"type":"event","name":"Approval","inputs":[{"name":"owner","type":"address","indexed":true,"internalType":"address"},{"name":"spender","type":"address","indexed":true,"internalType":"address"},{"name":"value","type":"uint256","indexed":false,"internalType":"uint256"}],"anonymous":false},{"type":"event","name":"OwnershipTransferred","inputs":[{"name":"previousOwner","type":"address","indexed":true,"internalType":"address"},{"name":"newOwner","type":"address","indexed":true,"internalType":"address"}],"anonymous":false},{"type":"event","name":"StudentAdded","inputs":[{"name":"wallet","type":"address","indexed":true,"internalType":"address"},{"name":"name","type":"string","indexed":false,"internalType":"string"},{"name":"studentId","type":"uint256","indexed":true,"internalType":"uint256"}],"anonymous":false},{"type":"event","name":"StudentRemoved","inputs":[{"name":"studentId","type":"uint256","indexed":true,"internalType":"uint256"},{"name":"wallet","type":"address","indexed":true,"internalType":"address"}],"anonymous":false},{"type":"event","name":"TokensBurned","inputs":[{"name":"from","type":"address","indexed":true,"internalType":"address"},{"name":"amount","type":"uint256","indexed":false,"internalType":"uint256"}],"anonymous":false},{"type":"event","name":"TokensMinted","inputs":[{"name":"to","type":"address","indexed":true,"internalType":"address"},{"name":"amount","type":"uint256","indexed":false,"internalType":"uint256"}],"anonymous":false},{"type":"event","name":"Transfer","inputs":[{"name":"from","type":"address","indexed":true,"internalType":"address"},{"name":"to","type":"address","indexed":true,"internalType":"address"},{"name":"value","type":"uint256","indexed":false,"internalType":"uint256"}],"anonymous":false},{"type":"error","name":"ERC20InsufficientAllowance","inputs":[{"name":"spender","type":"address","internalType":"address"},{"name":"allowance","type":"uint256","internalType":"uint256"},{"name":"needed","type":"uint256","internalType":"uint256"}]},{"type":"error","name":"ERC20InsufficientBalance","inputs":[{"name":"sender","type":"address","internalType":"address"},{"name":"balance","type":"uint256","internalType":"uint256"},{"name":"needed","type":"uint256","internalType":"uint256"}]},{"type":"error","name":"ERC20InvalidApprover","inputs":[{"name":"approver","type":"address","internalType":"address"}]},{"type":"error","name":"ERC20InvalidReceiver","inputs":[{"name":"receiver","type":"address","internalType":"address"}]},{"type":"error","name":"ERC20InvalidSender","inputs":[{"name":"sender","type":"address","internalType":"address"}]},{"type":"error","name":"ERC20InvalidSpender","inputs":[{"name":"spender","type":"address","internalType":"address"}]},{"type":"error","name":"OwnableInvalidOwner","inputs":[{"name":"owner","type":"address","internalType":"address"}]},{"type":"error","name":"OwnableUnauthorizedAccount","inputs":[{"name":"account","type":"address","internalType":"address"}]}],"bytecode":{"object":"0x608060405234801562000010575f80fd5b50336040518060400160405280601381526020017f53746576656e732042616e616e6120436f696e000000000000000000000000008152506040518060400160405280600381526020016253424360e81b8152508160039081620000759190620001b8565b506004620000848282620001b8565b5050506001600160a01b038116620000b557604051631e4fbdf760e01b81525f600482015260240160405180910390fd5b620000c081620000c7565b5062000280565b600580546001600160a01b038381166001600160a01b0319831681179093556040519116919082907f8be0079c531659141344cd1fd0a4f28419497f9722a3daafe3b4186f6b6457e0905f90a35050565b634e487b7160e01b5f52604160045260245ffd5b600181811c908216806200014157607f821691505b6020821081036200016057634e487b7160e01b5f52602260045260245ffd5b50919050565b601f821115620001b3575f81815260208120601f850160051c810160208610156200018e5750805b601f850160051c820191505b81811015620001af578281556001016200019a565b5050505b505050565b81516001600160401b03811115620001d457620001d462000118565b620001ec81620001e584546200012c565b8462000166565b602080601f83116001811462000222575f84156200020a5750858301515b5f19600386901b1c1916600185901b178555620001af565b5f85815260208120601f198616915b82811015620002525788860151825594840194600190910190840162000231565b50858210156200027057878501515f19600388901b60f8161c191681555b5050505050600190811b01905550565b611cf4806200028e5f395ff3fe608060405234801561000f575f80fd5b506004361061013d575f3560e01c806391c05b0b116100b4578063a6c807a911610079578063a6c807a9146102b3578063a9059cbb146102d8578063c8fb0793146102eb578063dd62ed3e1461030b578063e9e3092714610343578063f2fde38b14610358575f80fd5b806391c05b0b1461024a57806395d89b411461025d5780639dc29fac14610265578063a64a998b14610278578063a6b46bbc1461028b575f80fd5b8063313ce56711610105578063313ce567146101be57806340c10f19146101cd5780636af83845146101e257806370a08231146101f5578063715018a61461021d5780638da5cb5b14610225575f80fd5b806306fdde0314610141578063095ea7b31461015f5780630e8081881461018257806318160ddd146101a357806323b872dd146101ab575b5f80fd5b61014961036b565b6040516101569190611818565b60405180910390f35b61017261016d36600461184c565b6103fb565b6040519015158152602001610156565b610195610190366004611874565b610414565b604051908152602001610156565b600254610195565b6101726101b936600461188b565b610433565b60405160128152602001610156565b6101e06101db36600461184c565b610456565b005b6101e06101f0366004611874565b61051a565b6101956102033660046118c4565b6001600160a01b03165f9081526020819052604090205490565b6101e06106ce565b6005546001600160a01b03165b6040516001600160a01b039091168152602001610156565b6101e0610258366004611874565b6106e1565b610149610b71565b6101e061027336600461184c565b610b80565b6101e06102863660046118f1565b610bcd565b610232610299366004611874565b60076020525f90815260409020546001600160a01b031681565b6102c66102c13660046118c4565b610e40565b604051610156969594939291906119c6565b6101726102e636600461184c565b610f08565b6102fe6102f9366004611874565b610f15565b6040516101569190611a66565b610195610319366004611a78565b6001600160a01b039182165f90815260016020908152604080832093909416825291909152205490565b61034b611071565b6040516101569190611aa9565b6101e06103663660046118c4565b61124e565b60606003805461037a90611b09565b80601f01602080910402602001604051908101604052809291908181526020018280546103a690611b09565b80156103f15780601f106103c8576101008083540402835291602001916103f1565b820191905f5260205f20905b8154815290600101906020018083116103d457829003601f168201915b5050505050905090565b5f3361040881858561128b565b60019150505b92915050565b60088181548110610423575f80fd5b5f91825260209091200154905081565b5f3361044085828561129d565b61044b858585611313565b506001949350505050565b61045e611370565b6001600160a01b0382165f9081526006602052604090206002015460ff166104c95760405162461bcd60e51b8152602060048201526019602482015278149958da5c1a595b9d081b9bdd081dda1a5d195b1a5cdd1959603a1b60448201526064015b60405180910390fd5b6104d3828261139d565b816001600160a01b03167f3f2c9d57c068687834f0de942a9babb9e5acab57d516d3480a3c16ee165a42738260405161050e91815260200190565b60405180910390a25050565b610522611370565b5f818152600760205260409020546001600160a01b03168061057f5760405162461bcd60e51b815260206004820152601660248201527514dd1d59195b9d08191bd95cc81b9bdd08195e1a5cdd60521b60448201526064016104c0565b6001600160a01b0381165f908152600660205260408120906105a1828261174a565b505f600182018190556002820180546001600160a81b031916905560038201819055600490910181905582815260076020526040812080546001600160a01b03191690555b60085481101561069457826008828154811061060457610604611b3b565b905f5260205f20015403610682576008805461062290600190611b63565b8154811061063257610632611b3b565b905f5260205f2001546008828154811061064e5761064e611b3b565b5f91825260209091200155600880548061066a5761066a611b76565b600190038181905f5260205f20015f90559055610694565b8061068c81611b8a565b9150506105e6565b506040516001600160a01b0382169083907f5a5f05ab7e4bb3b61b01fd908fb066ce1608190ad7e66ee978414d88cf0a99a9905f90a35050565b6106d6611370565b6106df5f6113d5565b565b6106e9611370565b5f81116107385760405162461bcd60e51b815260206004820152601d60248201527f416d6f756e74206d7573742062652067726561746572207468616e203000000060448201526064016104c0565b6008545f9067ffffffffffffffff811115610755576107556118dd565b60405190808252806020026020018201604052801561078e57816020015b61077b611781565b8152602001906001900390816107735790505b5090505f5b6008548110156108f8575f60075f600884815481106107b4576107b4611b3b565b5f91825260208083209091015483528281019390935260409182018120546001600160a01b03168082526006909352819020815160c08101909252805492935090918290829061080390611b09565b80601f016020809104026020016040519081016040528092919081815260200182805461082f90611b09565b801561087a5780601f106108515761010080835404028352916020019161087a565b820191905f5260205f20905b81548152906001019060200180831161085d57829003601f168201915b505050918352505060018201546020820152600282015460ff81161515604083015261010090046001600160a01b031660608201526003820154608082015260049091015460a09091015283518490849081106108d9576108d9611b3b565b60200260200101819052505080806108f090611b8a565b915050610793565b505f5b8151811015610a21575f5b60018284516109159190611b63565b61091f9190611b63565b811015610a0e5782610932826001611ba2565b8151811061094257610942611b3b565b60200260200101516080015183828151811061096057610960611b3b565b60200260200101516080015111156109fc575f83828151811061098557610985611b3b565b602002602001015190508382600161099d9190611ba2565b815181106109ad576109ad611b3b565b60200260200101518483815181106109c7576109c7611b3b565b602090810291909101015280846109df846001611ba2565b815181106109ef576109ef611b3b565b6020026020010181905250505b80610a0681611b8a565b915050610906565b5080610a1981611b8a565b9150506108fb565b50815f5b825181108015610a3457505f82115b15610b6b575f838281518110610a4c57610a4c611b3b565b602090810291909101810151606001516001600160a01b0381165f90815260069092526040909120600401549091508015610b56575f818510610a8f5781610a91565b845b9050610a9d838261139d565b826001600160a01b03167f3f2c9d57c068687834f0de942a9babb9e5acab57d516d3480a3c16ee165a427382604051610ad891815260200190565b60405180910390a2610aea8183611b63565b6001600160a01b0384165f81815260066020526040908190206004018390555190917ffb5104a07ea4560fca781f752fb0497240a2bb82d5557e8a0340b2e2dfcd3e1891610b4091858252602082015260400190565b60405180910390a2610b528186611b63565b9450505b50508080610b6390611b8a565b915050610a25565b50505050565b60606004805461037a90611b09565b610b88611370565b610b928282611426565b816001600160a01b03167ffd38818f5291bf0bb3a2a48aadc06ba8757865d1dabd804585338aab3009dcb68260405161050e91815260200190565b610bd5611370565b5f838152600760205260409020546001600160a01b03168015610cef576001600160a01b0381165f90815260066020526040812090610c14828261174a565b505f600182018190556002820180546001600160a81b03191690556003820181905560049091018190555b600854811015610ced578460088281548110610c5d57610c5d611b3b565b905f5260205f20015403610cdb5760088054610c7b90600190611b63565b81548110610c8b57610c8b611b3b565b905f5260205f20015460088281548110610ca757610ca7611b3b565b5f918252602090912001556008805480610cc357610cc3611b76565b600190038181905f5260205f20015f90559055610ced565b80610ce581611b8a565b915050610c3f565b505b6040805160c08101825286815260208082018790526001828401526001600160a01b038916606083018190526080830187905260a083018690525f90815260069091529190912081518190610d449082611c02565b5060208281015160018381019190915560408085015160028501805460608801516001600160a81b0319909116921515610100600160a81b031916929092176101006001600160a01b03938416021790556080860151600386015560a0909501516004909401939093555f888152600790925282822080546001600160a01b031916948b1694851790556008805491820181559091527ff3f7a9fe364faab93b216da50a3214154f22a0a2b415b23a84c8169e8b636ee301869055518591907fac4a9513a5c8018262c0b02f41b831ce95aeefa4b387b7c565885fb0d0012d8690610e30908990611818565b60405180910390a3505050505050565b60066020525f9081526040902080548190610e5a90611b09565b80601f0160208091040260200160405190810160405280929190818152602001828054610e8690611b09565b8015610ed15780601f10610ea857610100808354040283529160200191610ed1565b820191905f5260205f20905b815481529060010190602001808311610eb457829003601f168201915b505050506001830154600284015460038501546004909501549394919360ff821693506101009091046001600160a01b0316919086565b5f33610408818585611313565b610f1d611781565b5f828152600760205260409020546001600160a01b031680610f775750506040805160e0810182525f60c08201818152825260208201819052918101829052606081018290526080810182905260a0810191909152919050565b6001600160a01b0381165f9081526006602052604090819020815160c08101909252805482908290610fa890611b09565b80601f0160208091040260200160405190810160405280929190818152602001828054610fd490611b09565b801561101f5780601f10610ff65761010080835404028352916020019161101f565b820191905f5260205f20905b81548152906001019060200180831161100257829003601f168201915b505050918352505060018201546020820152600282015460ff81161515604083015261010090046001600160a01b031660608201526003820154608082015260049091015460a0909101529392505050565b6008546060905f9067ffffffffffffffff811115611091576110916118dd565b6040519080825280602002602001820160405280156110ca57816020015b6110b7611781565b8152602001906001900390816110af5790505b5090505f5b6008548110156112485760065f60075f600885815481106110f2576110f2611b3b565b905f5260205f20015481526020019081526020015f205f9054906101000a90046001600160a01b03166001600160a01b03166001600160a01b031681526020019081526020015f206040518060c00160405290815f8201805461115490611b09565b80601f016020809104026020016040519081016040528092919081815260200182805461118090611b09565b80156111cb5780601f106111a2576101008083540402835291602001916111cb565b820191905f5260205f20905b8154815290600101906020018083116111ae57829003601f168201915b505050918352505060018201546020820152600282015460ff81161515604083015261010090046001600160a01b031660608201526003820154608082015260049091015460a090910152825183908390811061122a5761122a611b3b565b6020026020010181905250808061124090611b8a565b9150506110cf565b50919050565b611256611370565b6001600160a01b03811661127f57604051631e4fbdf760e01b81525f60048201526024016104c0565b611288816113d5565b50565b611298838383600161145a565b505050565b6001600160a01b038381165f908152600160209081526040808320938616835292905220545f19811015610b6b578181101561130557604051637dc7a0d960e11b81526001600160a01b038416600482015260248101829052604481018390526064016104c0565b610b6b84848484035f61145a565b6001600160a01b03831661133c57604051634b637e8f60e11b81525f60048201526024016104c0565b6001600160a01b0382166113655760405163ec442f0560e01b81525f60048201526024016104c0565b61129883838361152c565b6005546001600160a01b031633146106df5760405163118cdaa760e01b81523360048201526024016104c0565b6001600160a01b0382166113c65760405163ec442f0560e01b81525f60048201526024016104c0565b6113d15f838361152c565b5050565b600580546001600160a01b038381166001600160a01b0319831681179093556040519116919082907f8be0079c531659141344cd1fd0a4f28419497f9722a3daafe3b4186f6b6457e0905f90a35050565b6001600160a01b03821661144f57604051634b637e8f60e11b81525f60048201526024016104c0565b6113d1825f8361152c565b6001600160a01b0384166114835760405163e602df0560e01b81525f60048201526024016104c0565b6001600160a01b0383166114ac57604051634a1406b160e11b81525f60048201526024016104c0565b6001600160a01b038085165f9081526001602090815260408083209387168352929052208290558015610b6b57826001600160a01b0316846001600160a01b03167f8c5be1e5ebec7d5bd14f71427d1e84f3dd0314c0f7b2291e5b200ac8c7c3b9258460405161151e91815260200190565b60405180910390a350505050565b6001600160a01b0383166115a9576001600160a01b0382165f9081526006602052604090206002015460ff166115a45760405162461bcd60e51b815260206004820152601e60248201527f4d696e7420726563697069656e74206e6f742077686974656c6973746564000060448201526064016104c0565b61161e565b6001600160a01b0382161561161e576001600160a01b0382165f9081526006602052604090206002015460ff1661161e5760405162461bcd60e51b8152602060048201526019602482015278149958da5c1a595b9d081b9bdd081dda1a5d195b1a5cdd1959603a1b60448201526064016104c0565b6112988383836001600160a01b03831661164e578060025f8282546116439190611ba2565b909155506116be9050565b6001600160a01b0383165f90815260208190526040902054818110156116a05760405163391434e360e21b81526001600160a01b038516600482015260248101829052604481018390526064016104c0565b6001600160a01b0384165f9081526020819052604090209082900390555b6001600160a01b0382166116da576002805482900390556116f8565b6001600160a01b0382165f9081526020819052604090208054820190555b816001600160a01b0316836001600160a01b03167fddf252ad1be2c89b69c2b068fc378daa952ba7f163c4a11628f55a4df523b3ef8360405161173d91815260200190565b60405180910390a3505050565b50805461175690611b09565b5f825580601f10611765575050565b601f0160209004905f5260205f209081019061128891906117bd565b6040518060c00160405280606081526020015f81526020015f151581526020015f6001600160a01b031681526020015f81526020015f81525090565b5b808211156117d1575f81556001016117be565b5090565b5f81518084525f5b818110156117f9576020818501810151868301820152016117dd565b505f602082860101526020601f19601f83011685010191505092915050565b602081525f61182a60208301846117d5565b9392505050565b80356001600160a01b0381168114611847575f80fd5b919050565b5f806040838503121561185d575f80fd5b61186683611831565b946020939093013593505050565b5f60208284031215611884575f80fd5b5035919050565b5f805f6060848603121561189d575f80fd5b6118a684611831565b92506118b460208501611831565b9150604084013590509250925092565b5f602082840312156118d4575f80fd5b61182a82611831565b634e487b7160e01b5f52604160045260245ffd5b5f805f805f60a08688031215611905575f80fd5b61190e86611831565b9450602086013567ffffffffffffffff8082111561192a575f80fd5b818801915088601f83011261193d575f80fd5b81358181111561194f5761194f6118dd565b604051601f8201601f19908116603f01168101908382118183101715611977576119776118dd565b816040528281528b602084870101111561198f575f80fd5b826020860160208301375f928101602001929092525096999698505050506040850135946060810135946080909101359350915050565b60c081525f6119d860c08301896117d5565b60208301979097525093151560408501526001600160a01b03929092166060840152608083015260a090910152919050565b5f815160c08452611a1e60c08501826117d5565b90506020830151602085015260408301511515604085015260018060a01b0360608401511660608501526080830151608085015260a083015160a08501528091505092915050565b602081525f61182a6020830184611a0a565b5f8060408385031215611a89575f80fd5b611a9283611831565b9150611aa060208401611831565b90509250929050565b5f602080830181845280855180835260408601915060408160051b87010192508387015f5b82811015611afc57603f19888603018452611aea858351611a0a565b94509285019290850190600101611ace565b5092979650505050505050565b600181811c90821680611b1d57607f821691505b60208210810361124857634e487b7160e01b5f52602260045260245ffd5b634e487b7160e01b5f52603260045260245ffd5b634e487b7160e01b5f52601160045260245ffd5b8181038181111561040e5761040e611b4f565b634e487b7160e01b5f52603160045260245ffd5b5f60018201611b9b57611b9b611b4f565b5060010190565b8082018082111561040e5761040e611b4f565b601f821115611298575f81815260208120601f850160051c81016020861015611bdb5750805b601f850160051c820191505b81811015611bfa57828155600101611be7565b505050505050565b815167ffffffffffffffff811115611c1c57611c1c6118dd565b611c3081611c2a8454611b09565b84611bb5565b602080601f831160018114611c63575f8415611c4c5750858301515b5f19600386901b1c1916600185901b178555611bfa565b5f85815260208120601f198616915b82811015611c9157888601518255948401946001909101908401611c72565b5085821015611cae57878501515f19600388901b60f8161c191681555b5050505050600190811b0190555056fea264697066735822122048641494f5cd4bb1af0ee7b82727dfba08c05d816be171cfa8d2f10bbbf0133b64736f6c63430008140033","linkReferences":{}},"methodIdentifiers":{"addStudent(address,string,uint256,uint256,uint256)":"a64a998b","allStudentIds(uint256)":"0e808188","allowance(address,address)":"dd62ed3e","approve(address,uint256)":"095ea7b3","balanceOf(address)":"70a08231","burn(address,uint256)":"9dc29fac","decimals()":"313ce567","distribute(uint256)":"91c05b0b","getAllStudents()":"e9e30927","getStudentById(uint256)":"c8fb0793","idToWallet(uint256)":"a6b46bbc","mint(address,uint256)":"40c10f19","name()":"06fdde03","owner()":"8da5cb5b","removeStudent(uint256)":"6af83845","renounceOwnership()":"715018a6","students(address)":"a6c807a9","symbol()":"95d89b41","totalSupply()":"18160ddd","transfer(address,uint256)":"a9059cbb","transferFrom(address,address,uint256)":"23b872dd","transferOwnership(address)":"f2fde38b"},"id":26}