{"abi":[{"type":"receive","stateMutability":"payable"},{"type":"function","name":"allowance","inputs":[{"name":"","type":"address","internalType":"address"},{"name":"","type":"address","internalType":"address"}],"outputs":[{"name":"","type":"uint256","internalType":"uint256"}],"stateMutability":"view"},{"type":"function","name":"approve","inputs":[{"name":"spender","type":"address","internalType":"address"},{"name":"amount","type":"uint256","internalType":"uint256"}],"outputs":[{"name":"","type":"bool","internalType":"bool"}],"stateMutability":"nonpayable"},{"type":"function","name":"balanceOf","inputs":[{"name":"","type":"address","internalType":"address"}],"outputs":[{"name":"","type":"uint256","internalType":"uint256"}],"stateMutability":"view"},{"type":"function","name":"decimals","inputs":[],"outputs":[{"name":"","type":"uint8","internalType":"uint8"}],"stateMutability":"view"},{"type":"function","name":"deposit","inputs":[],"outputs":[],"stateMutability":"payable"},{"type":"function","name":"name","inputs":[],"outputs":[{"name":"","type":"string","internalType":"string"}],"stateMutability":"view"},{"type":"function","name":"symbol","inputs":[],"outputs":[{"name":"","type":"string","internalType":"string"}],"stateMutability":"view"},{"type":"function","name":"transfer","inputs":[{"name":"to","type":"address","internalType":"address"},{"name":"amount","type":"uint256","internalType":"uint256"}],"outputs":[{"name":"","type":"bool","internalType":"bool"}],"stateMutability":"nonpayable"},{"type":"function","name":"transferFrom","inputs":[{"name":"from","type":"address","internalType":"address"},{"name":"to","type":"address","internalType":"address"},{"name":"amount","type":"uint256","internalType":"uint256"}],"outputs":[{"name":"","type":"bool","internalType":"bool"}],"stateMutability":"nonpayable"},{"type":"function","name":"withdraw","inputs":[{"name":"amount","type":"uint256","internalType":"uint256"}],"outputs":[],"stateMutability":"nonpayable"},{"type":"event","name":"Approval","inputs":[{"name":"owner","type":"address","indexed":true,"internalType":"address"},{"name":"spender","type":"address","indexed":true,"internalType":"address"},{"name":"value","type":"uint256","indexed":false,"internalType":"uint256"}],"anonymous":false},{"type":"event","name":"Deposit","inputs":[{"name":"account","type":"address","indexed":true,"internalType":"address"},{"name":"amount","type":"uint256","indexed":false,"internalType":"uint256"}],"anonymous":false},{"type":"event","name":"Transfer","inputs":[{"name":"from","type":"address","indexed":true,"internalType":"address"},{"name":"to","type":"address","indexed":true,"internalType":"address"},{"name":"value","type":"uint256","indexed":false,"internalType":"uint256"}],"anonymous":false},{"type":"event","name":"Withdrawal","inputs":[{"name":"account","type":"address","indexed":true,"internalType":"address"},{"name":"amount","type":"uint256","indexed":false,"internalType":"uint256"}],"anonymous":false}],"bytecode":{"object":"0x60c0604052600d60809081526c2bb930b83832b21022ba3432b960991b60a0525f9061002b908261010b565b506040805180820190915260048152630ae8aa8960e31b6020820152600190610054908261010b565b506002805460ff1916601217905534801561006d575f80fd5b506101ca565b634e487b7160e01b5f52604160045260245ffd5b600181811c9082168061009b57607f821691505b6020821081036100b957634e487b7160e01b5f52602260045260245ffd5b50919050565b601f82111561010657805f5260205f20601f840160051c810160208510156100e45750805b601f840160051c820191505b81811015610103575f81556001016100f0565b50505b505050565b81516001600160401b0381111561012457610124610073565b610138816101328454610087565b846100bf565b602080601f83116001811461016b575f84156101545750858301515b5f19600386901b1c1916600185901b1785556101c2565b5f85815260208120601f198616915b828110156101995788860151825594840194600190910190840161017a565b50858210156101b657878501515f19600388901b60f8161c191681555b505060018460011b0185555b505050505050565b610870806101d75f395ff3fe608060405260043610610092575f3560e01c806370a082311161005757806370a082311461016757806395d89b41146101a0578063a9059cbb146101b4578063d0e30db0146101d3578063dd62ed3e146101db575f80fd5b806306fdde03146100a5578063095ea7b3146100cf57806323b872dd146100fe5780632e1a7d4d1461011d578063313ce5671461013c575f80fd5b366100a15761009f610211565b005b5f80fd5b3480156100b0575f80fd5b506100b96102a2565b6040516100c69190610698565b60405180910390f35b3480156100da575f80fd5b506100ee6100e93660046106ff565b61032d565b60405190151581526020016100c6565b348015610109575f80fd5b506100ee610118366004610727565b610399565b348015610128575f80fd5b5061009f610137366004610760565b610451565b348015610147575f80fd5b506002546101559060ff1681565b60405160ff90911681526020016100c6565b348015610172575f80fd5b50610192610181366004610777565b60036020525f908152604090205481565b6040519081526020016100c6565b3480156101ab575f80fd5b506100b961056c565b3480156101bf575f80fd5b506100ee6101ce3660046106ff565b610579565b61009f610211565b3480156101e6575f80fd5b506101926101f5366004610797565b600460209081525f928352604080842090915290825290205481565b335f908152600360205260408120805434929061022f9084906107dc565b909155505060405134815233907fe1fffcc4923d04b559f4d29a8bfc6cda04eb5b0d3c460751c2402c5c5cc9109c9060200160405180910390a260405134815233905f907fddf252ad1be2c89b69c2b068fc378daa952ba7f163c4a11628f55a4df523b3ef9060200160405180910390a3565b5f80546102ae906107ef565b80601f01602080910402602001604051908101604052809291908181526020018280546102da906107ef565b80156103255780601f106102fc57610100808354040283529160200191610325565b820191905f5260205f20905b81548152906001019060200180831161030857829003601f168201915b505050505081565b335f8181526004602090815260408083206001600160a01b038716808552925280832085905551919290917f8c5be1e5ebec7d5bd14f71427d1e84f3dd0314c0f7b2291e5b200ac8c7c3b925906103879086815260200190565b60405180910390a35060015b92915050565b6001600160a01b0383165f908152600460209081526040808320338452909152812054828110156104055760405162461bcd60e51b8152602060048201526011602482015270416c6c6f77616e636520746f6f206c6f7760781b60448201526064015b60405180910390fd5b5f19811461043b576104178382610827565b6001600160a01b0386165f9081526004602090815260408083203384529091529020555b61044685858561058e565b506001949350505050565b335f908152600360205260409020548111156104af5760405162461bcd60e51b815260206004820152601960248201527f496e73756666696369656e7420574554482062616c616e63650000000000000060448201526064016103fc565b335f90815260036020526040812080548392906104cd908490610827565b9091555050604051339082156108fc029083905f818181858888f193505050501580156104fc573d5f803e3d5ffd5b5060405181815233907f7fcf532c15f0a6db0bd6d0e038bea71d30d808c7d98cb3bf7268a95bf5081b659060200160405180910390a26040518181525f9033907fddf252ad1be2c89b69c2b068fc378daa952ba7f163c4a11628f55a4df523b3ef9060200160405180910390a350565b600180546102ae906107ef565b5f61058533848461058e565b50600192915050565b6001600160a01b0383165f908152600360205260409020548111156105ec5760405162461bcd60e51b8152602060048201526014602482015273496e73756666696369656e742062616c616e636560601b60448201526064016103fc565b6001600160a01b0383165f9081526003602052604081208054839290610613908490610827565b90915550506001600160a01b0382165f908152600360205260408120805483929061063f9084906107dc565b92505081905550816001600160a01b0316836001600160a01b03167fddf252ad1be2c89b69c2b068fc378daa952ba7f163c4a11628f55a4df523b3ef8360405161068b91815260200190565b60405180910390a3505050565b5f602080835283518060208501525f5b818110156106c4578581018301518582016040015282016106a8565b505f604082860101526040601f19601f8301168501019250505092915050565b80356001600160a01b03811681146106fa575f80fd5b919050565b5f8060408385031215610710575f80fd5b610719836106e4565b946020939093013593505050565b5f805f60608486031215610739575f80fd5b610742846106e4565b9250610750602085016106e4565b9150604084013590509250925092565b5f60208284031215610770575f80fd5b5035919050565b5f60208284031215610787575f80fd5b610790826106e4565b9392505050565b5f80604083850312156107a8575f80fd5b6107b1836106e4565b91506107bf602084016106e4565b90509250929050565b634e487b7160e01b5f52601160045260245ffd5b80820180821115610393576103936107c8565b600181811c9082168061080357607f821691505b60208210810361082157634e487b7160e01b5f52602260045260245ffd5b50919050565b81810381811115610393576103936107c856fea2646970667358221220f9cf4def9c3961f4ee6dde376e930e821113d6ed40555ae127132a734756a58564736f6c63430008180033","linkReferences":{}},"methodIdentifiers":{"allowance(address,address)":"dd62ed3e","approve(address,uint256)":"095ea7b3","balanceOf(address)":"70a08231","decimals()":"313ce567","deposit()":"d0e30db0","name()":"06fdde03","symbol()":"95d89b41","transfer(address,uint256)":"a9059cbb","transferFrom(address,address,uint256)":"23b872dd","withdraw(uint256)":"2e1a7d4d"},"id":43}